{
  "_format": "hh-sol-artifact-1",
  "contractName": "GameController",
  "sourceName": "contracts/GameController.sol",
  "abi": [
    {
      "anonymous": false,
      "inputs": [
        {
          "indexed": false,
          "internalType": "address",
          "name": "previousAdmin",
          "type": "address"
        },
        {
          "indexed": false,
          "internalType": "address",
          "name": "newAdmin",
          "type": "address"
        }
      ],
      "name": "AdminChanged",
      "type": "event"
    },
    {
      "anonymous": false,
      "inputs": [
        {
          "indexed": true,
          "internalType": "address",
          "name": "beacon",
          "type": "address"
        }
      ],
      "name": "BeaconUpgraded",
      "type": "event"
    },
    {
      "anonymous": false,
      "inputs": [
        {
          "indexed": false,
          "internalType": "uint256",
          "name": "gameid",
          "type": "uint256"
        },
        {
          "indexed": false,
          "internalType": "address[]",
          "name": "players",
          "type": "address[]"
        },
        {
          "indexed": false,
          "internalType": "bool",
          "name": "isActive",
          "type": "bool"
        }
      ],
      "name": "GameStarted",
      "type": "event"
    },
    {
      "anonymous": false,
      "inputs": [
        {
          "indexed": true,
          "internalType": "address",
          "name": "previousOwner",
          "type": "address"
        },
        {
          "indexed": true,
          "internalType": "address",
          "name": "newOwner",
          "type": "address"
        }
      ],
      "name": "OwnershipTransferred",
      "type": "event"
    },
    {
      "anonymous": false,
      "inputs": [
        {
          "indexed": false,
          "internalType": "address",
          "name": "gameMaster",
          "type": "address"
        },
        {
          "indexed": false,
          "internalType": "address",
          "name": "player",
          "type": "address"
        },
        {
          "indexed": false,
          "internalType": "uint256",
          "name": "rank",
          "type": "uint256"
        },
        {
          "indexed": false,
          "internalType": "uint256",
          "name": "token",
          "type": "uint256"
        },
        {
          "indexed": false,
          "internalType": "uint256",
          "name": "point",
          "type": "uint256"
        },
        {
          "indexed": false,
          "internalType": "uint256",
          "name": "time",
          "type": "uint256"
        }
      ],
      "name": "PvERewarded",
      "type": "event"
    },
    {
      "anonymous": false,
      "inputs": [
        {
          "indexed": false,
          "internalType": "address",
          "name": "gameMaster",
          "type": "address"
        },
        {
          "indexed": false,
          "internalType": "address",
          "name": "player",
          "type": "address"
        },
        {
          "indexed": false,
          "internalType": "uint256",
          "name": "rank",
          "type": "uint256"
        },
        {
          "indexed": false,
          "internalType": "uint256",
          "name": "token",
          "type": "uint256"
        },
        {
          "indexed": false,
          "internalType": "uint256",
          "name": "point",
          "type": "uint256"
        },
        {
          "indexed": false,
          "internalType": "uint256",
          "name": "time",
          "type": "uint256"
        }
      ],
      "name": "PvPRewarded",
      "type": "event"
    },
    {
      "anonymous": false,
      "inputs": [
        {
          "indexed": false,
          "internalType": "address",
          "name": "player",
          "type": "address"
        },
        {
          "indexed": false,
          "internalType": "uint256",
          "name": "boughtQuantity",
          "type": "uint256"
        },
        {
          "indexed": false,
          "internalType": "uint256",
          "name": "price",
          "type": "uint256"
        }
      ],
      "name": "TicketBought",
      "type": "event"
    },
    {
      "anonymous": false,
      "inputs": [
        {
          "indexed": true,
          "internalType": "address",
          "name": "implementation",
          "type": "address"
        }
      ],
      "name": "Upgraded",
      "type": "event"
    },
    {
      "inputs": [
        {
          "internalType": "uint256",
          "name": "numTicket",
          "type": "uint256"
        }
      ],
      "name": "buyTicket",
      "outputs": [],
      "stateMutability": "nonpayable",
      "type": "function"
    },
    {
      "inputs": [],
      "name": "gameId",
      "outputs": [
        {
          "internalType": "uint256",
          "name": "_value",
          "type": "uint256"
        }
      ],
      "stateMutability": "view",
      "type": "function"
    },
    {
      "inputs": [],
      "name": "gameMaster",
      "outputs": [
        {
          "internalType": "address",
          "name": "",
          "type": "address"
        }
      ],
      "stateMutability": "view",
      "type": "function"
    },
    {
      "inputs": [
        {
          "internalType": "uint256",
          "name": "",
          "type": "uint256"
        }
      ],
      "name": "games",
      "outputs": [
        {
          "internalType": "uint256",
          "name": "id",
          "type": "uint256"
        },
        {
          "internalType": "bool",
          "name": "isActive",
          "type": "bool"
        }
      ],
      "stateMutability": "view",
      "type": "function"
    },
    {
      "inputs": [
        {
          "internalType": "address[]",
          "name": "addresses",
          "type": "address[]"
        }
      ],
      "name": "getGame",
      "outputs": [
        {
          "internalType": "bool[]",
          "name": "",
          "type": "bool[]"
        }
      ],
      "stateMutability": "view",
      "type": "function"
    },
    {
      "inputs": [
        {
          "internalType": "address",
          "name": "player",
          "type": "address"
        }
      ],
      "name": "getGameItems",
      "outputs": [
        {
          "components": [
            {
              "internalType": "uint256",
              "name": "tokenId",
              "type": "uint256"
            },
            {
              "internalType": "uint256",
              "name": "itemId",
              "type": "uint256"
            },
            {
              "internalType": "uint256",
              "name": "star",
              "type": "uint256"
            }
          ],
          "internalType": "struct GameController.ItemInfo[]",
          "name": "",
          "type": "tuple[]"
        }
      ],
      "stateMutability": "view",
      "type": "function"
    },
    {
      "inputs": [],
      "name": "hostingFeeX10",
      "outputs": [
        {
          "internalType": "uint256",
          "name": "",
          "type": "uint256"
        }
      ],
      "stateMutability": "view",
      "type": "function"
    },
    {
      "inputs": [],
      "name": "howl",
      "outputs": [
        {
          "internalType": "address",
          "name": "",
          "type": "address"
        }
      ],
      "stateMutability": "view",
      "type": "function"
    },
    {
      "inputs": [
        {
          "internalType": "address",
          "name": "erc20",
          "type": "address"
        },
        {
          "internalType": "address",
          "name": "erc721",
          "type": "address"
        }
      ],
      "name": "initialize",
      "outputs": [],
      "stateMutability": "nonpayable",
      "type": "function"
    },
    {
      "inputs": [],
      "name": "nft",
      "outputs": [
        {
          "internalType": "address",
          "name": "",
          "type": "address"
        }
      ],
      "stateMutability": "view",
      "type": "function"
    },
    {
      "inputs": [],
      "name": "owner",
      "outputs": [
        {
          "internalType": "address",
          "name": "",
          "type": "address"
        }
      ],
      "stateMutability": "view",
      "type": "function"
    },
    {
      "inputs": [
        {
          "internalType": "address",
          "name": "",
          "type": "address"
        }
      ],
      "name": "playerToGameId",
      "outputs": [
        {
          "internalType": "uint256",
          "name": "",
          "type": "uint256"
        }
      ],
      "stateMutability": "view",
      "type": "function"
    },
    {
      "inputs": [
        {
          "internalType": "address",
          "name": "",
          "type": "address"
        }
      ],
      "name": "players",
      "outputs": [
        {
          "internalType": "string",
          "name": "name",
          "type": "string"
        },
        {
          "internalType": "uint256",
          "name": "ticket",
          "type": "uint256"
        },
        {
          "internalType": "uint256",
          "name": "point",
          "type": "uint256"
        }
      ],
      "stateMutability": "view",
      "type": "function"
    },
    {
      "inputs": [
        {
          "internalType": "uint256",
          "name": "",
          "type": "uint256"
        },
        {
          "internalType": "uint256",
          "name": "",
          "type": "uint256"
        }
      ],
      "name": "points",
      "outputs": [
        {
          "internalType": "uint256",
          "name": "",
          "type": "uint256"
        }
      ],
      "stateMutability": "view",
      "type": "function"
    },
    {
      "inputs": [
        {
          "internalType": "uint256",
          "name": "",
          "type": "uint256"
        },
        {
          "internalType": "uint256",
          "name": "",
          "type": "uint256"
        }
      ],
      "name": "prizePercentX10",
      "outputs": [
        {
          "internalType": "uint256",
          "name": "",
          "type": "uint256"
        }
      ],
      "stateMutability": "view",
      "type": "function"
    },
    {
      "inputs": [
        {
          "internalType": "uint256",
          "name": "",
          "type": "uint256"
        }
      ],
      "name": "pvepoints",
      "outputs": [
        {
          "internalType": "uint256",
          "name": "",
          "type": "uint256"
        }
      ],
      "stateMutability": "view",
      "type": "function"
    },
    {
      "inputs": [
        {
          "internalType": "uint256",
          "name": "",
          "type": "uint256"
        }
      ],
      "name": "pveprizes",
      "outputs": [
        {
          "internalType": "uint256",
          "name": "",
          "type": "uint256"
        }
      ],
      "stateMutability": "view",
      "type": "function"
    },
    {
      "inputs": [],
      "name": "renounceOwnership",
      "outputs": [],
      "stateMutability": "nonpayable",
      "type": "function"
    },
    {
      "inputs": [
        {
          "internalType": "address",
          "name": "player",
          "type": "address"
        },
        {
          "internalType": "uint256",
          "name": "rank",
          "type": "uint256"
        }
      ],
      "name": "rewardPvE",
      "outputs": [],
      "stateMutability": "nonpayable",
      "type": "function"
    },
    {
      "inputs": [
        {
          "internalType": "address[]",
          "name": "addresses",
          "type": "address[]"
        }
      ],
      "name": "rewardPvP",
      "outputs": [],
      "stateMutability": "nonpayable",
      "type": "function"
    },
    {
      "inputs": [
        {
          "internalType": "address",
          "name": "newGameMaster",
          "type": "address"
        }
      ],
      "name": "setGameMaster",
      "outputs": [],
      "stateMutability": "nonpayable",
      "type": "function"
    },
    {
      "inputs": [
        {
          "internalType": "string",
          "name": "newPlayerName",
          "type": "string"
        }
      ],
      "name": "setPlayerName",
      "outputs": [],
      "stateMutability": "nonpayable",
      "type": "function"
    },
    {
      "inputs": [
        {
          "internalType": "uint256",
          "name": "room",
          "type": "uint256"
        },
        {
          "internalType": "uint256[]",
          "name": "point",
          "type": "uint256[]"
        }
      ],
      "name": "setPoint",
      "outputs": [],
      "stateMutability": "nonpayable",
      "type": "function"
    },
    {
      "inputs": [
        {
          "internalType": "uint256",
          "name": "room",
          "type": "uint256"
        },
        {
          "internalType": "uint256[]",
          "name": "percentX10",
          "type": "uint256[]"
        }
      ],
      "name": "setPrizePercent",
      "outputs": [],
      "stateMutability": "nonpayable",
      "type": "function"
    },
    {
      "inputs": [
        {
          "internalType": "uint256[]",
          "name": "point",
          "type": "uint256[]"
        }
      ],
      "name": "setPvEPoint",
      "outputs": [],
      "stateMutability": "nonpayable",
      "type": "function"
    },
    {
      "inputs": [
        {
          "internalType": "uint256[]",
          "name": "prizes",
          "type": "uint256[]"
        }
      ],
      "name": "setPvEPrizes",
      "outputs": [],
      "stateMutability": "nonpayable",
      "type": "function"
    },
    {
      "inputs": [
        {
          "internalType": "uint256",
          "name": "newTicketPrice",
          "type": "uint256"
        }
      ],
      "name": "setTicketPrice",
      "outputs": [],
      "stateMutability": "nonpayable",
      "type": "function"
    },
    {
      "inputs": [
        {
          "internalType": "address[]",
          "name": "addresses",
          "type": "address[]"
        }
      ],
      "name": "startGame",
      "outputs": [],
      "stateMutability": "nonpayable",
      "type": "function"
    },
    {
      "inputs": [],
      "name": "ticketPrice",
      "outputs": [
        {
          "internalType": "uint256",
          "name": "",
          "type": "uint256"
        }
      ],
      "stateMutability": "view",
      "type": "function"
    },
    {
      "inputs": [
        {
          "internalType": "address",
          "name": "newOwner",
          "type": "address"
        }
      ],
      "name": "transferOwnership",
      "outputs": [],
      "stateMutability": "nonpayable",
      "type": "function"
    },
    {
      "inputs": [
        {
          "internalType": "address",
          "name": "newImplementation",
          "type": "address"
        }
      ],
      "name": "upgradeTo",
      "outputs": [],
      "stateMutability": "nonpayable",
      "type": "function"
    },
    {
      "inputs": [
        {
          "internalType": "address",
          "name": "newImplementation",
          "type": "address"
        },
        {
          "internalType": "bytes",
          "name": "data",
          "type": "bytes"
        }
      ],
      "name": "upgradeToAndCall",
      "outputs": [],
      "stateMutability": "payable",
      "type": "function"
    }
  ],
  "bytecode": "0x60a06040523073ffffffffffffffffffffffffffffffffffffffff1660809073ffffffffffffffffffffffffffffffffffffffff1660601b81525034801561004657600080fd5b5060805160601c61502561007a60003960008181610b9f01528181610c2e0152818161172f01526117be01526150256000f3fe6080604052600436106101e35760003560e01c8063747821f011610102578063d817736911610095578063e3cdda3911610064578063e3cdda39146106f4578063f2fde38b14610731578063f4883ca81461075a578063fbd84cd614610785576101e3565b8063d81773691461063a578063d98255db14610663578063e04392a41461068c578063e2eb41ff146106b5576101e3565b8063bdf84ae7116100d1578063bdf84ae714610592578063c2e94927146105bd578063c9e71b92146105e6578063d7c81b551461060f576101e3565b8063747821f0146104d85780638da5cb5b1461050157806390c94e5d1461052c578063925dee3814610555576101e3565b806347ccca021161017a57806367dd74ca1161014957806367dd74ca146104305780636803c78d146104595780636b3cd1da14610484578063715018a6146104c1576101e3565b806347ccca0214610397578063482f5d82146103c2578063485cc955146103eb5780634f1ef28614610414576101e3565b80631209b1f6116101b65780631209b1f6146102dd57806315981650146103085780633659cfe6146103315780633d6447ea1461035a576101e3565b8063038c2026146101e85780630a875b67146102255780630bc2547014610262578063117a5b901461029f575b600080fd5b3480156101f457600080fd5b5061020f600480360381019061020a9190613b92565b6107ae565b60405161021c9190614672565b60405180910390f35b34801561023157600080fd5b5061024c60048036038101906102479190613c87565b6107c6565b60405161025991906143ce565b60405180910390f35b34801561026e57600080fd5b5061028960048036038101906102849190613d73565b610a79565b6040516102969190614672565b60405180910390f35b3480156102ab57600080fd5b506102c660048036038101906102c19190613d73565b610a9d565b6040516102d492919061468d565b60405180910390f35b3480156102e957600080fd5b506102f2610ace565b6040516102ff9190614672565b60405180910390f35b34801561031457600080fd5b5061032f600480360381019061032a9190613d73565b610ad4565b005b34801561033d57600080fd5b5061035860048036038101906103539190613b92565b610b9d565b005b34801561036657600080fd5b50610381600480360381019061037c9190613b92565b610d4c565b60405161038e91906143f0565b60405180910390f35b3480156103a357600080fd5b506103ac611068565b6040516103b991906142bb565b60405180910390f35b3480156103ce57600080fd5b506103e960048036038101906103e49190613cc8565b61108e565b005b3480156103f757600080fd5b50610412600480360381019061040d9190613bbb565b611124565b005b61042e60048036038101906104299190613bf7565b61172d565b005b34801561043c57600080fd5b5061045760048036038101906104529190613d73565b61186a565b005b34801561046557600080fd5b5061046e611a6f565b60405161047b91906142bb565b60405180910390f35b34801561049057600080fd5b506104ab60048036038101906104a69190613d73565b611a95565b6040516104b89190614672565b60405180910390f35b3480156104cd57600080fd5b506104d6611ab9565b005b3480156104e457600080fd5b506104ff60048036038101906104fa9190613c87565b611b41565b005b34801561050d57600080fd5b50610516611ce3565b60405161052391906142bb565b60405180910390f35b34801561053857600080fd5b50610553600480360381019061054e9190613dc5565b611d0d565b005b34801561056157600080fd5b5061057c60048036038101906105779190613e19565b611db5565b6040516105899190614672565b60405180910390f35b34801561059e57600080fd5b506105a7611de6565b6040516105b491906142bb565b60405180910390f35b3480156105c957600080fd5b506105e460048036038101906105df9190613b92565b611e0c565b005b3480156105f257600080fd5b5061060d60048036038101906106089190613c4b565b611ecc565b005b34801561061b57600080fd5b50610624612061565b6040516106319190614672565b60405180910390f35b34801561064657600080fd5b50610661600480360381019061065c9190613d32565b61206d565b005b34801561066f57600080fd5b5061068a60048036038101906106859190613dc5565b6120c7565b005b34801561069857600080fd5b506106b360048036038101906106ae9190613cc8565b61216f565b005b3480156106c157600080fd5b506106dc60048036038101906106d79190613b92565b612205565b6040516106eb93929190614434565b60405180910390f35b34801561070057600080fd5b5061071b60048036038101906107169190613e19565b6122b7565b6040516107289190614672565b60405180910390f35b34801561073d57600080fd5b5061075860048036038101906107539190613b92565b6122e8565b005b34801561076657600080fd5b5061076f6123e0565b60405161077c9190614672565b60405180910390f35b34801561079157600080fd5b506107ac60048036038101906107a79190613c87565b6123e6565b005b60d36020528060005260406000206000915090505481565b60606000600c67ffffffffffffffff81111561080b577f4e487b7100000000000000000000000000000000000000000000000000000000600052604160045260246000fd5b6040519080825280602002602001820160405280156108395781602001602082028036833780820191505090505b5090506000805b84518110156109555760d5600060018152602001908152602001600020600301600086838151811061089b577f4e487b7100000000000000000000000000000000000000000000000000000000600052603260045260246000fd5b602002602001015173ffffffffffffffffffffffffffffffffffffffff1673ffffffffffffffffffffffffffffffffffffffff16815260200190815260200160002060009054906101000a900460ff168383806108f790614a3b565b945081518110610930577f4e487b7100000000000000000000000000000000000000000000000000000000600052603260045260246000fd5b602002602001019015159081151581525050808061094d90614a3b565b915050610840565b5060005b8451811015610a6e5760d560006002815260200190815260200160002060030160008683815181106109b4577f4e487b7100000000000000000000000000000000000000000000000000000000600052603260045260246000fd5b602002602001015173ffffffffffffffffffffffffffffffffffffffff1673ffffffffffffffffffffffffffffffffffffffff16815260200190815260200160002060009054906101000a900460ff16838380610a1090614a3b565b945081518110610a49577f4e487b7100000000000000000000000000000000000000000000000000000000600052603260045260246000fd5b6020026020010190151590811515815250508080610a6690614a3b565b915050610959565b508192505050919050565b60d08181548110610a8957600080fd5b906000526020600020016000915090505481565b60d56020528060005260406000206000915090508060000154908060020160009054906101000a900460ff16905082565b60cd5481565b610adc612730565b73ffffffffffffffffffffffffffffffffffffffff16610afa611ce3565b73ffffffffffffffffffffffffffffffffffffffff1614610b50576040517f08c379a0000000000000000000000000000000000000000000000000000000008152600401610b47906145d2565b60405180910390fd5b60008111610b93576040517f08c379a0000000000000000000000000000000000000000000000000000000008152600401610b8a90614612565b60405180910390fd5b8060cd8190555050565b7f000000000000000000000000000000000000000000000000000000000000000073ffffffffffffffffffffffffffffffffffffffff163073ffffffffffffffffffffffffffffffffffffffff161415610c2c576040517f08c379a0000000000000000000000000000000000000000000000000000000008152600401610c23906144b2565b60405180910390fd5b7f000000000000000000000000000000000000000000000000000000000000000073ffffffffffffffffffffffffffffffffffffffff16610c6b612738565b73ffffffffffffffffffffffffffffffffffffffff1614610cc1576040517f08c379a0000000000000000000000000000000000000000000000000000000008152600401610cb890614512565b60405180910390fd5b610cca8161278f565b610d4981600067ffffffffffffffff811115610d0f577f4e487b7100000000000000000000000000000000000000000000000000000000600052604160045260246000fd5b6040519080825280601f01601f191660200182016040528015610d415781602001600182028036833780820191505090505b50600061280e565b50565b6060600060cb60009054906101000a900473ffffffffffffffffffffffffffffffffffffffff1673ffffffffffffffffffffffffffffffffffffffff166370a08231846040518263ffffffff1660e01b8152600401610dab91906142bb565b60206040518083038186803b158015610dc357600080fd5b505afa158015610dd7573d6000803e3d6000fd5b505050506040513d601f19601f82011682018060405250810190610dfb9190613d9c565b905060008167ffffffffffffffff811115610e3f577f4e487b7100000000000000000000000000000000000000000000000000000000600052604160045260246000fd5b604051908082528060200260200182016040528015610e7857816020015b610e656135b6565b815260200190600190039081610e5d5790505b50905060005b8281101561105d57600060cb60009054906101000a900473ffffffffffffffffffffffffffffffffffffffff1673ffffffffffffffffffffffffffffffffffffffff16632f745c5987846040518363ffffffff1660e01b8152600401610ee592919061436e565b60206040518083038186803b158015610efd57600080fd5b505afa158015610f11573d6000803e3d6000fd5b505050506040513d601f19601f82011682018060405250810190610f359190613d9c565b905060008060cb60009054906101000a900473ffffffffffffffffffffffffffffffffffffffff1673ffffffffffffffffffffffffffffffffffffffff166394f13f4a846040518263ffffffff1660e01b8152600401610f959190614672565b604080518083038186803b158015610fac57600080fd5b505afa158015610fc0573d6000803e3d6000fd5b505050506040513d601f19601f82011682018060405250810190610fe49190613e55565b9150915060405180606001604052808481526020018381526020018281525085858151811061103c577f4e487b7100000000000000000000000000000000000000000000000000000000600052603260045260246000fd5b6020026020010181905250505050808061105590614a3b565b915050610e7e565b508092505050919050565b60cb60009054906101000a900473ffffffffffffffffffffffffffffffffffffffff1681565b611096612730565b73ffffffffffffffffffffffffffffffffffffffff166110b4611ce3565b73ffffffffffffffffffffffffffffffffffffffff161461110a576040517f08c379a0000000000000000000000000000000000000000000000000000000008152600401611101906145d2565b60405180910390fd5b8060cf90805190602001906111209291906135d7565b5050565b600060019054906101000a900460ff168061114a575060008054906101000a900460ff16155b611189576040517f08c379a000000000000000000000000000000000000000000000000000000000815260040161118090614592565b60405180910390fd5b60008060019054906101000a900460ff1615905080156111d9576001600060016101000a81548160ff02191690831515021790555060016000806101000a81548160ff0219169083151502179055505b6111e16129df565b8260ca60006101000a81548173ffffffffffffffffffffffffffffffffffffffff021916908373ffffffffffffffffffffffffffffffffffffffff1602179055508160cb60006101000a81548173ffffffffffffffffffffffffffffffffffffffff021916908373ffffffffffffffffffffffffffffffffffffffff1602179055503360cc60006101000a81548173ffffffffffffffffffffffffffffffffffffffff021916908373ffffffffffffffffffffffffffffffffffffffff1602179055506112c0670de0b6b3a7640000600a612ac890919063ffffffff16565b60cd81905550603260ce8190555060405180604001604052806103b661ffff168152602001600061ffff1681525060d1600060028152602001908152602001600020906002611310929190613624565b5060405180606001604052806101c261ffff16815260200161012c61ffff16815260200160c861ffff1681525060d160006003815260200190815260200160002090600361135f929190613677565b5060405180608001604052806101c261ffff16815260200161012c61ffff16815260200160c861ffff168152602001600061ffff1681525060d16000600481526020019081526020016000209060046113b99291906136ca565b506040518060a001604052806101c261ffff16815260200161012c61ffff16815260200160c861ffff168152602001600061ffff168152602001600061ffff1681525060d160006005815260200190815260200160002090600561141e92919061371d565b506040518060c001604052806101c261ffff16815260200161012c61ffff16815260200160c861ffff168152602001600061ffff168152602001600061ffff168152602001600061ffff1681525060d160006006815260200190815260200160002090600661148e929190613770565b506040518060400160405280600061ffff1681526020016103e861ffff1681525060d26000600281526020019081526020016000209060026114d1929190613624565b506040518060600160405280600061ffff1681526020016107d061ffff1681526020016103e861ffff1681525060d2600060038152602001908152602001600020906003611520929190613677565b506040518060800160405280600061ffff168152602001600061ffff1681526020016107d061ffff1681526020016103e861ffff1681525060d260006004815260200190815260200160002090600461157a9291906136ca565b506040518060a00160405280600061ffff168152602001600061ffff168152602001600061ffff1681526020016107d061ffff1681526020016103e861ffff1681525060d26000600581526020019081526020016000209060056115df92919061371d565b506040518060c00160405280600061ffff168152602001600061ffff168152602001600061ffff168152602001610bb861ffff1681526020016107d061ffff1681526020016103e861ffff1681525060d2600060068152602001908152602001600020906006611650929190613770565b506040518060c001604052806103e861ffff16815260200161032061ffff1681526020016101f461ffff16815260200161012c61ffff168152602001606461ffff168152602001603261ffff1681525060cf9060066116b0929190613770565b506040518060c00160405280600a60ff168152602001600060ff168152602001600060ff168152602001600060ff168152602001600060ff168152602001600060ff1681525060d09060066117069291906137c3565b5080156117285760008060016101000a81548160ff0219169083151502179055505b505050565b7f000000000000000000000000000000000000000000000000000000000000000073ffffffffffffffffffffffffffffffffffffffff163073ffffffffffffffffffffffffffffffffffffffff1614156117bc576040517f08c379a00000000000000000000000000000000000000000000000000000000081526004016117b3906144b2565b60405180910390fd5b7f000000000000000000000000000000000000000000000000000000000000000073ffffffffffffffffffffffffffffffffffffffff166117fb612738565b73ffffffffffffffffffffffffffffffffffffffff1614611851576040517f08c379a000000000000000000000000000000000000000000000000000000000815260040161184890614512565b60405180910390fd5b61185a8261278f565b6118668282600161280e565b5050565b600081116118ad576040517f08c379a00000000000000000000000000000000000000000000000000000000081526004016118a4906144f2565b60405180910390fd5b600060cd54826118bd91906148c0565b9050600060ca60009054906101000a900473ffffffffffffffffffffffffffffffffffffffff1673ffffffffffffffffffffffffffffffffffffffff166323b872dd3360cc60009054906101000a900473ffffffffffffffffffffffffffffffffffffffff16856040518463ffffffff1660e01b8152600401611942939291906142d6565b602060405180830381600087803b15801561195c57600080fd5b505af1158015611970573d6000803e3d6000fd5b505050506040513d601f19601f820116820180604052508101906119949190613d09565b9050806119d6576040517f08c379a00000000000000000000000000000000000000000000000000000000081526004016119cd90614552565b60405180910390fd5b8260d460003373ffffffffffffffffffffffffffffffffffffffff1673ffffffffffffffffffffffffffffffffffffffff1681526020019081526020016000206001016000828254611a289190614839565b925050819055507f97fac0ce6558f4accbb4696915809c0ef7023ffe7ba9454e94d49fb652aae1d5338484604051611a6293929190614397565b60405180910390a1505050565b60ca60009054906101000a900473ffffffffffffffffffffffffffffffffffffffff1681565b60cf8181548110611aa557600080fd5b906000526020600020016000915090505481565b611ac1612730565b73ffffffffffffffffffffffffffffffffffffffff16611adf611ce3565b73ffffffffffffffffffffffffffffffffffffffff1614611b35576040517f08c379a0000000000000000000000000000000000000000000000000000000008152600401611b2c906145d2565b60405180910390fd5b611b3f6000612ade565b565b611b49612730565b73ffffffffffffffffffffffffffffffffffffffff16611b67611ce3565b73ffffffffffffffffffffffffffffffffffffffff1614611bbd576040517f08c379a0000000000000000000000000000000000000000000000000000000008152600401611bb4906145d2565b60405180910390fd5b600081519050600181118015611bd35750600781105b611c12576040517f08c379a0000000000000000000000000000000000000000000000000000000008152600401611c0990614652565b60405180910390fd5b611cdf8260d16000848152602001908152602001600020805480602002602001604051908101604052809291908181526020018280548015611c7357602002820191906000526020600020905b815481526020019060010190808311611c5f575b505050505060d26000858152602001908152602001600020805480602002602001604051908101604052809291908181526020018280548015611cd557602002820191906000526020600020905b815481526020019060010190808311611cc1575b5050505050612ba4565b5050565b6000609760009054906101000a900473ffffffffffffffffffffffffffffffffffffffff16905090565b611d15612730565b73ffffffffffffffffffffffffffffffffffffffff16611d33611ce3565b73ffffffffffffffffffffffffffffffffffffffff1614611d89576040517f08c379a0000000000000000000000000000000000000000000000000000000008152600401611d80906145d2565b60405180910390fd5b8060d160008481526020019081526020016000209080519060200190611db09291906135d7565b505050565b60d16020528160005260406000208181548110611dd157600080fd5b90600052602060002001600091509150505481565b60cc60009054906101000a900473ffffffffffffffffffffffffffffffffffffffff1681565b611e14612730565b73ffffffffffffffffffffffffffffffffffffffff16611e32611ce3565b73ffffffffffffffffffffffffffffffffffffffff1614611e88576040517f08c379a0000000000000000000000000000000000000000000000000000000008152600401611e7f906145d2565b60405180910390fd5b8060cc60006101000a81548173ffffffffffffffffffffffffffffffffffffffff021916908373ffffffffffffffffffffffffffffffffffffffff16021790555050565b611ed4612730565b73ffffffffffffffffffffffffffffffffffffffff16611ef2611ce3565b73ffffffffffffffffffffffffffffffffffffffff1614611f48576040517f08c379a0000000000000000000000000000000000000000000000000000000008152600401611f3f906145d2565b60405180910390fd5b600081118015611f585750600781105b611f97576040517f08c379a0000000000000000000000000000000000000000000000000000000008152600401611f8e90614572565b60405180910390fd5b61205d8282612007670de0b6b3a764000060d0600187611fb7919061491a565b81548110611fee577f4e487b7100000000000000000000000000000000000000000000000000000000600052603260045260246000fd5b9060005260206000200154612ac890919063ffffffff16565b60cf600186612016919061491a565b8154811061204d577f4e487b7100000000000000000000000000000000000000000000000000000000600052603260045260246000fd5b9060005260206000200154612f80565b5050565b60c98060000154905081565b8060d460003373ffffffffffffffffffffffffffffffffffffffff1673ffffffffffffffffffffffffffffffffffffffff16815260200190815260200160002060000190805190602001906120c3929190613815565b5050565b6120cf612730565b73ffffffffffffffffffffffffffffffffffffffff166120ed611ce3565b73ffffffffffffffffffffffffffffffffffffffff1614612143576040517f08c379a000000000000000000000000000000000000000000000000000000000815260040161213a906145d2565b60405180910390fd5b8060d26000848152602001908152602001600020908051906020019061216a9291906135d7565b505050565b612177612730565b73ffffffffffffffffffffffffffffffffffffffff16612195611ce3565b73ffffffffffffffffffffffffffffffffffffffff16146121eb576040517f08c379a00000000000000000000000000000000000000000000000000000000081526004016121e2906145d2565b60405180910390fd5b8060d090805190602001906122019291906135d7565b5050565b60d4602052806000526040600020600091509050806000018054612228906149d8565b80601f0160208091040260200160405190810160405280929190818152602001828054612254906149d8565b80156122a15780601f10612276576101008083540402835291602001916122a1565b820191906000526020600020905b81548152906001019060200180831161228457829003601f168201915b5050505050908060010154908060020154905083565b60d260205281600052604060002081815481106122d357600080fd5b90600052602060002001600091509150505481565b6122f0612730565b73ffffffffffffffffffffffffffffffffffffffff1661230e611ce3565b73ffffffffffffffffffffffffffffffffffffffff1614612364576040517f08c379a000000000000000000000000000000000000000000000000000000000815260040161235b906145d2565b60405180910390fd5b600073ffffffffffffffffffffffffffffffffffffffff168173ffffffffffffffffffffffffffffffffffffffff1614156123d4576040517f08c379a00000000000000000000000000000000000000000000000000000000081526004016123cb90614492565b60405180910390fd5b6123dd81612ade565b50565b60ce5481565b6123ee612730565b73ffffffffffffffffffffffffffffffffffffffff1661240c611ce3565b73ffffffffffffffffffffffffffffffffffffffff1614612462576040517f08c379a0000000000000000000000000000000000000000000000000000000008152600401612459906145d2565b60405180910390fd5b60005b815181101561250657600060d460003373ffffffffffffffffffffffffffffffffffffffff1673ffffffffffffffffffffffffffffffffffffffff16815260200190815260200160002060010154116124f3576040517f08c379a00000000000000000000000000000000000000000000000000000000081526004016124ea906144d2565b60405180910390fd5b80806124fe90614a3b565b915050612465565b50600060d56000600181526020019081526020016000209050600181600001819055508181600101908051906020019061254192919061389b565b5060018160020160006101000a81548160ff02191690831515021790555060005b82518110156126185760008260030160008584815181106125ac577f4e487b7100000000000000000000000000000000000000000000000000000000600052603260045260246000fd5b602002602001015173ffffffffffffffffffffffffffffffffffffffff1673ffffffffffffffffffffffffffffffffffffffff16815260200190815260200160002060006101000a81548160ff021916908315150217905550808061261090614a3b565b915050612562565b50600060d56000600281526020019081526020016000209050600281600001819055508281600101908051906020019061265392919061389b565b5060018160020160006101000a81548160ff02191690831515021790555060005b835181101561272a5760018260030160008684815181106126be577f4e487b7100000000000000000000000000000000000000000000000000000000600052603260045260246000fd5b602002602001015173ffffffffffffffffffffffffffffffffffffffff1673ffffffffffffffffffffffffffffffffffffffff16815260200190815260200160002060006101000a81548160ff021916908315150217905550808061272290614a3b565b915050612674565b50505050565b600033905090565b60006127667f360894a13ba1a3210667c828492db98dca3e2076cc3735a920a3ca505d382bbc60001b613164565b60000160009054906101000a900473ffffffffffffffffffffffffffffffffffffffff16905090565b612797612730565b73ffffffffffffffffffffffffffffffffffffffff166127b5611ce3565b73ffffffffffffffffffffffffffffffffffffffff161461280b576040517f08c379a0000000000000000000000000000000000000000000000000000000008152600401612802906145d2565b60405180910390fd5b50565b6000612818612738565b90506128238461316e565b6000835111806128305750815b156128415761283f8484613227565b505b600061286f7f4910fdfa16fed3260ed0e7147f7cc6da11a60208b5b9406d12a635614ffd914360001b61330b565b90508060000160009054906101000a900460ff166129d85760018160000160006101000a81548160ff02191690831515021790555061293b85836040516024016128b991906142bb565b6040516020818303038152906040527f3659cfe6000000000000000000000000000000000000000000000000000000007bffffffffffffffffffffffffffffffffffffffffffffffffffffffff19166020820180517bffffffffffffffffffffffffffffffffffffffffffffffffffffffff8381831617835250505050613227565b5060008160000160006101000a81548160ff021916908315150217905550612961612738565b73ffffffffffffffffffffffffffffffffffffffff168273ffffffffffffffffffffffffffffffffffffffff16146129ce576040517f08c379a00000000000000000000000000000000000000000000000000000000081526004016129c590614472565b60405180910390fd5b6129d785613315565b5b5050505050565b600060019054906101000a900460ff1680612a05575060008054906101000a900460ff16155b612a44576040517f08c379a0000000000000000000000000000000000000000000000000000000008152600401612a3b90614592565b60405180910390fd5b60008060019054906101000a900460ff161590508015612a94576001600060016101000a81548160ff02191690831515021790555060016000806101000a81548160ff0219169083151502179055505b612a9c613364565b612aa461343d565b8015612ac55760008060016101000a81548160ff0219169083151502179055505b50565b60008183612ad691906148c0565b905092915050565b6000609760009054906101000a900473ffffffffffffffffffffffffffffffffffffffff16905081609760006101000a81548173ffffffffffffffffffffffffffffffffffffffff021916908373ffffffffffffffffffffffffffffffffffffffff1602179055508173ffffffffffffffffffffffffffffffffffffffff168173ffffffffffffffffffffffffffffffffffffffff167f8be0079c531659141344cd1fd0a4f28419497f9722a3daafe3b4186f6b6457e060405160405180910390a35050565b6000835190506000612bc18260cd54612ac890919063ffffffff16565b905060005b8551811015612f78576000612c386103e8612c2a888581518110612c13577f4e487b7100000000000000000000000000000000000000000000000000000000600052603260045260246000fd5b602002602001015186612ac890919063ffffffff16565b61352690919063ffffffff16565b90506000811115612d9c57600060ca60009054906101000a900473ffffffffffffffffffffffffffffffffffffffff1673ffffffffffffffffffffffffffffffffffffffff166323b872dd60cc60009054906101000a900473ffffffffffffffffffffffffffffffffffffffff168a8681518110612cdf577f4e487b7100000000000000000000000000000000000000000000000000000000600052603260045260246000fd5b6020026020010151856040518463ffffffff1660e01b8152600401612d06939291906142d6565b602060405180830381600087803b158015612d2057600080fd5b505af1158015612d34573d6000803e3d6000fd5b505050506040513d601f19601f82011682018060405250810190612d589190613d09565b905080612d9a576040517f08c379a0000000000000000000000000000000000000000000000000000000008152600401612d9190614632565b60405180910390fd5b505b848281518110612dd5577f4e487b7100000000000000000000000000000000000000000000000000000000600052603260045260246000fd5b602002602001015160d46000898581518110612e1a577f4e487b7100000000000000000000000000000000000000000000000000000000600052603260045260246000fd5b602002602001015173ffffffffffffffffffffffffffffffffffffffff1673ffffffffffffffffffffffffffffffffffffffff1681526020019081526020016000206002016000828254612e6e9190614839565b925050819055507fdce512682fc110dd577116429cce62979da37e07b71929a3a0a978054d14756e60cc60009054906101000a900473ffffffffffffffffffffffffffffffffffffffff16888481518110612ef2577f4e487b7100000000000000000000000000000000000000000000000000000000600052603260045260246000fd5b6020026020010151600185612f079190614839565b84898781518110612f41577f4e487b7100000000000000000000000000000000000000000000000000000000600052603260045260246000fd5b602002602001015142604051612f5c9695949392919061430d565b60405180910390a1508080612f7090614a3b565b915050612bc6565b505050505050565b60018314156130a257600060ca60009054906101000a900473ffffffffffffffffffffffffffffffffffffffff1673ffffffffffffffffffffffffffffffffffffffff166323b872dd60cc60009054906101000a900473ffffffffffffffffffffffffffffffffffffffff1687866040518463ffffffff1660e01b815260040161300c939291906142d6565b602060405180830381600087803b15801561302657600080fd5b505af115801561303a573d6000803e3d6000fd5b505050506040513d601f19601f8201168201806040525081019061305e9190613d09565b9050806130a0576040517f08c379a000000000000000000000000000000000000000000000000000000000815260040161309790614532565b60405180910390fd5b505b8060d460008673ffffffffffffffffffffffffffffffffffffffff1673ffffffffffffffffffffffffffffffffffffffff16815260200190815260200160002060020160008282546130f49190614839565b925050819055507ffd15fe9ec3d9a7aef6aff4bddcb734adc03b3860d5fcf447a1259f05ec0d04f960cc60009054906101000a900473ffffffffffffffffffffffffffffffffffffffff1685858585426040516131569695949392919061430d565b60405180910390a150505050565b6000819050919050565b6131778161353c565b6131b6576040517f08c379a00000000000000000000000000000000000000000000000000000000081526004016131ad906145b2565b60405180910390fd5b806131e37f360894a13ba1a3210667c828492db98dca3e2076cc3735a920a3ca505d382bbc60001b613164565b60000160006101000a81548173ffffffffffffffffffffffffffffffffffffffff021916908373ffffffffffffffffffffffffffffffffffffffff16021790555050565b60606132328361353c565b613271576040517f08c379a0000000000000000000000000000000000000000000000000000000008152600401613268906145f2565b60405180910390fd5b6000808473ffffffffffffffffffffffffffffffffffffffff168460405161329991906142a4565b600060405180830381855af49150503d80600081146132d4576040519150601f19603f3d011682016040523d82523d6000602084013e6132d9565b606091505b50915091506133018282604051806060016040528060278152602001614fc96027913961354f565b9250505092915050565b6000819050919050565b61331e8161316e565b8073ffffffffffffffffffffffffffffffffffffffff167fbc7cd75a20ee27fd9adebab32041f755214dbc6bffa90cc0225b39da2e5c2d3b60405160405180910390a250565b600060019054906101000a900460ff168061338a575060008054906101000a900460ff16155b6133c9576040517f08c379a00000000000000000000000000000000000000000000000000000000081526004016133c090614592565b60405180910390fd5b60008060019054906101000a900460ff161590508015613419576001600060016101000a81548160ff02191690831515021790555060016000806101000a81548160ff0219169083151502179055505b801561343a5760008060016101000a81548160ff0219169083151502179055505b50565b600060019054906101000a900460ff1680613463575060008054906101000a900460ff16155b6134a2576040517f08c379a000000000000000000000000000000000000000000000000000000000815260040161349990614592565b60405180910390fd5b60008060019054906101000a900460ff1615905080156134f2576001600060016101000a81548160ff02191690831515021790555060016000806101000a81548160ff0219169083151502179055505b6135026134fd612730565b612ade565b80156135235760008060016101000a81548160ff0219169083151502179055505b50565b60008183613534919061488f565b905092915050565b600080823b905060008111915050919050565b6060831561355f578290506135af565b6000835111156135725782518084602001fd5b816040517f08c379a00000000000000000000000000000000000000000000000000000000081526004016135a69190614412565b60405180910390fd5b9392505050565b60405180606001604052806000815260200160008152602001600081525090565b828054828255906000526020600020908101928215613613579160200282015b828111156136125782518255916020019190600101906135f7565b5b5090506136209190613925565b5090565b828054828255906000526020600020908101928215613666579160200282015b82811115613665578251829061ffff16905591602001919060010190613644565b5b5090506136739190613925565b5090565b8280548282559060005260206000209081019282156136b9579160200282015b828111156136b8578251829061ffff16905591602001919060010190613697565b5b5090506136c69190613925565b5090565b82805482825590600052602060002090810192821561370c579160200282015b8281111561370b578251829061ffff169055916020019190600101906136ea565b5b5090506137199190613925565b5090565b82805482825590600052602060002090810192821561375f579160200282015b8281111561375e578251829061ffff1690559160200191906001019061373d565b5b50905061376c9190613925565b5090565b8280548282559060005260206000209081019282156137b2579160200282015b828111156137b1578251829061ffff16905591602001919060010190613790565b5b5090506137bf9190613925565b5090565b828054828255906000526020600020908101928215613804579160200282015b82811115613803578251829060ff169055916020019190600101906137e3565b5b5090506138119190613925565b5090565b828054613821906149d8565b90600052602060002090601f016020900481019282613843576000855561388a565b82601f1061385c57805160ff191683800117855561388a565b8280016001018555821561388a579182015b8281111561388957825182559160200191906001019061386e565b5b5090506138979190613925565b5090565b828054828255906000526020600020908101928215613914579160200282015b828111156139135782518260006101000a81548173ffffffffffffffffffffffffffffffffffffffff021916908373ffffffffffffffffffffffffffffffffffffffff160217905550916020019190600101906138bb565b5b5090506139219190613925565b5090565b5b8082111561393e576000816000905550600101613926565b5090565b6000613955613950846146db565b6146b6565b9050808382526020820190508285602086028201111561397457600080fd5b60005b858110156139a4578161398a8882613a96565b845260208401935060208301925050600181019050613977565b5050509392505050565b60006139c16139bc84614707565b6146b6565b905080838252602082019050828560208602820111156139e057600080fd5b60005b85811015613a1057816139f68882613b68565b8452602084019350602083019250506001810190506139e3565b5050509392505050565b6000613a2d613a2884614733565b6146b6565b905082815260208101848484011115613a4557600080fd5b613a50848285614996565b509392505050565b6000613a6b613a6684614764565b6146b6565b905082815260208101848484011115613a8357600080fd5b613a8e848285614996565b509392505050565b600081359050613aa581614f83565b92915050565b600082601f830112613abc57600080fd5b8135613acc848260208601613942565b91505092915050565b600082601f830112613ae657600080fd5b8135613af68482602086016139ae565b91505092915050565b600081519050613b0e81614f9a565b92915050565b600082601f830112613b2557600080fd5b8135613b35848260208601613a1a565b91505092915050565b600082601f830112613b4f57600080fd5b8135613b5f848260208601613a58565b91505092915050565b600081359050613b7781614fb1565b92915050565b600081519050613b8c81614fb1565b92915050565b600060208284031215613ba457600080fd5b6000613bb284828501613a96565b91505092915050565b60008060408385031215613bce57600080fd5b6000613bdc85828601613a96565b9250506020613bed85828601613a96565b9150509250929050565b60008060408385031215613c0a57600080fd5b6000613c1885828601613a96565b925050602083013567ffffffffffffffff811115613c3557600080fd5b613c4185828601613b14565b9150509250929050565b60008060408385031215613c5e57600080fd5b6000613c6c85828601613a96565b9250506020613c7d85828601613b68565b9150509250929050565b600060208284031215613c9957600080fd5b600082013567ffffffffffffffff811115613cb357600080fd5b613cbf84828501613aab565b91505092915050565b600060208284031215613cda57600080fd5b600082013567ffffffffffffffff811115613cf457600080fd5b613d0084828501613ad5565b91505092915050565b600060208284031215613d1b57600080fd5b6000613d2984828501613aff565b91505092915050565b600060208284031215613d4457600080fd5b600082013567ffffffffffffffff811115613d5e57600080fd5b613d6a84828501613b3e565b91505092915050565b600060208284031215613d8557600080fd5b6000613d9384828501613b68565b91505092915050565b600060208284031215613dae57600080fd5b6000613dbc84828501613b7d565b91505092915050565b60008060408385031215613dd857600080fd5b6000613de685828601613b68565b925050602083013567ffffffffffffffff811115613e0357600080fd5b613e0f85828601613ad5565b9150509250929050565b60008060408385031215613e2c57600080fd5b6000613e3a85828601613b68565b9250506020613e4b85828601613b68565b9150509250929050565b60008060408385031215613e6857600080fd5b6000613e7685828601613b7d565b9250506020613e8785828601613b7d565b9150509250929050565b6000613e9d8383613f8c565b60208301905092915050565b6000613eb58383614244565b60608301905092915050565b613eca8161494e565b82525050565b6000613edb826147b5565b613ee581856147fb565b9350613ef083614795565b8060005b83811015613f21578151613f088882613e91565b9750613f13836147e1565b925050600181019050613ef4565b5085935050505092915050565b6000613f39826147c0565b613f43818561480c565b9350613f4e836147a5565b8060005b83811015613f7f578151613f668882613ea9565b9750613f71836147ee565b925050600181019050613f52565b5085935050505092915050565b613f9581614960565b82525050565b613fa481614960565b82525050565b6000613fb5826147cb565b613fbf818561481d565b9350613fcf8185602086016149a5565b80840191505092915050565b6000613fe6826147d6565b613ff08185614828565b93506140008185602086016149a5565b61400981614b40565b840191505092915050565b6000614021602f83614828565b915061402c82614b51565b604082019050919050565b6000614044602683614828565b915061404f82614ba0565b604082019050919050565b6000614067602c83614828565b915061407282614bef565b604082019050919050565b600061408a601c83614828565b915061409582614c3e565b602082019050919050565b60006140ad603983614828565b91506140b882614c67565b604082019050919050565b60006140d0602c83614828565b91506140db82614cb6565b604082019050919050565b60006140f3601e83614828565b91506140fe82614d05565b602082019050919050565b6000614116601d83614828565b915061412182614d2e565b602082019050919050565b6000614139603983614828565b915061414482614d57565b604082019050919050565b600061415c602e83614828565b915061416782614da6565b604082019050919050565b600061417f602d83614828565b915061418a82614df5565b604082019050919050565b60006141a2602083614828565b91506141ad82614e44565b602082019050919050565b60006141c5602683614828565b91506141d082614e6d565b604082019050919050565b60006141e8602c83614828565b91506141f382614ebc565b604082019050919050565b600061420b601e83614828565b915061421682614f0b565b602082019050919050565b600061422e602683614828565b915061423982614f34565b604082019050919050565b60608201600082015161425a6000850182614286565b50602082015161426d6020850182614286565b5060408201516142806040850182614286565b50505050565b61428f8161498c565b82525050565b61429e8161498c565b82525050565b60006142b08284613faa565b915081905092915050565b60006020820190506142d06000830184613ec1565b92915050565b60006060820190506142eb6000830186613ec1565b6142f86020830185613ec1565b6143056040830184614295565b949350505050565b600060c0820190506143226000830189613ec1565b61432f6020830188613ec1565b61433c6040830187614295565b6143496060830186614295565b6143566080830185614295565b61436360a0830184614295565b979650505050505050565b60006040820190506143836000830185613ec1565b6143906020830184614295565b9392505050565b60006060820190506143ac6000830186613ec1565b6143b96020830185614295565b6143c66040830184614295565b949350505050565b600060208201905081810360008301526143e88184613ed0565b905092915050565b6000602082019050818103600083015261440a8184613f2e565b905092915050565b6000602082019050818103600083015261442c8184613fdb565b905092915050565b6000606082019050818103600083015261444e8186613fdb565b905061445d6020830185614295565b61446a6040830184614295565b949350505050565b6000602082019050818103600083015261448b81614014565b9050919050565b600060208201905081810360008301526144ab81614037565b9050919050565b600060208201905081810360008301526144cb8161405a565b9050919050565b600060208201905081810360008301526144eb8161407d565b9050919050565b6000602082019050818103600083015261450b816140a0565b9050919050565b6000602082019050818103600083015261452b816140c3565b9050919050565b6000602082019050818103600083015261454b816140e6565b9050919050565b6000602082019050818103600083015261456b81614109565b9050919050565b6000602082019050818103600083015261458b8161412c565b9050919050565b600060208201905081810360008301526145ab8161414f565b9050919050565b600060208201905081810360008301526145cb81614172565b9050919050565b600060208201905081810360008301526145eb81614195565b9050919050565b6000602082019050818103600083015261460b816141b8565b9050919050565b6000602082019050818103600083015261462b816141db565b9050919050565b6000602082019050818103600083015261464b816141fe565b9050919050565b6000602082019050818103600083015261466b81614221565b9050919050565b60006020820190506146876000830184614295565b92915050565b60006040820190506146a26000830185614295565b6146af6020830184613f9b565b9392505050565b60006146c06146d1565b90506146cc8282614a0a565b919050565b6000604051905090565b600067ffffffffffffffff8211156146f6576146f5614b11565b5b602082029050602081019050919050565b600067ffffffffffffffff82111561472257614721614b11565b5b602082029050602081019050919050565b600067ffffffffffffffff82111561474e5761474d614b11565b5b61475782614b40565b9050602081019050919050565b600067ffffffffffffffff82111561477f5761477e614b11565b5b61478882614b40565b9050602081019050919050565b6000819050602082019050919050565b6000819050602082019050919050565b600081519050919050565b600081519050919050565b600081519050919050565b600081519050919050565b6000602082019050919050565b6000602082019050919050565b600082825260208201905092915050565b600082825260208201905092915050565b600081905092915050565b600082825260208201905092915050565b60006148448261498c565b915061484f8361498c565b9250827fffffffffffffffffffffffffffffffffffffffffffffffffffffffffffffffff0382111561488457614883614a84565b5b828201905092915050565b600061489a8261498c565b91506148a58361498c565b9250826148b5576148b4614ab3565b5b828204905092915050565b60006148cb8261498c565b91506148d68361498c565b9250817fffffffffffffffffffffffffffffffffffffffffffffffffffffffffffffffff048311821515161561490f5761490e614a84565b5b828202905092915050565b60006149258261498c565b91506149308361498c565b92508282101561494357614942614a84565b5b828203905092915050565b60006149598261496c565b9050919050565b60008115159050919050565b600073ffffffffffffffffffffffffffffffffffffffff82169050919050565b6000819050919050565b82818337600083830152505050565b60005b838110156149c35780820151818401526020810190506149a8565b838111156149d2576000848401525b50505050565b600060028204905060018216806149f057607f821691505b60208210811415614a0457614a03614ae2565b5b50919050565b614a1382614b40565b810181811067ffffffffffffffff82111715614a3257614a31614b11565b5b80604052505050565b6000614a468261498c565b91507fffffffffffffffffffffffffffffffffffffffffffffffffffffffffffffffff821415614a7957614a78614a84565b5b600182019050919050565b7f4e487b7100000000000000000000000000000000000000000000000000000000600052601160045260246000fd5b7f4e487b7100000000000000000000000000000000000000000000000000000000600052601260045260246000fd5b7f4e487b7100000000000000000000000000000000000000000000000000000000600052602260045260246000fd5b7f4e487b7100000000000000000000000000000000000000000000000000000000600052604160045260246000fd5b6000601f19601f8301169050919050565b7f45524331393637557067726164653a207570677261646520627265616b73206660008201527f7572746865722075706772616465730000000000000000000000000000000000602082015250565b7f4f776e61626c653a206e6577206f776e657220697320746865207a65726f206160008201527f6464726573730000000000000000000000000000000000000000000000000000602082015250565b7f46756e6374696f6e206d7573742062652063616c6c6564207468726f7567682060008201527f64656c656761746563616c6c0000000000000000000000000000000000000000602082015250565b7f737461727447616d653a204e6f7420656e6f756768207469636b657400000000600082015250565b7f6275795469636b65743a204e756d626572206f66207469636b657420746f206260008201527f7579206d7573742062652067726561746572207468616e203000000000000000602082015250565b7f46756e6374696f6e206d7573742062652063616c6c6564207468726f7567682060008201527f6163746976652070726f78790000000000000000000000000000000000000000602082015250565b7f5f7265776172645076453a204661696c656420746f207472616e736665720000600082015250565b7f6275795469636b65743a204661696c656420746f207472616e73666572000000600082015250565b7f7265776172645076453a2052616e6b206d75737420626520677265617465722060008201527f7468616e203020616e6420736d616c6c6572207468616e203700000000000000602082015250565b7f496e697469616c697a61626c653a20636f6e747261637420697320616c72656160008201527f647920696e697469616c697a6564000000000000000000000000000000000000602082015250565b7f455243313936373a206e657720696d706c656d656e746174696f6e206973206e60008201527f6f74206120636f6e747261637400000000000000000000000000000000000000602082015250565b7f4f776e61626c653a2063616c6c6572206973206e6f7420746865206f776e6572600082015250565b7f416464726573733a2064656c65676174652063616c6c20746f206e6f6e2d636f60008201527f6e74726163740000000000000000000000000000000000000000000000000000602082015250565b7f7365745469636b657450726963653a205072696365206d75737420626520617460008201527f206c656173742031207765690000000000000000000000000000000000000000602082015250565b7f5f7265776172645076503a204661696c656420746f207472616e736665720000600082015250565b7f7265776172645076503a20526f6f6d206d75737420626520677265617465722060008201527f7468616e20310000000000000000000000000000000000000000000000000000602082015250565b614f8c8161494e565b8114614f9757600080fd5b50565b614fa381614960565b8114614fae57600080fd5b50565b614fba8161498c565b8114614fc557600080fd5b5056fe416464726573733a206c6f772d6c6576656c2064656c65676174652063616c6c206661696c6564a26469706673582212207ab15c833e94b224a7801db34e147db5b0df69da46d50f9ba6de67db5c88c1de64736f6c63430008020033",
  "linkReferences": {},
  "deployedLinkReferences": {}
}