{
  "_format": "hh-sol-artifact-1",
  "contractName": "GameController",
  "sourceName": "contracts/GameController.sol",
  "abi": [
    {
      "anonymous": false,
      "inputs": [
        {
          "indexed": false,
          "internalType": "address",
          "name": "previousAdmin",
          "type": "address"
        },
        {
          "indexed": false,
          "internalType": "address",
          "name": "newAdmin",
          "type": "address"
        }
      ],
      "name": "AdminChanged",
      "type": "event"
    },
    {
      "anonymous": false,
      "inputs": [
        {
          "indexed": true,
          "internalType": "address",
          "name": "beacon",
          "type": "address"
        }
      ],
      "name": "BeaconUpgraded",
      "type": "event"
    },
    {
      "anonymous": false,
      "inputs": [
        {
          "indexed": true,
          "internalType": "address",
          "name": "previousOwner",
          "type": "address"
        },
        {
          "indexed": true,
          "internalType": "address",
          "name": "newOwner",
          "type": "address"
        }
      ],
      "name": "OwnershipTransferred",
      "type": "event"
    },
    {
      "anonymous": false,
      "inputs": [
        {
          "indexed": true,
          "internalType": "address",
          "name": "implementation",
          "type": "address"
        }
      ],
      "name": "Upgraded",
      "type": "event"
    },
    {
      "inputs": [],
      "name": "getPlayerFuel",
      "outputs": [
        {
          "internalType": "uint256",
          "name": "",
          "type": "uint256"
        }
      ],
      "stateMutability": "view",
      "type": "function"
    },
    {
      "inputs": [],
      "name": "getPlayerNFT",
      "outputs": [
        {
          "components": [
            {
              "internalType": "uint256",
              "name": "tokenId",
              "type": "uint256"
            },
            {
              "internalType": "address",
              "name": "contractAddress",
              "type": "address"
            },
            {
              "internalType": "string",
              "name": "URI",
              "type": "string"
            }
          ],
          "internalType": "struct GameController.TokenInfo[]",
          "name": "",
          "type": "tuple[]"
        }
      ],
      "stateMutability": "view",
      "type": "function"
    },
    {
      "inputs": [],
      "name": "getPlayerName",
      "outputs": [
        {
          "internalType": "string",
          "name": "",
          "type": "string"
        }
      ],
      "stateMutability": "view",
      "type": "function"
    },
    {
      "inputs": [
        {
          "internalType": "address",
          "name": "erc20",
          "type": "address"
        },
        {
          "internalType": "address",
          "name": "erc721",
          "type": "address"
        }
      ],
      "name": "initialize",
      "outputs": [],
      "stateMutability": "nonpayable",
      "type": "function"
    },
    {
      "inputs": [],
      "name": "owner",
      "outputs": [
        {
          "internalType": "address",
          "name": "",
          "type": "address"
        }
      ],
      "stateMutability": "view",
      "type": "function"
    },
    {
      "inputs": [],
      "name": "renounceOwnership",
      "outputs": [],
      "stateMutability": "nonpayable",
      "type": "function"
    },
    {
      "inputs": [],
      "name": "reward",
      "outputs": [],
      "stateMutability": "nonpayable",
      "type": "function"
    },
    {
      "inputs": [
        {
          "internalType": "address",
          "name": "player",
          "type": "address"
        },
        {
          "internalType": "uint256",
          "name": "fuel",
          "type": "uint256"
        }
      ],
      "name": "setPlayerFuel",
      "outputs": [],
      "stateMutability": "nonpayable",
      "type": "function"
    },
    {
      "inputs": [
        {
          "internalType": "string",
          "name": "newPlayerName",
          "type": "string"
        }
      ],
      "name": "setPlayerName",
      "outputs": [],
      "stateMutability": "nonpayable",
      "type": "function"
    },
    {
      "inputs": [
        {
          "internalType": "address",
          "name": "newOwner",
          "type": "address"
        }
      ],
      "name": "transferOwnership",
      "outputs": [],
      "stateMutability": "nonpayable",
      "type": "function"
    },
    {
      "inputs": [
        {
          "internalType": "address",
          "name": "newImplementation",
          "type": "address"
        }
      ],
      "name": "upgradeTo",
      "outputs": [],
      "stateMutability": "nonpayable",
      "type": "function"
    },
    {
      "inputs": [
        {
          "internalType": "address",
          "name": "newImplementation",
          "type": "address"
        },
        {
          "internalType": "bytes",
          "name": "data",
          "type": "bytes"
        }
      ],
      "name": "upgradeToAndCall",
      "outputs": [],
      "stateMutability": "payable",
      "type": "function"
    }
  ],
  "bytecode": "0x60a06040523073ffffffffffffffffffffffffffffffffffffffff1660809073ffffffffffffffffffffffffffffffffffffffff1660601b81525034801561004657600080fd5b5060805160601c61253661007a600039600081816102ef0152818161037e01528181610603015261069201526125366000f3fe6080604052600436106100a75760003560e01c8063715018a611610064578063715018a61461018557806381ad6b921461019c5780638da5cb5b146101c7578063a69c6597146101f2578063d81773691461021d578063f2fde38b14610246576100a7565b8063228cb733146100ac5780633659cfe6146100c3578063485cc955146100ec5780634f1ef28614610115578063628a7578146101315780636c96c9da1461015c575b600080fd5b3480156100b857600080fd5b506100c161026f565b005b3480156100cf57600080fd5b506100ea60048036038101906100e59190611964565b6102ed565b005b3480156100f857600080fd5b50610113600480360381019061010e919061198d565b61049c565b005b61012f600480360381019061012a91906119c9565b610601565b005b34801561013d57600080fd5b5061014661073e565b6040516101539190611e2f565b60405180910390f35b34801561016857600080fd5b50610183600480360381019061017e9190611a1d565b610a92565b005b34801561019157600080fd5b5061019a610b59565b005b3480156101a857600080fd5b506101b1610be1565b6040516101be9190611f73565b60405180910390f35b3480156101d357600080fd5b506101dc610c2b565b6040516101e99190611deb565b60405180910390f35b3480156101fe57600080fd5b50610207610c55565b6040516102149190611e51565b60405180910390f35b34801561022957600080fd5b50610244600480360381019061023f9190611a59565b610d27565b005b34801561025257600080fd5b5061026d60048036038101906102689190611964565b610d81565b005b610277610e79565b73ffffffffffffffffffffffffffffffffffffffff16610295610c2b565b73ffffffffffffffffffffffffffffffffffffffff16146102eb576040517f08c379a00000000000000000000000000000000000000000000000000000000081526004016102e290611f33565b60405180910390fd5b565b7f000000000000000000000000000000000000000000000000000000000000000073ffffffffffffffffffffffffffffffffffffffff163073ffffffffffffffffffffffffffffffffffffffff16141561037c576040517f08c379a000000000000000000000000000000000000000000000000000000000815260040161037390611eb3565b60405180910390fd5b7f000000000000000000000000000000000000000000000000000000000000000073ffffffffffffffffffffffffffffffffffffffff166103bb610e81565b73ffffffffffffffffffffffffffffffffffffffff1614610411576040517f08c379a000000000000000000000000000000000000000000000000000000000815260040161040890611ed3565b60405180910390fd5b61041a81610ed8565b61049981600067ffffffffffffffff81111561045f577f4e487b7100000000000000000000000000000000000000000000000000000000600052604160045260246000fd5b6040519080825280601f01601f1916602001820160405280156104915781602001600182028036833780820191505090505b506000610f57565b50565b600060019054906101000a900460ff16806104c2575060008054906101000a900460ff16155b610501576040517f08c379a00000000000000000000000000000000000000000000000000000000081526004016104f890611ef3565b60405180910390fd5b60008060019054906101000a900460ff161590508015610551576001600060016101000a81548160ff02191690831515021790555060016000806101000a81548160ff0219169083151502179055505b610559611128565b8260c960006101000a81548173ffffffffffffffffffffffffffffffffffffffff021916908373ffffffffffffffffffffffffffffffffffffffff1602179055508160ca60006101000a81548173ffffffffffffffffffffffffffffffffffffffff021916908373ffffffffffffffffffffffffffffffffffffffff16021790555080156105fc5760008060016101000a81548160ff0219169083151502179055505b505050565b7f000000000000000000000000000000000000000000000000000000000000000073ffffffffffffffffffffffffffffffffffffffff163073ffffffffffffffffffffffffffffffffffffffff161415610690576040517f08c379a000000000000000000000000000000000000000000000000000000000815260040161068790611eb3565b60405180910390fd5b7f000000000000000000000000000000000000000000000000000000000000000073ffffffffffffffffffffffffffffffffffffffff166106cf610e81565b73ffffffffffffffffffffffffffffffffffffffff1614610725576040517f08c379a000000000000000000000000000000000000000000000000000000000815260040161071c90611ed3565b60405180910390fd5b61072e82610ed8565b61073a82826001610f57565b5050565b6060600060ca60009054906101000a900473ffffffffffffffffffffffffffffffffffffffff1673ffffffffffffffffffffffffffffffffffffffff166370a08231336040518263ffffffff1660e01b815260040161079d9190611deb565b60206040518083038186803b1580156107b557600080fd5b505afa1580156107c9573d6000803e3d6000fd5b505050506040513d601f19601f820116820180604052508101906107ed9190611adb565b905060008167ffffffffffffffff811115610831577f4e487b7100000000000000000000000000000000000000000000000000000000600052604160045260246000fd5b60405190808252806020026020018201604052801561086a57816020015b610857611713565b81526020019060019003908161084f5790505b50905060005b82811015610a8957600060ca60009054906101000a900473ffffffffffffffffffffffffffffffffffffffff1673ffffffffffffffffffffffffffffffffffffffff16632f745c5933846040518363ffffffff1660e01b81526004016108d7929190611e06565b60206040518083038186803b1580156108ef57600080fd5b505afa158015610903573d6000803e3d6000fd5b505050506040513d601f19601f820116820180604052508101906109279190611adb565b9050600060ca60009054906101000a900473ffffffffffffffffffffffffffffffffffffffff1673ffffffffffffffffffffffffffffffffffffffff1663c87b56dd836040518263ffffffff1660e01b81526004016109869190611f73565b60006040518083038186803b15801561099e57600080fd5b505afa1580156109b2573d6000803e3d6000fd5b505050506040513d6000823e3d601f19601f820116820180604052508101906109db9190611a9a565b9050604051806060016040528083815260200160ca60009054906101000a900473ffffffffffffffffffffffffffffffffffffffff1673ffffffffffffffffffffffffffffffffffffffff16815260200182815250848481518110610a69577f4e487b7100000000000000000000000000000000000000000000000000000000600052603260045260246000fd5b602002602001018190525050508080610a8190612172565b915050610870565b50809250505090565b610a9a610e79565b73ffffffffffffffffffffffffffffffffffffffff16610ab8610c2b565b73ffffffffffffffffffffffffffffffffffffffff1614610b0e576040517f08c379a0000000000000000000000000000000000000000000000000000000008152600401610b0590611f33565b60405180910390fd5b8060cb60008473ffffffffffffffffffffffffffffffffffffffff1673ffffffffffffffffffffffffffffffffffffffff168152602001908152602001600020600101819055505050565b610b61610e79565b73ffffffffffffffffffffffffffffffffffffffff16610b7f610c2b565b73ffffffffffffffffffffffffffffffffffffffff1614610bd5576040517f08c379a0000000000000000000000000000000000000000000000000000000008152600401610bcc90611f33565b60405180910390fd5b610bdf6000611211565b565b600060cb60003373ffffffffffffffffffffffffffffffffffffffff1673ffffffffffffffffffffffffffffffffffffffff16815260200190815260200160002060010154905090565b6000609760009054906101000a900473ffffffffffffffffffffffffffffffffffffffff16905090565b606060cb60003373ffffffffffffffffffffffffffffffffffffffff1673ffffffffffffffffffffffffffffffffffffffff1681526020019081526020016000206000018054610ca49061210f565b80601f0160208091040260200160405190810160405280929190818152602001828054610cd09061210f565b8015610d1d5780601f10610cf257610100808354040283529160200191610d1d565b820191906000526020600020905b815481529060010190602001808311610d0057829003601f168201915b5050505050905090565b8060cb60003373ffffffffffffffffffffffffffffffffffffffff1673ffffffffffffffffffffffffffffffffffffffff1681526020019081526020016000206000019080519060200190610d7d92919061174a565b5050565b610d89610e79565b73ffffffffffffffffffffffffffffffffffffffff16610da7610c2b565b73ffffffffffffffffffffffffffffffffffffffff1614610dfd576040517f08c379a0000000000000000000000000000000000000000000000000000000008152600401610df490611f33565b60405180910390fd5b600073ffffffffffffffffffffffffffffffffffffffff168173ffffffffffffffffffffffffffffffffffffffff161415610e6d576040517f08c379a0000000000000000000000000000000000000000000000000000000008152600401610e6490611e93565b60405180910390fd5b610e7681611211565b50565b600033905090565b6000610eaf7f360894a13ba1a3210667c828492db98dca3e2076cc3735a920a3ca505d382bbc60001b6112d7565b60000160009054906101000a900473ffffffffffffffffffffffffffffffffffffffff16905090565b610ee0610e79565b73ffffffffffffffffffffffffffffffffffffffff16610efe610c2b565b73ffffffffffffffffffffffffffffffffffffffff1614610f54576040517f08c379a0000000000000000000000000000000000000000000000000000000008152600401610f4b90611f33565b60405180910390fd5b50565b6000610f61610e81565b9050610f6c846112e1565b600083511180610f795750815b15610f8a57610f88848461139a565b505b6000610fb87f4910fdfa16fed3260ed0e7147f7cc6da11a60208b5b9406d12a635614ffd914360001b61147e565b90508060000160009054906101000a900460ff166111215760018160000160006101000a81548160ff02191690831515021790555061108485836040516024016110029190611deb565b6040516020818303038152906040527f3659cfe6000000000000000000000000000000000000000000000000000000007bffffffffffffffffffffffffffffffffffffffffffffffffffffffff19166020820180517bffffffffffffffffffffffffffffffffffffffffffffffffffffffff838183161783525050505061139a565b5060008160000160006101000a81548160ff0219169083151502179055506110aa610e81565b73ffffffffffffffffffffffffffffffffffffffff168273ffffffffffffffffffffffffffffffffffffffff1614611117576040517f08c379a000000000000000000000000000000000000000000000000000000000815260040161110e90611e73565b60405180910390fd5b61112085611488565b5b5050505050565b600060019054906101000a900460ff168061114e575060008054906101000a900460ff16155b61118d576040517f08c379a000000000000000000000000000000000000000000000000000000000815260040161118490611ef3565b60405180910390fd5b60008060019054906101000a900460ff1615905080156111dd576001600060016101000a81548160ff02191690831515021790555060016000806101000a81548160ff0219169083151502179055505b6111e56114d7565b6111ed6115b0565b801561120e5760008060016101000a81548160ff0219169083151502179055505b50565b6000609760009054906101000a900473ffffffffffffffffffffffffffffffffffffffff16905081609760006101000a81548173ffffffffffffffffffffffffffffffffffffffff021916908373ffffffffffffffffffffffffffffffffffffffff1602179055508173ffffffffffffffffffffffffffffffffffffffff168173ffffffffffffffffffffffffffffffffffffffff167f8be0079c531659141344cd1fd0a4f28419497f9722a3daafe3b4186f6b6457e060405160405180910390a35050565b6000819050919050565b6112ea81611699565b611329576040517f08c379a000000000000000000000000000000000000000000000000000000000815260040161132090611f13565b60405180910390fd5b806113567f360894a13ba1a3210667c828492db98dca3e2076cc3735a920a3ca505d382bbc60001b6112d7565b60000160006101000a81548173ffffffffffffffffffffffffffffffffffffffff021916908373ffffffffffffffffffffffffffffffffffffffff16021790555050565b60606113a583611699565b6113e4576040517f08c379a00000000000000000000000000000000000000000000000000000000081526004016113db90611f53565b60405180910390fd5b6000808473ffffffffffffffffffffffffffffffffffffffff168460405161140c9190611dd4565b600060405180830381855af49150503d8060008114611447576040519150601f19603f3d011682016040523d82523d6000602084013e61144c565b606091505b509150915061147482826040518060600160405280602781526020016124da602791396116ac565b9250505092915050565b6000819050919050565b611491816112e1565b8073ffffffffffffffffffffffffffffffffffffffff167fbc7cd75a20ee27fd9adebab32041f755214dbc6bffa90cc0225b39da2e5c2d3b60405160405180910390a250565b600060019054906101000a900460ff16806114fd575060008054906101000a900460ff16155b61153c576040517f08c379a000000000000000000000000000000000000000000000000000000000815260040161153390611ef3565b60405180910390fd5b60008060019054906101000a900460ff16159050801561158c576001600060016101000a81548160ff02191690831515021790555060016000806101000a81548160ff0219169083151502179055505b80156115ad5760008060016101000a81548160ff0219169083151502179055505b50565b600060019054906101000a900460ff16806115d6575060008054906101000a900460ff16155b611615576040517f08c379a000000000000000000000000000000000000000000000000000000000815260040161160c90611ef3565b60405180910390fd5b60008060019054906101000a900460ff161590508015611665576001600060016101000a81548160ff02191690831515021790555060016000806101000a81548160ff0219169083151502179055505b611675611670610e79565b611211565b80156116965760008060016101000a81548160ff0219169083151502179055505b50565b600080823b905060008111915050919050565b606083156116bc5782905061170c565b6000835111156116cf5782518084602001fd5b816040517f08c379a00000000000000000000000000000000000000000000000000000000081526004016117039190611e51565b60405180910390fd5b9392505050565b604051806060016040528060008152602001600073ffffffffffffffffffffffffffffffffffffffff168152602001606081525090565b8280546117569061210f565b90600052602060002090601f01602090048101928261177857600085556117bf565b82601f1061179157805160ff19168380011785556117bf565b828001600101855582156117bf579182015b828111156117be5782518255916020019190600101906117a3565b5b5090506117cc91906117d0565b5090565b5b808211156117e95760008160009055506001016117d1565b5090565b60006118006117fb84611fb3565b611f8e565b90508281526020810184848401111561181857600080fd5b6118238482856120cd565b509392505050565b600061183e61183984611fe4565b611f8e565b90508281526020810184848401111561185657600080fd5b6118618482856120cd565b509392505050565b600061187c61187784611fe4565b611f8e565b90508281526020810184848401111561189457600080fd5b61189f8482856120dc565b509392505050565b6000813590506118b6816124ab565b92915050565b600082601f8301126118cd57600080fd5b81356118dd8482602086016117ed565b91505092915050565b600082601f8301126118f757600080fd5b813561190784826020860161182b565b91505092915050565b600082601f83011261192157600080fd5b8151611931848260208601611869565b91505092915050565b600081359050611949816124c2565b92915050565b60008151905061195e816124c2565b92915050565b60006020828403121561197657600080fd5b6000611984848285016118a7565b91505092915050565b600080604083850312156119a057600080fd5b60006119ae858286016118a7565b92505060206119bf858286016118a7565b9150509250929050565b600080604083850312156119dc57600080fd5b60006119ea858286016118a7565b925050602083013567ffffffffffffffff811115611a0757600080fd5b611a13858286016118bc565b9150509250929050565b60008060408385031215611a3057600080fd5b6000611a3e858286016118a7565b9250506020611a4f8582860161193a565b9150509250929050565b600060208284031215611a6b57600080fd5b600082013567ffffffffffffffff811115611a8557600080fd5b611a91848285016118e6565b91505092915050565b600060208284031215611aac57600080fd5b600082015167ffffffffffffffff811115611ac657600080fd5b611ad284828501611910565b91505092915050565b600060208284031215611aed57600080fd5b6000611afb8482850161194f565b91505092915050565b6000611b108383611d66565b905092915050565b611b2181612091565b82525050565b611b3081612091565b82525050565b6000611b4182612025565b611b4b8185612053565b935083602082028501611b5d85612015565b8060005b85811015611b995784840389528151611b7a8582611b04565b9450611b8583612046565b925060208a01995050600181019050611b61565b50829750879550505050505092915050565b6000611bb682612030565b611bc08185612064565b9350611bd08185602086016120dc565b80840191505092915050565b6000611be78261203b565b611bf1818561206f565b9350611c018185602086016120dc565b611c0a81612248565b840191505092915050565b6000611c208261203b565b611c2a8185612080565b9350611c3a8185602086016120dc565b611c4381612248565b840191505092915050565b6000611c5b602f83612080565b9150611c6682612259565b604082019050919050565b6000611c7e602683612080565b9150611c89826122a8565b604082019050919050565b6000611ca1602c83612080565b9150611cac826122f7565b604082019050919050565b6000611cc4602c83612080565b9150611ccf82612346565b604082019050919050565b6000611ce7602e83612080565b9150611cf282612395565b604082019050919050565b6000611d0a602d83612080565b9150611d15826123e4565b604082019050919050565b6000611d2d602083612080565b9150611d3882612433565b602082019050919050565b6000611d50602683612080565b9150611d5b8261245c565b604082019050919050565b6000606083016000830151611d7e6000860182611db6565b506020830151611d916020860182611b18565b5060408301518482036040860152611da98282611bdc565b9150508091505092915050565b611dbf816120c3565b82525050565b611dce816120c3565b82525050565b6000611de08284611bab565b915081905092915050565b6000602082019050611e006000830184611b27565b92915050565b6000604082019050611e1b6000830185611b27565b611e286020830184611dc5565b9392505050565b60006020820190508181036000830152611e498184611b36565b905092915050565b60006020820190508181036000830152611e6b8184611c15565b905092915050565b60006020820190508181036000830152611e8c81611c4e565b9050919050565b60006020820190508181036000830152611eac81611c71565b9050919050565b60006020820190508181036000830152611ecc81611c94565b9050919050565b60006020820190508181036000830152611eec81611cb7565b9050919050565b60006020820190508181036000830152611f0c81611cda565b9050919050565b60006020820190508181036000830152611f2c81611cfd565b9050919050565b60006020820190508181036000830152611f4c81611d20565b9050919050565b60006020820190508181036000830152611f6c81611d43565b9050919050565b6000602082019050611f886000830184611dc5565b92915050565b6000611f98611fa9565b9050611fa48282612141565b919050565b6000604051905090565b600067ffffffffffffffff821115611fce57611fcd612219565b5b611fd782612248565b9050602081019050919050565b600067ffffffffffffffff821115611fff57611ffe612219565b5b61200882612248565b9050602081019050919050565b6000819050602082019050919050565b600081519050919050565b600081519050919050565b600081519050919050565b6000602082019050919050565b600082825260208201905092915050565b600081905092915050565b600082825260208201905092915050565b600082825260208201905092915050565b600061209c826120a3565b9050919050565b600073ffffffffffffffffffffffffffffffffffffffff82169050919050565b6000819050919050565b82818337600083830152505050565b60005b838110156120fa5780820151818401526020810190506120df565b83811115612109576000848401525b50505050565b6000600282049050600182168061212757607f821691505b6020821081141561213b5761213a6121ea565b5b50919050565b61214a82612248565b810181811067ffffffffffffffff8211171561216957612168612219565b5b80604052505050565b600061217d826120c3565b91507fffffffffffffffffffffffffffffffffffffffffffffffffffffffffffffffff8214156121b0576121af6121bb565b5b600182019050919050565b7f4e487b7100000000000000000000000000000000000000000000000000000000600052601160045260246000fd5b7f4e487b7100000000000000000000000000000000000000000000000000000000600052602260045260246000fd5b7f4e487b7100000000000000000000000000000000000000000000000000000000600052604160045260246000fd5b6000601f19601f8301169050919050565b7f45524331393637557067726164653a207570677261646520627265616b73206660008201527f7572746865722075706772616465730000000000000000000000000000000000602082015250565b7f4f776e61626c653a206e6577206f776e657220697320746865207a65726f206160008201527f6464726573730000000000000000000000000000000000000000000000000000602082015250565b7f46756e6374696f6e206d7573742062652063616c6c6564207468726f7567682060008201527f64656c656761746563616c6c0000000000000000000000000000000000000000602082015250565b7f46756e6374696f6e206d7573742062652063616c6c6564207468726f7567682060008201527f6163746976652070726f78790000000000000000000000000000000000000000602082015250565b7f496e697469616c697a61626c653a20636f6e747261637420697320616c72656160008201527f647920696e697469616c697a6564000000000000000000000000000000000000602082015250565b7f455243313936373a206e657720696d706c656d656e746174696f6e206973206e60008201527f6f74206120636f6e747261637400000000000000000000000000000000000000602082015250565b7f4f776e61626c653a2063616c6c6572206973206e6f7420746865206f776e6572600082015250565b7f416464726573733a2064656c65676174652063616c6c20746f206e6f6e2d636f60008201527f6e74726163740000000000000000000000000000000000000000000000000000602082015250565b6124b481612091565b81146124bf57600080fd5b50565b6124cb816120c3565b81146124d657600080fd5b5056fe416464726573733a206c6f772d6c6576656c2064656c65676174652063616c6c206661696c6564a2646970667358221220751f27834334b6a91516d4eda3ffbee3515d7e7a77c9cd3201960e8224d7dc5564736f6c63430008020033",
  "linkReferences": {},
  "deployedLinkReferences": {}
}