{
  "_format": "hh-sol-artifact-1",
  "contractName": "GameController",
  "sourceName": "contracts/GameController.sol",
  "abi": [
    {
      "anonymous": false,
      "inputs": [
        {
          "indexed": false,
          "internalType": "address",
          "name": "previousAdmin",
          "type": "address"
        },
        {
          "indexed": false,
          "internalType": "address",
          "name": "newAdmin",
          "type": "address"
        }
      ],
      "name": "AdminChanged",
      "type": "event"
    },
    {
      "anonymous": false,
      "inputs": [
        {
          "indexed": true,
          "internalType": "address",
          "name": "beacon",
          "type": "address"
        }
      ],
      "name": "BeaconUpgraded",
      "type": "event"
    },
    {
      "anonymous": false,
      "inputs": [
        {
          "indexed": false,
          "internalType": "uint256",
          "name": "gameid",
          "type": "uint256"
        },
        {
          "indexed": false,
          "internalType": "address[]",
          "name": "players",
          "type": "address[]"
        },
        {
          "indexed": false,
          "internalType": "bool",
          "name": "isActive",
          "type": "bool"
        }
      ],
      "name": "GameStarted",
      "type": "event"
    },
    {
      "anonymous": false,
      "inputs": [
        {
          "indexed": true,
          "internalType": "address",
          "name": "previousOwner",
          "type": "address"
        },
        {
          "indexed": true,
          "internalType": "address",
          "name": "newOwner",
          "type": "address"
        }
      ],
      "name": "OwnershipTransferred",
      "type": "event"
    },
    {
      "anonymous": false,
      "inputs": [
        {
          "indexed": false,
          "internalType": "address",
          "name": "gameMaster",
          "type": "address"
        },
        {
          "indexed": false,
          "internalType": "address",
          "name": "player",
          "type": "address"
        },
        {
          "indexed": false,
          "internalType": "uint256",
          "name": "rank",
          "type": "uint256"
        },
        {
          "indexed": false,
          "internalType": "uint256",
          "name": "token",
          "type": "uint256"
        },
        {
          "indexed": false,
          "internalType": "uint256",
          "name": "point",
          "type": "uint256"
        },
        {
          "indexed": false,
          "internalType": "uint256",
          "name": "time",
          "type": "uint256"
        }
      ],
      "name": "PvERewarded",
      "type": "event"
    },
    {
      "anonymous": false,
      "inputs": [
        {
          "indexed": false,
          "internalType": "address",
          "name": "gameMaster",
          "type": "address"
        },
        {
          "indexed": false,
          "internalType": "address",
          "name": "player",
          "type": "address"
        },
        {
          "indexed": false,
          "internalType": "uint256",
          "name": "rank",
          "type": "uint256"
        },
        {
          "indexed": false,
          "internalType": "uint256",
          "name": "token",
          "type": "uint256"
        },
        {
          "indexed": false,
          "internalType": "uint256",
          "name": "point",
          "type": "uint256"
        },
        {
          "indexed": false,
          "internalType": "uint256",
          "name": "time",
          "type": "uint256"
        }
      ],
      "name": "PvPRewarded",
      "type": "event"
    },
    {
      "anonymous": false,
      "inputs": [
        {
          "indexed": false,
          "internalType": "address",
          "name": "player",
          "type": "address"
        },
        {
          "indexed": false,
          "internalType": "uint256",
          "name": "boughtQuantity",
          "type": "uint256"
        },
        {
          "indexed": false,
          "internalType": "uint256",
          "name": "price",
          "type": "uint256"
        }
      ],
      "name": "TicketBought",
      "type": "event"
    },
    {
      "anonymous": false,
      "inputs": [
        {
          "indexed": true,
          "internalType": "address",
          "name": "implementation",
          "type": "address"
        }
      ],
      "name": "Upgraded",
      "type": "event"
    },
    {
      "inputs": [
        {
          "internalType": "uint256",
          "name": "numTicket",
          "type": "uint256"
        }
      ],
      "name": "buyTicket",
      "outputs": [],
      "stateMutability": "nonpayable",
      "type": "function"
    },
    {
      "inputs": [
        {
          "internalType": "address[]",
          "name": "addresses",
          "type": "address[]"
        }
      ],
      "name": "getGame",
      "outputs": [
        {
          "internalType": "bool[]",
          "name": "",
          "type": "bool[]"
        }
      ],
      "stateMutability": "view",
      "type": "function"
    },
    {
      "inputs": [],
      "name": "getGameMaster",
      "outputs": [
        {
          "internalType": "address",
          "name": "",
          "type": "address"
        }
      ],
      "stateMutability": "view",
      "type": "function"
    },
    {
      "inputs": [],
      "name": "getPlayerInfo",
      "outputs": [
        {
          "components": [
            {
              "internalType": "string",
              "name": "name",
              "type": "string"
            },
            {
              "internalType": "uint256",
              "name": "ticket",
              "type": "uint256"
            },
            {
              "internalType": "uint256",
              "name": "point",
              "type": "uint256"
            }
          ],
          "internalType": "struct GameController.Player",
          "name": "",
          "type": "tuple"
        }
      ],
      "stateMutability": "view",
      "type": "function"
    },
    {
      "inputs": [
        {
          "internalType": "address",
          "name": "player",
          "type": "address"
        }
      ],
      "name": "getPlayerInfoByAddress",
      "outputs": [
        {
          "components": [
            {
              "internalType": "string",
              "name": "name",
              "type": "string"
            },
            {
              "internalType": "uint256",
              "name": "ticket",
              "type": "uint256"
            },
            {
              "internalType": "uint256",
              "name": "point",
              "type": "uint256"
            }
          ],
          "internalType": "struct GameController.Player",
          "name": "",
          "type": "tuple"
        }
      ],
      "stateMutability": "view",
      "type": "function"
    },
    {
      "inputs": [],
      "name": "getPlayerNFT",
      "outputs": [
        {
          "components": [
            {
              "internalType": "uint256",
              "name": "tokenId",
              "type": "uint256"
            },
            {
              "internalType": "address",
              "name": "contractAddress",
              "type": "address"
            },
            {
              "internalType": "string",
              "name": "URI",
              "type": "string"
            }
          ],
          "internalType": "struct GameController.TokenInfo[]",
          "name": "",
          "type": "tuple[]"
        }
      ],
      "stateMutability": "view",
      "type": "function"
    },
    {
      "inputs": [
        {
          "internalType": "address",
          "name": "player",
          "type": "address"
        }
      ],
      "name": "getPlayerNFTByAddress",
      "outputs": [
        {
          "components": [
            {
              "internalType": "uint256",
              "name": "tokenId",
              "type": "uint256"
            },
            {
              "internalType": "address",
              "name": "contractAddress",
              "type": "address"
            },
            {
              "internalType": "string",
              "name": "URI",
              "type": "string"
            }
          ],
          "internalType": "struct GameController.TokenInfo[]",
          "name": "",
          "type": "tuple[]"
        }
      ],
      "stateMutability": "view",
      "type": "function"
    },
    {
      "inputs": [
        {
          "internalType": "uint256",
          "name": "room",
          "type": "uint256"
        }
      ],
      "name": "getPoint",
      "outputs": [
        {
          "internalType": "uint256[]",
          "name": "",
          "type": "uint256[]"
        }
      ],
      "stateMutability": "view",
      "type": "function"
    },
    {
      "inputs": [
        {
          "internalType": "uint256",
          "name": "room",
          "type": "uint256"
        }
      ],
      "name": "getPrizePercent",
      "outputs": [
        {
          "internalType": "uint256[]",
          "name": "",
          "type": "uint256[]"
        }
      ],
      "stateMutability": "view",
      "type": "function"
    },
    {
      "inputs": [],
      "name": "getPvEPoint",
      "outputs": [
        {
          "internalType": "uint256[]",
          "name": "",
          "type": "uint256[]"
        }
      ],
      "stateMutability": "view",
      "type": "function"
    },
    {
      "inputs": [],
      "name": "getPvEPrizes",
      "outputs": [
        {
          "internalType": "uint256[]",
          "name": "",
          "type": "uint256[]"
        }
      ],
      "stateMutability": "view",
      "type": "function"
    },
    {
      "inputs": [],
      "name": "getTicketPrice",
      "outputs": [
        {
          "internalType": "uint256",
          "name": "",
          "type": "uint256"
        }
      ],
      "stateMutability": "view",
      "type": "function"
    },
    {
      "inputs": [],
      "name": "howl",
      "outputs": [
        {
          "internalType": "address",
          "name": "",
          "type": "address"
        }
      ],
      "stateMutability": "view",
      "type": "function"
    },
    {
      "inputs": [
        {
          "internalType": "address",
          "name": "erc20",
          "type": "address"
        },
        {
          "internalType": "address",
          "name": "erc721",
          "type": "address"
        }
      ],
      "name": "initialize",
      "outputs": [],
      "stateMutability": "nonpayable",
      "type": "function"
    },
    {
      "inputs": [],
      "name": "nft",
      "outputs": [
        {
          "internalType": "address",
          "name": "",
          "type": "address"
        }
      ],
      "stateMutability": "view",
      "type": "function"
    },
    {
      "inputs": [],
      "name": "owner",
      "outputs": [
        {
          "internalType": "address",
          "name": "",
          "type": "address"
        }
      ],
      "stateMutability": "view",
      "type": "function"
    },
    {
      "inputs": [],
      "name": "renounceOwnership",
      "outputs": [],
      "stateMutability": "nonpayable",
      "type": "function"
    },
    {
      "inputs": [
        {
          "internalType": "address",
          "name": "player",
          "type": "address"
        },
        {
          "internalType": "uint256",
          "name": "rank",
          "type": "uint256"
        }
      ],
      "name": "rewardPvE",
      "outputs": [],
      "stateMutability": "nonpayable",
      "type": "function"
    },
    {
      "inputs": [
        {
          "internalType": "address[]",
          "name": "addresses",
          "type": "address[]"
        }
      ],
      "name": "rewardPvP",
      "outputs": [],
      "stateMutability": "nonpayable",
      "type": "function"
    },
    {
      "inputs": [
        {
          "internalType": "address",
          "name": "newGameMaster",
          "type": "address"
        }
      ],
      "name": "setGameMaster",
      "outputs": [],
      "stateMutability": "nonpayable",
      "type": "function"
    },
    {
      "inputs": [
        {
          "internalType": "string",
          "name": "newPlayerName",
          "type": "string"
        }
      ],
      "name": "setPlayerName",
      "outputs": [],
      "stateMutability": "nonpayable",
      "type": "function"
    },
    {
      "inputs": [
        {
          "internalType": "uint256",
          "name": "room",
          "type": "uint256"
        },
        {
          "internalType": "uint256[]",
          "name": "point",
          "type": "uint256[]"
        }
      ],
      "name": "setPoint",
      "outputs": [],
      "stateMutability": "nonpayable",
      "type": "function"
    },
    {
      "inputs": [
        {
          "internalType": "uint256",
          "name": "room",
          "type": "uint256"
        },
        {
          "internalType": "uint256[]",
          "name": "percentX10",
          "type": "uint256[]"
        }
      ],
      "name": "setPrizePercent",
      "outputs": [],
      "stateMutability": "nonpayable",
      "type": "function"
    },
    {
      "inputs": [
        {
          "internalType": "uint256[]",
          "name": "point",
          "type": "uint256[]"
        }
      ],
      "name": "setPvEPoint",
      "outputs": [],
      "stateMutability": "nonpayable",
      "type": "function"
    },
    {
      "inputs": [
        {
          "internalType": "uint256[]",
          "name": "prizes",
          "type": "uint256[]"
        }
      ],
      "name": "setPvEPrizes",
      "outputs": [],
      "stateMutability": "nonpayable",
      "type": "function"
    },
    {
      "inputs": [
        {
          "internalType": "uint256",
          "name": "newTicketPrice",
          "type": "uint256"
        }
      ],
      "name": "setTicketPrice",
      "outputs": [],
      "stateMutability": "nonpayable",
      "type": "function"
    },
    {
      "inputs": [
        {
          "internalType": "address[]",
          "name": "addresses",
          "type": "address[]"
        }
      ],
      "name": "startGame",
      "outputs": [
        {
          "internalType": "bool",
          "name": "",
          "type": "bool"
        }
      ],
      "stateMutability": "nonpayable",
      "type": "function"
    },
    {
      "inputs": [
        {
          "internalType": "address",
          "name": "newOwner",
          "type": "address"
        }
      ],
      "name": "transferOwnership",
      "outputs": [],
      "stateMutability": "nonpayable",
      "type": "function"
    },
    {
      "inputs": [
        {
          "internalType": "address",
          "name": "newImplementation",
          "type": "address"
        }
      ],
      "name": "upgradeTo",
      "outputs": [],
      "stateMutability": "nonpayable",
      "type": "function"
    },
    {
      "inputs": [
        {
          "internalType": "address",
          "name": "newImplementation",
          "type": "address"
        },
        {
          "internalType": "bytes",
          "name": "data",
          "type": "bytes"
        }
      ],
      "name": "upgradeToAndCall",
      "outputs": [],
      "stateMutability": "payable",
      "type": "function"
    }
  ],
  "bytecode": "0x60a06040523073ffffffffffffffffffffffffffffffffffffffff1660809073ffffffffffffffffffffffffffffffffffffffff1660601b81525034801561004657600080fd5b5060805160601c61559c6200007b60003960008181610ddf01528181610e6e0152818161165301526116e2015261559c6000f3fe6080604052600436106101cd5760003560e01c806387bb7ae0116100f7578063d1df81df11610095578063ee0b5d8b11610064578063ee0b5d8b1461063d578063f2fde38b1461067a578063f4a193cc146106a3578063fbd84cd6146106ce576101cd565b8063d1df81df14610597578063d8177369146105c2578063d98255db146105eb578063e04392a414610614576101cd565b8063b5efe625116100d1578063b5efe625146104dd578063bbc05fea14610508578063c2e9492714610545578063c9e71b921461056e576101cd565b806387bb7ae01461045e5780638da5cb5b1461048957806390c94e5d146104b4576101cd565b80634f1ef2861161016f578063715018a61161013e578063715018a6146103b6578063747821f0146103cd5780637691ee15146103f6578063869f1c8e14610421576101cd565b80634f1ef2861461031b578063628a75781461033757806367dd74ca146103625780636803c78d1461038b576101cd565b80633659cfe6116101ab5780633659cfe61461027557806347ccca021461029e578063482f5d82146102c9578063485cc955146102f2576101cd565b80630a875b67146101d2578063159816501461020f57806331dc195914610238575b600080fd5b3480156101de57600080fd5b506101f960048036038101906101f491906141e8565b61070b565b60405161020691906149e1565b60405180910390f35b34801561021b57600080fd5b5061023660048036038101906102319190614315565b6109be565b005b34801561024457600080fd5b5061025f600480360381019061025a91906140f3565b610a87565b60405161026c9190614a03565b60405180910390f35b34801561028157600080fd5b5061029c600480360381019061029791906140f3565b610ddd565b005b3480156102aa57600080fd5b506102b3610f8c565b6040516102c091906148ce565b60405180910390f35b3480156102d557600080fd5b506102f060048036038101906102eb9190614229565b610fb2565b005b3480156102fe57600080fd5b506103196004803603810190610314919061411c565b611048565b005b61033560048036038101906103309190614158565b611651565b005b34801561034357600080fd5b5061034c61178e565b6040516103599190614a03565b60405180910390f35b34801561036e57600080fd5b5061038960048036038101906103849190614315565b611ae2565b005b34801561039757600080fd5b506103a0611ce7565b6040516103ad91906148ce565b60405180910390f35b3480156103c257600080fd5b506103cb611d0d565b005b3480156103d957600080fd5b506103f460048036038101906103ef91906141e8565b611d95565b005b34801561040257600080fd5b5061040b611f37565b6040516104189190614a25565b60405180910390f35b34801561042d57600080fd5b5061044860048036038101906104439190614315565b611f8f565b6040516104559190614a25565b60405180910390f35b34801561046a57600080fd5b50610473611ffa565b6040516104809190614c66565b60405180910390f35b34801561049557600080fd5b5061049e612004565b6040516104ab91906148ce565b60405180910390f35b3480156104c057600080fd5b506104db60048036038101906104d69190614367565b61202e565b005b3480156104e957600080fd5b506104f26120d6565b6040516104ff91906148ce565b60405180910390f35b34801561051457600080fd5b5061052f600480360381019061052a9190614315565b612100565b60405161053c9190614a25565b60405180910390f35b34801561055157600080fd5b5061056c600480360381019061056791906140f3565b61216b565b005b34801561057a57600080fd5b50610595600480360381019061059091906141ac565b61222b565b005b3480156105a357600080fd5b506105ac6123c0565b6040516105b99190614c44565b60405180910390f35b3480156105ce57600080fd5b506105e960048036038101906105e49190614293565b6124bd565b005b3480156105f757600080fd5b50610612600480360381019061060d9190614367565b612517565b005b34801561062057600080fd5b5061063b60048036038101906106369190614229565b6125bf565b005b34801561064957600080fd5b50610664600480360381019061065f91906140f3565b612655565b6040516106719190614c44565b60405180910390f35b34801561068657600080fd5b506106a1600480360381019061069c91906140f3565b612754565b005b3480156106af57600080fd5b506106b861284c565b6040516106c59190614a25565b60405180910390f35b3480156106da57600080fd5b506106f560048036038101906106f091906141e8565b6128a4565b6040516107029190614a47565b60405180910390f35b60606000600c67ffffffffffffffff811115610750577f4e487b7100000000000000000000000000000000000000000000000000000000600052604160045260246000fd5b60405190808252806020026020018201604052801561077e5781602001602082028036833780820191505090505b5090506000805b845181101561089a5760d560006001815260200190815260200160002060030160008683815181106107e0577f4e487b7100000000000000000000000000000000000000000000000000000000600052603260045260246000fd5b602002602001015173ffffffffffffffffffffffffffffffffffffffff1673ffffffffffffffffffffffffffffffffffffffff16815260200190815260200160002060009054906101000a900460ff1683838061083c90615050565b945081518110610875577f4e487b7100000000000000000000000000000000000000000000000000000000600052603260045260246000fd5b602002602001019015159081151581525050808061089290615050565b915050610785565b5060005b84518110156109b35760d560006002815260200190815260200160002060030160008683815181106108f9577f4e487b7100000000000000000000000000000000000000000000000000000000600052603260045260246000fd5b602002602001015173ffffffffffffffffffffffffffffffffffffffff1673ffffffffffffffffffffffffffffffffffffffff16815260200190815260200160002060009054906101000a900460ff1683838061095590615050565b94508151811061098e577f4e487b7100000000000000000000000000000000000000000000000000000000600052603260045260246000fd5b60200260200101901515908115158152505080806109ab90615050565b91505061089e565b508192505050919050565b6109c6612bf2565b73ffffffffffffffffffffffffffffffffffffffff166109e4612004565b73ffffffffffffffffffffffffffffffffffffffff1614610a3a576040517f08c379a0000000000000000000000000000000000000000000000000000000008152600401610a3190614ba4565b60405180910390fd5b60008111610a7d576040517f08c379a0000000000000000000000000000000000000000000000000000000008152600401610a7490614c24565b60405180910390fd5b8060cc8190555050565b6060600060ca60009054906101000a900473ffffffffffffffffffffffffffffffffffffffff1673ffffffffffffffffffffffffffffffffffffffff166370a08231846040518263ffffffff1660e01b8152600401610ae691906148ce565b60206040518083038186803b158015610afe57600080fd5b505afa158015610b12573d6000803e3d6000fd5b505050506040513d601f19601f82011682018060405250810190610b36919061433e565b905060008167ffffffffffffffff811115610b7a577f4e487b7100000000000000000000000000000000000000000000000000000000600052604160045260246000fd5b604051908082528060200260200182016040528015610bb357816020015b610ba0613a78565b815260200190600190039081610b985790505b50905060005b82811015610dd257600060ca60009054906101000a900473ffffffffffffffffffffffffffffffffffffffff1673ffffffffffffffffffffffffffffffffffffffff16632f745c5987846040518363ffffffff1660e01b8152600401610c20929190614981565b60206040518083038186803b158015610c3857600080fd5b505afa158015610c4c573d6000803e3d6000fd5b505050506040513d601f19601f82011682018060405250810190610c70919061433e565b9050600060ca60009054906101000a900473ffffffffffffffffffffffffffffffffffffffff1673ffffffffffffffffffffffffffffffffffffffff1663c87b56dd836040518263ffffffff1660e01b8152600401610ccf9190614c66565b60006040518083038186803b158015610ce757600080fd5b505afa158015610cfb573d6000803e3d6000fd5b505050506040513d6000823e3d601f19601f82011682018060405250810190610d2491906142d4565b9050604051806060016040528083815260200160ca60009054906101000a900473ffffffffffffffffffffffffffffffffffffffff1673ffffffffffffffffffffffffffffffffffffffff16815260200182815250848481518110610db2577f4e487b7100000000000000000000000000000000000000000000000000000000600052603260045260246000fd5b602002602001018190525050508080610dca90615050565b915050610bb9565b508092505050919050565b7f000000000000000000000000000000000000000000000000000000000000000073ffffffffffffffffffffffffffffffffffffffff163073ffffffffffffffffffffffffffffffffffffffff161415610e6c576040517f08c379a0000000000000000000000000000000000000000000000000000000008152600401610e6390614ae4565b60405180910390fd5b7f000000000000000000000000000000000000000000000000000000000000000073ffffffffffffffffffffffffffffffffffffffff16610eab612bfa565b73ffffffffffffffffffffffffffffffffffffffff1614610f01576040517f08c379a0000000000000000000000000000000000000000000000000000000008152600401610ef890614b04565b60405180910390fd5b610f0a81612c51565b610f8981600067ffffffffffffffff811115610f4f577f4e487b7100000000000000000000000000000000000000000000000000000000600052604160045260246000fd5b6040519080825280601f01601f191660200182016040528015610f815781602001600182028036833780820191505090505b506000612cd0565b50565b60ca60009054906101000a900473ffffffffffffffffffffffffffffffffffffffff1681565b610fba612bf2565b73ffffffffffffffffffffffffffffffffffffffff16610fd8612004565b73ffffffffffffffffffffffffffffffffffffffff161461102e576040517f08c379a000000000000000000000000000000000000000000000000000000000815260040161102590614ba4565b60405180910390fd5b8060d09080519060200190611044929190613aaf565b5050565b600060019054906101000a900460ff168061106e575060008054906101000a900460ff16155b6110ad576040517f08c379a00000000000000000000000000000000000000000000000000000000081526004016110a490614b64565b60405180910390fd5b60008060019054906101000a900460ff1615905080156110fd576001600060016101000a81548160ff02191690831515021790555060016000806101000a81548160ff0219169083151502179055505b611105612ea1565b8260c960006101000a81548173ffffffffffffffffffffffffffffffffffffffff021916908373ffffffffffffffffffffffffffffffffffffffff1602179055508160ca60006101000a81548173ffffffffffffffffffffffffffffffffffffffff021916908373ffffffffffffffffffffffffffffffffffffffff1602179055503360cb60006101000a81548173ffffffffffffffffffffffffffffffffffffffff021916908373ffffffffffffffffffffffffffffffffffffffff1602179055506111e4670de0b6b3a7640000600a612f8a90919063ffffffff16565b60cc81905550603260cd8190555060405180604001604052806103b661ffff168152602001600061ffff1681525060ce600060028152602001908152602001600020906002611234929190613afc565b5060405180606001604052806101c261ffff16815260200161012c61ffff16815260200160c861ffff1681525060ce600060038152602001908152602001600020906003611283929190613b4f565b5060405180608001604052806101c261ffff16815260200161012c61ffff16815260200160c861ffff168152602001600061ffff1681525060ce6000600481526020019081526020016000209060046112dd929190613ba2565b506040518060a001604052806101c261ffff16815260200161012c61ffff16815260200160c861ffff168152602001600061ffff168152602001600061ffff1681525060ce600060058152602001908152602001600020906005611342929190613bf5565b506040518060c001604052806101c261ffff16815260200161012c61ffff16815260200160c861ffff168152602001600061ffff168152602001600061ffff168152602001600061ffff1681525060ce6000600681526020019081526020016000209060066113b2929190613c48565b506040518060400160405280600061ffff1681526020016103e861ffff1681525060cf6000600281526020019081526020016000209060026113f5929190613afc565b506040518060600160405280600061ffff1681526020016107d061ffff1681526020016103e861ffff1681525060cf600060038152602001908152602001600020906003611444929190613b4f565b506040518060800160405280600061ffff168152602001600061ffff1681526020016107d061ffff1681526020016103e861ffff1681525060cf60006004815260200190815260200160002090600461149e929190613ba2565b506040518060a00160405280600061ffff168152602001600061ffff168152602001600061ffff1681526020016107d061ffff1681526020016103e861ffff1681525060cf600060058152602001908152602001600020906005611503929190613bf5565b506040518060c00160405280600061ffff168152602001600061ffff168152602001600061ffff168152602001610bb861ffff1681526020016107d061ffff1681526020016103e861ffff1681525060cf600060068152602001908152602001600020906006611574929190613c48565b506040518060c001604052806103e861ffff16815260200161032061ffff1681526020016101f461ffff16815260200161012c61ffff168152602001606461ffff168152602001603261ffff1681525060d09060066115d4929190613c48565b506040518060c00160405280600a60ff168152602001600060ff168152602001600060ff168152602001600060ff168152602001600060ff168152602001600060ff1681525060d190600661162a929190613c9b565b50801561164c5760008060016101000a81548160ff0219169083151502179055505b505050565b7f000000000000000000000000000000000000000000000000000000000000000073ffffffffffffffffffffffffffffffffffffffff163073ffffffffffffffffffffffffffffffffffffffff1614156116e0576040517f08c379a00000000000000000000000000000000000000000000000000000000081526004016116d790614ae4565b60405180910390fd5b7f000000000000000000000000000000000000000000000000000000000000000073ffffffffffffffffffffffffffffffffffffffff1661171f612bfa565b73ffffffffffffffffffffffffffffffffffffffff1614611775576040517f08c379a000000000000000000000000000000000000000000000000000000000815260040161176c90614b04565b60405180910390fd5b61177e82612c51565b61178a82826001612cd0565b5050565b6060600060ca60009054906101000a900473ffffffffffffffffffffffffffffffffffffffff1673ffffffffffffffffffffffffffffffffffffffff166370a08231336040518263ffffffff1660e01b81526004016117ed91906148ce565b60206040518083038186803b15801561180557600080fd5b505afa158015611819573d6000803e3d6000fd5b505050506040513d601f19601f8201168201806040525081019061183d919061433e565b905060008167ffffffffffffffff811115611881577f4e487b7100000000000000000000000000000000000000000000000000000000600052604160045260246000fd5b6040519080825280602002602001820160405280156118ba57816020015b6118a7613a78565b81526020019060019003908161189f5790505b50905060005b82811015611ad957600060ca60009054906101000a900473ffffffffffffffffffffffffffffffffffffffff1673ffffffffffffffffffffffffffffffffffffffff16632f745c5933846040518363ffffffff1660e01b8152600401611927929190614981565b60206040518083038186803b15801561193f57600080fd5b505afa158015611953573d6000803e3d6000fd5b505050506040513d601f19601f82011682018060405250810190611977919061433e565b9050600060ca60009054906101000a900473ffffffffffffffffffffffffffffffffffffffff1673ffffffffffffffffffffffffffffffffffffffff1663c87b56dd836040518263ffffffff1660e01b81526004016119d69190614c66565b60006040518083038186803b1580156119ee57600080fd5b505afa158015611a02573d6000803e3d6000fd5b505050506040513d6000823e3d601f19601f82011682018060405250810190611a2b91906142d4565b9050604051806060016040528083815260200160ca60009054906101000a900473ffffffffffffffffffffffffffffffffffffffff1673ffffffffffffffffffffffffffffffffffffffff16815260200182815250848481518110611ab9577f4e487b7100000000000000000000000000000000000000000000000000000000600052603260045260246000fd5b602002602001018190525050508080611ad190615050565b9150506118c0565b50809250505090565b60008111611b25576040517f08c379a0000000000000000000000000000000000000000000000000000000008152600401611b1c90614be4565b60405180910390fd5b600060cc5482611b359190614ed5565b9050600060c960009054906101000a900473ffffffffffffffffffffffffffffffffffffffff1673ffffffffffffffffffffffffffffffffffffffff166323b872dd3360cb60009054906101000a900473ffffffffffffffffffffffffffffffffffffffff16856040518463ffffffff1660e01b8152600401611bba939291906148e9565b602060405180830381600087803b158015611bd457600080fd5b505af1158015611be8573d6000803e3d6000fd5b505050506040513d601f19601f82011682018060405250810190611c0c919061426a565b905080611c4e576040517f08c379a0000000000000000000000000000000000000000000000000000000008152600401611c4590614b44565b60405180910390fd5b8260d460003373ffffffffffffffffffffffffffffffffffffffff1673ffffffffffffffffffffffffffffffffffffffff1681526020019081526020016000206001016000828254611ca09190614e4e565b925050819055507f97fac0ce6558f4accbb4696915809c0ef7023ffe7ba9454e94d49fb652aae1d5338484604051611cda939291906149aa565b60405180910390a1505050565b60c960009054906101000a900473ffffffffffffffffffffffffffffffffffffffff1681565b611d15612bf2565b73ffffffffffffffffffffffffffffffffffffffff16611d33612004565b73ffffffffffffffffffffffffffffffffffffffff1614611d89576040517f08c379a0000000000000000000000000000000000000000000000000000000008152600401611d8090614ba4565b60405180910390fd5b611d936000612fa0565b565b611d9d612bf2565b73ffffffffffffffffffffffffffffffffffffffff16611dbb612004565b73ffffffffffffffffffffffffffffffffffffffff1614611e11576040517f08c379a0000000000000000000000000000000000000000000000000000000008152600401611e0890614ba4565b60405180910390fd5b600081519050600181118015611e275750600781105b611e66576040517f08c379a0000000000000000000000000000000000000000000000000000000008152600401611e5d90614ac4565b60405180910390fd5b611f338260ce6000848152602001908152602001600020805480602002602001604051908101604052809291908181526020018280548015611ec757602002820191906000526020600020905b815481526020019060010190808311611eb3575b505050505060cf6000858152602001908152602001600020805480602002602001604051908101604052809291908181526020018280548015611f2957602002820191906000526020600020905b815481526020019060010190808311611f15575b5050505050613066565b5050565b606060d0805480602002602001604051908101604052809291908181526020018280548015611f8557602002820191906000526020600020905b815481526020019060010190808311611f71575b5050505050905090565b606060cf6000838152602001908152602001600020805480602002602001604051908101604052809291908181526020018280548015611fee57602002820191906000526020600020905b815481526020019060010190808311611fda575b50505050509050919050565b600060cc54905090565b6000609760009054906101000a900473ffffffffffffffffffffffffffffffffffffffff16905090565b612036612bf2565b73ffffffffffffffffffffffffffffffffffffffff16612054612004565b73ffffffffffffffffffffffffffffffffffffffff16146120aa576040517f08c379a00000000000000000000000000000000000000000000000000000000081526004016120a190614ba4565b60405180910390fd5b8060ce600084815260200190815260200160002090805190602001906120d1929190613aaf565b505050565b600060cb60009054906101000a900473ffffffffffffffffffffffffffffffffffffffff16905090565b606060ce600083815260200190815260200160002080548060200260200160405190810160405280929190818152602001828054801561215f57602002820191906000526020600020905b81548152602001906001019080831161214b575b50505050509050919050565b612173612bf2565b73ffffffffffffffffffffffffffffffffffffffff16612191612004565b73ffffffffffffffffffffffffffffffffffffffff16146121e7576040517f08c379a00000000000000000000000000000000000000000000000000000000081526004016121de90614ba4565b60405180910390fd5b8060cb60006101000a81548173ffffffffffffffffffffffffffffffffffffffff021916908373ffffffffffffffffffffffffffffffffffffffff16021790555050565b612233612bf2565b73ffffffffffffffffffffffffffffffffffffffff16612251612004565b73ffffffffffffffffffffffffffffffffffffffff16146122a7576040517f08c379a000000000000000000000000000000000000000000000000000000000815260040161229e90614ba4565b60405180910390fd5b6000811180156122b75750600781105b6122f6576040517f08c379a00000000000000000000000000000000000000000000000000000000081526004016122ed90614b24565b60405180910390fd5b6123bc8282612366670de0b6b3a764000060d16001876123169190614f2f565b8154811061234d577f4e487b7100000000000000000000000000000000000000000000000000000000600052603260045260246000fd5b9060005260206000200154612f8a90919063ffffffff16565b60d06001866123759190614f2f565b815481106123ac577f4e487b7100000000000000000000000000000000000000000000000000000000600052603260045260246000fd5b9060005260206000200154613442565b5050565b6123c8613ced565b60d460003373ffffffffffffffffffffffffffffffffffffffff1673ffffffffffffffffffffffffffffffffffffffff16815260200190815260200160002060405180606001604052908160008201805461242290614fed565b80601f016020809104026020016040519081016040528092919081815260200182805461244e90614fed565b801561249b5780601f106124705761010080835404028352916020019161249b565b820191906000526020600020905b81548152906001019060200180831161247e57829003601f168201915b5050505050815260200160018201548152602001600282015481525050905090565b8060d460003373ffffffffffffffffffffffffffffffffffffffff1673ffffffffffffffffffffffffffffffffffffffff1681526020019081526020016000206000019080519060200190612513929190613d0e565b5050565b61251f612bf2565b73ffffffffffffffffffffffffffffffffffffffff1661253d612004565b73ffffffffffffffffffffffffffffffffffffffff1614612593576040517f08c379a000000000000000000000000000000000000000000000000000000000815260040161258a90614ba4565b60405180910390fd5b8060cf600084815260200190815260200160002090805190602001906125ba929190613aaf565b505050565b6125c7612bf2565b73ffffffffffffffffffffffffffffffffffffffff166125e5612004565b73ffffffffffffffffffffffffffffffffffffffff161461263b576040517f08c379a000000000000000000000000000000000000000000000000000000000815260040161263290614ba4565b60405180910390fd5b8060d19080519060200190612651929190613aaf565b5050565b61265d613ced565b60d460008373ffffffffffffffffffffffffffffffffffffffff1673ffffffffffffffffffffffffffffffffffffffff1681526020019081526020016000206040518060600160405290816000820180546126b790614fed565b80601f01602080910402602001604051908101604052809291908181526020018280546126e390614fed565b80156127305780601f1061270557610100808354040283529160200191612730565b820191906000526020600020905b81548152906001019060200180831161271357829003601f168201915b50505050508152602001600182015481526020016002820154815250509050919050565b61275c612bf2565b73ffffffffffffffffffffffffffffffffffffffff1661277a612004565b73ffffffffffffffffffffffffffffffffffffffff16146127d0576040517f08c379a00000000000000000000000000000000000000000000000000000000081526004016127c790614ba4565b60405180910390fd5b600073ffffffffffffffffffffffffffffffffffffffff168173ffffffffffffffffffffffffffffffffffffffff161415612840576040517f08c379a000000000000000000000000000000000000000000000000000000000815260040161283790614aa4565b60405180910390fd5b61284981612fa0565b50565b606060d180548060200260200160405190810160405280929190818152602001828054801561289a57602002820191906000526020600020905b815481526020019060010190808311612886575b5050505050905090565b60006128ae612bf2565b73ffffffffffffffffffffffffffffffffffffffff166128cc612004565b73ffffffffffffffffffffffffffffffffffffffff1614612922576040517f08c379a000000000000000000000000000000000000000000000000000000000815260040161291990614ba4565b60405180910390fd5b60005b82518110156129c657600060d460003373ffffffffffffffffffffffffffffffffffffffff1673ffffffffffffffffffffffffffffffffffffffff16815260200190815260200160002060010154116129b3576040517f08c379a00000000000000000000000000000000000000000000000000000000081526004016129aa90614c04565b60405180910390fd5b80806129be90615050565b915050612925565b50600060d560006001815260200190815260200160002090506001816000018190555082816001019080519060200190612a01929190613d94565b5060018160020160006101000a81548160ff02191690831515021790555060005b8351811015612ad8576000826003016000868481518110612a6c577f4e487b7100000000000000000000000000000000000000000000000000000000600052603260045260246000fd5b602002602001015173ffffffffffffffffffffffffffffffffffffffff1673ffffffffffffffffffffffffffffffffffffffff16815260200190815260200160002060006101000a81548160ff0219169083151502179055508080612ad090615050565b915050612a22565b50600060d560006002815260200190815260200160002090506002816000018190555083816001019080519060200190612b13929190613d94565b5060018160020160006101000a81548160ff02191690831515021790555060005b8451811015612bea576001826003016000878481518110612b7e577f4e487b7100000000000000000000000000000000000000000000000000000000600052603260045260246000fd5b602002602001015173ffffffffffffffffffffffffffffffffffffffff1673ffffffffffffffffffffffffffffffffffffffff16815260200190815260200160002060006101000a81548160ff0219169083151502179055508080612be290615050565b915050612b34565b505050919050565b600033905090565b6000612c287f360894a13ba1a3210667c828492db98dca3e2076cc3735a920a3ca505d382bbc60001b613626565b60000160009054906101000a900473ffffffffffffffffffffffffffffffffffffffff16905090565b612c59612bf2565b73ffffffffffffffffffffffffffffffffffffffff16612c77612004565b73ffffffffffffffffffffffffffffffffffffffff1614612ccd576040517f08c379a0000000000000000000000000000000000000000000000000000000008152600401612cc490614ba4565b60405180910390fd5b50565b6000612cda612bfa565b9050612ce584613630565b600083511180612cf25750815b15612d0357612d0184846136e9565b505b6000612d317f4910fdfa16fed3260ed0e7147f7cc6da11a60208b5b9406d12a635614ffd914360001b6137cd565b90508060000160009054906101000a900460ff16612e9a5760018160000160006101000a81548160ff021916908315150217905550612dfd8583604051602401612d7b91906148ce565b6040516020818303038152906040527f3659cfe6000000000000000000000000000000000000000000000000000000007bffffffffffffffffffffffffffffffffffffffffffffffffffffffff19166020820180517bffffffffffffffffffffffffffffffffffffffffffffffffffffffff83818316178352505050506136e9565b5060008160000160006101000a81548160ff021916908315150217905550612e23612bfa565b73ffffffffffffffffffffffffffffffffffffffff168273ffffffffffffffffffffffffffffffffffffffff1614612e90576040517f08c379a0000000000000000000000000000000000000000000000000000000008152600401612e8790614a84565b60405180910390fd5b612e99856137d7565b5b5050505050565b600060019054906101000a900460ff1680612ec7575060008054906101000a900460ff16155b612f06576040517f08c379a0000000000000000000000000000000000000000000000000000000008152600401612efd90614b64565b60405180910390fd5b60008060019054906101000a900460ff161590508015612f56576001600060016101000a81548160ff02191690831515021790555060016000806101000a81548160ff0219169083151502179055505b612f5e613826565b612f666138ff565b8015612f875760008060016101000a81548160ff0219169083151502179055505b50565b60008183612f989190614ed5565b905092915050565b6000609760009054906101000a900473ffffffffffffffffffffffffffffffffffffffff16905081609760006101000a81548173ffffffffffffffffffffffffffffffffffffffff021916908373ffffffffffffffffffffffffffffffffffffffff1602179055508173ffffffffffffffffffffffffffffffffffffffff168173ffffffffffffffffffffffffffffffffffffffff167f8be0079c531659141344cd1fd0a4f28419497f9722a3daafe3b4186f6b6457e060405160405180910390a35050565b60008351905060006130838260cc54612f8a90919063ffffffff16565b905060005b855181101561343a5760006130fa6103e86130ec8885815181106130d5577f4e487b7100000000000000000000000000000000000000000000000000000000600052603260045260246000fd5b602002602001015186612f8a90919063ffffffff16565b6139e890919063ffffffff16565b9050600081111561325e57600060c960009054906101000a900473ffffffffffffffffffffffffffffffffffffffff1673ffffffffffffffffffffffffffffffffffffffff166323b872dd60cb60009054906101000a900473ffffffffffffffffffffffffffffffffffffffff168a86815181106131a1577f4e487b7100000000000000000000000000000000000000000000000000000000600052603260045260246000fd5b6020026020010151856040518463ffffffff1660e01b81526004016131c8939291906148e9565b602060405180830381600087803b1580156131e257600080fd5b505af11580156131f6573d6000803e3d6000fd5b505050506040513d601f19601f8201168201806040525081019061321a919061426a565b90508061325c576040517f08c379a000000000000000000000000000000000000000000000000000000000815260040161325390614b44565b60405180910390fd5b505b848281518110613297577f4e487b7100000000000000000000000000000000000000000000000000000000600052603260045260246000fd5b602002602001015160d460008985815181106132dc577f4e487b7100000000000000000000000000000000000000000000000000000000600052603260045260246000fd5b602002602001015173ffffffffffffffffffffffffffffffffffffffff1673ffffffffffffffffffffffffffffffffffffffff16815260200190815260200160002060020160008282546133309190614e4e565b925050819055507fdce512682fc110dd577116429cce62979da37e07b71929a3a0a978054d14756e60cb60009054906101000a900473ffffffffffffffffffffffffffffffffffffffff168884815181106133b4577f4e487b7100000000000000000000000000000000000000000000000000000000600052603260045260246000fd5b60200260200101516001856133c99190614e4e565b84898781518110613403577f4e487b7100000000000000000000000000000000000000000000000000000000600052603260045260246000fd5b60200260200101514260405161341e96959493929190614920565b60405180910390a150808061343290615050565b915050613088565b505050505050565b600183141561356457600060c960009054906101000a900473ffffffffffffffffffffffffffffffffffffffff1673ffffffffffffffffffffffffffffffffffffffff166323b872dd60cb60009054906101000a900473ffffffffffffffffffffffffffffffffffffffff1687866040518463ffffffff1660e01b81526004016134ce939291906148e9565b602060405180830381600087803b1580156134e857600080fd5b505af11580156134fc573d6000803e3d6000fd5b505050506040513d601f19601f82011682018060405250810190613520919061426a565b905080613562576040517f08c379a000000000000000000000000000000000000000000000000000000000815260040161355990614b44565b60405180910390fd5b505b8060d460008673ffffffffffffffffffffffffffffffffffffffff1673ffffffffffffffffffffffffffffffffffffffff16815260200190815260200160002060020160008282546135b69190614e4e565b925050819055507ffd15fe9ec3d9a7aef6aff4bddcb734adc03b3860d5fcf447a1259f05ec0d04f960cb60009054906101000a900473ffffffffffffffffffffffffffffffffffffffff16858585854260405161361896959493929190614920565b60405180910390a150505050565b6000819050919050565b613639816139fe565b613678576040517f08c379a000000000000000000000000000000000000000000000000000000000815260040161366f90614b84565b60405180910390fd5b806136a57f360894a13ba1a3210667c828492db98dca3e2076cc3735a920a3ca505d382bbc60001b613626565b60000160006101000a81548173ffffffffffffffffffffffffffffffffffffffff021916908373ffffffffffffffffffffffffffffffffffffffff16021790555050565b60606136f4836139fe565b613733576040517f08c379a000000000000000000000000000000000000000000000000000000000815260040161372a90614bc4565b60405180910390fd5b6000808473ffffffffffffffffffffffffffffffffffffffff168460405161375b91906148b7565b600060405180830381855af49150503d8060008114613796576040519150601f19603f3d011682016040523d82523d6000602084013e61379b565b606091505b50915091506137c3828260405180606001604052806027815260200161554060279139613a11565b9250505092915050565b6000819050919050565b6137e081613630565b8073ffffffffffffffffffffffffffffffffffffffff167fbc7cd75a20ee27fd9adebab32041f755214dbc6bffa90cc0225b39da2e5c2d3b60405160405180910390a250565b600060019054906101000a900460ff168061384c575060008054906101000a900460ff16155b61388b576040517f08c379a000000000000000000000000000000000000000000000000000000000815260040161388290614b64565b60405180910390fd5b60008060019054906101000a900460ff1615905080156138db576001600060016101000a81548160ff02191690831515021790555060016000806101000a81548160ff0219169083151502179055505b80156138fc5760008060016101000a81548160ff0219169083151502179055505b50565b600060019054906101000a900460ff1680613925575060008054906101000a900460ff16155b613964576040517f08c379a000000000000000000000000000000000000000000000000000000000815260040161395b90614b64565b60405180910390fd5b60008060019054906101000a900460ff1615905080156139b4576001600060016101000a81548160ff02191690831515021790555060016000806101000a81548160ff0219169083151502179055505b6139c46139bf612bf2565b612fa0565b80156139e55760008060016101000a81548160ff0219169083151502179055505b50565b600081836139f69190614ea4565b905092915050565b600080823b905060008111915050919050565b60608315613a2157829050613a71565b600083511115613a345782518084602001fd5b816040517f08c379a0000000000000000000000000000000000000000000000000000000008152600401613a689190614a62565b60405180910390fd5b9392505050565b604051806060016040528060008152602001600073ffffffffffffffffffffffffffffffffffffffff168152602001606081525090565b828054828255906000526020600020908101928215613aeb579160200282015b82811115613aea578251825591602001919060010190613acf565b5b509050613af89190613e1e565b5090565b828054828255906000526020600020908101928215613b3e579160200282015b82811115613b3d578251829061ffff16905591602001919060010190613b1c565b5b509050613b4b9190613e1e565b5090565b828054828255906000526020600020908101928215613b91579160200282015b82811115613b90578251829061ffff16905591602001919060010190613b6f565b5b509050613b9e9190613e1e565b5090565b828054828255906000526020600020908101928215613be4579160200282015b82811115613be3578251829061ffff16905591602001919060010190613bc2565b5b509050613bf19190613e1e565b5090565b828054828255906000526020600020908101928215613c37579160200282015b82811115613c36578251829061ffff16905591602001919060010190613c15565b5b509050613c449190613e1e565b5090565b828054828255906000526020600020908101928215613c8a579160200282015b82811115613c89578251829061ffff16905591602001919060010190613c68565b5b509050613c979190613e1e565b5090565b828054828255906000526020600020908101928215613cdc579160200282015b82811115613cdb578251829060ff16905591602001919060010190613cbb565b5b509050613ce99190613e1e565b5090565b60405180606001604052806060815260200160008152602001600081525090565b828054613d1a90614fed565b90600052602060002090601f016020900481019282613d3c5760008555613d83565b82601f10613d5557805160ff1916838001178555613d83565b82800160010185558215613d83579182015b82811115613d82578251825591602001919060010190613d67565b5b509050613d909190613e1e565b5090565b828054828255906000526020600020908101928215613e0d579160200282015b82811115613e0c5782518260006101000a81548173ffffffffffffffffffffffffffffffffffffffff021916908373ffffffffffffffffffffffffffffffffffffffff16021790555091602001919060010190613db4565b5b509050613e1a9190613e1e565b5090565b5b80821115613e37576000816000905550600101613e1f565b5090565b6000613e4e613e4984614ca6565b614c81565b90508083825260208201905082856020860282011115613e6d57600080fd5b60005b85811015613e9d5781613e838882613fcd565b845260208401935060208301925050600181019050613e70565b5050509392505050565b6000613eba613eb584614cd2565b614c81565b90508083825260208201905082856020860282011115613ed957600080fd5b60005b85811015613f095781613eef88826140c9565b845260208401935060208301925050600181019050613edc565b5050509392505050565b6000613f26613f2184614cfe565b614c81565b905082815260208101848484011115613f3e57600080fd5b613f49848285614fab565b509392505050565b6000613f64613f5f84614d2f565b614c81565b905082815260208101848484011115613f7c57600080fd5b613f87848285614fab565b509392505050565b6000613fa2613f9d84614d2f565b614c81565b905082815260208101848484011115613fba57600080fd5b613fc5848285614fba565b509392505050565b600081359050613fdc816154fa565b92915050565b600082601f830112613ff357600080fd5b8135614003848260208601613e3b565b91505092915050565b600082601f83011261401d57600080fd5b813561402d848260208601613ea7565b91505092915050565b60008151905061404581615511565b92915050565b600082601f83011261405c57600080fd5b813561406c848260208601613f13565b91505092915050565b600082601f83011261408657600080fd5b8135614096848260208601613f51565b91505092915050565b600082601f8301126140b057600080fd5b81516140c0848260208601613f8f565b91505092915050565b6000813590506140d881615528565b92915050565b6000815190506140ed81615528565b92915050565b60006020828403121561410557600080fd5b600061411384828501613fcd565b91505092915050565b6000806040838503121561412f57600080fd5b600061413d85828601613fcd565b925050602061414e85828601613fcd565b9150509250929050565b6000806040838503121561416b57600080fd5b600061417985828601613fcd565b925050602083013567ffffffffffffffff81111561419657600080fd5b6141a28582860161404b565b9150509250929050565b600080604083850312156141bf57600080fd5b60006141cd85828601613fcd565b92505060206141de858286016140c9565b9150509250929050565b6000602082840312156141fa57600080fd5b600082013567ffffffffffffffff81111561421457600080fd5b61422084828501613fe2565b91505092915050565b60006020828403121561423b57600080fd5b600082013567ffffffffffffffff81111561425557600080fd5b6142618482850161400c565b91505092915050565b60006020828403121561427c57600080fd5b600061428a84828501614036565b91505092915050565b6000602082840312156142a557600080fd5b600082013567ffffffffffffffff8111156142bf57600080fd5b6142cb84828501614075565b91505092915050565b6000602082840312156142e657600080fd5b600082015167ffffffffffffffff81111561430057600080fd5b61430c8482850161409f565b91505092915050565b60006020828403121561432757600080fd5b6000614335848285016140c9565b91505092915050565b60006020828403121561435057600080fd5b600061435e848285016140de565b91505092915050565b6000806040838503121561437a57600080fd5b6000614388858286016140c9565b925050602083013567ffffffffffffffff8111156143a557600080fd5b6143b18582860161400c565b9150509250929050565b60006143c7838361454e565b60208301905092915050565b60006143df8383614849565b905092915050565b60006143f38383614899565b60208301905092915050565b61440881614f63565b82525050565b61441781614f63565b82525050565b600061442882614d90565b6144328185614dee565b935061443d83614d60565b8060005b8381101561446e57815161445588826143bb565b975061446083614dc7565b925050600181019050614441565b5085935050505092915050565b600061448682614d9b565b6144908185614dff565b9350836020820285016144a285614d70565b8060005b858110156144de57848403895281516144bf85826143d3565b94506144ca83614dd4565b925060208a019950506001810190506144a6565b50829750879550505050505092915050565b60006144fb82614da6565b6145058185614e10565b935061451083614d80565b8060005b8381101561454157815161452888826143e7565b975061453383614de1565b925050600181019050614514565b5085935050505092915050565b61455781614f75565b82525050565b61456681614f75565b82525050565b600061457782614db1565b6145818185614e21565b9350614591818560208601614fba565b80840191505092915050565b60006145a882614dbc565b6145b28185614e2c565b93506145c2818560208601614fba565b6145cb81615155565b840191505092915050565b60006145e182614dbc565b6145eb8185614e3d565b93506145fb818560208601614fba565b61460481615155565b840191505092915050565b600061461c602f83614e3d565b915061462782615166565b604082019050919050565b600061463f602683614e3d565b915061464a826151b5565b604082019050919050565b6000614662601b83614e3d565b915061466d82615204565b602082019050919050565b6000614685602c83614e3d565b91506146908261522d565b604082019050919050565b60006146a8602c83614e3d565b91506146b38261527c565b604082019050919050565b60006146cb602e83614e3d565b91506146d6826152cb565b604082019050919050565b60006146ee601283614e3d565b91506146f98261531a565b602082019050919050565b6000614711602e83614e3d565b915061471c82615343565b604082019050919050565b6000614734602d83614e3d565b915061473f82615392565b604082019050919050565b6000614757602083614e3d565b9150614762826153e1565b602082019050919050565b600061477a602683614e3d565b91506147858261540a565b604082019050919050565b600061479d602e83614e3d565b91506147a882615459565b604082019050919050565b60006147c0601183614e3d565b91506147cb826154a8565b602082019050919050565b60006147e3601c83614e3d565b91506147ee826154d1565b602082019050919050565b60006060830160008301518482036000860152614816828261459d565b915050602083015161482b6020860182614899565b50604083015161483e6040860182614899565b508091505092915050565b60006060830160008301516148616000860182614899565b50602083015161487460208601826143ff565b506040830151848203604086015261488c828261459d565b9150508091505092915050565b6148a281614fa1565b82525050565b6148b181614fa1565b82525050565b60006148c3828461456c565b915081905092915050565b60006020820190506148e3600083018461440e565b92915050565b60006060820190506148fe600083018661440e565b61490b602083018561440e565b61491860408301846148a8565b949350505050565b600060c082019050614935600083018961440e565b614942602083018861440e565b61494f60408301876148a8565b61495c60608301866148a8565b61496960808301856148a8565b61497660a08301846148a8565b979650505050505050565b6000604082019050614996600083018561440e565b6149a360208301846148a8565b9392505050565b60006060820190506149bf600083018661440e565b6149cc60208301856148a8565b6149d960408301846148a8565b949350505050565b600060208201905081810360008301526149fb818461441d565b905092915050565b60006020820190508181036000830152614a1d818461447b565b905092915050565b60006020820190508181036000830152614a3f81846144f0565b905092915050565b6000602082019050614a5c600083018461455d565b92915050565b60006020820190508181036000830152614a7c81846145d6565b905092915050565b60006020820190508181036000830152614a9d8161460f565b9050919050565b60006020820190508181036000830152614abd81614632565b9050919050565b60006020820190508181036000830152614add81614655565b9050919050565b60006020820190508181036000830152614afd81614678565b9050919050565b60006020820190508181036000830152614b1d8161469b565b9050919050565b60006020820190508181036000830152614b3d816146be565b9050919050565b60006020820190508181036000830152614b5d816146e1565b9050919050565b60006020820190508181036000830152614b7d81614704565b9050919050565b60006020820190508181036000830152614b9d81614727565b9050919050565b60006020820190508181036000830152614bbd8161474a565b9050919050565b60006020820190508181036000830152614bdd8161476d565b9050919050565b60006020820190508181036000830152614bfd81614790565b9050919050565b60006020820190508181036000830152614c1d816147b3565b9050919050565b60006020820190508181036000830152614c3d816147d6565b9050919050565b60006020820190508181036000830152614c5e81846147f9565b905092915050565b6000602082019050614c7b60008301846148a8565b92915050565b6000614c8b614c9c565b9050614c97828261501f565b919050565b6000604051905090565b600067ffffffffffffffff821115614cc157614cc0615126565b5b602082029050602081019050919050565b600067ffffffffffffffff821115614ced57614cec615126565b5b602082029050602081019050919050565b600067ffffffffffffffff821115614d1957614d18615126565b5b614d2282615155565b9050602081019050919050565b600067ffffffffffffffff821115614d4a57614d49615126565b5b614d5382615155565b9050602081019050919050565b6000819050602082019050919050565b6000819050602082019050919050565b6000819050602082019050919050565b600081519050919050565b600081519050919050565b600081519050919050565b600081519050919050565b600081519050919050565b6000602082019050919050565b6000602082019050919050565b6000602082019050919050565b600082825260208201905092915050565b600082825260208201905092915050565b600082825260208201905092915050565b600081905092915050565b600082825260208201905092915050565b600082825260208201905092915050565b6000614e5982614fa1565b9150614e6483614fa1565b9250827fffffffffffffffffffffffffffffffffffffffffffffffffffffffffffffffff03821115614e9957614e98615099565b5b828201905092915050565b6000614eaf82614fa1565b9150614eba83614fa1565b925082614eca57614ec96150c8565b5b828204905092915050565b6000614ee082614fa1565b9150614eeb83614fa1565b9250817fffffffffffffffffffffffffffffffffffffffffffffffffffffffffffffffff0483118215151615614f2457614f23615099565b5b828202905092915050565b6000614f3a82614fa1565b9150614f4583614fa1565b925082821015614f5857614f57615099565b5b828203905092915050565b6000614f6e82614f81565b9050919050565b60008115159050919050565b600073ffffffffffffffffffffffffffffffffffffffff82169050919050565b6000819050919050565b82818337600083830152505050565b60005b83811015614fd8578082015181840152602081019050614fbd565b83811115614fe7576000848401525b50505050565b6000600282049050600182168061500557607f821691505b60208210811415615019576150186150f7565b5b50919050565b61502882615155565b810181811067ffffffffffffffff8211171561504757615046615126565b5b80604052505050565b600061505b82614fa1565b91507fffffffffffffffffffffffffffffffffffffffffffffffffffffffffffffffff82141561508e5761508d615099565b5b600182019050919050565b7f4e487b7100000000000000000000000000000000000000000000000000000000600052601160045260246000fd5b7f4e487b7100000000000000000000000000000000000000000000000000000000600052601260045260246000fd5b7f4e487b7100000000000000000000000000000000000000000000000000000000600052602260045260246000fd5b7f4e487b7100000000000000000000000000000000000000000000000000000000600052604160045260246000fd5b6000601f19601f8301169050919050565b7f45524331393637557067726164653a207570677261646520627265616b73206660008201527f7572746865722075706772616465730000000000000000000000000000000000602082015250565b7f4f776e61626c653a206e6577206f776e657220697320746865207a65726f206160008201527f6464726573730000000000000000000000000000000000000000000000000000602082015250565b7f526f6f6d206d7573742062652067726561746572207468616e20310000000000600082015250565b7f46756e6374696f6e206d7573742062652063616c6c6564207468726f7567682060008201527f64656c656761746563616c6c0000000000000000000000000000000000000000602082015250565b7f46756e6374696f6e206d7573742062652063616c6c6564207468726f7567682060008201527f6163746976652070726f78790000000000000000000000000000000000000000602082015250565b7f72616e6b206d7573742062652067726561746572207468616e203020616e642060008201527f736d616c6c6572207468616e2037000000000000000000000000000000000000602082015250565b7f4661696c656420746f207472616e736665720000000000000000000000000000600082015250565b7f496e697469616c697a61626c653a20636f6e747261637420697320616c72656160008201527f647920696e697469616c697a6564000000000000000000000000000000000000602082015250565b7f455243313936373a206e657720696d706c656d656e746174696f6e206973206e60008201527f6f74206120636f6e747261637400000000000000000000000000000000000000602082015250565b7f4f776e61626c653a2063616c6c6572206973206e6f7420746865206f776e6572600082015250565b7f416464726573733a2064656c65676174652063616c6c20746f206e6f6e2d636f60008201527f6e74726163740000000000000000000000000000000000000000000000000000602082015250565b7f4e756d626572206f66207469636b657420746f20627579206d7573742062652060008201527f67726561746572207468616e2030000000000000000000000000000000000000602082015250565b7f4e6f7420656e6f756768207469636b6574000000000000000000000000000000600082015250565b7f5072696365206d757374206265206174206c6561737420312077656900000000600082015250565b61550381614f63565b811461550e57600080fd5b50565b61551a81614f75565b811461552557600080fd5b50565b61553181614fa1565b811461553c57600080fd5b5056fe416464726573733a206c6f772d6c6576656c2064656c65676174652063616c6c206661696c6564a2646970667358221220e370c2322d3b9ee2a41b49dce0c0455fd2f198316d01c4d02904fe5048439b8764736f6c63430008020033",
  "linkReferences": {},
  "deployedLinkReferences": {}
}