{
  "_format": "hh-sol-artifact-1",
  "contractName": "GameController",
  "sourceName": "contracts/GameController.sol",
  "abi": [
    {
      "anonymous": false,
      "inputs": [
        {
          "indexed": true,
          "internalType": "address",
          "name": "previousOwner",
          "type": "address"
        },
        {
          "indexed": true,
          "internalType": "address",
          "name": "newOwner",
          "type": "address"
        }
      ],
      "name": "OwnershipTransferred",
      "type": "event"
    },
    {
      "inputs": [],
      "name": "getUserNFT",
      "outputs": [
        {
          "components": [
            {
              "internalType": "uint256",
              "name": "tokenId",
              "type": "uint256"
            },
            {
              "internalType": "address",
              "name": "contractAddress",
              "type": "address"
            },
            {
              "internalType": "string",
              "name": "URI",
              "type": "string"
            }
          ],
          "internalType": "struct GameController.TokenInfo[]",
          "name": "",
          "type": "tuple[]"
        }
      ],
      "stateMutability": "view",
      "type": "function"
    },
    {
      "inputs": [],
      "name": "getUsername",
      "outputs": [
        {
          "internalType": "string",
          "name": "",
          "type": "string"
        }
      ],
      "stateMutability": "view",
      "type": "function"
    },
    {
      "inputs": [
        {
          "internalType": "address",
          "name": "erc721",
          "type": "address"
        }
      ],
      "name": "initialize",
      "outputs": [],
      "stateMutability": "nonpayable",
      "type": "function"
    },
    {
      "inputs": [],
      "name": "owner",
      "outputs": [
        {
          "internalType": "address",
          "name": "",
          "type": "address"
        }
      ],
      "stateMutability": "view",
      "type": "function"
    },
    {
      "inputs": [],
      "name": "renounceOwnership",
      "outputs": [],
      "stateMutability": "nonpayable",
      "type": "function"
    },
    {
      "inputs": [
        {
          "internalType": "string",
          "name": "newUsername",
          "type": "string"
        }
      ],
      "name": "setUsername",
      "outputs": [],
      "stateMutability": "nonpayable",
      "type": "function"
    },
    {
      "inputs": [
        {
          "internalType": "address",
          "name": "newOwner",
          "type": "address"
        }
      ],
      "name": "transferOwnership",
      "outputs": [],
      "stateMutability": "nonpayable",
      "type": "function"
    }
  ],
  "bytecode": "0x608060405234801561001057600080fd5b5061002d61002261003260201b60201c565b61003a60201b60201c565b6100fe565b600033905090565b60008060009054906101000a900473ffffffffffffffffffffffffffffffffffffffff169050816000806101000a81548173ffffffffffffffffffffffffffffffffffffffff021916908373ffffffffffffffffffffffffffffffffffffffff1602179055508173ffffffffffffffffffffffffffffffffffffffff168173ffffffffffffffffffffffffffffffffffffffff167f8be0079c531659141344cd1fd0a4f28419497f9722a3daafe3b4186f6b6457e060405160405180910390a35050565b6112918061010d6000396000f3fe608060405234801561001057600080fd5b506004361061007d5760003560e01c80638da5cb5b1161005b5780638da5cb5b146100c8578063c4d66de8146100e6578063ed59313a14610102578063f2fde38b1461011e5761007d565b806334238d9314610082578063681f3e6d146100a0578063715018a6146100be575b600080fd5b61008a61013a565b6040516100979190610e23565b60405180910390f35b6100a861048e565b6040516100b59190610e45565b60405180910390f35b6100c661055d565b005b6100d06105e5565b6040516100dd9190610ddf565b60405180910390f35b61010060048036038101906100fb9190610b1b565b61060e565b005b61011c60048036038101906101179190610b44565b61072c565b005b61013860048036038101906101339190610b1b565b610783565b005b60606000600360009054906101000a900473ffffffffffffffffffffffffffffffffffffffff1673ffffffffffffffffffffffffffffffffffffffff166370a08231336040518263ffffffff1660e01b81526004016101999190610ddf565b60206040518083038186803b1580156101b157600080fd5b505afa1580156101c5573d6000803e3d6000fd5b505050506040513d601f19601f820116820180604052508101906101e99190610bc6565b905060008167ffffffffffffffff81111561022d577f4e487b7100000000000000000000000000000000000000000000000000000000600052604160045260246000fd5b60405190808252806020026020018201604052801561026657816020015b610253610947565b81526020019060019003908161024b5790505b50905060005b82811015610485576000600360009054906101000a900473ffffffffffffffffffffffffffffffffffffffff1673ffffffffffffffffffffffffffffffffffffffff16632f745c5933846040518363ffffffff1660e01b81526004016102d3929190610dfa565b60206040518083038186803b1580156102eb57600080fd5b505afa1580156102ff573d6000803e3d6000fd5b505050506040513d601f19601f820116820180604052508101906103239190610bc6565b90506000600360009054906101000a900473ffffffffffffffffffffffffffffffffffffffff1673ffffffffffffffffffffffffffffffffffffffff1663c87b56dd836040518263ffffffff1660e01b81526004016103829190610ec7565b60006040518083038186803b15801561039a57600080fd5b505afa1580156103ae573d6000803e3d6000fd5b505050506040513d6000823e3d601f19601f820116820180604052508101906103d79190610b85565b90506040518060600160405280838152602001600360009054906101000a900473ffffffffffffffffffffffffffffffffffffffff1673ffffffffffffffffffffffffffffffffffffffff16815260200182815250848481518110610465577f4e487b7100000000000000000000000000000000000000000000000000000000600052603260045260246000fd5b60200260200101819052505050808061047d9061107f565b91505061026c565b50809250505090565b6060600160003373ffffffffffffffffffffffffffffffffffffffff1673ffffffffffffffffffffffffffffffffffffffff16815260200190815260200160002080546104da9061101c565b80601f01602080910402602001604051908101604052809291908181526020018280546105069061101c565b80156105535780601f1061052857610100808354040283529160200191610553565b820191906000526020600020905b81548152906001019060200180831161053657829003601f168201915b5050505050905090565b61056561087b565b73ffffffffffffffffffffffffffffffffffffffff166105836105e5565b73ffffffffffffffffffffffffffffffffffffffff16146105d9576040517f08c379a00000000000000000000000000000000000000000000000000000000081526004016105d090610ea7565b60405180910390fd5b6105e36000610883565b565b60008060009054906101000a900473ffffffffffffffffffffffffffffffffffffffff16905090565b600060159054906101000a900460ff16806106365750600060149054906101000a900460ff16155b610675576040517f08c379a000000000000000000000000000000000000000000000000000000000815260040161066c90610e87565b60405180910390fd5b60008060159054906101000a900460ff1615905080156106c6576001600060156101000a81548160ff0219169083151502179055506001600060146101000a81548160ff0219169083151502179055505b81600360006101000a81548173ffffffffffffffffffffffffffffffffffffffff021916908373ffffffffffffffffffffffffffffffffffffffff16021790555080156107285760008060156101000a81548160ff0219169083151502179055505b5050565b80600160003373ffffffffffffffffffffffffffffffffffffffff1673ffffffffffffffffffffffffffffffffffffffff168152602001908152602001600020908051906020019061077f92919061097e565b5050565b61078b61087b565b73ffffffffffffffffffffffffffffffffffffffff166107a96105e5565b73ffffffffffffffffffffffffffffffffffffffff16146107ff576040517f08c379a00000000000000000000000000000000000000000000000000000000081526004016107f690610ea7565b60405180910390fd5b600073ffffffffffffffffffffffffffffffffffffffff168173ffffffffffffffffffffffffffffffffffffffff16141561086f576040517f08c379a000000000000000000000000000000000000000000000000000000000815260040161086690610e67565b60405180910390fd5b61087881610883565b50565b600033905090565b60008060009054906101000a900473ffffffffffffffffffffffffffffffffffffffff169050816000806101000a81548173ffffffffffffffffffffffffffffffffffffffff021916908373ffffffffffffffffffffffffffffffffffffffff1602179055508173ffffffffffffffffffffffffffffffffffffffff168173ffffffffffffffffffffffffffffffffffffffff167f8be0079c531659141344cd1fd0a4f28419497f9722a3daafe3b4186f6b6457e060405160405180910390a35050565b604051806060016040528060008152602001600073ffffffffffffffffffffffffffffffffffffffff168152602001606081525090565b82805461098a9061101c565b90600052602060002090601f0160209004810192826109ac57600085556109f3565b82601f106109c557805160ff19168380011785556109f3565b828001600101855582156109f3579182015b828111156109f25782518255916020019190600101906109d7565b5b509050610a009190610a04565b5090565b5b80821115610a1d576000816000905550600101610a05565b5090565b6000610a34610a2f84610f07565b610ee2565b905082815260208101848484011115610a4c57600080fd5b610a57848285610fda565b509392505050565b6000610a72610a6d84610f07565b610ee2565b905082815260208101848484011115610a8a57600080fd5b610a95848285610fe9565b509392505050565b600081359050610aac8161122d565b92915050565b600082601f830112610ac357600080fd5b8135610ad3848260208601610a21565b91505092915050565b600082601f830112610aed57600080fd5b8151610afd848260208601610a5f565b91505092915050565b600081519050610b1581611244565b92915050565b600060208284031215610b2d57600080fd5b6000610b3b84828501610a9d565b91505092915050565b600060208284031215610b5657600080fd5b600082013567ffffffffffffffff811115610b7057600080fd5b610b7c84828501610ab2565b91505092915050565b600060208284031215610b9757600080fd5b600082015167ffffffffffffffff811115610bb157600080fd5b610bbd84828501610adc565b91505092915050565b600060208284031215610bd857600080fd5b6000610be684828501610b06565b91505092915050565b6000610bfb8383610d71565b905092915050565b610c0c81610f9e565b82525050565b610c1b81610f9e565b82525050565b6000610c2c82610f48565b610c368185610f6b565b935083602082028501610c4885610f38565b8060005b85811015610c845784840389528151610c658582610bef565b9450610c7083610f5e565b925060208a01995050600181019050610c4c565b50829750879550505050505092915050565b6000610ca182610f53565b610cab8185610f7c565b9350610cbb818560208601610fe9565b610cc481611155565b840191505092915050565b6000610cda82610f53565b610ce48185610f8d565b9350610cf4818560208601610fe9565b610cfd81611155565b840191505092915050565b6000610d15602683610f8d565b9150610d2082611166565b604082019050919050565b6000610d38602e83610f8d565b9150610d43826111b5565b604082019050919050565b6000610d5b602083610f8d565b9150610d6682611204565b602082019050919050565b6000606083016000830151610d896000860182610dc1565b506020830151610d9c6020860182610c03565b5060408301518482036040860152610db48282610c96565b9150508091505092915050565b610dca81610fd0565b82525050565b610dd981610fd0565b82525050565b6000602082019050610df46000830184610c12565b92915050565b6000604082019050610e0f6000830185610c12565b610e1c6020830184610dd0565b9392505050565b60006020820190508181036000830152610e3d8184610c21565b905092915050565b60006020820190508181036000830152610e5f8184610ccf565b905092915050565b60006020820190508181036000830152610e8081610d08565b9050919050565b60006020820190508181036000830152610ea081610d2b565b9050919050565b60006020820190508181036000830152610ec081610d4e565b9050919050565b6000602082019050610edc6000830184610dd0565b92915050565b6000610eec610efd565b9050610ef8828261104e565b919050565b6000604051905090565b600067ffffffffffffffff821115610f2257610f21611126565b5b610f2b82611155565b9050602081019050919050565b6000819050602082019050919050565b600081519050919050565b600081519050919050565b6000602082019050919050565b600082825260208201905092915050565b600082825260208201905092915050565b600082825260208201905092915050565b6000610fa982610fb0565b9050919050565b600073ffffffffffffffffffffffffffffffffffffffff82169050919050565b6000819050919050565b82818337600083830152505050565b60005b83811015611007578082015181840152602081019050610fec565b83811115611016576000848401525b50505050565b6000600282049050600182168061103457607f821691505b60208210811415611048576110476110f7565b5b50919050565b61105782611155565b810181811067ffffffffffffffff8211171561107657611075611126565b5b80604052505050565b600061108a82610fd0565b91507fffffffffffffffffffffffffffffffffffffffffffffffffffffffffffffffff8214156110bd576110bc6110c8565b5b600182019050919050565b7f4e487b7100000000000000000000000000000000000000000000000000000000600052601160045260246000fd5b7f4e487b7100000000000000000000000000000000000000000000000000000000600052602260045260246000fd5b7f4e487b7100000000000000000000000000000000000000000000000000000000600052604160045260246000fd5b6000601f19601f8301169050919050565b7f4f776e61626c653a206e6577206f776e657220697320746865207a65726f206160008201527f6464726573730000000000000000000000000000000000000000000000000000602082015250565b7f496e697469616c697a61626c653a20636f6e747261637420697320616c72656160008201527f647920696e697469616c697a6564000000000000000000000000000000000000602082015250565b7f4f776e61626c653a2063616c6c6572206973206e6f7420746865206f776e6572600082015250565b61123681610f9e565b811461124157600080fd5b50565b61124d81610fd0565b811461125857600080fd5b5056fea2646970667358221220d2f078961885ebf4d5d4b899d537c9081b1d7e60df533cb589858e6008e7b6c064736f6c63430008020033",
  "linkReferences": {},
  "deployedLinkReferences": {}
}