{
  "_format": "hh-sol-artifact-1",
  "contractName": "GameItem",
  "sourceName": "contracts/GameItem.sol",
  "abi": [
    {
      "inputs": [],
      "stateMutability": "nonpayable",
      "type": "constructor"
    },
    {
      "anonymous": false,
      "inputs": [
        {
          "indexed": true,
          "internalType": "address",
          "name": "owner",
          "type": "address"
        },
        {
          "indexed": true,
          "internalType": "address",
          "name": "approved",
          "type": "address"
        },
        {
          "indexed": true,
          "internalType": "uint256",
          "name": "tokenId",
          "type": "uint256"
        }
      ],
      "name": "Approval",
      "type": "event"
    },
    {
      "anonymous": false,
      "inputs": [
        {
          "indexed": true,
          "internalType": "address",
          "name": "owner",
          "type": "address"
        },
        {
          "indexed": true,
          "internalType": "address",
          "name": "operator",
          "type": "address"
        },
        {
          "indexed": false,
          "internalType": "bool",
          "name": "approved",
          "type": "bool"
        }
      ],
      "name": "ApprovalForAll",
      "type": "event"
    },
    {
      "anonymous": false,
      "inputs": [
        {
          "indexed": false,
          "internalType": "uint256",
          "name": "tokenId",
          "type": "uint256"
        },
        {
          "indexed": false,
          "internalType": "uint8",
          "name": "oldStar",
          "type": "uint8"
        },
        {
          "indexed": false,
          "internalType": "uint8",
          "name": "newStar",
          "type": "uint8"
        }
      ],
      "name": "ItemUpgraded",
      "type": "event"
    },
    {
      "anonymous": false,
      "inputs": [
        {
          "indexed": true,
          "internalType": "address",
          "name": "previousOwner",
          "type": "address"
        },
        {
          "indexed": true,
          "internalType": "address",
          "name": "newOwner",
          "type": "address"
        }
      ],
      "name": "OwnershipTransferred",
      "type": "event"
    },
    {
      "anonymous": false,
      "inputs": [
        {
          "indexed": false,
          "internalType": "address",
          "name": "account",
          "type": "address"
        }
      ],
      "name": "Paused",
      "type": "event"
    },
    {
      "anonymous": false,
      "inputs": [
        {
          "indexed": true,
          "internalType": "address",
          "name": "from",
          "type": "address"
        },
        {
          "indexed": true,
          "internalType": "address",
          "name": "to",
          "type": "address"
        },
        {
          "indexed": true,
          "internalType": "uint256",
          "name": "tokenId",
          "type": "uint256"
        }
      ],
      "name": "Transfer",
      "type": "event"
    },
    {
      "anonymous": false,
      "inputs": [
        {
          "indexed": false,
          "internalType": "address",
          "name": "account",
          "type": "address"
        }
      ],
      "name": "Unpaused",
      "type": "event"
    },
    {
      "inputs": [
        {
          "internalType": "address",
          "name": "to",
          "type": "address"
        },
        {
          "internalType": "uint256",
          "name": "tokenId",
          "type": "uint256"
        }
      ],
      "name": "approve",
      "outputs": [],
      "stateMutability": "nonpayable",
      "type": "function"
    },
    {
      "inputs": [
        {
          "internalType": "address",
          "name": "addr",
          "type": "address"
        }
      ],
      "name": "approveAddress",
      "outputs": [],
      "stateMutability": "nonpayable",
      "type": "function"
    },
    {
      "inputs": [
        {
          "internalType": "address",
          "name": "owner",
          "type": "address"
        }
      ],
      "name": "balanceOf",
      "outputs": [
        {
          "internalType": "uint256",
          "name": "",
          "type": "uint256"
        }
      ],
      "stateMutability": "view",
      "type": "function"
    },
    {
      "inputs": [
        {
          "internalType": "uint256",
          "name": "tokenId",
          "type": "uint256"
        }
      ],
      "name": "burn",
      "outputs": [],
      "stateMutability": "nonpayable",
      "type": "function"
    },
    {
      "inputs": [
        {
          "internalType": "uint256",
          "name": "",
          "type": "uint256"
        }
      ],
      "name": "gameItems",
      "outputs": [
        {
          "internalType": "uint256",
          "name": "itemId",
          "type": "uint256"
        },
        {
          "internalType": "uint8",
          "name": "star",
          "type": "uint8"
        }
      ],
      "stateMutability": "view",
      "type": "function"
    },
    {
      "inputs": [
        {
          "internalType": "uint256",
          "name": "tokenId",
          "type": "uint256"
        }
      ],
      "name": "getApproved",
      "outputs": [
        {
          "internalType": "address",
          "name": "",
          "type": "address"
        }
      ],
      "stateMutability": "view",
      "type": "function"
    },
    {
      "inputs": [
        {
          "internalType": "uint256",
          "name": "tokenId",
          "type": "uint256"
        }
      ],
      "name": "getGameItem",
      "outputs": [
        {
          "components": [
            {
              "internalType": "uint256",
              "name": "itemId",
              "type": "uint256"
            },
            {
              "internalType": "uint8",
              "name": "star",
              "type": "uint8"
            }
          ],
          "internalType": "struct GameItem.Item",
          "name": "",
          "type": "tuple"
        }
      ],
      "stateMutability": "view",
      "type": "function"
    },
    {
      "inputs": [
        {
          "internalType": "address",
          "name": "owner",
          "type": "address"
        },
        {
          "internalType": "address",
          "name": "operator",
          "type": "address"
        }
      ],
      "name": "isApprovedForAll",
      "outputs": [
        {
          "internalType": "bool",
          "name": "",
          "type": "bool"
        }
      ],
      "stateMutability": "view",
      "type": "function"
    },
    {
      "inputs": [
        {
          "internalType": "address",
          "name": "user",
          "type": "address"
        },
        {
          "internalType": "string",
          "name": "uri",
          "type": "string"
        },
        {
          "internalType": "uint256",
          "name": "itemId",
          "type": "uint256"
        },
        {
          "internalType": "uint8",
          "name": "star",
          "type": "uint8"
        }
      ],
      "name": "mint",
      "outputs": [],
      "stateMutability": "nonpayable",
      "type": "function"
    },
    {
      "inputs": [],
      "name": "name",
      "outputs": [
        {
          "internalType": "string",
          "name": "",
          "type": "string"
        }
      ],
      "stateMutability": "view",
      "type": "function"
    },
    {
      "inputs": [],
      "name": "owner",
      "outputs": [
        {
          "internalType": "address",
          "name": "",
          "type": "address"
        }
      ],
      "stateMutability": "view",
      "type": "function"
    },
    {
      "inputs": [
        {
          "internalType": "uint256",
          "name": "tokenId",
          "type": "uint256"
        }
      ],
      "name": "ownerOf",
      "outputs": [
        {
          "internalType": "address",
          "name": "",
          "type": "address"
        }
      ],
      "stateMutability": "view",
      "type": "function"
    },
    {
      "inputs": [],
      "name": "pause",
      "outputs": [],
      "stateMutability": "nonpayable",
      "type": "function"
    },
    {
      "inputs": [],
      "name": "paused",
      "outputs": [
        {
          "internalType": "bool",
          "name": "",
          "type": "bool"
        }
      ],
      "stateMutability": "view",
      "type": "function"
    },
    {
      "inputs": [],
      "name": "renounceOwnership",
      "outputs": [],
      "stateMutability": "nonpayable",
      "type": "function"
    },
    {
      "inputs": [
        {
          "internalType": "address",
          "name": "to",
          "type": "address"
        }
      ],
      "name": "safeMint",
      "outputs": [],
      "stateMutability": "nonpayable",
      "type": "function"
    },
    {
      "inputs": [
        {
          "internalType": "address",
          "name": "from",
          "type": "address"
        },
        {
          "internalType": "address",
          "name": "to",
          "type": "address"
        },
        {
          "internalType": "uint256",
          "name": "tokenId",
          "type": "uint256"
        }
      ],
      "name": "safeTransferFrom",
      "outputs": [],
      "stateMutability": "nonpayable",
      "type": "function"
    },
    {
      "inputs": [
        {
          "internalType": "address",
          "name": "from",
          "type": "address"
        },
        {
          "internalType": "address",
          "name": "to",
          "type": "address"
        },
        {
          "internalType": "uint256",
          "name": "tokenId",
          "type": "uint256"
        },
        {
          "internalType": "bytes",
          "name": "_data",
          "type": "bytes"
        }
      ],
      "name": "safeTransferFrom",
      "outputs": [],
      "stateMutability": "nonpayable",
      "type": "function"
    },
    {
      "inputs": [
        {
          "internalType": "address",
          "name": "operator",
          "type": "address"
        },
        {
          "internalType": "bool",
          "name": "approved",
          "type": "bool"
        }
      ],
      "name": "setApprovalForAll",
      "outputs": [],
      "stateMutability": "nonpayable",
      "type": "function"
    },
    {
      "inputs": [
        {
          "internalType": "bytes4",
          "name": "interfaceId",
          "type": "bytes4"
        }
      ],
      "name": "supportsInterface",
      "outputs": [
        {
          "internalType": "bool",
          "name": "",
          "type": "bool"
        }
      ],
      "stateMutability": "view",
      "type": "function"
    },
    {
      "inputs": [],
      "name": "symbol",
      "outputs": [
        {
          "internalType": "string",
          "name": "",
          "type": "string"
        }
      ],
      "stateMutability": "view",
      "type": "function"
    },
    {
      "inputs": [
        {
          "internalType": "uint256",
          "name": "index",
          "type": "uint256"
        }
      ],
      "name": "tokenByIndex",
      "outputs": [
        {
          "internalType": "uint256",
          "name": "",
          "type": "uint256"
        }
      ],
      "stateMutability": "view",
      "type": "function"
    },
    {
      "inputs": [
        {
          "internalType": "address",
          "name": "owner",
          "type": "address"
        },
        {
          "internalType": "uint256",
          "name": "index",
          "type": "uint256"
        }
      ],
      "name": "tokenOfOwnerByIndex",
      "outputs": [
        {
          "internalType": "uint256",
          "name": "",
          "type": "uint256"
        }
      ],
      "stateMutability": "view",
      "type": "function"
    },
    {
      "inputs": [
        {
          "internalType": "uint256",
          "name": "tokenId",
          "type": "uint256"
        }
      ],
      "name": "tokenURI",
      "outputs": [
        {
          "internalType": "string",
          "name": "",
          "type": "string"
        }
      ],
      "stateMutability": "view",
      "type": "function"
    },
    {
      "inputs": [],
      "name": "totalSupply",
      "outputs": [
        {
          "internalType": "uint256",
          "name": "",
          "type": "uint256"
        }
      ],
      "stateMutability": "view",
      "type": "function"
    },
    {
      "inputs": [
        {
          "internalType": "address",
          "name": "from",
          "type": "address"
        },
        {
          "internalType": "address",
          "name": "to",
          "type": "address"
        },
        {
          "internalType": "uint256",
          "name": "tokenId",
          "type": "uint256"
        }
      ],
      "name": "transferFrom",
      "outputs": [],
      "stateMutability": "nonpayable",
      "type": "function"
    },
    {
      "inputs": [
        {
          "internalType": "address",
          "name": "newOwner",
          "type": "address"
        }
      ],
      "name": "transferOwnership",
      "outputs": [],
      "stateMutability": "nonpayable",
      "type": "function"
    },
    {
      "inputs": [],
      "name": "unpause",
      "outputs": [],
      "stateMutability": "nonpayable",
      "type": "function"
    },
    {
      "inputs": [
        {
          "internalType": "uint256",
          "name": "tokenId",
          "type": "uint256"
        }
      ],
      "name": "upgradeGameItem",
      "outputs": [],
      "stateMutability": "nonpayable",
      "type": "function"
    }
  ],
  "bytecode": "0x60806040523480156200001157600080fd5b506040518060400160405280600881526020017f47616d654974656d0000000000000000000000000000000000000000000000008152506040518060400160405280600381526020017f4749540000000000000000000000000000000000000000000000000000000000815250816000908051906020019062000096929190620001c1565b508060019080519060200190620000af929190620001c1565b5050506000600b60006101000a81548160ff021916908315150217905550620000ed620000e1620000f360201b60201c565b620000fb60201b60201c565b620002d6565b600033905090565b6000600b60019054906101000a900473ffffffffffffffffffffffffffffffffffffffff16905081600b60016101000a81548173ffffffffffffffffffffffffffffffffffffffff021916908373ffffffffffffffffffffffffffffffffffffffff1602179055508173ffffffffffffffffffffffffffffffffffffffff168173ffffffffffffffffffffffffffffffffffffffff167f8be0079c531659141344cd1fd0a4f28419497f9722a3daafe3b4186f6b6457e060405160405180910390a35050565b828054620001cf9062000271565b90600052602060002090601f016020900481019282620001f357600085556200023f565b82601f106200020e57805160ff19168380011785556200023f565b828001600101855582156200023f579182015b828111156200023e57825182559160200191906001019062000221565b5b5090506200024e919062000252565b5090565b5b808211156200026d57600081600090555060010162000253565b5090565b600060028204905060018216806200028a57607f821691505b60208210811415620002a157620002a0620002a7565b5b50919050565b7f4e487b7100000000000000000000000000000000000000000000000000000000600052602260045260246000fd5b61458080620002e66000396000f3fe608060405234801561001057600080fd5b50600436106101cf5760003560e01c80635a1b34271161010457806394f13f4a116100a2578063c87b56dd11610071578063c87b56dd14610505578063e985e9c514610535578063f2fde38b14610565578063fabf657a14610581576101cf565b806394f13f4a1461047f57806395d89b41146104af578063a22cb465146104cd578063b88d4fde146104e9576101cf565b806370a08231116100de57806370a082311461041d578063715018a61461044d5780638456cb59146104575780638da5cb5b14610461576101cf565b80635a1b3427146103b35780635c975abb146103cf5780636352211e146103ed576101cf565b80632f745c591161017157806342842e0e1161014b57806342842e0e1461031a57806342966c6814610336578063430074c2146103525780634f6ccce714610383576101cf565b80632f745c59146102c45780633f4ba83a146102f457806340d097c3146102fe576101cf565b8063095ea7b3116101ad578063095ea7b314610252578063125e29bd1461026e57806318160ddd1461028a57806323b872dd146102a8576101cf565b806301ffc9a7146101d457806306fdde0314610204578063081812fc14610222575b600080fd5b6101ee60048036038101906101e991906130cf565b61059d565b6040516101fb9190613649565b60405180910390f35b61020c6105af565b6040516102199190613664565b60405180910390f35b61023c60048036038101906102379190613121565b610641565b60405161024991906135e2565b60405180910390f35b61026c60048036038101906102679190613093565b6106c6565b005b61028860048036038101906102839190613018565b6107de565b005b610292610898565b60405161029f91906139a1565b60405180910390f35b6102c260048036038101906102bd9190612f12565b6108a5565b005b6102de60048036038101906102d99190613093565b610905565b6040516102eb91906139a1565b60405180910390f35b6102fc6109aa565b005b61031860048036038101906103139190612ead565b610a30565b005b610334600480360381019061032f9190612f12565b610acc565b005b610350600480360381019061034b9190613121565b610aec565b005b61036c60048036038101906103679190613121565b610b48565b60405161037a9291906139bc565b60405180910390f35b61039d60048036038101906103989190613121565b610b79565b6040516103aa91906139a1565b60405180910390f35b6103cd60048036038101906103c89190613121565b610c10565b005b6103d7610da0565b6040516103e49190613649565b60405180910390f35b61040760048036038101906104029190613121565b610db7565b60405161041491906135e2565b60405180910390f35b61043760048036038101906104329190612ead565b610e69565b60405161044491906139a1565b60405180910390f35b610455610f21565b005b61045f610fa9565b005b61046961102f565b60405161047691906135e2565b60405180910390f35b61049960048036038101906104949190613121565b611059565b6040516104a69190613986565b60405180910390f35b6104b76110ad565b6040516104c49190613664565b60405180910390f35b6104e760048036038101906104e29190612fdc565b61113f565b005b61050360048036038101906104fe9190612f61565b6112c0565b005b61051f600480360381019061051a9190613121565b611322565b60405161052c9190613664565b60405180910390f35b61054f600480360381019061054a9190612ed6565b611334565b60405161055c9190613649565b60405180910390f35b61057f600480360381019061057a9190612ead565b6113c8565b005b61059b60048036038101906105969190612ead565b6114c0565b005b60006105a8826114ce565b9050919050565b6060600080546105be90613ccf565b80601f01602080910402602001604051908101604052809291908181526020018280546105ea90613ccf565b80156106375780601f1061060c57610100808354040283529160200191610637565b820191906000526020600020905b81548152906001019060200180831161061a57829003601f168201915b5050505050905090565b600061064c82611548565b61068b576040517f08c379a000000000000000000000000000000000000000000000000000000000815260040161068290613866565b60405180910390fd5b6004600083815260200190815260200160002060009054906101000a900473ffffffffffffffffffffffffffffffffffffffff169050919050565b60006106d182610db7565b90508073ffffffffffffffffffffffffffffffffffffffff168373ffffffffffffffffffffffffffffffffffffffff161415610742576040517f08c379a000000000000000000000000000000000000000000000000000000000815260040161073990613906565b60405180910390fd5b8073ffffffffffffffffffffffffffffffffffffffff166107616115b4565b73ffffffffffffffffffffffffffffffffffffffff161480610790575061078f8161078a6115b4565b611334565b5b6107cf576040517f08c379a00000000000000000000000000000000000000000000000000000000081526004016107c6906137a6565b60405180910390fd5b6107d983836115bc565b505050565b6107e66115b4565b73ffffffffffffffffffffffffffffffffffffffff1661080461102f565b73ffffffffffffffffffffffffffffffffffffffff161461085a576040517f08c379a000000000000000000000000000000000000000000000000000000000815260040161085190613886565b60405180910390fd5b610864600c611675565b6000610870600c61168b565b905061087c8582611699565b61088681856116b7565b61089181848461172b565b5050505050565b6000600880549050905090565b6108b66108b06115b4565b82611789565b6108f5576040517f08c379a00000000000000000000000000000000000000000000000000000000081526004016108ec90613926565b60405180910390fd5b610900838383611867565b505050565b600061091083610e69565b8210610951576040517f08c379a0000000000000000000000000000000000000000000000000000000008152600401610948906136a6565b60405180910390fd5b600660008473ffffffffffffffffffffffffffffffffffffffff1673ffffffffffffffffffffffffffffffffffffffff168152602001908152602001600020600083815260200190815260200160002054905092915050565b6109b26115b4565b73ffffffffffffffffffffffffffffffffffffffff166109d061102f565b73ffffffffffffffffffffffffffffffffffffffff1614610a26576040517f08c379a0000000000000000000000000000000000000000000000000000000008152600401610a1d90613886565b60405180910390fd5b610a2e611ac3565b565b610a386115b4565b73ffffffffffffffffffffffffffffffffffffffff16610a5661102f565b73ffffffffffffffffffffffffffffffffffffffff1614610aac576040517f08c379a0000000000000000000000000000000000000000000000000000000008152600401610aa390613886565b60405180910390fd5b610abf81610aba600c61168b565b611699565b610ac9600c611675565b50565b610ae7838383604051806020016040528060008152506112c0565b505050565b610afd610af76115b4565b82611789565b610b3c576040517f08c379a0000000000000000000000000000000000000000000000000000000008152600401610b3390613966565b60405180910390fd5b610b4581611b65565b50565b600d6020528060005260406000206000915090508060000154908060010160009054906101000a900460ff16905082565b6000610b83610898565b8210610bc4576040517f08c379a0000000000000000000000000000000000000000000000000000000008152600401610bbb90613946565b60405180910390fd5b60088281548110610bfe577f4e487b7100000000000000000000000000000000000000000000000000000000600052603260045260246000fd5b90600052602060002001549050919050565b610c186115b4565b73ffffffffffffffffffffffffffffffffffffffff16610c3661102f565b73ffffffffffffffffffffffffffffffffffffffff1614610c8c576040517f08c379a0000000000000000000000000000000000000000000000000000000008152600401610c8390613886565b60405180910390fd5b6000600d6000838152602001908152602001600020905060058160010160009054906101000a900460ff1660ff1610610cfa576040517f08c379a0000000000000000000000000000000000000000000000000000000008152600401610cf1906138e6565b60405180910390fd5b60018160010160008282829054906101000a900460ff16610d1b9190613b3c565b92506101000a81548160ff021916908360ff1602179055507f0c5cb81be318d1ce5a049592d973294db244147b58959db49ef54aaa0699af078260018360010160009054906101000a900460ff16610d739190613bd8565b8360010160009054906101000a900460ff16604051610d94939291906139e5565b60405180910390a15050565b6000600b60009054906101000a900460ff16905090565b6000806002600084815260200190815260200160002060009054906101000a900473ffffffffffffffffffffffffffffffffffffffff169050600073ffffffffffffffffffffffffffffffffffffffff168173ffffffffffffffffffffffffffffffffffffffff161415610e60576040517f08c379a0000000000000000000000000000000000000000000000000000000008152600401610e57906137e6565b60405180910390fd5b80915050919050565b60008073ffffffffffffffffffffffffffffffffffffffff168273ffffffffffffffffffffffffffffffffffffffff161415610eda576040517f08c379a0000000000000000000000000000000000000000000000000000000008152600401610ed1906137c6565b60405180910390fd5b600360008373ffffffffffffffffffffffffffffffffffffffff1673ffffffffffffffffffffffffffffffffffffffff168152602001908152602001600020549050919050565b610f296115b4565b73ffffffffffffffffffffffffffffffffffffffff16610f4761102f565b73ffffffffffffffffffffffffffffffffffffffff1614610f9d576040517f08c379a0000000000000000000000000000000000000000000000000000000008152600401610f9490613886565b60405180910390fd5b610fa76000611b71565b565b610fb16115b4565b73ffffffffffffffffffffffffffffffffffffffff16610fcf61102f565b73ffffffffffffffffffffffffffffffffffffffff1614611025576040517f08c379a000000000000000000000000000000000000000000000000000000000815260040161101c90613886565b60405180910390fd5b61102d611c37565b565b6000600b60019054906101000a900473ffffffffffffffffffffffffffffffffffffffff16905090565b611061612c5f565b600d6000838152602001908152602001600020604051806040016040529081600082015481526020016001820160009054906101000a900460ff1660ff1660ff16815250509050919050565b6060600180546110bc90613ccf565b80601f01602080910402602001604051908101604052809291908181526020018280546110e890613ccf565b80156111355780601f1061110a57610100808354040283529160200191611135565b820191906000526020600020905b81548152906001019060200180831161111857829003601f168201915b5050505050905090565b6111476115b4565b73ffffffffffffffffffffffffffffffffffffffff168273ffffffffffffffffffffffffffffffffffffffff1614156111b5576040517f08c379a00000000000000000000000000000000000000000000000000000000081526004016111ac90613746565b60405180910390fd5b80600560006111c26115b4565b73ffffffffffffffffffffffffffffffffffffffff1673ffffffffffffffffffffffffffffffffffffffff16815260200190815260200160002060008473ffffffffffffffffffffffffffffffffffffffff1673ffffffffffffffffffffffffffffffffffffffff16815260200190815260200160002060006101000a81548160ff0219169083151502179055508173ffffffffffffffffffffffffffffffffffffffff1661126f6115b4565b73ffffffffffffffffffffffffffffffffffffffff167f17307eab39ab6107e8899845ad3d59bd9653f200f220920489ca2b5937696c31836040516112b49190613649565b60405180910390a35050565b6112d16112cb6115b4565b83611789565b611310576040517f08c379a000000000000000000000000000000000000000000000000000000000815260040161130790613926565b60405180910390fd5b61131c84848484611cda565b50505050565b606061132d82611d36565b9050919050565b6000600560008473ffffffffffffffffffffffffffffffffffffffff1673ffffffffffffffffffffffffffffffffffffffff16815260200190815260200160002060008373ffffffffffffffffffffffffffffffffffffffff1673ffffffffffffffffffffffffffffffffffffffff16815260200190815260200160002060009054906101000a900460ff16905092915050565b6113d06115b4565b73ffffffffffffffffffffffffffffffffffffffff166113ee61102f565b73ffffffffffffffffffffffffffffffffffffffff1614611444576040517f08c379a000000000000000000000000000000000000000000000000000000000815260040161143b90613886565b60405180910390fd5b600073ffffffffffffffffffffffffffffffffffffffff168173ffffffffffffffffffffffffffffffffffffffff1614156114b4576040517f08c379a00000000000000000000000000000000000000000000000000000000081526004016114ab906136e6565b60405180910390fd5b6114bd81611b71565b50565b6114cb81600161113f565b50565b60007f780e9d63000000000000000000000000000000000000000000000000000000007bffffffffffffffffffffffffffffffffffffffffffffffffffffffff1916827bffffffffffffffffffffffffffffffffffffffffffffffffffffffff19161480611541575061154082611e88565b5b9050919050565b60008073ffffffffffffffffffffffffffffffffffffffff166002600084815260200190815260200160002060009054906101000a900473ffffffffffffffffffffffffffffffffffffffff1673ffffffffffffffffffffffffffffffffffffffff1614159050919050565b600033905090565b816004600083815260200190815260200160002060006101000a81548173ffffffffffffffffffffffffffffffffffffffff021916908373ffffffffffffffffffffffffffffffffffffffff160217905550808273ffffffffffffffffffffffffffffffffffffffff1661162f83610db7565b73ffffffffffffffffffffffffffffffffffffffff167f8c5be1e5ebec7d5bd14f71427d1e84f3dd0314c0f7b2291e5b200ac8c7c3b92560405160405180910390a45050565b6001816000016000828254019250508190555050565b600081600001549050919050565b6116b3828260405180602001604052806000815250611f6a565b5050565b6116c082611548565b6116ff576040517f08c379a00000000000000000000000000000000000000000000000000000000081526004016116f690613806565b60405180910390fd5b80600a60008481526020019081526020016000209080519060200190611726929190612c7c565b505050565b60405180604001604052808381526020018260ff16815250600d60008581526020019081526020016000206000820151816000015560208201518160010160006101000a81548160ff021916908360ff160217905550905050505050565b600061179482611548565b6117d3576040517f08c379a00000000000000000000000000000000000000000000000000000000081526004016117ca90613766565b60405180910390fd5b60006117de83610db7565b90508073ffffffffffffffffffffffffffffffffffffffff168473ffffffffffffffffffffffffffffffffffffffff16148061184d57508373ffffffffffffffffffffffffffffffffffffffff1661183584610641565b73ffffffffffffffffffffffffffffffffffffffff16145b8061185e575061185d8185611334565b5b91505092915050565b8273ffffffffffffffffffffffffffffffffffffffff1661188782610db7565b73ffffffffffffffffffffffffffffffffffffffff16146118dd576040517f08c379a00000000000000000000000000000000000000000000000000000000081526004016118d4906138a6565b60405180910390fd5b600073ffffffffffffffffffffffffffffffffffffffff168273ffffffffffffffffffffffffffffffffffffffff16141561194d576040517f08c379a000000000000000000000000000000000000000000000000000000000815260040161194490613726565b60405180910390fd5b611958838383611fc5565b6119636000826115bc565b6001600360008573ffffffffffffffffffffffffffffffffffffffff1673ffffffffffffffffffffffffffffffffffffffff16815260200190815260200160002060008282546119b39190613ba4565b925050819055506001600360008473ffffffffffffffffffffffffffffffffffffffff1673ffffffffffffffffffffffffffffffffffffffff1681526020019081526020016000206000828254611a0a9190613ae6565b92505081905550816002600083815260200190815260200160002060006101000a81548173ffffffffffffffffffffffffffffffffffffffff021916908373ffffffffffffffffffffffffffffffffffffffff160217905550808273ffffffffffffffffffffffffffffffffffffffff168473ffffffffffffffffffffffffffffffffffffffff167fddf252ad1be2c89b69c2b068fc378daa952ba7f163c4a11628f55a4df523b3ef60405160405180910390a4505050565b611acb610da0565b611b0a576040517f08c379a0000000000000000000000000000000000000000000000000000000008152600401611b0190613686565b60405180910390fd5b6000600b60006101000a81548160ff0219169083151502179055507f5db9ee0a495bf2e6ff9c91a7834c1ba4fdd244a5e8aa4e537bd38aeae4b073aa611b4e6115b4565b604051611b5b91906135e2565b60405180910390a1565b611b6e8161201d565b50565b6000600b60019054906101000a900473ffffffffffffffffffffffffffffffffffffffff16905081600b60016101000a81548173ffffffffffffffffffffffffffffffffffffffff021916908373ffffffffffffffffffffffffffffffffffffffff1602179055508173ffffffffffffffffffffffffffffffffffffffff168173ffffffffffffffffffffffffffffffffffffffff167f8be0079c531659141344cd1fd0a4f28419497f9722a3daafe3b4186f6b6457e060405160405180910390a35050565b611c3f610da0565b15611c7f576040517f08c379a0000000000000000000000000000000000000000000000000000000008152600401611c7690613786565b60405180910390fd5b6001600b60006101000a81548160ff0219169083151502179055507f62e78cea01bee320cd4e420270b5ea74000d11b0c9f74754ebdbfc544b05a258611cc36115b4565b604051611cd091906135e2565b60405180910390a1565b611ce5848484611867565b611cf184848484612070565b611d30576040517f08c379a0000000000000000000000000000000000000000000000000000000008152600401611d27906136c6565b60405180910390fd5b50505050565b6060611d4182611548565b611d80576040517f08c379a0000000000000000000000000000000000000000000000000000000008152600401611d7790613846565b60405180910390fd5b6000600a60008481526020019081526020016000208054611da090613ccf565b80601f0160208091040260200160405190810160405280929190818152602001828054611dcc90613ccf565b8015611e195780601f10611dee57610100808354040283529160200191611e19565b820191906000526020600020905b815481529060010190602001808311611dfc57829003601f168201915b505050505090506000611e2a612207565b9050600081511415611e40578192505050611e83565b600082511115611e75578082604051602001611e5d9291906135be565b60405160208183030381529060405292505050611e83565b611e7e8461221e565b925050505b919050565b60007f80ac58cd000000000000000000000000000000000000000000000000000000007bffffffffffffffffffffffffffffffffffffffffffffffffffffffff1916827bffffffffffffffffffffffffffffffffffffffffffffffffffffffff19161480611f5357507f5b5e139f000000000000000000000000000000000000000000000000000000007bffffffffffffffffffffffffffffffffffffffffffffffffffffffff1916827bffffffffffffffffffffffffffffffffffffffffffffffffffffffff1916145b80611f635750611f62826122c5565b5b9050919050565b611f74838361232f565b611f816000848484612070565b611fc0576040517f08c379a0000000000000000000000000000000000000000000000000000000008152600401611fb7906136c6565b60405180910390fd5b505050565b611fcd610da0565b1561200d576040517f08c379a000000000000000000000000000000000000000000000000000000000815260040161200490613786565b60405180910390fd5b6120188383836124fd565b505050565b61202681612611565b6000600a6000838152602001908152602001600020805461204690613ccf565b90501461206d57600a6000828152602001908152602001600020600061206c9190612d02565b5b50565b60006120918473ffffffffffffffffffffffffffffffffffffffff16612722565b156121fa578373ffffffffffffffffffffffffffffffffffffffff1663150b7a026120ba6115b4565b8786866040518563ffffffff1660e01b81526004016120dc94939291906135fd565b602060405180830381600087803b1580156120f657600080fd5b505af192505050801561212757506040513d601f19601f8201168201806040525081019061212491906130f8565b60015b6121aa573d8060008114612157576040519150601f19603f3d011682016040523d82523d6000602084013e61215c565b606091505b506000815114156121a2576040517f08c379a0000000000000000000000000000000000000000000000000000000008152600401612199906136c6565b60405180910390fd5b805181602001fd5b63150b7a0260e01b7bffffffffffffffffffffffffffffffffffffffffffffffffffffffff1916817bffffffffffffffffffffffffffffffffffffffffffffffffffffffff1916149150506121ff565b600190505b949350505050565b606060405180602001604052806000815250905090565b606061222982611548565b612268576040517f08c379a000000000000000000000000000000000000000000000000000000000815260040161225f906138c6565b60405180910390fd5b6000612272612207565b9050600081511161229257604051806020016040528060008152506122bd565b8061229c84612735565b6040516020016122ad9291906135be565b6040516020818303038152906040525b915050919050565b60007f01ffc9a7000000000000000000000000000000000000000000000000000000007bffffffffffffffffffffffffffffffffffffffffffffffffffffffff1916827bffffffffffffffffffffffffffffffffffffffffffffffffffffffff1916149050919050565b600073ffffffffffffffffffffffffffffffffffffffff168273ffffffffffffffffffffffffffffffffffffffff16141561239f576040517f08c379a000000000000000000000000000000000000000000000000000000000815260040161239690613826565b60405180910390fd5b6123a881611548565b156123e8576040517f08c379a00000000000000000000000000000000000000000000000000000000081526004016123df90613706565b60405180910390fd5b6123f460008383611fc5565b6001600360008473ffffffffffffffffffffffffffffffffffffffff1673ffffffffffffffffffffffffffffffffffffffff16815260200190815260200160002060008282546124449190613ae6565b92505081905550816002600083815260200190815260200160002060006101000a81548173ffffffffffffffffffffffffffffffffffffffff021916908373ffffffffffffffffffffffffffffffffffffffff160217905550808273ffffffffffffffffffffffffffffffffffffffff16600073ffffffffffffffffffffffffffffffffffffffff167fddf252ad1be2c89b69c2b068fc378daa952ba7f163c4a11628f55a4df523b3ef60405160405180910390a45050565b6125088383836128e2565b600073ffffffffffffffffffffffffffffffffffffffff168373ffffffffffffffffffffffffffffffffffffffff16141561254b57612546816128e7565b61258a565b8173ffffffffffffffffffffffffffffffffffffffff168373ffffffffffffffffffffffffffffffffffffffff1614612589576125888382612930565b5b5b600073ffffffffffffffffffffffffffffffffffffffff168273ffffffffffffffffffffffffffffffffffffffff1614156125cd576125c881612a9d565b61260c565b8273ffffffffffffffffffffffffffffffffffffffff168273ffffffffffffffffffffffffffffffffffffffff161461260b5761260a8282612be0565b5b5b505050565b600061261c82610db7565b905061262a81600084611fc5565b6126356000836115bc565b6001600360008373ffffffffffffffffffffffffffffffffffffffff1673ffffffffffffffffffffffffffffffffffffffff16815260200190815260200160002060008282546126859190613ba4565b925050819055506002600083815260200190815260200160002060006101000a81549073ffffffffffffffffffffffffffffffffffffffff021916905581600073ffffffffffffffffffffffffffffffffffffffff168273ffffffffffffffffffffffffffffffffffffffff167fddf252ad1be2c89b69c2b068fc378daa952ba7f163c4a11628f55a4df523b3ef60405160405180910390a45050565b600080823b905060008111915050919050565b6060600082141561277d576040518060400160405280600181526020017f300000000000000000000000000000000000000000000000000000000000000081525090506128dd565b600082905060005b600082146127af57808061279890613d32565b915050600a826127a89190613b73565b9150612785565b60008167ffffffffffffffff8111156127f1577f4e487b7100000000000000000000000000000000000000000000000000000000600052604160045260246000fd5b6040519080825280601f01601f1916602001820160405280156128235781602001600182028036833780820191505090505b5090505b600085146128d65760018261283c9190613ba4565b9150600a8561284b9190613d7b565b60306128579190613ae6565b60f81b818381518110612893577f4e487b7100000000000000000000000000000000000000000000000000000000600052603260045260246000fd5b60200101907effffffffffffffffffffffffffffffffffffffffffffffffffffffffffffff1916908160001a905350600a856128cf9190613b73565b9450612827565b8093505050505b919050565b505050565b6008805490506009600083815260200190815260200160002081905550600881908060018154018082558091505060019003906000526020600020016000909190919091505550565b6000600161293d84610e69565b6129479190613ba4565b9050600060076000848152602001908152602001600020549050818114612a2c576000600660008673ffffffffffffffffffffffffffffffffffffffff1673ffffffffffffffffffffffffffffffffffffffff168152602001908152602001600020600084815260200190815260200160002054905080600660008773ffffffffffffffffffffffffffffffffffffffff1673ffffffffffffffffffffffffffffffffffffffff168152602001908152602001600020600084815260200190815260200160002081905550816007600083815260200190815260200160002081905550505b6007600084815260200190815260200160002060009055600660008573ffffffffffffffffffffffffffffffffffffffff1673ffffffffffffffffffffffffffffffffffffffff16815260200190815260200160002060008381526020019081526020016000206000905550505050565b60006001600880549050612ab19190613ba4565b9050600060096000848152602001908152602001600020549050600060088381548110612b07577f4e487b7100000000000000000000000000000000000000000000000000000000600052603260045260246000fd5b906000526020600020015490508060088381548110612b4f577f4e487b7100000000000000000000000000000000000000000000000000000000600052603260045260246000fd5b906000526020600020018190555081600960008381526020019081526020016000208190555060096000858152602001908152602001600020600090556008805480612bc4577f4e487b7100000000000000000000000000000000000000000000000000000000600052603160045260246000fd5b6001900381819060005260206000200160009055905550505050565b6000612beb83610e69565b905081600660008573ffffffffffffffffffffffffffffffffffffffff1673ffffffffffffffffffffffffffffffffffffffff168152602001908152602001600020600083815260200190815260200160002081905550806007600084815260200190815260200160002081905550505050565b604051806040016040528060008152602001600060ff1681525090565b828054612c8890613ccf565b90600052602060002090601f016020900481019282612caa5760008555612cf1565b82601f10612cc357805160ff1916838001178555612cf1565b82800160010185558215612cf1579182015b82811115612cf0578251825591602001919060010190612cd5565b5b509050612cfe9190612d42565b5090565b508054612d0e90613ccf565b6000825580601f10612d205750612d3f565b601f016020900490600052602060002090810190612d3e9190612d42565b5b50565b5b80821115612d5b576000816000905550600101612d43565b5090565b6000612d72612d6d84613a41565b613a1c565b905082815260208101848484011115612d8a57600080fd5b612d95848285613c8d565b509392505050565b6000612db0612dab84613a72565b613a1c565b905082815260208101848484011115612dc857600080fd5b612dd3848285613c8d565b509392505050565b600081359050612dea816144d7565b92915050565b600081359050612dff816144ee565b92915050565b600081359050612e1481614505565b92915050565b600081519050612e2981614505565b92915050565b600082601f830112612e4057600080fd5b8135612e50848260208601612d5f565b91505092915050565b600082601f830112612e6a57600080fd5b8135612e7a848260208601612d9d565b91505092915050565b600081359050612e928161451c565b92915050565b600081359050612ea781614533565b92915050565b600060208284031215612ebf57600080fd5b6000612ecd84828501612ddb565b91505092915050565b60008060408385031215612ee957600080fd5b6000612ef785828601612ddb565b9250506020612f0885828601612ddb565b9150509250929050565b600080600060608486031215612f2757600080fd5b6000612f3586828701612ddb565b9350506020612f4686828701612ddb565b9250506040612f5786828701612e83565b9150509250925092565b60008060008060808587031215612f7757600080fd5b6000612f8587828801612ddb565b9450506020612f9687828801612ddb565b9350506040612fa787828801612e83565b925050606085013567ffffffffffffffff811115612fc457600080fd5b612fd087828801612e2f565b91505092959194509250565b60008060408385031215612fef57600080fd5b6000612ffd85828601612ddb565b925050602061300e85828601612df0565b9150509250929050565b6000806000806080858703121561302e57600080fd5b600061303c87828801612ddb565b945050602085013567ffffffffffffffff81111561305957600080fd5b61306587828801612e59565b935050604061307687828801612e83565b925050606061308787828801612e98565b91505092959194509250565b600080604083850312156130a657600080fd5b60006130b485828601612ddb565b92505060206130c585828601612e83565b9150509250929050565b6000602082840312156130e157600080fd5b60006130ef84828501612e05565b91505092915050565b60006020828403121561310a57600080fd5b600061311884828501612e1a565b91505092915050565b60006020828403121561313357600080fd5b600061314184828501612e83565b91505092915050565b61315381613c0c565b82525050565b61316281613c1e565b82525050565b600061317382613aa3565b61317d8185613ab9565b935061318d818560208601613c9c565b61319681613e68565b840191505092915050565b60006131ac82613aae565b6131b68185613aca565b93506131c6818560208601613c9c565b6131cf81613e68565b840191505092915050565b60006131e582613aae565b6131ef8185613adb565b93506131ff818560208601613c9c565b80840191505092915050565b6000613218601483613aca565b915061322382613e79565b602082019050919050565b600061323b602b83613aca565b915061324682613ea2565b604082019050919050565b600061325e603283613aca565b915061326982613ef1565b604082019050919050565b6000613281602683613aca565b915061328c82613f40565b604082019050919050565b60006132a4601c83613aca565b91506132af82613f8f565b602082019050919050565b60006132c7602483613aca565b91506132d282613fb8565b604082019050919050565b60006132ea601983613aca565b91506132f582614007565b602082019050919050565b600061330d602c83613aca565b915061331882614030565b604082019050919050565b6000613330601083613aca565b915061333b8261407f565b602082019050919050565b6000613353603883613aca565b915061335e826140a8565b604082019050919050565b6000613376602a83613aca565b9150613381826140f7565b604082019050919050565b6000613399602983613aca565b91506133a482614146565b604082019050919050565b60006133bc602e83613aca565b91506133c782614195565b604082019050919050565b60006133df602083613aca565b91506133ea826141e4565b602082019050919050565b6000613402603183613aca565b915061340d8261420d565b604082019050919050565b6000613425602c83613aca565b91506134308261425c565b604082019050919050565b6000613448602083613aca565b9150613453826142ab565b602082019050919050565b600061346b602983613aca565b9150613476826142d4565b604082019050919050565b600061348e602f83613aca565b915061349982614323565b604082019050919050565b60006134b1601d83613aca565b91506134bc82614372565b602082019050919050565b60006134d4602183613aca565b91506134df8261439b565b604082019050919050565b60006134f7603183613aca565b9150613502826143ea565b604082019050919050565b600061351a602c83613aca565b915061352582614439565b604082019050919050565b600061353d603083613aca565b915061354882614488565b604082019050919050565b6040820160008201516135696000850182613582565b50602082015161357c60208501826135a0565b50505050565b61358b81613c76565b82525050565b61359a81613c76565b82525050565b6135a981613c80565b82525050565b6135b881613c80565b82525050565b60006135ca82856131da565b91506135d682846131da565b91508190509392505050565b60006020820190506135f7600083018461314a565b92915050565b6000608082019050613612600083018761314a565b61361f602083018661314a565b61362c6040830185613591565b818103606083015261363e8184613168565b905095945050505050565b600060208201905061365e6000830184613159565b92915050565b6000602082019050818103600083015261367e81846131a1565b905092915050565b6000602082019050818103600083015261369f8161320b565b9050919050565b600060208201905081810360008301526136bf8161322e565b9050919050565b600060208201905081810360008301526136df81613251565b9050919050565b600060208201905081810360008301526136ff81613274565b9050919050565b6000602082019050818103600083015261371f81613297565b9050919050565b6000602082019050818103600083015261373f816132ba565b9050919050565b6000602082019050818103600083015261375f816132dd565b9050919050565b6000602082019050818103600083015261377f81613300565b9050919050565b6000602082019050818103600083015261379f81613323565b9050919050565b600060208201905081810360008301526137bf81613346565b9050919050565b600060208201905081810360008301526137df81613369565b9050919050565b600060208201905081810360008301526137ff8161338c565b9050919050565b6000602082019050818103600083015261381f816133af565b9050919050565b6000602082019050818103600083015261383f816133d2565b9050919050565b6000602082019050818103600083015261385f816133f5565b9050919050565b6000602082019050818103600083015261387f81613418565b9050919050565b6000602082019050818103600083015261389f8161343b565b9050919050565b600060208201905081810360008301526138bf8161345e565b9050919050565b600060208201905081810360008301526138df81613481565b9050919050565b600060208201905081810360008301526138ff816134a4565b9050919050565b6000602082019050818103600083015261391f816134c7565b9050919050565b6000602082019050818103600083015261393f816134ea565b9050919050565b6000602082019050818103600083015261395f8161350d565b9050919050565b6000602082019050818103600083015261397f81613530565b9050919050565b600060408201905061399b6000830184613553565b92915050565b60006020820190506139b66000830184613591565b92915050565b60006040820190506139d16000830185613591565b6139de60208301846135af565b9392505050565b60006060820190506139fa6000830186613591565b613a0760208301856135af565b613a1460408301846135af565b949350505050565b6000613a26613a37565b9050613a328282613d01565b919050565b6000604051905090565b600067ffffffffffffffff821115613a5c57613a5b613e39565b5b613a6582613e68565b9050602081019050919050565b600067ffffffffffffffff821115613a8d57613a8c613e39565b5b613a9682613e68565b9050602081019050919050565b600081519050919050565b600081519050919050565b600082825260208201905092915050565b600082825260208201905092915050565b600081905092915050565b6000613af182613c76565b9150613afc83613c76565b9250827fffffffffffffffffffffffffffffffffffffffffffffffffffffffffffffffff03821115613b3157613b30613dac565b5b828201905092915050565b6000613b4782613c80565b9150613b5283613c80565b92508260ff03821115613b6857613b67613dac565b5b828201905092915050565b6000613b7e82613c76565b9150613b8983613c76565b925082613b9957613b98613ddb565b5b828204905092915050565b6000613baf82613c76565b9150613bba83613c76565b925082821015613bcd57613bcc613dac565b5b828203905092915050565b6000613be382613c80565b9150613bee83613c80565b925082821015613c0157613c00613dac565b5b828203905092915050565b6000613c1782613c56565b9050919050565b60008115159050919050565b60007fffffffff0000000000000000000000000000000000000000000000000000000082169050919050565b600073ffffffffffffffffffffffffffffffffffffffff82169050919050565b6000819050919050565b600060ff82169050919050565b82818337600083830152505050565b60005b83811015613cba578082015181840152602081019050613c9f565b83811115613cc9576000848401525b50505050565b60006002820490506001821680613ce757607f821691505b60208210811415613cfb57613cfa613e0a565b5b50919050565b613d0a82613e68565b810181811067ffffffffffffffff82111715613d2957613d28613e39565b5b80604052505050565b6000613d3d82613c76565b91507fffffffffffffffffffffffffffffffffffffffffffffffffffffffffffffffff821415613d7057613d6f613dac565b5b600182019050919050565b6000613d8682613c76565b9150613d9183613c76565b925082613da157613da0613ddb565b5b828206905092915050565b7f4e487b7100000000000000000000000000000000000000000000000000000000600052601160045260246000fd5b7f4e487b7100000000000000000000000000000000000000000000000000000000600052601260045260246000fd5b7f4e487b7100000000000000000000000000000000000000000000000000000000600052602260045260246000fd5b7f4e487b7100000000000000000000000000000000000000000000000000000000600052604160045260246000fd5b6000601f19601f8301169050919050565b7f5061757361626c653a206e6f7420706175736564000000000000000000000000600082015250565b7f455243373231456e756d657261626c653a206f776e657220696e646578206f7560008201527f74206f6620626f756e6473000000000000000000000000000000000000000000602082015250565b7f4552433732313a207472616e7366657220746f206e6f6e20455243373231526560008201527f63656976657220696d706c656d656e7465720000000000000000000000000000602082015250565b7f4f776e61626c653a206e6577206f776e657220697320746865207a65726f206160008201527f6464726573730000000000000000000000000000000000000000000000000000602082015250565b7f4552433732313a20746f6b656e20616c7265616479206d696e74656400000000600082015250565b7f4552433732313a207472616e7366657220746f20746865207a65726f2061646460008201527f7265737300000000000000000000000000000000000000000000000000000000602082015250565b7f4552433732313a20617070726f766520746f2063616c6c657200000000000000600082015250565b7f4552433732313a206f70657261746f7220717565727920666f72206e6f6e657860008201527f697374656e7420746f6b656e0000000000000000000000000000000000000000602082015250565b7f5061757361626c653a2070617573656400000000000000000000000000000000600082015250565b7f4552433732313a20617070726f76652063616c6c6572206973206e6f74206f7760008201527f6e6572206e6f7220617070726f76656420666f7220616c6c0000000000000000602082015250565b7f4552433732313a2062616c616e636520717565727920666f7220746865207a6560008201527f726f206164647265737300000000000000000000000000000000000000000000602082015250565b7f4552433732313a206f776e657220717565727920666f72206e6f6e657869737460008201527f656e7420746f6b656e0000000000000000000000000000000000000000000000602082015250565b7f45524337323155524953746f726167653a2055524920736574206f66206e6f6e60008201527f6578697374656e7420746f6b656e000000000000000000000000000000000000602082015250565b7f4552433732313a206d696e7420746f20746865207a65726f2061646472657373600082015250565b7f45524337323155524953746f726167653a2055524920717565727920666f722060008201527f6e6f6e6578697374656e7420746f6b656e000000000000000000000000000000602082015250565b7f4552433732313a20617070726f76656420717565727920666f72206e6f6e657860008201527f697374656e7420746f6b656e0000000000000000000000000000000000000000602082015250565b7f4f776e61626c653a2063616c6c6572206973206e6f7420746865206f776e6572600082015250565b7f4552433732313a207472616e73666572206f6620746f6b656e2074686174206960008201527f73206e6f74206f776e0000000000000000000000000000000000000000000000602082015250565b7f4552433732314d657461646174613a2055524920717565727920666f72206e6f60008201527f6e6578697374656e7420746f6b656e0000000000000000000000000000000000602082015250565b7f4e756d626572206f66207374617220697320616c7265616479206d6178000000600082015250565b7f4552433732313a20617070726f76616c20746f2063757272656e74206f776e6560008201527f7200000000000000000000000000000000000000000000000000000000000000602082015250565b7f4552433732313a207472616e736665722063616c6c6572206973206e6f74206f60008201527f776e6572206e6f7220617070726f766564000000000000000000000000000000602082015250565b7f455243373231456e756d657261626c653a20676c6f62616c20696e646578206f60008201527f7574206f6620626f756e64730000000000000000000000000000000000000000602082015250565b7f4552433732314275726e61626c653a2063616c6c6572206973206e6f74206f7760008201527f6e6572206e6f7220617070726f76656400000000000000000000000000000000602082015250565b6144e081613c0c565b81146144eb57600080fd5b50565b6144f781613c1e565b811461450257600080fd5b50565b61450e81613c2a565b811461451957600080fd5b50565b61452581613c76565b811461453057600080fd5b50565b61453c81613c80565b811461454757600080fd5b5056fea264697066735822122094a2a3c8885856e8e43e129804435b281386d4244a569eb4c8363fe167fbbd8564736f6c63430008020033",
  "linkReferences": {},
  "deployedLinkReferences": {}
}