{
  "_format": "hh-sol-artifact-1",
  "contractName": "GameItem",
  "sourceName": "contracts/GameItem.sol",
  "abi": [
    {
      "inputs": [],
      "stateMutability": "nonpayable",
      "type": "constructor"
    },
    {
      "anonymous": false,
      "inputs": [
        {
          "indexed": true,
          "internalType": "address",
          "name": "owner",
          "type": "address"
        },
        {
          "indexed": true,
          "internalType": "address",
          "name": "approved",
          "type": "address"
        },
        {
          "indexed": true,
          "internalType": "uint256",
          "name": "tokenId",
          "type": "uint256"
        }
      ],
      "name": "Approval",
      "type": "event"
    },
    {
      "anonymous": false,
      "inputs": [
        {
          "indexed": true,
          "internalType": "address",
          "name": "owner",
          "type": "address"
        },
        {
          "indexed": true,
          "internalType": "address",
          "name": "operator",
          "type": "address"
        },
        {
          "indexed": false,
          "internalType": "bool",
          "name": "approved",
          "type": "bool"
        }
      ],
      "name": "ApprovalForAll",
      "type": "event"
    },
    {
      "anonymous": false,
      "inputs": [
        {
          "indexed": true,
          "internalType": "address",
          "name": "previousOwner",
          "type": "address"
        },
        {
          "indexed": true,
          "internalType": "address",
          "name": "newOwner",
          "type": "address"
        }
      ],
      "name": "OwnershipTransferred",
      "type": "event"
    },
    {
      "anonymous": false,
      "inputs": [
        {
          "indexed": false,
          "internalType": "address",
          "name": "account",
          "type": "address"
        }
      ],
      "name": "Paused",
      "type": "event"
    },
    {
      "anonymous": false,
      "inputs": [
        {
          "indexed": true,
          "internalType": "address",
          "name": "from",
          "type": "address"
        },
        {
          "indexed": true,
          "internalType": "address",
          "name": "to",
          "type": "address"
        },
        {
          "indexed": true,
          "internalType": "uint256",
          "name": "tokenId",
          "type": "uint256"
        }
      ],
      "name": "Transfer",
      "type": "event"
    },
    {
      "anonymous": false,
      "inputs": [
        {
          "indexed": false,
          "internalType": "address",
          "name": "account",
          "type": "address"
        }
      ],
      "name": "Unpaused",
      "type": "event"
    },
    {
      "inputs": [
        {
          "internalType": "address",
          "name": "to",
          "type": "address"
        },
        {
          "internalType": "uint256",
          "name": "tokenId",
          "type": "uint256"
        }
      ],
      "name": "approve",
      "outputs": [],
      "stateMutability": "nonpayable",
      "type": "function"
    },
    {
      "inputs": [
        {
          "internalType": "address",
          "name": "addr",
          "type": "address"
        }
      ],
      "name": "approveAddress",
      "outputs": [],
      "stateMutability": "nonpayable",
      "type": "function"
    },
    {
      "inputs": [
        {
          "internalType": "address",
          "name": "owner",
          "type": "address"
        }
      ],
      "name": "balanceOf",
      "outputs": [
        {
          "internalType": "uint256",
          "name": "",
          "type": "uint256"
        }
      ],
      "stateMutability": "view",
      "type": "function"
    },
    {
      "inputs": [
        {
          "internalType": "uint256",
          "name": "tokenId",
          "type": "uint256"
        }
      ],
      "name": "burn",
      "outputs": [],
      "stateMutability": "nonpayable",
      "type": "function"
    },
    {
      "inputs": [
        {
          "internalType": "uint256",
          "name": "tokenId",
          "type": "uint256"
        }
      ],
      "name": "getApproved",
      "outputs": [
        {
          "internalType": "address",
          "name": "",
          "type": "address"
        }
      ],
      "stateMutability": "view",
      "type": "function"
    },
    {
      "inputs": [
        {
          "internalType": "address",
          "name": "owner",
          "type": "address"
        },
        {
          "internalType": "address",
          "name": "operator",
          "type": "address"
        }
      ],
      "name": "isApprovedForAll",
      "outputs": [
        {
          "internalType": "bool",
          "name": "",
          "type": "bool"
        }
      ],
      "stateMutability": "view",
      "type": "function"
    },
    {
      "inputs": [
        {
          "internalType": "address",
          "name": "user",
          "type": "address"
        },
        {
          "internalType": "string",
          "name": "uri",
          "type": "string"
        }
      ],
      "name": "mintNFT",
      "outputs": [
        {
          "internalType": "uint256",
          "name": "",
          "type": "uint256"
        }
      ],
      "stateMutability": "nonpayable",
      "type": "function"
    },
    {
      "inputs": [],
      "name": "name",
      "outputs": [
        {
          "internalType": "string",
          "name": "",
          "type": "string"
        }
      ],
      "stateMutability": "view",
      "type": "function"
    },
    {
      "inputs": [],
      "name": "owner",
      "outputs": [
        {
          "internalType": "address",
          "name": "",
          "type": "address"
        }
      ],
      "stateMutability": "view",
      "type": "function"
    },
    {
      "inputs": [
        {
          "internalType": "uint256",
          "name": "tokenId",
          "type": "uint256"
        }
      ],
      "name": "ownerOf",
      "outputs": [
        {
          "internalType": "address",
          "name": "",
          "type": "address"
        }
      ],
      "stateMutability": "view",
      "type": "function"
    },
    {
      "inputs": [],
      "name": "pause",
      "outputs": [],
      "stateMutability": "nonpayable",
      "type": "function"
    },
    {
      "inputs": [],
      "name": "paused",
      "outputs": [
        {
          "internalType": "bool",
          "name": "",
          "type": "bool"
        }
      ],
      "stateMutability": "view",
      "type": "function"
    },
    {
      "inputs": [],
      "name": "renounceOwnership",
      "outputs": [],
      "stateMutability": "nonpayable",
      "type": "function"
    },
    {
      "inputs": [
        {
          "internalType": "address",
          "name": "to",
          "type": "address"
        }
      ],
      "name": "safeMint",
      "outputs": [],
      "stateMutability": "nonpayable",
      "type": "function"
    },
    {
      "inputs": [
        {
          "internalType": "address",
          "name": "from",
          "type": "address"
        },
        {
          "internalType": "address",
          "name": "to",
          "type": "address"
        },
        {
          "internalType": "uint256",
          "name": "tokenId",
          "type": "uint256"
        }
      ],
      "name": "safeTransferFrom",
      "outputs": [],
      "stateMutability": "nonpayable",
      "type": "function"
    },
    {
      "inputs": [
        {
          "internalType": "address",
          "name": "from",
          "type": "address"
        },
        {
          "internalType": "address",
          "name": "to",
          "type": "address"
        },
        {
          "internalType": "uint256",
          "name": "tokenId",
          "type": "uint256"
        },
        {
          "internalType": "bytes",
          "name": "_data",
          "type": "bytes"
        }
      ],
      "name": "safeTransferFrom",
      "outputs": [],
      "stateMutability": "nonpayable",
      "type": "function"
    },
    {
      "inputs": [
        {
          "internalType": "address",
          "name": "operator",
          "type": "address"
        },
        {
          "internalType": "bool",
          "name": "approved",
          "type": "bool"
        }
      ],
      "name": "setApprovalForAll",
      "outputs": [],
      "stateMutability": "nonpayable",
      "type": "function"
    },
    {
      "inputs": [
        {
          "internalType": "bytes4",
          "name": "interfaceId",
          "type": "bytes4"
        }
      ],
      "name": "supportsInterface",
      "outputs": [
        {
          "internalType": "bool",
          "name": "",
          "type": "bool"
        }
      ],
      "stateMutability": "view",
      "type": "function"
    },
    {
      "inputs": [],
      "name": "symbol",
      "outputs": [
        {
          "internalType": "string",
          "name": "",
          "type": "string"
        }
      ],
      "stateMutability": "view",
      "type": "function"
    },
    {
      "inputs": [
        {
          "internalType": "uint256",
          "name": "index",
          "type": "uint256"
        }
      ],
      "name": "tokenByIndex",
      "outputs": [
        {
          "internalType": "uint256",
          "name": "",
          "type": "uint256"
        }
      ],
      "stateMutability": "view",
      "type": "function"
    },
    {
      "inputs": [
        {
          "internalType": "address",
          "name": "owner",
          "type": "address"
        },
        {
          "internalType": "uint256",
          "name": "index",
          "type": "uint256"
        }
      ],
      "name": "tokenOfOwnerByIndex",
      "outputs": [
        {
          "internalType": "uint256",
          "name": "",
          "type": "uint256"
        }
      ],
      "stateMutability": "view",
      "type": "function"
    },
    {
      "inputs": [
        {
          "internalType": "uint256",
          "name": "tokenId",
          "type": "uint256"
        }
      ],
      "name": "tokenURI",
      "outputs": [
        {
          "internalType": "string",
          "name": "",
          "type": "string"
        }
      ],
      "stateMutability": "view",
      "type": "function"
    },
    {
      "inputs": [],
      "name": "totalSupply",
      "outputs": [
        {
          "internalType": "uint256",
          "name": "",
          "type": "uint256"
        }
      ],
      "stateMutability": "view",
      "type": "function"
    },
    {
      "inputs": [
        {
          "internalType": "address",
          "name": "from",
          "type": "address"
        },
        {
          "internalType": "address",
          "name": "to",
          "type": "address"
        },
        {
          "internalType": "uint256",
          "name": "tokenId",
          "type": "uint256"
        }
      ],
      "name": "transferFrom",
      "outputs": [],
      "stateMutability": "nonpayable",
      "type": "function"
    },
    {
      "inputs": [
        {
          "internalType": "address",
          "name": "newOwner",
          "type": "address"
        }
      ],
      "name": "transferOwnership",
      "outputs": [],
      "stateMutability": "nonpayable",
      "type": "function"
    },
    {
      "inputs": [],
      "name": "unpause",
      "outputs": [],
      "stateMutability": "nonpayable",
      "type": "function"
    }
  ],
  "bytecode": "0x60806040523480156200001157600080fd5b506040518060400160405280600881526020017f47616d654974656d0000000000000000000000000000000000000000000000008152506040518060400160405280600381526020017f4749540000000000000000000000000000000000000000000000000000000000815250816000908051906020019062000096929190620001c1565b508060019080519060200190620000af929190620001c1565b5050506000600b60006101000a81548160ff021916908315150217905550620000ed620000e1620000f360201b60201c565b620000fb60201b60201c565b620002d6565b600033905090565b6000600b60019054906101000a900473ffffffffffffffffffffffffffffffffffffffff16905081600b60016101000a81548173ffffffffffffffffffffffffffffffffffffffff021916908373ffffffffffffffffffffffffffffffffffffffff1602179055508173ffffffffffffffffffffffffffffffffffffffff168173ffffffffffffffffffffffffffffffffffffffff167f8be0079c531659141344cd1fd0a4f28419497f9722a3daafe3b4186f6b6457e060405160405180910390a35050565b828054620001cf9062000271565b90600052602060002090601f016020900481019282620001f357600085556200023f565b82601f106200020e57805160ff19168380011785556200023f565b828001600101855582156200023f579182015b828111156200023e57825182559160200191906001019062000221565b5b5090506200024e919062000252565b5090565b5b808211156200026d57600081600090555060010162000253565b5090565b600060028204905060018216806200028a57607f821691505b60208210811415620002a157620002a0620002a7565b5b50919050565b7f4e487b7100000000000000000000000000000000000000000000000000000000600052602260045260246000fd5b613ef780620002e66000396000f3fe608060405234801561001057600080fd5b506004361061018e5760003560e01c80636352211e116100de578063a22cb46511610097578063e985e9c511610071578063e985e9c51461045b578063eacabe141461048b578063f2fde38b146104bb578063fabf657a146104d75761018e565b8063a22cb465146103f3578063b88d4fde1461040f578063c87b56dd1461042b5761018e565b80636352211e1461034357806370a0823114610373578063715018a6146103a35780638456cb59146103ad5780638da5cb5b146103b757806395d89b41146103d55761018e565b80632f745c591161014b57806342842e0e1161012557806342842e0e146102bd57806342966c68146102d95780634f6ccce7146102f55780635c975abb146103255761018e565b80632f745c59146102675780633f4ba83a1461029757806340d097c3146102a15761018e565b806301ffc9a71461019357806306fdde03146101c3578063081812fc146101e1578063095ea7b31461021157806318160ddd1461022d57806323b872dd1461024b575b600080fd5b6101ad60048036038101906101a89190612d53565b6104f3565b6040516101ba919061376f565b60405180910390f35b6101cb610505565b6040516101d8919061378a565b60405180910390f35b6101fb60048036038101906101f69190612da5565b610597565b6040516102089190613708565b60405180910390f35b61022b60048036038101906102269190612d17565b61061c565b005b610235610734565b6040516102429190613a8c565b60405180910390f35b61026560048036038101906102609190612bbd565b610741565b005b610281600480360381019061027c9190612d17565b6107a1565b60405161028e9190613a8c565b60405180910390f35b61029f610846565b005b6102bb60048036038101906102b69190612b58565b6108cc565b005b6102d760048036038101906102d29190612bbd565b610968565b005b6102f360048036038101906102ee9190612da5565b610988565b005b61030f600480360381019061030a9190612da5565b6109e4565b60405161031c9190613a8c565b60405180910390f35b61032d610a7b565b60405161033a919061376f565b60405180910390f35b61035d60048036038101906103589190612da5565b610a92565b60405161036a9190613708565b60405180910390f35b61038d60048036038101906103889190612b58565b610b44565b60405161039a9190613a8c565b60405180910390f35b6103ab610bfc565b005b6103b5610c84565b005b6103bf610d0a565b6040516103cc9190613708565b60405180910390f35b6103dd610d34565b6040516103ea919061378a565b60405180910390f35b61040d60048036038101906104089190612c87565b610dc6565b005b61042960048036038101906104249190612c0c565b610f47565b005b61044560048036038101906104409190612da5565b610fa9565b604051610452919061378a565b60405180910390f35b61047560048036038101906104709190612b81565b610fbb565b604051610482919061376f565b60405180910390f35b6104a560048036038101906104a09190612cc3565b61104f565b6040516104b29190613a8c565b60405180910390f35b6104d560048036038101906104d09190612b58565b611103565b005b6104f160048036038101906104ec9190612b58565b6111fb565b005b60006104fe82611209565b9050919050565b60606000805461051490613cec565b80601f016020809104026020016040519081016040528092919081815260200182805461054090613cec565b801561058d5780601f106105625761010080835404028352916020019161058d565b820191906000526020600020905b81548152906001019060200180831161057057829003601f168201915b5050505050905090565b60006105a282611283565b6105e1576040517f08c379a00000000000000000000000000000000000000000000000000000000081526004016105d89061398c565b60405180910390fd5b6004600083815260200190815260200160002060009054906101000a900473ffffffffffffffffffffffffffffffffffffffff169050919050565b600061062782610a92565b90508073ffffffffffffffffffffffffffffffffffffffff168373ffffffffffffffffffffffffffffffffffffffff161415610698576040517f08c379a000000000000000000000000000000000000000000000000000000000815260040161068f90613a0c565b60405180910390fd5b8073ffffffffffffffffffffffffffffffffffffffff166106b76112ef565b73ffffffffffffffffffffffffffffffffffffffff1614806106e657506106e5816106e06112ef565b610fbb565b5b610725576040517f08c379a000000000000000000000000000000000000000000000000000000000815260040161071c906138cc565b60405180910390fd5b61072f83836112f7565b505050565b6000600880549050905090565b61075261074c6112ef565b826113b0565b610791576040517f08c379a000000000000000000000000000000000000000000000000000000000815260040161078890613a2c565b60405180910390fd5b61079c83838361148e565b505050565b60006107ac83610b44565b82106107ed576040517f08c379a00000000000000000000000000000000000000000000000000000000081526004016107e4906137cc565b60405180910390fd5b600660008473ffffffffffffffffffffffffffffffffffffffff1673ffffffffffffffffffffffffffffffffffffffff168152602001908152602001600020600083815260200190815260200160002054905092915050565b61084e6112ef565b73ffffffffffffffffffffffffffffffffffffffff1661086c610d0a565b73ffffffffffffffffffffffffffffffffffffffff16146108c2576040517f08c379a00000000000000000000000000000000000000000000000000000000081526004016108b9906139ac565b60405180910390fd5b6108ca6116ea565b565b6108d46112ef565b73ffffffffffffffffffffffffffffffffffffffff166108f2610d0a565b73ffffffffffffffffffffffffffffffffffffffff1614610948576040517f08c379a000000000000000000000000000000000000000000000000000000000815260040161093f906139ac565b60405180910390fd5b61095b81610956600c61178c565b61179a565b610965600c6117b8565b50565b61098383838360405180602001604052806000815250610f47565b505050565b6109996109936112ef565b826113b0565b6109d8576040517f08c379a00000000000000000000000000000000000000000000000000000000081526004016109cf90613a6c565b60405180910390fd5b6109e1816117ce565b50565b60006109ee610734565b8210610a2f576040517f08c379a0000000000000000000000000000000000000000000000000000000008152600401610a2690613a4c565b60405180910390fd5b60088281548110610a69577f4e487b7100000000000000000000000000000000000000000000000000000000600052603260045260246000fd5b90600052602060002001549050919050565b6000600b60009054906101000a900460ff16905090565b6000806002600084815260200190815260200160002060009054906101000a900473ffffffffffffffffffffffffffffffffffffffff169050600073ffffffffffffffffffffffffffffffffffffffff168173ffffffffffffffffffffffffffffffffffffffff161415610b3b576040517f08c379a0000000000000000000000000000000000000000000000000000000008152600401610b329061390c565b60405180910390fd5b80915050919050565b60008073ffffffffffffffffffffffffffffffffffffffff168273ffffffffffffffffffffffffffffffffffffffff161415610bb5576040517f08c379a0000000000000000000000000000000000000000000000000000000008152600401610bac906138ec565b60405180910390fd5b600360008373ffffffffffffffffffffffffffffffffffffffff1673ffffffffffffffffffffffffffffffffffffffff168152602001908152602001600020549050919050565b610c046112ef565b73ffffffffffffffffffffffffffffffffffffffff16610c22610d0a565b73ffffffffffffffffffffffffffffffffffffffff1614610c78576040517f08c379a0000000000000000000000000000000000000000000000000000000008152600401610c6f906139ac565b60405180910390fd5b610c8260006117da565b565b610c8c6112ef565b73ffffffffffffffffffffffffffffffffffffffff16610caa610d0a565b73ffffffffffffffffffffffffffffffffffffffff1614610d00576040517f08c379a0000000000000000000000000000000000000000000000000000000008152600401610cf7906139ac565b60405180910390fd5b610d086118a0565b565b6000600b60019054906101000a900473ffffffffffffffffffffffffffffffffffffffff16905090565b606060018054610d4390613cec565b80601f0160208091040260200160405190810160405280929190818152602001828054610d6f90613cec565b8015610dbc5780601f10610d9157610100808354040283529160200191610dbc565b820191906000526020600020905b815481529060010190602001808311610d9f57829003601f168201915b5050505050905090565b610dce6112ef565b73ffffffffffffffffffffffffffffffffffffffff168273ffffffffffffffffffffffffffffffffffffffff161415610e3c576040517f08c379a0000000000000000000000000000000000000000000000000000000008152600401610e339061386c565b60405180910390fd5b8060056000610e496112ef565b73ffffffffffffffffffffffffffffffffffffffff1673ffffffffffffffffffffffffffffffffffffffff16815260200190815260200160002060008473ffffffffffffffffffffffffffffffffffffffff1673ffffffffffffffffffffffffffffffffffffffff16815260200190815260200160002060006101000a81548160ff0219169083151502179055508173ffffffffffffffffffffffffffffffffffffffff16610ef66112ef565b73ffffffffffffffffffffffffffffffffffffffff167f17307eab39ab6107e8899845ad3d59bd9653f200f220920489ca2b5937696c3183604051610f3b919061376f565b60405180910390a35050565b610f58610f526112ef565b836113b0565b610f97576040517f08c379a0000000000000000000000000000000000000000000000000000000008152600401610f8e90613a2c565b60405180910390fd5b610fa384848484611943565b50505050565b6060610fb48261199f565b9050919050565b6000600560008473ffffffffffffffffffffffffffffffffffffffff1673ffffffffffffffffffffffffffffffffffffffff16815260200190815260200160002060008373ffffffffffffffffffffffffffffffffffffffff1673ffffffffffffffffffffffffffffffffffffffff16815260200190815260200160002060009054906101000a900460ff16905092915050565b60006110596112ef565b73ffffffffffffffffffffffffffffffffffffffff16611077610d0a565b73ffffffffffffffffffffffffffffffffffffffff16146110cd576040517f08c379a00000000000000000000000000000000000000000000000000000000081526004016110c4906139ac565b60405180910390fd5b6110d7600c6117b8565b60006110e3600c61178c565b90506110ef848261179a565b6110f98184611af1565b8091505092915050565b61110b6112ef565b73ffffffffffffffffffffffffffffffffffffffff16611129610d0a565b73ffffffffffffffffffffffffffffffffffffffff161461117f576040517f08c379a0000000000000000000000000000000000000000000000000000000008152600401611176906139ac565b60405180910390fd5b600073ffffffffffffffffffffffffffffffffffffffff168173ffffffffffffffffffffffffffffffffffffffff1614156111ef576040517f08c379a00000000000000000000000000000000000000000000000000000000081526004016111e69061380c565b60405180910390fd5b6111f8816117da565b50565b611206816001610dc6565b50565b60007f780e9d63000000000000000000000000000000000000000000000000000000007bffffffffffffffffffffffffffffffffffffffffffffffffffffffff1916827bffffffffffffffffffffffffffffffffffffffffffffffffffffffff1916148061127c575061127b82611b65565b5b9050919050565b60008073ffffffffffffffffffffffffffffffffffffffff166002600084815260200190815260200160002060009054906101000a900473ffffffffffffffffffffffffffffffffffffffff1673ffffffffffffffffffffffffffffffffffffffff1614159050919050565b600033905090565b816004600083815260200190815260200160002060006101000a81548173ffffffffffffffffffffffffffffffffffffffff021916908373ffffffffffffffffffffffffffffffffffffffff160217905550808273ffffffffffffffffffffffffffffffffffffffff1661136a83610a92565b73ffffffffffffffffffffffffffffffffffffffff167f8c5be1e5ebec7d5bd14f71427d1e84f3dd0314c0f7b2291e5b200ac8c7c3b92560405160405180910390a45050565b60006113bb82611283565b6113fa576040517f08c379a00000000000000000000000000000000000000000000000000000000081526004016113f19061388c565b60405180910390fd5b600061140583610a92565b90508073ffffffffffffffffffffffffffffffffffffffff168473ffffffffffffffffffffffffffffffffffffffff16148061147457508373ffffffffffffffffffffffffffffffffffffffff1661145c84610597565b73ffffffffffffffffffffffffffffffffffffffff16145b8061148557506114848185610fbb565b5b91505092915050565b8273ffffffffffffffffffffffffffffffffffffffff166114ae82610a92565b73ffffffffffffffffffffffffffffffffffffffff1614611504576040517f08c379a00000000000000000000000000000000000000000000000000000000081526004016114fb906139cc565b60405180910390fd5b600073ffffffffffffffffffffffffffffffffffffffff168273ffffffffffffffffffffffffffffffffffffffff161415611574576040517f08c379a000000000000000000000000000000000000000000000000000000000815260040161156b9061384c565b60405180910390fd5b61157f838383611c47565b61158a6000826112f7565b6001600360008573ffffffffffffffffffffffffffffffffffffffff1673ffffffffffffffffffffffffffffffffffffffff16815260200190815260200160002060008282546115da9190613c02565b925050819055506001600360008473ffffffffffffffffffffffffffffffffffffffff1673ffffffffffffffffffffffffffffffffffffffff16815260200190815260200160002060008282546116319190613b7b565b92505081905550816002600083815260200190815260200160002060006101000a81548173ffffffffffffffffffffffffffffffffffffffff021916908373ffffffffffffffffffffffffffffffffffffffff160217905550808273ffffffffffffffffffffffffffffffffffffffff168473ffffffffffffffffffffffffffffffffffffffff167fddf252ad1be2c89b69c2b068fc378daa952ba7f163c4a11628f55a4df523b3ef60405160405180910390a4505050565b6116f2610a7b565b611731576040517f08c379a0000000000000000000000000000000000000000000000000000000008152600401611728906137ac565b60405180910390fd5b6000600b60006101000a81548160ff0219169083151502179055507f5db9ee0a495bf2e6ff9c91a7834c1ba4fdd244a5e8aa4e537bd38aeae4b073aa6117756112ef565b6040516117829190613708565b60405180910390a1565b600081600001549050919050565b6117b4828260405180602001604052806000815250611c9f565b5050565b6001816000016000828254019250508190555050565b6117d781611cfa565b50565b6000600b60019054906101000a900473ffffffffffffffffffffffffffffffffffffffff16905081600b60016101000a81548173ffffffffffffffffffffffffffffffffffffffff021916908373ffffffffffffffffffffffffffffffffffffffff1602179055508173ffffffffffffffffffffffffffffffffffffffff168173ffffffffffffffffffffffffffffffffffffffff167f8be0079c531659141344cd1fd0a4f28419497f9722a3daafe3b4186f6b6457e060405160405180910390a35050565b6118a8610a7b565b156118e8576040517f08c379a00000000000000000000000000000000000000000000000000000000081526004016118df906138ac565b60405180910390fd5b6001600b60006101000a81548160ff0219169083151502179055507f62e78cea01bee320cd4e420270b5ea74000d11b0c9f74754ebdbfc544b05a25861192c6112ef565b6040516119399190613708565b60405180910390a1565b61194e84848461148e565b61195a84848484611d4d565b611999576040517f08c379a0000000000000000000000000000000000000000000000000000000008152600401611990906137ec565b60405180910390fd5b50505050565b60606119aa82611283565b6119e9576040517f08c379a00000000000000000000000000000000000000000000000000000000081526004016119e09061396c565b60405180910390fd5b6000600a60008481526020019081526020016000208054611a0990613cec565b80601f0160208091040260200160405190810160405280929190818152602001828054611a3590613cec565b8015611a825780601f10611a5757610100808354040283529160200191611a82565b820191906000526020600020905b815481529060010190602001808311611a6557829003601f168201915b505050505090506000611a93611ee4565b9050600081511415611aa9578192505050611aec565b600082511115611ade578082604051602001611ac69291906136e4565b60405160208183030381529060405292505050611aec565b611ae784611efb565b925050505b919050565b611afa82611283565b611b39576040517f08c379a0000000000000000000000000000000000000000000000000000000008152600401611b309061392c565b60405180910390fd5b80600a60008481526020019081526020016000209080519060200190611b6092919061293c565b505050565b60007f80ac58cd000000000000000000000000000000000000000000000000000000007bffffffffffffffffffffffffffffffffffffffffffffffffffffffff1916827bffffffffffffffffffffffffffffffffffffffffffffffffffffffff19161480611c3057507f5b5e139f000000000000000000000000000000000000000000000000000000007bffffffffffffffffffffffffffffffffffffffffffffffffffffffff1916827bffffffffffffffffffffffffffffffffffffffffffffffffffffffff1916145b80611c405750611c3f82611fa2565b5b9050919050565b611c4f610a7b565b15611c8f576040517f08c379a0000000000000000000000000000000000000000000000000000000008152600401611c86906138ac565b60405180910390fd5b611c9a83838361200c565b505050565b611ca98383612120565b611cb66000848484611d4d565b611cf5576040517f08c379a0000000000000000000000000000000000000000000000000000000008152600401611cec906137ec565b60405180910390fd5b505050565b611d03816122ee565b6000600a60008381526020019081526020016000208054611d2390613cec565b905014611d4a57600a60008281526020019081526020016000206000611d4991906129c2565b5b50565b6000611d6e8473ffffffffffffffffffffffffffffffffffffffff166123ff565b15611ed7578373ffffffffffffffffffffffffffffffffffffffff1663150b7a02611d976112ef565b8786866040518563ffffffff1660e01b8152600401611db99493929190613723565b602060405180830381600087803b158015611dd357600080fd5b505af1925050508015611e0457506040513d601f19601f82011682018060405250810190611e019190612d7c565b60015b611e87573d8060008114611e34576040519150601f19603f3d011682016040523d82523d6000602084013e611e39565b606091505b50600081511415611e7f576040517f08c379a0000000000000000000000000000000000000000000000000000000008152600401611e76906137ec565b60405180910390fd5b805181602001fd5b63150b7a0260e01b7bffffffffffffffffffffffffffffffffffffffffffffffffffffffff1916817bffffffffffffffffffffffffffffffffffffffffffffffffffffffff191614915050611edc565b600190505b949350505050565b606060405180602001604052806000815250905090565b6060611f0682611283565b611f45576040517f08c379a0000000000000000000000000000000000000000000000000000000008152600401611f3c906139ec565b60405180910390fd5b6000611f4f611ee4565b90506000815111611f6f5760405180602001604052806000815250611f9a565b80611f7984612412565b604051602001611f8a9291906136e4565b6040516020818303038152906040525b915050919050565b60007f01ffc9a7000000000000000000000000000000000000000000000000000000007bffffffffffffffffffffffffffffffffffffffffffffffffffffffff1916827bffffffffffffffffffffffffffffffffffffffffffffffffffffffff1916149050919050565b6120178383836125bf565b600073ffffffffffffffffffffffffffffffffffffffff168373ffffffffffffffffffffffffffffffffffffffff16141561205a57612055816125c4565b612099565b8173ffffffffffffffffffffffffffffffffffffffff168373ffffffffffffffffffffffffffffffffffffffff161461209857612097838261260d565b5b5b600073ffffffffffffffffffffffffffffffffffffffff168273ffffffffffffffffffffffffffffffffffffffff1614156120dc576120d78161277a565b61211b565b8273ffffffffffffffffffffffffffffffffffffffff168273ffffffffffffffffffffffffffffffffffffffff161461211a5761211982826128bd565b5b5b505050565b600073ffffffffffffffffffffffffffffffffffffffff168273ffffffffffffffffffffffffffffffffffffffff161415612190576040517f08c379a00000000000000000000000000000000000000000000000000000000081526004016121879061394c565b60405180910390fd5b61219981611283565b156121d9576040517f08c379a00000000000000000000000000000000000000000000000000000000081526004016121d09061382c565b60405180910390fd5b6121e560008383611c47565b6001600360008473ffffffffffffffffffffffffffffffffffffffff1673ffffffffffffffffffffffffffffffffffffffff16815260200190815260200160002060008282546122359190613b7b565b92505081905550816002600083815260200190815260200160002060006101000a81548173ffffffffffffffffffffffffffffffffffffffff021916908373ffffffffffffffffffffffffffffffffffffffff160217905550808273ffffffffffffffffffffffffffffffffffffffff16600073ffffffffffffffffffffffffffffffffffffffff167fddf252ad1be2c89b69c2b068fc378daa952ba7f163c4a11628f55a4df523b3ef60405160405180910390a45050565b60006122f982610a92565b905061230781600084611c47565b6123126000836112f7565b6001600360008373ffffffffffffffffffffffffffffffffffffffff1673ffffffffffffffffffffffffffffffffffffffff16815260200190815260200160002060008282546123629190613c02565b925050819055506002600083815260200190815260200160002060006101000a81549073ffffffffffffffffffffffffffffffffffffffff021916905581600073ffffffffffffffffffffffffffffffffffffffff168273ffffffffffffffffffffffffffffffffffffffff167fddf252ad1be2c89b69c2b068fc378daa952ba7f163c4a11628f55a4df523b3ef60405160405180910390a45050565b600080823b905060008111915050919050565b6060600082141561245a576040518060400160405280600181526020017f300000000000000000000000000000000000000000000000000000000000000081525090506125ba565b600082905060005b6000821461248c57808061247590613d1e565b915050600a826124859190613bd1565b9150612462565b60008167ffffffffffffffff8111156124ce577f4e487b7100000000000000000000000000000000000000000000000000000000600052604160045260246000fd5b6040519080825280601f01601f1916602001820160405280156125005781602001600182028036833780820191505090505b5090505b600085146125b3576001826125199190613c02565b9150600a856125289190613d67565b60306125349190613b7b565b60f81b818381518110612570577f4e487b7100000000000000000000000000000000000000000000000000000000600052603260045260246000fd5b60200101907effffffffffffffffffffffffffffffffffffffffffffffffffffffffffffff1916908160001a905350600a856125ac9190613bd1565b9450612504565b8093505050505b919050565b505050565b6008805490506009600083815260200190815260200160002081905550600881908060018154018082558091505060019003906000526020600020016000909190919091505550565b6000600161261a84610b44565b6126249190613c02565b9050600060076000848152602001908152602001600020549050818114612709576000600660008673ffffffffffffffffffffffffffffffffffffffff1673ffffffffffffffffffffffffffffffffffffffff168152602001908152602001600020600084815260200190815260200160002054905080600660008773ffffffffffffffffffffffffffffffffffffffff1673ffffffffffffffffffffffffffffffffffffffff168152602001908152602001600020600084815260200190815260200160002081905550816007600083815260200190815260200160002081905550505b6007600084815260200190815260200160002060009055600660008573ffffffffffffffffffffffffffffffffffffffff1673ffffffffffffffffffffffffffffffffffffffff16815260200190815260200160002060008381526020019081526020016000206000905550505050565b6000600160088054905061278e9190613c02565b90506000600960008481526020019081526020016000205490506000600883815481106127e4577f4e487b7100000000000000000000000000000000000000000000000000000000600052603260045260246000fd5b90600052602060002001549050806008838154811061282c577f4e487b7100000000000000000000000000000000000000000000000000000000600052603260045260246000fd5b9060005260206000200181905550816009600083815260200190815260200160002081905550600960008581526020019081526020016000206000905560088054806128a1577f4e487b7100000000000000000000000000000000000000000000000000000000600052603160045260246000fd5b6001900381819060005260206000200160009055905550505050565b60006128c883610b44565b905081600660008573ffffffffffffffffffffffffffffffffffffffff1673ffffffffffffffffffffffffffffffffffffffff168152602001908152602001600020600083815260200190815260200160002081905550806007600084815260200190815260200160002081905550505050565b82805461294890613cec565b90600052602060002090601f01602090048101928261296a57600085556129b1565b82601f1061298357805160ff19168380011785556129b1565b828001600101855582156129b1579182015b828111156129b0578251825591602001919060010190612995565b5b5090506129be9190612a02565b5090565b5080546129ce90613cec565b6000825580601f106129e057506129ff565b601f0160209004906000526020600020908101906129fe9190612a02565b5b50565b5b80821115612a1b576000816000905550600101612a03565b5090565b6000612a32612a2d84613ad8565b613aa7565b905082815260208101848484011115612a4a57600080fd5b612a55848285613caa565b509392505050565b6000612a70612a6b84613b08565b613aa7565b905082815260208101848484011115612a8857600080fd5b612a93848285613caa565b509392505050565b600081359050612aaa81613e65565b92915050565b600081359050612abf81613e7c565b92915050565b600081359050612ad481613e93565b92915050565b600081519050612ae981613e93565b92915050565b600082601f830112612b0057600080fd5b8135612b10848260208601612a1f565b91505092915050565b600082601f830112612b2a57600080fd5b8135612b3a848260208601612a5d565b91505092915050565b600081359050612b5281613eaa565b92915050565b600060208284031215612b6a57600080fd5b6000612b7884828501612a9b565b91505092915050565b60008060408385031215612b9457600080fd5b6000612ba285828601612a9b565b9250506020612bb385828601612a9b565b9150509250929050565b600080600060608486031215612bd257600080fd5b6000612be086828701612a9b565b9350506020612bf186828701612a9b565b9250506040612c0286828701612b43565b9150509250925092565b60008060008060808587031215612c2257600080fd5b6000612c3087828801612a9b565b9450506020612c4187828801612a9b565b9350506040612c5287828801612b43565b925050606085013567ffffffffffffffff811115612c6f57600080fd5b612c7b87828801612aef565b91505092959194509250565b60008060408385031215612c9a57600080fd5b6000612ca885828601612a9b565b9250506020612cb985828601612ab0565b9150509250929050565b60008060408385031215612cd657600080fd5b6000612ce485828601612a9b565b925050602083013567ffffffffffffffff811115612d0157600080fd5b612d0d85828601612b19565b9150509250929050565b60008060408385031215612d2a57600080fd5b6000612d3885828601612a9b565b9250506020612d4985828601612b43565b9150509250929050565b600060208284031215612d6557600080fd5b6000612d7384828501612ac5565b91505092915050565b600060208284031215612d8e57600080fd5b6000612d9c84828501612ada565b91505092915050565b600060208284031215612db757600080fd5b6000612dc584828501612b43565b91505092915050565b612dd781613c36565b82525050565b612de681613c48565b82525050565b6000612df782613b38565b612e018185613b4e565b9350612e11818560208601613cb9565b612e1a81613e54565b840191505092915050565b6000612e3082613b43565b612e3a8185613b5f565b9350612e4a818560208601613cb9565b612e5381613e54565b840191505092915050565b6000612e6982613b43565b612e738185613b70565b9350612e83818560208601613cb9565b80840191505092915050565b6000612e9c601483613b5f565b91507f5061757361626c653a206e6f74207061757365640000000000000000000000006000830152602082019050919050565b6000612edc602b83613b5f565b91507f455243373231456e756d657261626c653a206f776e657220696e646578206f7560008301527f74206f6620626f756e64730000000000000000000000000000000000000000006020830152604082019050919050565b6000612f42603283613b5f565b91507f4552433732313a207472616e7366657220746f206e6f6e20455243373231526560008301527f63656976657220696d706c656d656e74657200000000000000000000000000006020830152604082019050919050565b6000612fa8602683613b5f565b91507f4f776e61626c653a206e6577206f776e657220697320746865207a65726f206160008301527f64647265737300000000000000000000000000000000000000000000000000006020830152604082019050919050565b600061300e601c83613b5f565b91507f4552433732313a20746f6b656e20616c7265616479206d696e746564000000006000830152602082019050919050565b600061304e602483613b5f565b91507f4552433732313a207472616e7366657220746f20746865207a65726f2061646460008301527f72657373000000000000000000000000000000000000000000000000000000006020830152604082019050919050565b60006130b4601983613b5f565b91507f4552433732313a20617070726f766520746f2063616c6c6572000000000000006000830152602082019050919050565b60006130f4602c83613b5f565b91507f4552433732313a206f70657261746f7220717565727920666f72206e6f6e657860008301527f697374656e7420746f6b656e00000000000000000000000000000000000000006020830152604082019050919050565b600061315a601083613b5f565b91507f5061757361626c653a20706175736564000000000000000000000000000000006000830152602082019050919050565b600061319a603883613b5f565b91507f4552433732313a20617070726f76652063616c6c6572206973206e6f74206f7760008301527f6e6572206e6f7220617070726f76656420666f7220616c6c00000000000000006020830152604082019050919050565b6000613200602a83613b5f565b91507f4552433732313a2062616c616e636520717565727920666f7220746865207a6560008301527f726f2061646472657373000000000000000000000000000000000000000000006020830152604082019050919050565b6000613266602983613b5f565b91507f4552433732313a206f776e657220717565727920666f72206e6f6e657869737460008301527f656e7420746f6b656e00000000000000000000000000000000000000000000006020830152604082019050919050565b60006132cc602e83613b5f565b91507f45524337323155524953746f726167653a2055524920736574206f66206e6f6e60008301527f6578697374656e7420746f6b656e0000000000000000000000000000000000006020830152604082019050919050565b6000613332602083613b5f565b91507f4552433732313a206d696e7420746f20746865207a65726f20616464726573736000830152602082019050919050565b6000613372603183613b5f565b91507f45524337323155524953746f726167653a2055524920717565727920666f722060008301527f6e6f6e6578697374656e7420746f6b656e0000000000000000000000000000006020830152604082019050919050565b60006133d8602c83613b5f565b91507f4552433732313a20617070726f76656420717565727920666f72206e6f6e657860008301527f697374656e7420746f6b656e00000000000000000000000000000000000000006020830152604082019050919050565b600061343e602083613b5f565b91507f4f776e61626c653a2063616c6c6572206973206e6f7420746865206f776e65726000830152602082019050919050565b600061347e602983613b5f565b91507f4552433732313a207472616e73666572206f6620746f6b656e2074686174206960008301527f73206e6f74206f776e00000000000000000000000000000000000000000000006020830152604082019050919050565b60006134e4602f83613b5f565b91507f4552433732314d657461646174613a2055524920717565727920666f72206e6f60008301527f6e6578697374656e7420746f6b656e00000000000000000000000000000000006020830152604082019050919050565b600061354a602183613b5f565b91507f4552433732313a20617070726f76616c20746f2063757272656e74206f776e6560008301527f72000000000000000000000000000000000000000000000000000000000000006020830152604082019050919050565b60006135b0603183613b5f565b91507f4552433732313a207472616e736665722063616c6c6572206973206e6f74206f60008301527f776e6572206e6f7220617070726f7665640000000000000000000000000000006020830152604082019050919050565b6000613616602c83613b5f565b91507f455243373231456e756d657261626c653a20676c6f62616c20696e646578206f60008301527f7574206f6620626f756e647300000000000000000000000000000000000000006020830152604082019050919050565b600061367c603083613b5f565b91507f4552433732314275726e61626c653a2063616c6c6572206973206e6f74206f7760008301527f6e6572206e6f7220617070726f766564000000000000000000000000000000006020830152604082019050919050565b6136de81613ca0565b82525050565b60006136f08285612e5e565b91506136fc8284612e5e565b91508190509392505050565b600060208201905061371d6000830184612dce565b92915050565b60006080820190506137386000830187612dce565b6137456020830186612dce565b61375260408301856136d5565b81810360608301526137648184612dec565b905095945050505050565b60006020820190506137846000830184612ddd565b92915050565b600060208201905081810360008301526137a48184612e25565b905092915050565b600060208201905081810360008301526137c581612e8f565b9050919050565b600060208201905081810360008301526137e581612ecf565b9050919050565b6000602082019050818103600083015261380581612f35565b9050919050565b6000602082019050818103600083015261382581612f9b565b9050919050565b6000602082019050818103600083015261384581613001565b9050919050565b6000602082019050818103600083015261386581613041565b9050919050565b60006020820190508181036000830152613885816130a7565b9050919050565b600060208201905081810360008301526138a5816130e7565b9050919050565b600060208201905081810360008301526138c58161314d565b9050919050565b600060208201905081810360008301526138e58161318d565b9050919050565b60006020820190508181036000830152613905816131f3565b9050919050565b6000602082019050818103600083015261392581613259565b9050919050565b60006020820190508181036000830152613945816132bf565b9050919050565b6000602082019050818103600083015261396581613325565b9050919050565b6000602082019050818103600083015261398581613365565b9050919050565b600060208201905081810360008301526139a5816133cb565b9050919050565b600060208201905081810360008301526139c581613431565b9050919050565b600060208201905081810360008301526139e581613471565b9050919050565b60006020820190508181036000830152613a05816134d7565b9050919050565b60006020820190508181036000830152613a258161353d565b9050919050565b60006020820190508181036000830152613a45816135a3565b9050919050565b60006020820190508181036000830152613a6581613609565b9050919050565b60006020820190508181036000830152613a858161366f565b9050919050565b6000602082019050613aa160008301846136d5565b92915050565b6000604051905081810181811067ffffffffffffffff82111715613ace57613acd613e25565b5b8060405250919050565b600067ffffffffffffffff821115613af357613af2613e25565b5b601f19601f8301169050602081019050919050565b600067ffffffffffffffff821115613b2357613b22613e25565b5b601f19601f8301169050602081019050919050565b600081519050919050565b600081519050919050565b600082825260208201905092915050565b600082825260208201905092915050565b600081905092915050565b6000613b8682613ca0565b9150613b9183613ca0565b9250827fffffffffffffffffffffffffffffffffffffffffffffffffffffffffffffffff03821115613bc657613bc5613d98565b5b828201905092915050565b6000613bdc82613ca0565b9150613be783613ca0565b925082613bf757613bf6613dc7565b5b828204905092915050565b6000613c0d82613ca0565b9150613c1883613ca0565b925082821015613c2b57613c2a613d98565b5b828203905092915050565b6000613c4182613c80565b9050919050565b60008115159050919050565b60007fffffffff0000000000000000000000000000000000000000000000000000000082169050919050565b600073ffffffffffffffffffffffffffffffffffffffff82169050919050565b6000819050919050565b82818337600083830152505050565b60005b83811015613cd7578082015181840152602081019050613cbc565b83811115613ce6576000848401525b50505050565b60006002820490506001821680613d0457607f821691505b60208210811415613d1857613d17613df6565b5b50919050565b6000613d2982613ca0565b91507fffffffffffffffffffffffffffffffffffffffffffffffffffffffffffffffff821415613d5c57613d5b613d98565b5b600182019050919050565b6000613d7282613ca0565b9150613d7d83613ca0565b925082613d8d57613d8c613dc7565b5b828206905092915050565b7f4e487b7100000000000000000000000000000000000000000000000000000000600052601160045260246000fd5b7f4e487b7100000000000000000000000000000000000000000000000000000000600052601260045260246000fd5b7f4e487b7100000000000000000000000000000000000000000000000000000000600052602260045260246000fd5b7f4e487b7100000000000000000000000000000000000000000000000000000000600052604160045260246000fd5b6000601f19601f8301169050919050565b613e6e81613c36565b8114613e7957600080fd5b50565b613e8581613c48565b8114613e9057600080fd5b50565b613e9c81613c54565b8114613ea757600080fd5b50565b613eb381613ca0565b8114613ebe57600080fd5b5056fea2646970667358221220aca24b841b306bed8ff87aa5d4a80a0d5c41c8b763596a264340b1284a7e95c164736f6c63430008000033",
  "linkReferences": {},
  "deployedLinkReferences": {}
}