{
  "_format": "hh-sol-artifact-1",
  "contractName": "GameItem",
  "sourceName": "contracts/GameItem.sol",
  "abi": [
    {
      "inputs": [],
      "stateMutability": "nonpayable",
      "type": "constructor"
    },
    {
      "anonymous": false,
      "inputs": [
        {
          "indexed": true,
          "internalType": "address",
          "name": "owner",
          "type": "address"
        },
        {
          "indexed": true,
          "internalType": "address",
          "name": "approved",
          "type": "address"
        },
        {
          "indexed": true,
          "internalType": "uint256",
          "name": "tokenId",
          "type": "uint256"
        }
      ],
      "name": "Approval",
      "type": "event"
    },
    {
      "anonymous": false,
      "inputs": [
        {
          "indexed": true,
          "internalType": "address",
          "name": "owner",
          "type": "address"
        },
        {
          "indexed": true,
          "internalType": "address",
          "name": "operator",
          "type": "address"
        },
        {
          "indexed": false,
          "internalType": "bool",
          "name": "approved",
          "type": "bool"
        }
      ],
      "name": "ApprovalForAll",
      "type": "event"
    },
    {
      "anonymous": false,
      "inputs": [
        {
          "indexed": false,
          "internalType": "uint256",
          "name": "tokenId",
          "type": "uint256"
        },
        {
          "indexed": false,
          "internalType": "uint256",
          "name": "itemId",
          "type": "uint256"
        },
        {
          "indexed": false,
          "internalType": "uint256",
          "name": "oldStar",
          "type": "uint256"
        },
        {
          "indexed": false,
          "internalType": "uint256",
          "name": "newStar",
          "type": "uint256"
        }
      ],
      "name": "ItemUpgraded",
      "type": "event"
    },
    {
      "anonymous": false,
      "inputs": [
        {
          "indexed": true,
          "internalType": "address",
          "name": "previousOwner",
          "type": "address"
        },
        {
          "indexed": true,
          "internalType": "address",
          "name": "newOwner",
          "type": "address"
        }
      ],
      "name": "OwnershipTransferred",
      "type": "event"
    },
    {
      "anonymous": false,
      "inputs": [
        {
          "indexed": false,
          "internalType": "address",
          "name": "account",
          "type": "address"
        }
      ],
      "name": "Paused",
      "type": "event"
    },
    {
      "anonymous": false,
      "inputs": [
        {
          "indexed": true,
          "internalType": "address",
          "name": "from",
          "type": "address"
        },
        {
          "indexed": true,
          "internalType": "address",
          "name": "to",
          "type": "address"
        },
        {
          "indexed": true,
          "internalType": "uint256",
          "name": "tokenId",
          "type": "uint256"
        }
      ],
      "name": "Transfer",
      "type": "event"
    },
    {
      "anonymous": false,
      "inputs": [
        {
          "indexed": false,
          "internalType": "address",
          "name": "account",
          "type": "address"
        }
      ],
      "name": "Unpaused",
      "type": "event"
    },
    {
      "inputs": [
        {
          "internalType": "address",
          "name": "to",
          "type": "address"
        },
        {
          "internalType": "uint256",
          "name": "tokenId",
          "type": "uint256"
        }
      ],
      "name": "approve",
      "outputs": [],
      "stateMutability": "nonpayable",
      "type": "function"
    },
    {
      "inputs": [
        {
          "internalType": "address",
          "name": "addr",
          "type": "address"
        }
      ],
      "name": "approveAddress",
      "outputs": [],
      "stateMutability": "nonpayable",
      "type": "function"
    },
    {
      "inputs": [
        {
          "internalType": "address",
          "name": "owner",
          "type": "address"
        }
      ],
      "name": "balanceOf",
      "outputs": [
        {
          "internalType": "uint256",
          "name": "",
          "type": "uint256"
        }
      ],
      "stateMutability": "view",
      "type": "function"
    },
    {
      "inputs": [
        {
          "internalType": "uint256",
          "name": "tokenId",
          "type": "uint256"
        }
      ],
      "name": "burn",
      "outputs": [],
      "stateMutability": "nonpayable",
      "type": "function"
    },
    {
      "inputs": [
        {
          "internalType": "address",
          "name": "user",
          "type": "address"
        },
        {
          "internalType": "string",
          "name": "uri",
          "type": "string"
        },
        {
          "internalType": "uint256",
          "name": "itemId",
          "type": "uint256"
        },
        {
          "internalType": "uint8",
          "name": "star",
          "type": "uint8"
        }
      ],
      "name": "createGameItem",
      "outputs": [],
      "stateMutability": "nonpayable",
      "type": "function"
    },
    {
      "inputs": [
        {
          "internalType": "uint256",
          "name": "",
          "type": "uint256"
        }
      ],
      "name": "gameItems",
      "outputs": [
        {
          "internalType": "uint256",
          "name": "itemId",
          "type": "uint256"
        },
        {
          "internalType": "uint256",
          "name": "star",
          "type": "uint256"
        }
      ],
      "stateMutability": "view",
      "type": "function"
    },
    {
      "inputs": [
        {
          "internalType": "uint256",
          "name": "tokenId",
          "type": "uint256"
        }
      ],
      "name": "getApproved",
      "outputs": [
        {
          "internalType": "address",
          "name": "",
          "type": "address"
        }
      ],
      "stateMutability": "view",
      "type": "function"
    },
    {
      "inputs": [
        {
          "internalType": "uint256",
          "name": "tokenId",
          "type": "uint256"
        }
      ],
      "name": "getGameItem",
      "outputs": [
        {
          "components": [
            {
              "internalType": "uint256",
              "name": "itemId",
              "type": "uint256"
            },
            {
              "internalType": "uint256",
              "name": "star",
              "type": "uint256"
            }
          ],
          "internalType": "struct GameItem.Item",
          "name": "",
          "type": "tuple"
        }
      ],
      "stateMutability": "view",
      "type": "function"
    },
    {
      "inputs": [
        {
          "internalType": "address",
          "name": "owner",
          "type": "address"
        },
        {
          "internalType": "address",
          "name": "operator",
          "type": "address"
        }
      ],
      "name": "isApprovedForAll",
      "outputs": [
        {
          "internalType": "bool",
          "name": "",
          "type": "bool"
        }
      ],
      "stateMutability": "view",
      "type": "function"
    },
    {
      "inputs": [],
      "name": "name",
      "outputs": [
        {
          "internalType": "string",
          "name": "",
          "type": "string"
        }
      ],
      "stateMutability": "view",
      "type": "function"
    },
    {
      "inputs": [],
      "name": "owner",
      "outputs": [
        {
          "internalType": "address",
          "name": "",
          "type": "address"
        }
      ],
      "stateMutability": "view",
      "type": "function"
    },
    {
      "inputs": [
        {
          "internalType": "uint256",
          "name": "tokenId",
          "type": "uint256"
        }
      ],
      "name": "ownerOf",
      "outputs": [
        {
          "internalType": "address",
          "name": "",
          "type": "address"
        }
      ],
      "stateMutability": "view",
      "type": "function"
    },
    {
      "inputs": [],
      "name": "pause",
      "outputs": [],
      "stateMutability": "nonpayable",
      "type": "function"
    },
    {
      "inputs": [],
      "name": "paused",
      "outputs": [
        {
          "internalType": "bool",
          "name": "",
          "type": "bool"
        }
      ],
      "stateMutability": "view",
      "type": "function"
    },
    {
      "inputs": [],
      "name": "renounceOwnership",
      "outputs": [],
      "stateMutability": "nonpayable",
      "type": "function"
    },
    {
      "inputs": [
        {
          "internalType": "address",
          "name": "to",
          "type": "address"
        }
      ],
      "name": "safeMint",
      "outputs": [],
      "stateMutability": "nonpayable",
      "type": "function"
    },
    {
      "inputs": [
        {
          "internalType": "address",
          "name": "from",
          "type": "address"
        },
        {
          "internalType": "address",
          "name": "to",
          "type": "address"
        },
        {
          "internalType": "uint256",
          "name": "tokenId",
          "type": "uint256"
        }
      ],
      "name": "safeTransferFrom",
      "outputs": [],
      "stateMutability": "nonpayable",
      "type": "function"
    },
    {
      "inputs": [
        {
          "internalType": "address",
          "name": "from",
          "type": "address"
        },
        {
          "internalType": "address",
          "name": "to",
          "type": "address"
        },
        {
          "internalType": "uint256",
          "name": "tokenId",
          "type": "uint256"
        },
        {
          "internalType": "bytes",
          "name": "_data",
          "type": "bytes"
        }
      ],
      "name": "safeTransferFrom",
      "outputs": [],
      "stateMutability": "nonpayable",
      "type": "function"
    },
    {
      "inputs": [
        {
          "internalType": "address",
          "name": "operator",
          "type": "address"
        },
        {
          "internalType": "bool",
          "name": "approved",
          "type": "bool"
        }
      ],
      "name": "setApprovalForAll",
      "outputs": [],
      "stateMutability": "nonpayable",
      "type": "function"
    },
    {
      "inputs": [
        {
          "internalType": "bytes4",
          "name": "interfaceId",
          "type": "bytes4"
        }
      ],
      "name": "supportsInterface",
      "outputs": [
        {
          "internalType": "bool",
          "name": "",
          "type": "bool"
        }
      ],
      "stateMutability": "view",
      "type": "function"
    },
    {
      "inputs": [],
      "name": "symbol",
      "outputs": [
        {
          "internalType": "string",
          "name": "",
          "type": "string"
        }
      ],
      "stateMutability": "view",
      "type": "function"
    },
    {
      "inputs": [
        {
          "internalType": "uint256",
          "name": "index",
          "type": "uint256"
        }
      ],
      "name": "tokenByIndex",
      "outputs": [
        {
          "internalType": "uint256",
          "name": "",
          "type": "uint256"
        }
      ],
      "stateMutability": "view",
      "type": "function"
    },
    {
      "inputs": [
        {
          "internalType": "address",
          "name": "owner",
          "type": "address"
        },
        {
          "internalType": "uint256",
          "name": "index",
          "type": "uint256"
        }
      ],
      "name": "tokenOfOwnerByIndex",
      "outputs": [
        {
          "internalType": "uint256",
          "name": "",
          "type": "uint256"
        }
      ],
      "stateMutability": "view",
      "type": "function"
    },
    {
      "inputs": [
        {
          "internalType": "uint256",
          "name": "tokenId",
          "type": "uint256"
        }
      ],
      "name": "tokenURI",
      "outputs": [
        {
          "internalType": "string",
          "name": "",
          "type": "string"
        }
      ],
      "stateMutability": "view",
      "type": "function"
    },
    {
      "inputs": [],
      "name": "totalSupply",
      "outputs": [
        {
          "internalType": "uint256",
          "name": "",
          "type": "uint256"
        }
      ],
      "stateMutability": "view",
      "type": "function"
    },
    {
      "inputs": [
        {
          "internalType": "address",
          "name": "from",
          "type": "address"
        },
        {
          "internalType": "address",
          "name": "to",
          "type": "address"
        },
        {
          "internalType": "uint256",
          "name": "tokenId",
          "type": "uint256"
        }
      ],
      "name": "transferFrom",
      "outputs": [],
      "stateMutability": "nonpayable",
      "type": "function"
    },
    {
      "inputs": [
        {
          "internalType": "address",
          "name": "newOwner",
          "type": "address"
        }
      ],
      "name": "transferOwnership",
      "outputs": [],
      "stateMutability": "nonpayable",
      "type": "function"
    },
    {
      "inputs": [],
      "name": "unpause",
      "outputs": [],
      "stateMutability": "nonpayable",
      "type": "function"
    },
    {
      "inputs": [
        {
          "internalType": "uint256",
          "name": "tokenId",
          "type": "uint256"
        }
      ],
      "name": "upgradeGameItem",
      "outputs": [],
      "stateMutability": "nonpayable",
      "type": "function"
    }
  ],
  "bytecode": "0x60806040523480156200001157600080fd5b506040518060400160405280600881526020017f47616d654974656d0000000000000000000000000000000000000000000000008152506040518060400160405280600381526020017f4749540000000000000000000000000000000000000000000000000000000000815250816000908051906020019062000096929190620001c1565b508060019080519060200190620000af929190620001c1565b5050506000600b60006101000a81548160ff021916908315150217905550620000ed620000e1620000f360201b60201c565b620000fb60201b60201c565b620002d6565b600033905090565b6000600b60019054906101000a900473ffffffffffffffffffffffffffffffffffffffff16905081600b60016101000a81548173ffffffffffffffffffffffffffffffffffffffff021916908373ffffffffffffffffffffffffffffffffffffffff1602179055508173ffffffffffffffffffffffffffffffffffffffff168173ffffffffffffffffffffffffffffffffffffffff167f8be0079c531659141344cd1fd0a4f28419497f9722a3daafe3b4186f6b6457e060405160405180910390a35050565b828054620001cf9062000271565b90600052602060002090601f016020900481019282620001f357600085556200023f565b82601f106200020e57805160ff19168380011785556200023f565b828001600101855582156200023f579182015b828111156200023e57825182559160200191906001019062000221565b5b5090506200024e919062000252565b5090565b5b808211156200026d57600081600090555060010162000253565b5090565b600060028204905060018216806200028a57607f821691505b60208210811415620002a157620002a0620002a7565b5b50919050565b7f4e487b7100000000000000000000000000000000000000000000000000000000600052602260045260246000fd5b61440e80620002e66000396000f3fe608060405234801561001057600080fd5b50600436106101cf5760003560e01c80635c975abb1161010457806395d89b41116100a2578063e985e9c511610071578063e985e9c514610519578063e9acfeaf14610549578063f2fde38b14610565578063fabf657a14610581576101cf565b806395d89b4114610493578063a22cb465146104b1578063b88d4fde146104cd578063c87b56dd146104e9576101cf565b8063715018a6116100de578063715018a6146104315780638456cb591461043b5780638da5cb5b1461044557806394f13f4a14610463576101cf565b80635c975abb146103b35780636352211e146103d157806370a0823114610401576101cf565b80633f4ba83a1161017157806342966c681161014b57806342966c681461031a578063430074c2146103365780634f6ccce7146103675780635a1b342714610397576101cf565b80633f4ba83a146102d857806340d097c3146102e257806342842e0e146102fe576101cf565b8063095ea7b3116101ad578063095ea7b31461025257806318160ddd1461026e57806323b872dd1461028c5780632f745c59146102a8576101cf565b806301ffc9a7146101d457806306fdde0314610204578063081812fc14610222575b600080fd5b6101ee60048036038101906101e99190612fd8565b61059d565b6040516101fb9190613534565b60405180910390f35b61020c6105af565b604051610219919061354f565b60405180910390f35b61023c6004803603810190610237919061302a565b610641565b60405161024991906134cd565b60405180910390f35b61026c60048036038101906102679190612f9c565b6106c6565b005b6102766107de565b604051610283919061388c565b60405180910390f35b6102a660048036038101906102a19190612e1b565b6107eb565b005b6102c260048036038101906102bd9190612f9c565b61084b565b6040516102cf919061388c565b60405180910390f35b6102e06108f0565b005b6102fc60048036038101906102f79190612db6565b610976565b005b61031860048036038101906103139190612e1b565b610a12565b005b610334600480360381019061032f919061302a565b610a32565b005b610350600480360381019061034b919061302a565b610a8e565b60405161035e9291906138a7565b60405180910390f35b610381600480360381019061037c919061302a565b610ab2565b60405161038e919061388c565b60405180910390f35b6103b160048036038101906103ac919061302a565b610b49565b005b6103bb610c98565b6040516103c89190613534565b60405180910390f35b6103eb60048036038101906103e6919061302a565b610caf565b6040516103f891906134cd565b60405180910390f35b61041b60048036038101906104169190612db6565b610d61565b604051610428919061388c565b60405180910390f35b610439610e19565b005b610443610ea1565b005b61044d610f27565b60405161045a91906134cd565b60405180910390f35b61047d6004803603810190610478919061302a565b610f51565b60405161048a9190613871565b60405180910390f35b61049b610f92565b6040516104a8919061354f565b60405180910390f35b6104cb60048036038101906104c69190612ee5565b611024565b005b6104e760048036038101906104e29190612e6a565b6111a5565b005b61050360048036038101906104fe919061302a565b611207565b604051610510919061354f565b60405180910390f35b610533600480360381019061052e9190612ddf565b611219565b6040516105409190613534565b60405180910390f35b610563600480360381019061055e9190612f21565b6112ad565b005b61057f600480360381019061057a9190612db6565b6112ee565b005b61059b60048036038101906105969190612db6565b6113e6565b005b60006105a8826113f4565b9050919050565b6060600080546105be90613b5d565b80601f01602080910402602001604051908101604052809291908181526020018280546105ea90613b5d565b80156106375780601f1061060c57610100808354040283529160200191610637565b820191906000526020600020905b81548152906001019060200180831161061a57829003601f168201915b5050505050905090565b600061064c8261146e565b61068b576040517f08c379a000000000000000000000000000000000000000000000000000000000815260040161068290613751565b60405180910390fd5b6004600083815260200190815260200160002060009054906101000a900473ffffffffffffffffffffffffffffffffffffffff169050919050565b60006106d182610caf565b90508073ffffffffffffffffffffffffffffffffffffffff168373ffffffffffffffffffffffffffffffffffffffff161415610742576040517f08c379a0000000000000000000000000000000000000000000000000000000008152600401610739906137f1565b60405180910390fd5b8073ffffffffffffffffffffffffffffffffffffffff166107616114da565b73ffffffffffffffffffffffffffffffffffffffff161480610790575061078f8161078a6114da565b611219565b5b6107cf576040517f08c379a00000000000000000000000000000000000000000000000000000000081526004016107c690613691565b60405180910390fd5b6107d983836114e2565b505050565b6000600880549050905090565b6107fc6107f66114da565b8261159b565b61083b576040517f08c379a000000000000000000000000000000000000000000000000000000000815260040161083290613811565b60405180910390fd5b610846838383611679565b505050565b600061085683610d61565b8210610897576040517f08c379a000000000000000000000000000000000000000000000000000000000815260040161088e90613591565b60405180910390fd5b600660008473ffffffffffffffffffffffffffffffffffffffff1673ffffffffffffffffffffffffffffffffffffffff168152602001908152602001600020600083815260200190815260200160002054905092915050565b6108f86114da565b73ffffffffffffffffffffffffffffffffffffffff16610916610f27565b73ffffffffffffffffffffffffffffffffffffffff161461096c576040517f08c379a000000000000000000000000000000000000000000000000000000000815260040161096390613771565b60405180910390fd5b6109746118d5565b565b61097e6114da565b73ffffffffffffffffffffffffffffffffffffffff1661099c610f27565b73ffffffffffffffffffffffffffffffffffffffff16146109f2576040517f08c379a00000000000000000000000000000000000000000000000000000000081526004016109e990613771565b60405180910390fd5b610a0581610a00600c611977565b611985565b610a0f600c6119a3565b50565b610a2d838383604051806020016040528060008152506111a5565b505050565b610a43610a3d6114da565b8261159b565b610a82576040517f08c379a0000000000000000000000000000000000000000000000000000000008152600401610a7990613851565b60405180910390fd5b610a8b816119b9565b50565b600d6020528060005260406000206000915090508060000154908060010154905082565b6000610abc6107de565b8210610afd576040517f08c379a0000000000000000000000000000000000000000000000000000000008152600401610af490613831565b60405180910390fd5b60088281548110610b37577f4e487b7100000000000000000000000000000000000000000000000000000000600052603260045260246000fd5b90600052602060002001549050919050565b610b516114da565b73ffffffffffffffffffffffffffffffffffffffff16610b6f610f27565b73ffffffffffffffffffffffffffffffffffffffff1614610bc5576040517f08c379a0000000000000000000000000000000000000000000000000000000008152600401610bbc90613771565b60405180910390fd5b6000600d600083815260200190815260200160002090506005816001015410610c23576040517f08c379a0000000000000000000000000000000000000000000000000000000008152600401610c1a906137d1565b60405180910390fd5b6001816001016000828254610c3891906139df565b925050819055507fb2edb4acfaacdcfc6aaf5f27fb2c4e92fa0ae26e8316e9725f116f88f8af393982826000015460018460010154610c779190613a66565b8460010154604051610c8c94939291906138d0565b60405180910390a15050565b6000600b60009054906101000a900460ff16905090565b6000806002600084815260200190815260200160002060009054906101000a900473ffffffffffffffffffffffffffffffffffffffff169050600073ffffffffffffffffffffffffffffffffffffffff168173ffffffffffffffffffffffffffffffffffffffff161415610d58576040517f08c379a0000000000000000000000000000000000000000000000000000000008152600401610d4f906136d1565b60405180910390fd5b80915050919050565b60008073ffffffffffffffffffffffffffffffffffffffff168273ffffffffffffffffffffffffffffffffffffffff161415610dd2576040517f08c379a0000000000000000000000000000000000000000000000000000000008152600401610dc9906136b1565b60405180910390fd5b600360008373ffffffffffffffffffffffffffffffffffffffff1673ffffffffffffffffffffffffffffffffffffffff168152602001908152602001600020549050919050565b610e216114da565b73ffffffffffffffffffffffffffffffffffffffff16610e3f610f27565b73ffffffffffffffffffffffffffffffffffffffff1614610e95576040517f08c379a0000000000000000000000000000000000000000000000000000000008152600401610e8c90613771565b60405180910390fd5b610e9f60006119c5565b565b610ea96114da565b73ffffffffffffffffffffffffffffffffffffffff16610ec7610f27565b73ffffffffffffffffffffffffffffffffffffffff1614610f1d576040517f08c379a0000000000000000000000000000000000000000000000000000000008152600401610f1490613771565b60405180910390fd5b610f25611a8b565b565b6000600b60019054906101000a900473ffffffffffffffffffffffffffffffffffffffff16905090565b610f59612b6b565b600d6000838152602001908152602001600020604051806040016040529081600082015481526020016001820154815250509050919050565b606060018054610fa190613b5d565b80601f0160208091040260200160405190810160405280929190818152602001828054610fcd90613b5d565b801561101a5780601f10610fef5761010080835404028352916020019161101a565b820191906000526020600020905b815481529060010190602001808311610ffd57829003601f168201915b5050505050905090565b61102c6114da565b73ffffffffffffffffffffffffffffffffffffffff168273ffffffffffffffffffffffffffffffffffffffff16141561109a576040517f08c379a000000000000000000000000000000000000000000000000000000000815260040161109190613631565b60405180910390fd5b80600560006110a76114da565b73ffffffffffffffffffffffffffffffffffffffff1673ffffffffffffffffffffffffffffffffffffffff16815260200190815260200160002060008473ffffffffffffffffffffffffffffffffffffffff1673ffffffffffffffffffffffffffffffffffffffff16815260200190815260200160002060006101000a81548160ff0219169083151502179055508173ffffffffffffffffffffffffffffffffffffffff166111546114da565b73ffffffffffffffffffffffffffffffffffffffff167f17307eab39ab6107e8899845ad3d59bd9653f200f220920489ca2b5937696c31836040516111999190613534565b60405180910390a35050565b6111b66111b06114da565b8361159b565b6111f5576040517f08c379a00000000000000000000000000000000000000000000000000000000081526004016111ec90613811565b60405180910390fd5b61120184848484611b2e565b50505050565b606061121282611b8a565b9050919050565b6000600560008473ffffffffffffffffffffffffffffffffffffffff1673ffffffffffffffffffffffffffffffffffffffff16815260200190815260200160002060008373ffffffffffffffffffffffffffffffffffffffff1673ffffffffffffffffffffffffffffffffffffffff16815260200190815260200160002060009054906101000a900460ff16905092915050565b6112b7600c6119a3565b60006112c3600c611977565b90506112d381848460ff16611cdc565b6112dd8582611985565b6112e78185611d20565b5050505050565b6112f66114da565b73ffffffffffffffffffffffffffffffffffffffff16611314610f27565b73ffffffffffffffffffffffffffffffffffffffff161461136a576040517f08c379a000000000000000000000000000000000000000000000000000000000815260040161136190613771565b60405180910390fd5b600073ffffffffffffffffffffffffffffffffffffffff168173ffffffffffffffffffffffffffffffffffffffff1614156113da576040517f08c379a00000000000000000000000000000000000000000000000000000000081526004016113d1906135d1565b60405180910390fd5b6113e3816119c5565b50565b6113f1816001611024565b50565b60007f780e9d63000000000000000000000000000000000000000000000000000000007bffffffffffffffffffffffffffffffffffffffffffffffffffffffff1916827bffffffffffffffffffffffffffffffffffffffffffffffffffffffff19161480611467575061146682611d94565b5b9050919050565b60008073ffffffffffffffffffffffffffffffffffffffff166002600084815260200190815260200160002060009054906101000a900473ffffffffffffffffffffffffffffffffffffffff1673ffffffffffffffffffffffffffffffffffffffff1614159050919050565b600033905090565b816004600083815260200190815260200160002060006101000a81548173ffffffffffffffffffffffffffffffffffffffff021916908373ffffffffffffffffffffffffffffffffffffffff160217905550808273ffffffffffffffffffffffffffffffffffffffff1661155583610caf565b73ffffffffffffffffffffffffffffffffffffffff167f8c5be1e5ebec7d5bd14f71427d1e84f3dd0314c0f7b2291e5b200ac8c7c3b92560405160405180910390a45050565b60006115a68261146e565b6115e5576040517f08c379a00000000000000000000000000000000000000000000000000000000081526004016115dc90613651565b60405180910390fd5b60006115f083610caf565b90508073ffffffffffffffffffffffffffffffffffffffff168473ffffffffffffffffffffffffffffffffffffffff16148061165f57508373ffffffffffffffffffffffffffffffffffffffff1661164784610641565b73ffffffffffffffffffffffffffffffffffffffff16145b80611670575061166f8185611219565b5b91505092915050565b8273ffffffffffffffffffffffffffffffffffffffff1661169982610caf565b73ffffffffffffffffffffffffffffffffffffffff16146116ef576040517f08c379a00000000000000000000000000000000000000000000000000000000081526004016116e690613791565b60405180910390fd5b600073ffffffffffffffffffffffffffffffffffffffff168273ffffffffffffffffffffffffffffffffffffffff16141561175f576040517f08c379a000000000000000000000000000000000000000000000000000000000815260040161175690613611565b60405180910390fd5b61176a838383611e76565b6117756000826114e2565b6001600360008573ffffffffffffffffffffffffffffffffffffffff1673ffffffffffffffffffffffffffffffffffffffff16815260200190815260200160002060008282546117c59190613a66565b925050819055506001600360008473ffffffffffffffffffffffffffffffffffffffff1673ffffffffffffffffffffffffffffffffffffffff168152602001908152602001600020600082825461181c91906139df565b92505081905550816002600083815260200190815260200160002060006101000a81548173ffffffffffffffffffffffffffffffffffffffff021916908373ffffffffffffffffffffffffffffffffffffffff160217905550808273ffffffffffffffffffffffffffffffffffffffff168473ffffffffffffffffffffffffffffffffffffffff167fddf252ad1be2c89b69c2b068fc378daa952ba7f163c4a11628f55a4df523b3ef60405160405180910390a4505050565b6118dd610c98565b61191c576040517f08c379a000000000000000000000000000000000000000000000000000000000815260040161191390613571565b60405180910390fd5b6000600b60006101000a81548160ff0219169083151502179055507f5db9ee0a495bf2e6ff9c91a7834c1ba4fdd244a5e8aa4e537bd38aeae4b073aa6119606114da565b60405161196d91906134cd565b60405180910390a1565b600081600001549050919050565b61199f828260405180602001604052806000815250611ece565b5050565b6001816000016000828254019250508190555050565b6119c281611f29565b50565b6000600b60019054906101000a900473ffffffffffffffffffffffffffffffffffffffff16905081600b60016101000a81548173ffffffffffffffffffffffffffffffffffffffff021916908373ffffffffffffffffffffffffffffffffffffffff1602179055508173ffffffffffffffffffffffffffffffffffffffff168173ffffffffffffffffffffffffffffffffffffffff167f8be0079c531659141344cd1fd0a4f28419497f9722a3daafe3b4186f6b6457e060405160405180910390a35050565b611a93610c98565b15611ad3576040517f08c379a0000000000000000000000000000000000000000000000000000000008152600401611aca90613671565b60405180910390fd5b6001600b60006101000a81548160ff0219169083151502179055507f62e78cea01bee320cd4e420270b5ea74000d11b0c9f74754ebdbfc544b05a258611b176114da565b604051611b2491906134cd565b60405180910390a1565b611b39848484611679565b611b4584848484611f7c565b611b84576040517f08c379a0000000000000000000000000000000000000000000000000000000008152600401611b7b906135b1565b60405180910390fd5b50505050565b6060611b958261146e565b611bd4576040517f08c379a0000000000000000000000000000000000000000000000000000000008152600401611bcb90613731565b60405180910390fd5b6000600a60008481526020019081526020016000208054611bf490613b5d565b80601f0160208091040260200160405190810160405280929190818152602001828054611c2090613b5d565b8015611c6d5780601f10611c4257610100808354040283529160200191611c6d565b820191906000526020600020905b815481529060010190602001808311611c5057829003601f168201915b505050505090506000611c7e612113565b9050600081511415611c94578192505050611cd7565b600082511115611cc9578082604051602001611cb19291906134a9565b60405160208183030381529060405292505050611cd7565b611cd28461212a565b925050505b919050565b604051806040016040528083815260200182815250600d60008581526020019081526020016000206000820151816000015560208201518160010155905050505050565b611d298261146e565b611d68576040517f08c379a0000000000000000000000000000000000000000000000000000000008152600401611d5f906136f1565b60405180910390fd5b80600a60008481526020019081526020016000209080519060200190611d8f929190612b85565b505050565b60007f80ac58cd000000000000000000000000000000000000000000000000000000007bffffffffffffffffffffffffffffffffffffffffffffffffffffffff1916827bffffffffffffffffffffffffffffffffffffffffffffffffffffffff19161480611e5f57507f5b5e139f000000000000000000000000000000000000000000000000000000007bffffffffffffffffffffffffffffffffffffffffffffffffffffffff1916827bffffffffffffffffffffffffffffffffffffffffffffffffffffffff1916145b80611e6f5750611e6e826121d1565b5b9050919050565b611e7e610c98565b15611ebe576040517f08c379a0000000000000000000000000000000000000000000000000000000008152600401611eb590613671565b60405180910390fd5b611ec983838361223b565b505050565b611ed8838361234f565b611ee56000848484611f7c565b611f24576040517f08c379a0000000000000000000000000000000000000000000000000000000008152600401611f1b906135b1565b60405180910390fd5b505050565b611f328161251d565b6000600a60008381526020019081526020016000208054611f5290613b5d565b905014611f7957600a60008281526020019081526020016000206000611f789190612c0b565b5b50565b6000611f9d8473ffffffffffffffffffffffffffffffffffffffff1661262e565b15612106578373ffffffffffffffffffffffffffffffffffffffff1663150b7a02611fc66114da565b8786866040518563ffffffff1660e01b8152600401611fe894939291906134e8565b602060405180830381600087803b15801561200257600080fd5b505af192505050801561203357506040513d601f19601f820116820180604052508101906120309190613001565b60015b6120b6573d8060008114612063576040519150601f19603f3d011682016040523d82523d6000602084013e612068565b606091505b506000815114156120ae576040517f08c379a00000000000000000000000000000000000000000000000000000000081526004016120a5906135b1565b60405180910390fd5b805181602001fd5b63150b7a0260e01b7bffffffffffffffffffffffffffffffffffffffffffffffffffffffff1916817bffffffffffffffffffffffffffffffffffffffffffffffffffffffff19161491505061210b565b600190505b949350505050565b606060405180602001604052806000815250905090565b60606121358261146e565b612174576040517f08c379a000000000000000000000000000000000000000000000000000000000815260040161216b906137b1565b60405180910390fd5b600061217e612113565b9050600081511161219e57604051806020016040528060008152506121c9565b806121a884612641565b6040516020016121b99291906134a9565b6040516020818303038152906040525b915050919050565b60007f01ffc9a7000000000000000000000000000000000000000000000000000000007bffffffffffffffffffffffffffffffffffffffffffffffffffffffff1916827bffffffffffffffffffffffffffffffffffffffffffffffffffffffff1916149050919050565b6122468383836127ee565b600073ffffffffffffffffffffffffffffffffffffffff168373ffffffffffffffffffffffffffffffffffffffff16141561228957612284816127f3565b6122c8565b8173ffffffffffffffffffffffffffffffffffffffff168373ffffffffffffffffffffffffffffffffffffffff16146122c7576122c6838261283c565b5b5b600073ffffffffffffffffffffffffffffffffffffffff168273ffffffffffffffffffffffffffffffffffffffff16141561230b57612306816129a9565b61234a565b8273ffffffffffffffffffffffffffffffffffffffff168273ffffffffffffffffffffffffffffffffffffffff1614612349576123488282612aec565b5b5b505050565b600073ffffffffffffffffffffffffffffffffffffffff168273ffffffffffffffffffffffffffffffffffffffff1614156123bf576040517f08c379a00000000000000000000000000000000000000000000000000000000081526004016123b690613711565b60405180910390fd5b6123c88161146e565b15612408576040517f08c379a00000000000000000000000000000000000000000000000000000000081526004016123ff906135f1565b60405180910390fd5b61241460008383611e76565b6001600360008473ffffffffffffffffffffffffffffffffffffffff1673ffffffffffffffffffffffffffffffffffffffff168152602001908152602001600020600082825461246491906139df565b92505081905550816002600083815260200190815260200160002060006101000a81548173ffffffffffffffffffffffffffffffffffffffff021916908373ffffffffffffffffffffffffffffffffffffffff160217905550808273ffffffffffffffffffffffffffffffffffffffff16600073ffffffffffffffffffffffffffffffffffffffff167fddf252ad1be2c89b69c2b068fc378daa952ba7f163c4a11628f55a4df523b3ef60405160405180910390a45050565b600061252882610caf565b905061253681600084611e76565b6125416000836114e2565b6001600360008373ffffffffffffffffffffffffffffffffffffffff1673ffffffffffffffffffffffffffffffffffffffff16815260200190815260200160002060008282546125919190613a66565b925050819055506002600083815260200190815260200160002060006101000a81549073ffffffffffffffffffffffffffffffffffffffff021916905581600073ffffffffffffffffffffffffffffffffffffffff168273ffffffffffffffffffffffffffffffffffffffff167fddf252ad1be2c89b69c2b068fc378daa952ba7f163c4a11628f55a4df523b3ef60405160405180910390a45050565b600080823b905060008111915050919050565b60606000821415612689576040518060400160405280600181526020017f300000000000000000000000000000000000000000000000000000000000000081525090506127e9565b600082905060005b600082146126bb5780806126a490613bc0565b915050600a826126b49190613a35565b9150612691565b60008167ffffffffffffffff8111156126fd577f4e487b7100000000000000000000000000000000000000000000000000000000600052604160045260246000fd5b6040519080825280601f01601f19166020018201604052801561272f5781602001600182028036833780820191505090505b5090505b600085146127e2576001826127489190613a66565b9150600a856127579190613c09565b603061276391906139df565b60f81b81838151811061279f577f4e487b7100000000000000000000000000000000000000000000000000000000600052603260045260246000fd5b60200101907effffffffffffffffffffffffffffffffffffffffffffffffffffffffffffff1916908160001a905350600a856127db9190613a35565b9450612733565b8093505050505b919050565b505050565b6008805490506009600083815260200190815260200160002081905550600881908060018154018082558091505060019003906000526020600020016000909190919091505550565b6000600161284984610d61565b6128539190613a66565b9050600060076000848152602001908152602001600020549050818114612938576000600660008673ffffffffffffffffffffffffffffffffffffffff1673ffffffffffffffffffffffffffffffffffffffff168152602001908152602001600020600084815260200190815260200160002054905080600660008773ffffffffffffffffffffffffffffffffffffffff1673ffffffffffffffffffffffffffffffffffffffff168152602001908152602001600020600084815260200190815260200160002081905550816007600083815260200190815260200160002081905550505b6007600084815260200190815260200160002060009055600660008573ffffffffffffffffffffffffffffffffffffffff1673ffffffffffffffffffffffffffffffffffffffff16815260200190815260200160002060008381526020019081526020016000206000905550505050565b600060016008805490506129bd9190613a66565b9050600060096000848152602001908152602001600020549050600060088381548110612a13577f4e487b7100000000000000000000000000000000000000000000000000000000600052603260045260246000fd5b906000526020600020015490508060088381548110612a5b577f4e487b7100000000000000000000000000000000000000000000000000000000600052603260045260246000fd5b906000526020600020018190555081600960008381526020019081526020016000208190555060096000858152602001908152602001600020600090556008805480612ad0577f4e487b7100000000000000000000000000000000000000000000000000000000600052603160045260246000fd5b6001900381819060005260206000200160009055905550505050565b6000612af783610d61565b905081600660008573ffffffffffffffffffffffffffffffffffffffff1673ffffffffffffffffffffffffffffffffffffffff168152602001908152602001600020600083815260200190815260200160002081905550806007600084815260200190815260200160002081905550505050565b604051806040016040528060008152602001600081525090565b828054612b9190613b5d565b90600052602060002090601f016020900481019282612bb35760008555612bfa565b82601f10612bcc57805160ff1916838001178555612bfa565b82800160010185558215612bfa579182015b82811115612bf9578251825591602001919060010190612bde565b5b509050612c079190612c4b565b5090565b508054612c1790613b5d565b6000825580601f10612c295750612c48565b601f016020900490600052602060002090810190612c479190612c4b565b5b50565b5b80821115612c64576000816000905550600101612c4c565b5090565b6000612c7b612c768461393a565b613915565b905082815260208101848484011115612c9357600080fd5b612c9e848285613b1b565b509392505050565b6000612cb9612cb48461396b565b613915565b905082815260208101848484011115612cd157600080fd5b612cdc848285613b1b565b509392505050565b600081359050612cf381614365565b92915050565b600081359050612d088161437c565b92915050565b600081359050612d1d81614393565b92915050565b600081519050612d3281614393565b92915050565b600082601f830112612d4957600080fd5b8135612d59848260208601612c68565b91505092915050565b600082601f830112612d7357600080fd5b8135612d83848260208601612ca6565b91505092915050565b600081359050612d9b816143aa565b92915050565b600081359050612db0816143c1565b92915050565b600060208284031215612dc857600080fd5b6000612dd684828501612ce4565b91505092915050565b60008060408385031215612df257600080fd5b6000612e0085828601612ce4565b9250506020612e1185828601612ce4565b9150509250929050565b600080600060608486031215612e3057600080fd5b6000612e3e86828701612ce4565b9350506020612e4f86828701612ce4565b9250506040612e6086828701612d8c565b9150509250925092565b60008060008060808587031215612e8057600080fd5b6000612e8e87828801612ce4565b9450506020612e9f87828801612ce4565b9350506040612eb087828801612d8c565b925050606085013567ffffffffffffffff811115612ecd57600080fd5b612ed987828801612d38565b91505092959194509250565b60008060408385031215612ef857600080fd5b6000612f0685828601612ce4565b9250506020612f1785828601612cf9565b9150509250929050565b60008060008060808587031215612f3757600080fd5b6000612f4587828801612ce4565b945050602085013567ffffffffffffffff811115612f6257600080fd5b612f6e87828801612d62565b9350506040612f7f87828801612d8c565b9250506060612f9087828801612da1565b91505092959194509250565b60008060408385031215612faf57600080fd5b6000612fbd85828601612ce4565b9250506020612fce85828601612d8c565b9150509250929050565b600060208284031215612fea57600080fd5b6000612ff884828501612d0e565b91505092915050565b60006020828403121561301357600080fd5b600061302184828501612d23565b91505092915050565b60006020828403121561303c57600080fd5b600061304a84828501612d8c565b91505092915050565b61305c81613a9a565b82525050565b61306b81613aac565b82525050565b600061307c8261399c565b61308681856139b2565b9350613096818560208601613b2a565b61309f81613cf6565b840191505092915050565b60006130b5826139a7565b6130bf81856139c3565b93506130cf818560208601613b2a565b6130d881613cf6565b840191505092915050565b60006130ee826139a7565b6130f881856139d4565b9350613108818560208601613b2a565b80840191505092915050565b60006131216014836139c3565b915061312c82613d07565b602082019050919050565b6000613144602b836139c3565b915061314f82613d30565b604082019050919050565b60006131676032836139c3565b915061317282613d7f565b604082019050919050565b600061318a6026836139c3565b915061319582613dce565b604082019050919050565b60006131ad601c836139c3565b91506131b882613e1d565b602082019050919050565b60006131d06024836139c3565b91506131db82613e46565b604082019050919050565b60006131f36019836139c3565b91506131fe82613e95565b602082019050919050565b6000613216602c836139c3565b915061322182613ebe565b604082019050919050565b60006132396010836139c3565b915061324482613f0d565b602082019050919050565b600061325c6038836139c3565b915061326782613f36565b604082019050919050565b600061327f602a836139c3565b915061328a82613f85565b604082019050919050565b60006132a26029836139c3565b91506132ad82613fd4565b604082019050919050565b60006132c5602e836139c3565b91506132d082614023565b604082019050919050565b60006132e86020836139c3565b91506132f382614072565b602082019050919050565b600061330b6031836139c3565b91506133168261409b565b604082019050919050565b600061332e602c836139c3565b9150613339826140ea565b604082019050919050565b60006133516020836139c3565b915061335c82614139565b602082019050919050565b60006133746029836139c3565b915061337f82614162565b604082019050919050565b6000613397602f836139c3565b91506133a2826141b1565b604082019050919050565b60006133ba601d836139c3565b91506133c582614200565b602082019050919050565b60006133dd6021836139c3565b91506133e882614229565b604082019050919050565b60006134006031836139c3565b915061340b82614278565b604082019050919050565b6000613423602c836139c3565b915061342e826142c7565b604082019050919050565b60006134466030836139c3565b915061345182614316565b604082019050919050565b604082016000820151613472600085018261348b565b506020820151613485602085018261348b565b50505050565b61349481613b04565b82525050565b6134a381613b04565b82525050565b60006134b582856130e3565b91506134c182846130e3565b91508190509392505050565b60006020820190506134e26000830184613053565b92915050565b60006080820190506134fd6000830187613053565b61350a6020830186613053565b613517604083018561349a565b81810360608301526135298184613071565b905095945050505050565b60006020820190506135496000830184613062565b92915050565b6000602082019050818103600083015261356981846130aa565b905092915050565b6000602082019050818103600083015261358a81613114565b9050919050565b600060208201905081810360008301526135aa81613137565b9050919050565b600060208201905081810360008301526135ca8161315a565b9050919050565b600060208201905081810360008301526135ea8161317d565b9050919050565b6000602082019050818103600083015261360a816131a0565b9050919050565b6000602082019050818103600083015261362a816131c3565b9050919050565b6000602082019050818103600083015261364a816131e6565b9050919050565b6000602082019050818103600083015261366a81613209565b9050919050565b6000602082019050818103600083015261368a8161322c565b9050919050565b600060208201905081810360008301526136aa8161324f565b9050919050565b600060208201905081810360008301526136ca81613272565b9050919050565b600060208201905081810360008301526136ea81613295565b9050919050565b6000602082019050818103600083015261370a816132b8565b9050919050565b6000602082019050818103600083015261372a816132db565b9050919050565b6000602082019050818103600083015261374a816132fe565b9050919050565b6000602082019050818103600083015261376a81613321565b9050919050565b6000602082019050818103600083015261378a81613344565b9050919050565b600060208201905081810360008301526137aa81613367565b9050919050565b600060208201905081810360008301526137ca8161338a565b9050919050565b600060208201905081810360008301526137ea816133ad565b9050919050565b6000602082019050818103600083015261380a816133d0565b9050919050565b6000602082019050818103600083015261382a816133f3565b9050919050565b6000602082019050818103600083015261384a81613416565b9050919050565b6000602082019050818103600083015261386a81613439565b9050919050565b6000604082019050613886600083018461345c565b92915050565b60006020820190506138a1600083018461349a565b92915050565b60006040820190506138bc600083018561349a565b6138c9602083018461349a565b9392505050565b60006080820190506138e5600083018761349a565b6138f2602083018661349a565b6138ff604083018561349a565b61390c606083018461349a565b95945050505050565b600061391f613930565b905061392b8282613b8f565b919050565b6000604051905090565b600067ffffffffffffffff82111561395557613954613cc7565b5b61395e82613cf6565b9050602081019050919050565b600067ffffffffffffffff82111561398657613985613cc7565b5b61398f82613cf6565b9050602081019050919050565b600081519050919050565b600081519050919050565b600082825260208201905092915050565b600082825260208201905092915050565b600081905092915050565b60006139ea82613b04565b91506139f583613b04565b9250827fffffffffffffffffffffffffffffffffffffffffffffffffffffffffffffffff03821115613a2a57613a29613c3a565b5b828201905092915050565b6000613a4082613b04565b9150613a4b83613b04565b925082613a5b57613a5a613c69565b5b828204905092915050565b6000613a7182613b04565b9150613a7c83613b04565b925082821015613a8f57613a8e613c3a565b5b828203905092915050565b6000613aa582613ae4565b9050919050565b60008115159050919050565b60007fffffffff0000000000000000000000000000000000000000000000000000000082169050919050565b600073ffffffffffffffffffffffffffffffffffffffff82169050919050565b6000819050919050565b600060ff82169050919050565b82818337600083830152505050565b60005b83811015613b48578082015181840152602081019050613b2d565b83811115613b57576000848401525b50505050565b60006002820490506001821680613b7557607f821691505b60208210811415613b8957613b88613c98565b5b50919050565b613b9882613cf6565b810181811067ffffffffffffffff82111715613bb757613bb6613cc7565b5b80604052505050565b6000613bcb82613b04565b91507fffffffffffffffffffffffffffffffffffffffffffffffffffffffffffffffff821415613bfe57613bfd613c3a565b5b600182019050919050565b6000613c1482613b04565b9150613c1f83613b04565b925082613c2f57613c2e613c69565b5b828206905092915050565b7f4e487b7100000000000000000000000000000000000000000000000000000000600052601160045260246000fd5b7f4e487b7100000000000000000000000000000000000000000000000000000000600052601260045260246000fd5b7f4e487b7100000000000000000000000000000000000000000000000000000000600052602260045260246000fd5b7f4e487b7100000000000000000000000000000000000000000000000000000000600052604160045260246000fd5b6000601f19601f8301169050919050565b7f5061757361626c653a206e6f7420706175736564000000000000000000000000600082015250565b7f455243373231456e756d657261626c653a206f776e657220696e646578206f7560008201527f74206f6620626f756e6473000000000000000000000000000000000000000000602082015250565b7f4552433732313a207472616e7366657220746f206e6f6e20455243373231526560008201527f63656976657220696d706c656d656e7465720000000000000000000000000000602082015250565b7f4f776e61626c653a206e6577206f776e657220697320746865207a65726f206160008201527f6464726573730000000000000000000000000000000000000000000000000000602082015250565b7f4552433732313a20746f6b656e20616c7265616479206d696e74656400000000600082015250565b7f4552433732313a207472616e7366657220746f20746865207a65726f2061646460008201527f7265737300000000000000000000000000000000000000000000000000000000602082015250565b7f4552433732313a20617070726f766520746f2063616c6c657200000000000000600082015250565b7f4552433732313a206f70657261746f7220717565727920666f72206e6f6e657860008201527f697374656e7420746f6b656e0000000000000000000000000000000000000000602082015250565b7f5061757361626c653a2070617573656400000000000000000000000000000000600082015250565b7f4552433732313a20617070726f76652063616c6c6572206973206e6f74206f7760008201527f6e6572206e6f7220617070726f76656420666f7220616c6c0000000000000000602082015250565b7f4552433732313a2062616c616e636520717565727920666f7220746865207a6560008201527f726f206164647265737300000000000000000000000000000000000000000000602082015250565b7f4552433732313a206f776e657220717565727920666f72206e6f6e657869737460008201527f656e7420746f6b656e0000000000000000000000000000000000000000000000602082015250565b7f45524337323155524953746f726167653a2055524920736574206f66206e6f6e60008201527f6578697374656e7420746f6b656e000000000000000000000000000000000000602082015250565b7f4552433732313a206d696e7420746f20746865207a65726f2061646472657373600082015250565b7f45524337323155524953746f726167653a2055524920717565727920666f722060008201527f6e6f6e6578697374656e7420746f6b656e000000000000000000000000000000602082015250565b7f4552433732313a20617070726f76656420717565727920666f72206e6f6e657860008201527f697374656e7420746f6b656e0000000000000000000000000000000000000000602082015250565b7f4f776e61626c653a2063616c6c6572206973206e6f7420746865206f776e6572600082015250565b7f4552433732313a207472616e73666572206f6620746f6b656e2074686174206960008201527f73206e6f74206f776e0000000000000000000000000000000000000000000000602082015250565b7f4552433732314d657461646174613a2055524920717565727920666f72206e6f60008201527f6e6578697374656e7420746f6b656e0000000000000000000000000000000000602082015250565b7f4e756d626572206f66207374617220697320616c7265616479206d6178000000600082015250565b7f4552433732313a20617070726f76616c20746f2063757272656e74206f776e6560008201527f7200000000000000000000000000000000000000000000000000000000000000602082015250565b7f4552433732313a207472616e736665722063616c6c6572206973206e6f74206f60008201527f776e6572206e6f7220617070726f766564000000000000000000000000000000602082015250565b7f455243373231456e756d657261626c653a20676c6f62616c20696e646578206f60008201527f7574206f6620626f756e64730000000000000000000000000000000000000000602082015250565b7f4552433732314275726e61626c653a2063616c6c6572206973206e6f74206f7760008201527f6e6572206e6f7220617070726f76656400000000000000000000000000000000602082015250565b61436e81613a9a565b811461437957600080fd5b50565b61438581613aac565b811461439057600080fd5b50565b61439c81613ab8565b81146143a757600080fd5b50565b6143b381613b04565b81146143be57600080fd5b50565b6143ca81613b0e565b81146143d557600080fd5b5056fea26469706673582212201db71796a6aed080a36492be770eb02640cd8217d3518708d62f80ea9a9e28f564736f6c63430008020033",
  "linkReferences": {},
  "deployedLinkReferences": {}
}