{
  "_format": "hh-sol-artifact-1",
  "contractName": "MarketplaceV1",
  "sourceName": "contracts/MarketplaceV1.sol",
  "abi": [
    {
      "anonymous": false,
      "inputs": [
        {
          "indexed": false,
          "internalType": "address",
          "name": "previousAdmin",
          "type": "address"
        },
        {
          "indexed": false,
          "internalType": "address",
          "name": "newAdmin",
          "type": "address"
        }
      ],
      "name": "AdminChanged",
      "type": "event"
    },
    {
      "anonymous": false,
      "inputs": [
        {
          "indexed": true,
          "internalType": "address",
          "name": "beacon",
          "type": "address"
        }
      ],
      "name": "BeaconUpgraded",
      "type": "event"
    },
    {
      "anonymous": false,
      "inputs": [
        {
          "indexed": true,
          "internalType": "address",
          "name": "previousOwner",
          "type": "address"
        },
        {
          "indexed": true,
          "internalType": "address",
          "name": "newOwner",
          "type": "address"
        }
      ],
      "name": "OwnershipTransferred",
      "type": "event"
    },
    {
      "anonymous": false,
      "inputs": [
        {
          "indexed": true,
          "internalType": "uint256",
          "name": "saleId",
          "type": "uint256"
        },
        {
          "indexed": true,
          "internalType": "uint256",
          "name": "tokenId",
          "type": "uint256"
        },
        {
          "indexed": true,
          "internalType": "address",
          "name": "seller",
          "type": "address"
        },
        {
          "indexed": false,
          "internalType": "uint256",
          "name": "price",
          "type": "uint256"
        },
        {
          "indexed": false,
          "internalType": "uint256",
          "name": "lastUpdated",
          "type": "uint256"
        }
      ],
      "name": "SaleCanceled",
      "type": "event"
    },
    {
      "anonymous": false,
      "inputs": [
        {
          "indexed": true,
          "internalType": "uint256",
          "name": "saleId",
          "type": "uint256"
        },
        {
          "indexed": true,
          "internalType": "uint256",
          "name": "tokenId",
          "type": "uint256"
        },
        {
          "indexed": true,
          "internalType": "address",
          "name": "seller",
          "type": "address"
        },
        {
          "indexed": false,
          "internalType": "uint256",
          "name": "price",
          "type": "uint256"
        },
        {
          "indexed": false,
          "internalType": "bool",
          "name": "isSold",
          "type": "bool"
        },
        {
          "indexed": false,
          "internalType": "uint256",
          "name": "lastUpdated",
          "type": "uint256"
        }
      ],
      "name": "SaleCreated",
      "type": "event"
    },
    {
      "anonymous": false,
      "inputs": [
        {
          "indexed": true,
          "internalType": "uint256",
          "name": "saleId",
          "type": "uint256"
        },
        {
          "indexed": true,
          "internalType": "uint256",
          "name": "tokenId",
          "type": "uint256"
        },
        {
          "indexed": false,
          "internalType": "address",
          "name": "seller",
          "type": "address"
        },
        {
          "indexed": false,
          "internalType": "uint256",
          "name": "price",
          "type": "uint256"
        },
        {
          "indexed": false,
          "internalType": "bool",
          "name": "isSold",
          "type": "bool"
        },
        {
          "indexed": false,
          "internalType": "uint256",
          "name": "lastUpdated",
          "type": "uint256"
        }
      ],
      "name": "SaleSold",
      "type": "event"
    },
    {
      "anonymous": false,
      "inputs": [
        {
          "indexed": true,
          "internalType": "uint256",
          "name": "saleId",
          "type": "uint256"
        },
        {
          "indexed": true,
          "internalType": "uint256",
          "name": "tokenId",
          "type": "uint256"
        },
        {
          "indexed": true,
          "internalType": "address",
          "name": "seller",
          "type": "address"
        },
        {
          "indexed": false,
          "internalType": "uint256",
          "name": "price",
          "type": "uint256"
        },
        {
          "indexed": false,
          "internalType": "uint256",
          "name": "lastUpdated",
          "type": "uint256"
        }
      ],
      "name": "SaleUpdated",
      "type": "event"
    },
    {
      "anonymous": false,
      "inputs": [
        {
          "indexed": true,
          "internalType": "address",
          "name": "implementation",
          "type": "address"
        }
      ],
      "name": "Upgraded",
      "type": "event"
    },
    {
      "inputs": [
        {
          "internalType": "uint256",
          "name": "saleId",
          "type": "uint256"
        }
      ],
      "name": "cancelSale",
      "outputs": [],
      "stateMutability": "nonpayable",
      "type": "function"
    },
    {
      "inputs": [
        {
          "internalType": "uint256",
          "name": "saleId",
          "type": "uint256"
        },
        {
          "internalType": "uint256",
          "name": "newPrice",
          "type": "uint256"
        }
      ],
      "name": "changeSalePrice",
      "outputs": [],
      "stateMutability": "nonpayable",
      "type": "function"
    },
    {
      "inputs": [
        {
          "internalType": "uint256",
          "name": "tokenId",
          "type": "uint256"
        },
        {
          "internalType": "uint256",
          "name": "price",
          "type": "uint256"
        }
      ],
      "name": "createSale",
      "outputs": [],
      "stateMutability": "nonpayable",
      "type": "function"
    },
    {
      "inputs": [],
      "name": "getActiveSales",
      "outputs": [
        {
          "components": [
            {
              "internalType": "uint256",
              "name": "saleId",
              "type": "uint256"
            },
            {
              "internalType": "uint256",
              "name": "tokenId",
              "type": "uint256"
            },
            {
              "internalType": "address",
              "name": "seller",
              "type": "address"
            },
            {
              "internalType": "address",
              "name": "buyer",
              "type": "address"
            },
            {
              "internalType": "uint256",
              "name": "price",
              "type": "uint256"
            },
            {
              "internalType": "bool",
              "name": "isSold",
              "type": "bool"
            },
            {
              "internalType": "bool",
              "name": "isActive",
              "type": "bool"
            },
            {
              "internalType": "uint256",
              "name": "lastUpdated",
              "type": "uint256"
            }
          ],
          "internalType": "struct MarketplaceV1.Sale[]",
          "name": "",
          "type": "tuple[]"
        }
      ],
      "stateMutability": "view",
      "type": "function"
    },
    {
      "inputs": [],
      "name": "getFeeReceiver",
      "outputs": [
        {
          "internalType": "address",
          "name": "",
          "type": "address"
        }
      ],
      "stateMutability": "view",
      "type": "function"
    },
    {
      "inputs": [],
      "name": "getInactiveSales",
      "outputs": [
        {
          "components": [
            {
              "internalType": "uint256",
              "name": "saleId",
              "type": "uint256"
            },
            {
              "internalType": "uint256",
              "name": "tokenId",
              "type": "uint256"
            },
            {
              "internalType": "address",
              "name": "seller",
              "type": "address"
            },
            {
              "internalType": "address",
              "name": "buyer",
              "type": "address"
            },
            {
              "internalType": "uint256",
              "name": "price",
              "type": "uint256"
            },
            {
              "internalType": "bool",
              "name": "isSold",
              "type": "bool"
            },
            {
              "internalType": "bool",
              "name": "isActive",
              "type": "bool"
            },
            {
              "internalType": "uint256",
              "name": "lastUpdated",
              "type": "uint256"
            }
          ],
          "internalType": "struct MarketplaceV1.Sale[]",
          "name": "",
          "type": "tuple[]"
        }
      ],
      "stateMutability": "view",
      "type": "function"
    },
    {
      "inputs": [],
      "name": "getListingPrice",
      "outputs": [
        {
          "internalType": "uint256",
          "name": "",
          "type": "uint256"
        }
      ],
      "stateMutability": "view",
      "type": "function"
    },
    {
      "inputs": [],
      "name": "getUserCreatedSales",
      "outputs": [
        {
          "components": [
            {
              "internalType": "uint256",
              "name": "saleId",
              "type": "uint256"
            },
            {
              "internalType": "uint256",
              "name": "tokenId",
              "type": "uint256"
            },
            {
              "internalType": "address",
              "name": "seller",
              "type": "address"
            },
            {
              "internalType": "address",
              "name": "buyer",
              "type": "address"
            },
            {
              "internalType": "uint256",
              "name": "price",
              "type": "uint256"
            },
            {
              "internalType": "bool",
              "name": "isSold",
              "type": "bool"
            },
            {
              "internalType": "bool",
              "name": "isActive",
              "type": "bool"
            },
            {
              "internalType": "uint256",
              "name": "lastUpdated",
              "type": "uint256"
            }
          ],
          "internalType": "struct MarketplaceV1.Sale[]",
          "name": "",
          "type": "tuple[]"
        }
      ],
      "stateMutability": "view",
      "type": "function"
    },
    {
      "inputs": [],
      "name": "getUserNFTs",
      "outputs": [
        {
          "components": [
            {
              "internalType": "uint256",
              "name": "tokenId",
              "type": "uint256"
            },
            {
              "internalType": "address",
              "name": "contractAddress",
              "type": "address"
            },
            {
              "internalType": "string",
              "name": "URI",
              "type": "string"
            }
          ],
          "internalType": "struct MarketplaceV1.TokenInfo[]",
          "name": "",
          "type": "tuple[]"
        }
      ],
      "stateMutability": "view",
      "type": "function"
    },
    {
      "inputs": [],
      "name": "getUserPurchasedSales",
      "outputs": [
        {
          "components": [
            {
              "internalType": "uint256",
              "name": "saleId",
              "type": "uint256"
            },
            {
              "internalType": "uint256",
              "name": "tokenId",
              "type": "uint256"
            },
            {
              "internalType": "address",
              "name": "seller",
              "type": "address"
            },
            {
              "internalType": "address",
              "name": "buyer",
              "type": "address"
            },
            {
              "internalType": "uint256",
              "name": "price",
              "type": "uint256"
            },
            {
              "internalType": "bool",
              "name": "isSold",
              "type": "bool"
            },
            {
              "internalType": "bool",
              "name": "isActive",
              "type": "bool"
            },
            {
              "internalType": "uint256",
              "name": "lastUpdated",
              "type": "uint256"
            }
          ],
          "internalType": "struct MarketplaceV1.Sale[]",
          "name": "",
          "type": "tuple[]"
        }
      ],
      "stateMutability": "view",
      "type": "function"
    },
    {
      "inputs": [
        {
          "internalType": "address",
          "name": "erc20",
          "type": "address"
        },
        {
          "internalType": "address",
          "name": "erc721",
          "type": "address"
        }
      ],
      "name": "initialize",
      "outputs": [],
      "stateMutability": "nonpayable",
      "type": "function"
    },
    {
      "inputs": [
        {
          "internalType": "address",
          "name": "operator",
          "type": "address"
        },
        {
          "internalType": "address",
          "name": "from",
          "type": "address"
        },
        {
          "internalType": "uint256",
          "name": "tokenId",
          "type": "uint256"
        },
        {
          "internalType": "bytes",
          "name": "data",
          "type": "bytes"
        }
      ],
      "name": "onERC721Received",
      "outputs": [
        {
          "internalType": "bytes4",
          "name": "",
          "type": "bytes4"
        }
      ],
      "stateMutability": "pure",
      "type": "function"
    },
    {
      "inputs": [],
      "name": "owner",
      "outputs": [
        {
          "internalType": "address",
          "name": "",
          "type": "address"
        }
      ],
      "stateMutability": "view",
      "type": "function"
    },
    {
      "inputs": [
        {
          "internalType": "uint256",
          "name": "saleId",
          "type": "uint256"
        },
        {
          "internalType": "uint256",
          "name": "price",
          "type": "uint256"
        }
      ],
      "name": "purchaseSale",
      "outputs": [],
      "stateMutability": "nonpayable",
      "type": "function"
    },
    {
      "inputs": [],
      "name": "renounceOwnership",
      "outputs": [],
      "stateMutability": "nonpayable",
      "type": "function"
    },
    {
      "inputs": [
        {
          "internalType": "address",
          "name": "newFeeReceiver",
          "type": "address"
        }
      ],
      "name": "setFeeReceiver",
      "outputs": [],
      "stateMutability": "nonpayable",
      "type": "function"
    },
    {
      "inputs": [
        {
          "internalType": "uint256",
          "name": "newListingPrice",
          "type": "uint256"
        }
      ],
      "name": "setListingPrice",
      "outputs": [],
      "stateMutability": "nonpayable",
      "type": "function"
    },
    {
      "inputs": [
        {
          "internalType": "address",
          "name": "newOwner",
          "type": "address"
        }
      ],
      "name": "transferOwnership",
      "outputs": [],
      "stateMutability": "nonpayable",
      "type": "function"
    },
    {
      "inputs": [
        {
          "internalType": "address",
          "name": "newImplementation",
          "type": "address"
        }
      ],
      "name": "upgradeTo",
      "outputs": [],
      "stateMutability": "nonpayable",
      "type": "function"
    },
    {
      "inputs": [
        {
          "internalType": "address",
          "name": "newImplementation",
          "type": "address"
        },
        {
          "internalType": "bytes",
          "name": "data",
          "type": "bytes"
        }
      ],
      "name": "upgradeToAndCall",
      "outputs": [],
      "stateMutability": "payable",
      "type": "function"
    }
  ],
  "bytecode": "0x60a06040523073ffffffffffffffffffffffffffffffffffffffff1660809073ffffffffffffffffffffffffffffffffffffffff1660601b81525034801561004657600080fd5b5060805160601c61485261007a60003960008181610b0a01528181610b99015281816110fc015261118b01526148526000f3fe60806040526004361061011f5760003560e01c8063715018a6116100a0578063e5f9b40911610064578063e5f9b4091461038a578063e8a35392146103b5578063efdcd974146103e0578063f2fde38b14610409578063fdc5ab8e146104325761011f565b8063715018a6146102cd5780637c726b69146102e45780638da5cb5b1461030d578063bd94b00514610338578063c82e474b146103615761011f565b8063436141d2116100e7578063436141d21461020b578063485cc955146102365780634f1ef2861461025f57806351c696d21461027b5780636019061b146102a45761011f565b80630974ed4b1461012457806312e855851461014f578063150b7a021461017a57806321b7e7e1146101b75780633659cfe6146101e2575b600080fd5b34801561013057600080fd5b5061013961045d565b6040516101469190613d20565b60405180910390f35b34801561015b57600080fd5b506101646107a3565b6040516101719190613fc1565b60405180910390f35b34801561018657600080fd5b506101a1600480360381019061019c9190613503565b6107ad565b6040516101ae9190613d64565b60405180910390f35b3480156101c357600080fd5b506101cc6107c2565b6040516101d99190613d20565b60405180910390f35b3480156101ee57600080fd5b5061020960048036038101906102049190613475565b610b08565b005b34801561021757600080fd5b50610220610cb7565b60405161022d9190613d20565b60405180910390f35b34801561024257600080fd5b5061025d600480360381019061025891906134c7565b610f4a565b005b61027960048036038101906102749190613583565b6110fa565b005b34801561028757600080fd5b506102a2600480360381019061029d9190613693565b611237565b005b3480156102b057600080fd5b506102cb60048036038101906102c69190613693565b6117a4565b005b3480156102d957600080fd5b506102e2611bd4565b005b3480156102f057600080fd5b5061030b60048036038101906103069190613641565b611c5c565b005b34801561031957600080fd5b50610322611d25565b60405161032f9190613c37565b60405180910390f35b34801561034457600080fd5b5061035f600480360381019061035a9190613641565b611d4f565b005b34801561036d57600080fd5b5061038860048036038101906103839190613693565b611ffb565b005b34801561039657600080fd5b5061039f6121e1565b6040516103ac9190613d20565b60405180910390f35b3480156103c157600080fd5b506103ca61244e565b6040516103d79190613c37565b60405180910390f35b3480156103ec57600080fd5b5061040760048036038101906104029190613475565b612478565b005b34801561041557600080fd5b50610430600480360381019061042b9190613475565b612538565b005b34801561043e57600080fd5b50610447612630565b6040516104549190613d42565b60405180910390f35b6060600061046b60fb612988565b90506000806000600190505b83811161050c573373ffffffffffffffffffffffffffffffffffffffff16610102600083815260200190815260200160002060030160009054906101000a900473ffffffffffffffffffffffffffffffffffffffff1673ffffffffffffffffffffffffffffffffffffffff1614156104f9576001836104f69190614178565b92505b8080610504906142e9565b915050610477565b5060008267ffffffffffffffff81111561054f577f4e487b7100000000000000000000000000000000000000000000000000000000600052604160045260246000fd5b60405190808252806020026020018201604052801561058857816020015b610575613246565b81526020019060019003908161056d5790505b5090506000600190505b848111610798573373ffffffffffffffffffffffffffffffffffffffff16610102600083815260200190815260200160002060030160009054906101000a900473ffffffffffffffffffffffffffffffffffffffff1673ffffffffffffffffffffffffffffffffffffffff16141561078557600061010260008381526020019081526020016000209050806040518061010001604052908160008201548152602001600182015481526020016002820160009054906101000a900473ffffffffffffffffffffffffffffffffffffffff1673ffffffffffffffffffffffffffffffffffffffff1673ffffffffffffffffffffffffffffffffffffffff1681526020016003820160009054906101000a900473ffffffffffffffffffffffffffffffffffffffff1673ffffffffffffffffffffffffffffffffffffffff1673ffffffffffffffffffffffffffffffffffffffff168152602001600482015481526020016005820160009054906101000a900460ff161515151581526020016005820160019054906101000a900460ff1615151515815260200160068201548152505083858061073f906142e9565b965081518110610778577f4e487b7100000000000000000000000000000000000000000000000000000000600052603260045260246000fd5b6020026020010181905250505b8080610790906142e9565b915050610592565b508094505050505090565b600060fe54905090565b600063150b7a0260e01b905095945050505050565b606060006107d060fb612988565b90506000806000600190505b838111610871573373ffffffffffffffffffffffffffffffffffffffff16610102600083815260200190815260200160002060020160009054906101000a900473ffffffffffffffffffffffffffffffffffffffff1673ffffffffffffffffffffffffffffffffffffffff16141561085e5760018361085b9190614178565b92505b8080610869906142e9565b9150506107dc565b5060008267ffffffffffffffff8111156108b4577f4e487b7100000000000000000000000000000000000000000000000000000000600052604160045260246000fd5b6040519080825280602002602001820160405280156108ed57816020015b6108da613246565b8152602001906001900390816108d25790505b5090506000600190505b848111610afd573373ffffffffffffffffffffffffffffffffffffffff16610102600083815260200190815260200160002060020160009054906101000a900473ffffffffffffffffffffffffffffffffffffffff1673ffffffffffffffffffffffffffffffffffffffff161415610aea57600061010260008381526020019081526020016000209050806040518061010001604052908160008201548152602001600182015481526020016002820160009054906101000a900473ffffffffffffffffffffffffffffffffffffffff1673ffffffffffffffffffffffffffffffffffffffff1673ffffffffffffffffffffffffffffffffffffffff1681526020016003820160009054906101000a900473ffffffffffffffffffffffffffffffffffffffff1673ffffffffffffffffffffffffffffffffffffffff1673ffffffffffffffffffffffffffffffffffffffff168152602001600482015481526020016005820160009054906101000a900460ff161515151581526020016005820160019054906101000a900460ff16151515158152602001600682015481525050838580610aa4906142e9565b965081518110610add577f4e487b7100000000000000000000000000000000000000000000000000000000600052603260045260246000fd5b6020026020010181905250505b8080610af5906142e9565b9150506108f7565b508094505050505090565b7f000000000000000000000000000000000000000000000000000000000000000073ffffffffffffffffffffffffffffffffffffffff163073ffffffffffffffffffffffffffffffffffffffff161415610b97576040517f08c379a0000000000000000000000000000000000000000000000000000000008152600401610b8e90613e41565b60405180910390fd5b7f000000000000000000000000000000000000000000000000000000000000000073ffffffffffffffffffffffffffffffffffffffff16610bd6612996565b73ffffffffffffffffffffffffffffffffffffffff1614610c2c576040517f08c379a0000000000000000000000000000000000000000000000000000000008152600401610c2390613e81565b60405180910390fd5b610c35816129ed565b610cb481600067ffffffffffffffff811115610c7a577f4e487b7100000000000000000000000000000000000000000000000000000000600052604160045260246000fd5b6040519080825280601f01601f191660200182016040528015610cac5781602001600182028036833780820191505090505b506000612a6c565b50565b60606000610cc560fb612988565b90506000610cd360fc612988565b610cdd60fd612988565b83610ce891906141ce565b610cf291906141ce565b90506000808267ffffffffffffffff811115610d37577f4e487b7100000000000000000000000000000000000000000000000000000000600052604160045260246000fd5b604051908082528060200260200182016040528015610d7057816020015b610d5d613246565b815260200190600190039081610d555790505b5090506000600190505b848111610f3f57610102600082815260200190815260200160002060050160019054906101000a900460ff1615610f2c57600061010260008381526020019081526020016000209050806040518061010001604052908160008201548152602001600182015481526020016002820160009054906101000a900473ffffffffffffffffffffffffffffffffffffffff1673ffffffffffffffffffffffffffffffffffffffff1673ffffffffffffffffffffffffffffffffffffffff1681526020016003820160009054906101000a900473ffffffffffffffffffffffffffffffffffffffff1673ffffffffffffffffffffffffffffffffffffffff1673ffffffffffffffffffffffffffffffffffffffff168152602001600482015481526020016005820160009054906101000a900460ff161515151581526020016005820160019054906101000a900460ff16151515158152602001600682015481525050838580610ee6906142e9565b965081518110610f1f577f4e487b7100000000000000000000000000000000000000000000000000000000600052603260045260246000fd5b6020026020010181905250505b8080610f37906142e9565b915050610d7a565b508094505050505090565b600060019054906101000a900460ff1680610f70575060008054906101000a900460ff16155b610faf576040517f08c379a0000000000000000000000000000000000000000000000000000000008152600401610fa690613ec1565b60405180910390fd5b60008060019054906101000a900460ff161590508015610fff576001600060016101000a81548160ff02191690831515021790555060016000806101000a81548160ff0219169083151502179055505b611007612c3d565b8261010060006101000a81548173ffffffffffffffffffffffffffffffffffffffff021916908373ffffffffffffffffffffffffffffffffffffffff1602179055508161010160006101000a81548173ffffffffffffffffffffffffffffffffffffffff021916908373ffffffffffffffffffffffffffffffffffffffff160217905550600a60fe819055503360ff60006101000a81548173ffffffffffffffffffffffffffffffffffffffff021916908373ffffffffffffffffffffffffffffffffffffffff16021790555080156110f55760008060016101000a81548160ff0219169083151502179055505b505050565b7f000000000000000000000000000000000000000000000000000000000000000073ffffffffffffffffffffffffffffffffffffffff163073ffffffffffffffffffffffffffffffffffffffff161415611189576040517f08c379a000000000000000000000000000000000000000000000000000000000815260040161118090613e41565b60405180910390fd5b7f000000000000000000000000000000000000000000000000000000000000000073ffffffffffffffffffffffffffffffffffffffff166111c8612996565b73ffffffffffffffffffffffffffffffffffffffff161461121e576040517f08c379a000000000000000000000000000000000000000000000000000000000815260040161121590613e81565b60405180910390fd5b611227826129ed565b61123382826001612a6c565b5050565b6002606554141561127d576040517f08c379a000000000000000000000000000000000000000000000000000000000815260040161127490613f81565b60405180910390fd5b6002606581905550600061010060009054906101000a900473ffffffffffffffffffffffffffffffffffffffff1673ffffffffffffffffffffffffffffffffffffffff1663dd62ed3e33306040518363ffffffff1660e01b81526004016112e5929190613c52565b60206040518083038186803b1580156112fd57600080fd5b505afa158015611311573d6000803e3d6000fd5b505050506040513d601f19601f82011682018060405250810190611335919061366a565b90508181101561137a576040517f08c379a000000000000000000000000000000000000000000000000000000000815260040161137190613f21565b60405180910390fd5b600061010260008581526020019081526020016000209050600115158160050160019054906101000a900460ff1615151480156113cc5750600015158160050160009054906101000a900460ff161515145b61140b576040517f08c379a000000000000000000000000000000000000000000000000000000000815260040161140290613dc1565b60405180910390fd5b8060020160009054906101000a900473ffffffffffffffffffffffffffffffffffffffff1673ffffffffffffffffffffffffffffffffffffffff163373ffffffffffffffffffffffffffffffffffffffff16141561149e576040517f08c379a000000000000000000000000000000000000000000000000000000000815260040161149590613f61565b60405180910390fd5b806004015483146114e4576040517f08c379a00000000000000000000000000000000000000000000000000000000081526004016114db90613de1565b60405180910390fd5b600061010060009054906101000a900473ffffffffffffffffffffffffffffffffffffffff1673ffffffffffffffffffffffffffffffffffffffff166323b872dd338460020160009054906101000a900473ffffffffffffffffffffffffffffffffffffffff16876040518463ffffffff1660e01b815260040161156a93929190613c7b565b602060405180830381600087803b15801561158457600080fd5b505af1158015611598573d6000803e3d6000fd5b505050506040513d601f19601f820116820180604052508101906115bc91906135d7565b9050806115fe576040517f08c379a00000000000000000000000000000000000000000000000000000000081526004016115f590613ea1565b60405180910390fd5b60008260010154905061010160009054906101000a900473ffffffffffffffffffffffffffffffffffffffff1673ffffffffffffffffffffffffffffffffffffffff166323b872dd3033846040518463ffffffff1660e01b815260040161166793929190613c7b565b600060405180830381600087803b15801561168157600080fd5b505af1158015611695573d6000803e3d6000fd5b5050505060018360050160006101000a81548160ff02191690831515021790555060008360050160016101000a81548160ff021916908315150217905550338360030160006101000a81548173ffffffffffffffffffffffffffffffffffffffff021916908373ffffffffffffffffffffffffffffffffffffffff16021790555061172060fc612d26565b80867fa1ffbf809f5113e0312f081bb16d51434d610320b7ea557250fdcbded2fbd4478560020160009054906101000a900473ffffffffffffffffffffffffffffffffffffffff16888760050160009054906101000a900460ff164260405161178c9493929190613cdb565b60405180910390a35050505060016065819055505050565b600260655414156117ea576040517f08c379a00000000000000000000000000000000000000000000000000000000081526004016117e190613f81565b60405180910390fd5b600260658190555060008111611835576040517f08c379a000000000000000000000000000000000000000000000000000000000815260040161182c90613fa1565b60405180910390fd5b3373ffffffffffffffffffffffffffffffffffffffff1661010160009054906101000a900473ffffffffffffffffffffffffffffffffffffffff1673ffffffffffffffffffffffffffffffffffffffff16636352211e846040518263ffffffff1660e01b81526004016118a89190613fc1565b60206040518083038186803b1580156118c057600080fd5b505afa1580156118d4573d6000803e3d6000fd5b505050506040513d601f19601f820116820180604052508101906118f8919061349e565b73ffffffffffffffffffffffffffffffffffffffff161461194e576040517f08c379a000000000000000000000000000000000000000000000000000000000815260040161194590613da1565b60405180910390fd5b61195860fb612d26565b600061196460fb612988565b90506040518061010001604052808281526020018481526020013373ffffffffffffffffffffffffffffffffffffffff168152602001600073ffffffffffffffffffffffffffffffffffffffff168152602001838152602001600015158152602001600115158152602001428152506101026000838152602001908152602001600020600082015181600001556020820151816001015560408201518160020160006101000a81548173ffffffffffffffffffffffffffffffffffffffff021916908373ffffffffffffffffffffffffffffffffffffffff16021790555060608201518160030160006101000a81548173ffffffffffffffffffffffffffffffffffffffff021916908373ffffffffffffffffffffffffffffffffffffffff1602179055506080820151816004015560a08201518160050160006101000a81548160ff02191690831515021790555060c08201518160050160016101000a81548160ff02191690831515021790555060e0820151816006015590505061010160009054906101000a900473ffffffffffffffffffffffffffffffffffffffff1673ffffffffffffffffffffffffffffffffffffffff166342842e0e3330866040518463ffffffff1660e01b8152600401611b4093929190613c7b565b600060405180830381600087803b158015611b5a57600080fd5b505af1158015611b6e573d6000803e3d6000fd5b505050503373ffffffffffffffffffffffffffffffffffffffff1683827fd035e36eed79dc051f4a1821b06d9defcfe2a74be16adb4991291117112a50f085600042604051611bbf93929190613fdc565b60405180910390a45060016065819055505050565b611bdc612d3c565b73ffffffffffffffffffffffffffffffffffffffff16611bfa611d25565b73ffffffffffffffffffffffffffffffffffffffff1614611c50576040517f08c379a0000000000000000000000000000000000000000000000000000000008152600401611c4790613f01565b60405180910390fd5b611c5a6000612d44565b565b611c64612d3c565b73ffffffffffffffffffffffffffffffffffffffff16611c82611d25565b73ffffffffffffffffffffffffffffffffffffffff1614611cd8576040517f08c379a0000000000000000000000000000000000000000000000000000000008152600401611ccf90613f01565b60405180910390fd5b60008111611d1b576040517f08c379a0000000000000000000000000000000000000000000000000000000008152600401611d1290613fa1565b60405180910390fd5b8060fe8190555050565b600060c960009054906101000a900473ffffffffffffffffffffffffffffffffffffffff16905090565b60026065541415611d95576040517f08c379a0000000000000000000000000000000000000000000000000000000008152600401611d8c90613f81565b60405180910390fd5b600260658190555080610102600082815260200190815260200160002060020160009054906101000a900473ffffffffffffffffffffffffffffffffffffffff1673ffffffffffffffffffffffffffffffffffffffff163373ffffffffffffffffffffffffffffffffffffffff1614611e43576040517f08c379a0000000000000000000000000000000000000000000000000000000008152600401611e3a90613e61565b60405180910390fd5b600061010260008481526020019081526020016000209050600115158160050160019054906101000a900460ff16151514611eb3576040517f08c379a0000000000000000000000000000000000000000000000000000000008152600401611eaa90613dc1565b60405180910390fd5b61010160009054906101000a900473ffffffffffffffffffffffffffffffffffffffff1673ffffffffffffffffffffffffffffffffffffffff166323b872dd303384600101546040518463ffffffff1660e01b8152600401611f1793929190613c7b565b600060405180830381600087803b158015611f3157600080fd5b505af1158015611f45573d6000803e3d6000fd5b5050505060008160050160016101000a81548160ff021916908315150217905550611f7060fd612d26565b8060020160009054906101000a900473ffffffffffffffffffffffffffffffffffffffff1673ffffffffffffffffffffffffffffffffffffffff168160010154847f9cf3aa3c21065a435a0fd60111abd0ae5148ec0805525a8ade76e8c0632b89cd846004015442604051611fe6929190614013565b60405180910390a45050600160658190555050565b81610102600082815260200190815260200160002060020160009054906101000a900473ffffffffffffffffffffffffffffffffffffffff1673ffffffffffffffffffffffffffffffffffffffff163373ffffffffffffffffffffffffffffffffffffffff16146120a1576040517f08c379a000000000000000000000000000000000000000000000000000000000815260040161209890613e61565b60405180910390fd5b600061010260008581526020019081526020016000209050600115158160050160019054906101000a900460ff16151514612111576040517f08c379a000000000000000000000000000000000000000000000000000000000815260040161210890613dc1565b60405180910390fd5b60008311612154576040517f08c379a000000000000000000000000000000000000000000000000000000000815260040161214b90613fa1565b60405180910390fd5b8281600401819055508060020160009054906101000a900473ffffffffffffffffffffffffffffffffffffffff1673ffffffffffffffffffffffffffffffffffffffff168160010154857fb5ff818b1e47858abe4b8dbeee7509d67cc6b3e461dc17faf8340a2defdaa8d78460040154426040516121d3929190614013565b60405180910390a450505050565b606060006121ef60fd612988565b90506000808267ffffffffffffffff811115612234577f4e487b7100000000000000000000000000000000000000000000000000000000600052604160045260246000fd5b60405190808252806020026020018201604052801561226d57816020015b61225a613246565b8152602001906001900390816122525790505b5090506000600190505b61228160fb612988565b811161244457610102600082815260200190815260200160002060050160019054906101000a900460ff1661243157600061010260008381526020019081526020016000209050806040518061010001604052908160008201548152602001600182015481526020016002820160009054906101000a900473ffffffffffffffffffffffffffffffffffffffff1673ffffffffffffffffffffffffffffffffffffffff1673ffffffffffffffffffffffffffffffffffffffff1681526020016003820160009054906101000a900473ffffffffffffffffffffffffffffffffffffffff1673ffffffffffffffffffffffffffffffffffffffff1673ffffffffffffffffffffffffffffffffffffffff168152602001600482015481526020016005820160009054906101000a900460ff161515151581526020016005820160019054906101000a900460ff161515151581526020016006820154815250508385806123eb906142e9565b965081518110612424577f4e487b7100000000000000000000000000000000000000000000000000000000600052603260045260246000fd5b6020026020010181905250505b808061243c906142e9565b915050612277565b5080935050505090565b600060ff60009054906101000a900473ffffffffffffffffffffffffffffffffffffffff16905090565b612480612d3c565b73ffffffffffffffffffffffffffffffffffffffff1661249e611d25565b73ffffffffffffffffffffffffffffffffffffffff16146124f4576040517f08c379a00000000000000000000000000000000000000000000000000000000081526004016124eb90613f01565b60405180910390fd5b8060ff60006101000a81548173ffffffffffffffffffffffffffffffffffffffff021916908373ffffffffffffffffffffffffffffffffffffffff16021790555050565b612540612d3c565b73ffffffffffffffffffffffffffffffffffffffff1661255e611d25565b73ffffffffffffffffffffffffffffffffffffffff16146125b4576040517f08c379a00000000000000000000000000000000000000000000000000000000081526004016125ab90613f01565b60405180910390fd5b600073ffffffffffffffffffffffffffffffffffffffff168173ffffffffffffffffffffffffffffffffffffffff161415612624576040517f08c379a000000000000000000000000000000000000000000000000000000000815260040161261b90613e21565b60405180910390fd5b61262d81612d44565b50565b6060600061010160009054906101000a900473ffffffffffffffffffffffffffffffffffffffff1673ffffffffffffffffffffffffffffffffffffffff166370a08231336040518263ffffffff1660e01b81526004016126909190613c37565b60206040518083038186803b1580156126a857600080fd5b505afa1580156126bc573d6000803e3d6000fd5b505050506040513d601f19601f820116820180604052508101906126e0919061366a565b905060008167ffffffffffffffff811115612724577f4e487b7100000000000000000000000000000000000000000000000000000000600052604160045260246000fd5b60405190808252806020026020018201604052801561275d57816020015b61274a6132bb565b8152602001906001900390816127425790505b50905060005b8281101561297f57600061010160009054906101000a900473ffffffffffffffffffffffffffffffffffffffff1673ffffffffffffffffffffffffffffffffffffffff16632f745c5933846040518363ffffffff1660e01b81526004016127cb929190613cb2565b60206040518083038186803b1580156127e357600080fd5b505afa1580156127f7573d6000803e3d6000fd5b505050506040513d601f19601f8201168201806040525081019061281b919061366a565b9050600061010160009054906101000a900473ffffffffffffffffffffffffffffffffffffffff1673ffffffffffffffffffffffffffffffffffffffff1663c87b56dd836040518263ffffffff1660e01b815260040161287b9190613fc1565b60006040518083038186803b15801561289357600080fd5b505afa1580156128a7573d6000803e3d6000fd5b505050506040513d6000823e3d601f19601f820116820180604052508101906128d09190613600565b9050604051806060016040528083815260200161010160009054906101000a900473ffffffffffffffffffffffffffffffffffffffff1673ffffffffffffffffffffffffffffffffffffffff1681526020018281525084848151811061295f577f4e487b7100000000000000000000000000000000000000000000000000000000600052603260045260246000fd5b602002602001018190525050508080612977906142e9565b915050612763565b50809250505090565b600081600001549050919050565b60006129c47f360894a13ba1a3210667c828492db98dca3e2076cc3735a920a3ca505d382bbc60001b612e0a565b60000160009054906101000a900473ffffffffffffffffffffffffffffffffffffffff16905090565b6129f5612d3c565b73ffffffffffffffffffffffffffffffffffffffff16612a13611d25565b73ffffffffffffffffffffffffffffffffffffffff1614612a69576040517f08c379a0000000000000000000000000000000000000000000000000000000008152600401612a6090613f01565b60405180910390fd5b50565b6000612a76612996565b9050612a8184612e14565b600083511180612a8e5750815b15612a9f57612a9d8484612ecd565b505b6000612acd7f4910fdfa16fed3260ed0e7147f7cc6da11a60208b5b9406d12a635614ffd914360001b612fb1565b90508060000160009054906101000a900460ff16612c365760018160000160006101000a81548160ff021916908315150217905550612b998583604051602401612b179190613c37565b6040516020818303038152906040527f3659cfe6000000000000000000000000000000000000000000000000000000007bffffffffffffffffffffffffffffffffffffffffffffffffffffffff19166020820180517bffffffffffffffffffffffffffffffffffffffffffffffffffffffff8381831617835250505050612ecd565b5060008160000160006101000a81548160ff021916908315150217905550612bbf612996565b73ffffffffffffffffffffffffffffffffffffffff168273ffffffffffffffffffffffffffffffffffffffff1614612c2c576040517f08c379a0000000000000000000000000000000000000000000000000000000008152600401612c2390613e01565b60405180910390fd5b612c3585612fbb565b5b5050505050565b600060019054906101000a900460ff1680612c63575060008054906101000a900460ff16155b612ca2576040517f08c379a0000000000000000000000000000000000000000000000000000000008152600401612c9990613ec1565b60405180910390fd5b60008060019054906101000a900460ff161590508015612cf2576001600060016101000a81548160ff02191690831515021790555060016000806101000a81548160ff0219169083151502179055505b612cfa61300a565b612d026130e3565b8015612d235760008060016101000a81548160ff0219169083151502179055505b50565b6001816000016000828254019250508190555050565b600033905090565b600060c960009054906101000a900473ffffffffffffffffffffffffffffffffffffffff1690508160c960006101000a81548173ffffffffffffffffffffffffffffffffffffffff021916908373ffffffffffffffffffffffffffffffffffffffff1602179055508173ffffffffffffffffffffffffffffffffffffffff168173ffffffffffffffffffffffffffffffffffffffff167f8be0079c531659141344cd1fd0a4f28419497f9722a3daafe3b4186f6b6457e060405160405180910390a35050565b6000819050919050565b612e1d816131cc565b612e5c576040517f08c379a0000000000000000000000000000000000000000000000000000000008152600401612e5390613ee1565b60405180910390fd5b80612e897f360894a13ba1a3210667c828492db98dca3e2076cc3735a920a3ca505d382bbc60001b612e0a565b60000160006101000a81548173ffffffffffffffffffffffffffffffffffffffff021916908373ffffffffffffffffffffffffffffffffffffffff16021790555050565b6060612ed8836131cc565b612f17576040517f08c379a0000000000000000000000000000000000000000000000000000000008152600401612f0e90613f41565b60405180910390fd5b6000808473ffffffffffffffffffffffffffffffffffffffff1684604051612f3f9190613c20565b600060405180830381855af49150503d8060008114612f7a576040519150601f19603f3d011682016040523d82523d6000602084013e612f7f565b606091505b5091509150612fa782826040518060600160405280602781526020016147f6602791396131df565b9250505092915050565b6000819050919050565b612fc481612e14565b8073ffffffffffffffffffffffffffffffffffffffff167fbc7cd75a20ee27fd9adebab32041f755214dbc6bffa90cc0225b39da2e5c2d3b60405160405180910390a250565b600060019054906101000a900460ff1680613030575060008054906101000a900460ff16155b61306f576040517f08c379a000000000000000000000000000000000000000000000000000000000815260040161306690613ec1565b60405180910390fd5b60008060019054906101000a900460ff1615905080156130bf576001600060016101000a81548160ff02191690831515021790555060016000806101000a81548160ff0219169083151502179055505b80156130e05760008060016101000a81548160ff0219169083151502179055505b50565b600060019054906101000a900460ff1680613109575060008054906101000a900460ff16155b613148576040517f08c379a000000000000000000000000000000000000000000000000000000000815260040161313f90613ec1565b60405180910390fd5b60008060019054906101000a900460ff161590508015613198576001600060016101000a81548160ff02191690831515021790555060016000806101000a81548160ff0219169083151502179055505b6131a86131a3612d3c565b612d44565b80156131c95760008060016101000a81548160ff0219169083151502179055505b50565b600080823b905060008111915050919050565b606083156131ef5782905061323f565b6000835111156132025782518084602001fd5b816040517f08c379a00000000000000000000000000000000000000000000000000000000081526004016132369190613d7f565b60405180910390fd5b9392505050565b6040518061010001604052806000815260200160008152602001600073ffffffffffffffffffffffffffffffffffffffff168152602001600073ffffffffffffffffffffffffffffffffffffffff16815260200160008152602001600015158152602001600015158152602001600081525090565b604051806060016040528060008152602001600073ffffffffffffffffffffffffffffffffffffffff168152602001606081525090565b600061330561330084614061565b61403c565b90508281526020810184848401111561331d57600080fd5b613328848285614276565b509392505050565b600061334361333e84614092565b61403c565b90508281526020810184848401111561335b57600080fd5b613366848285614285565b509392505050565b60008135905061337d816147b0565b92915050565b600081519050613392816147b0565b92915050565b6000815190506133a7816147c7565b92915050565b60008083601f8401126133bf57600080fd5b8235905067ffffffffffffffff8111156133d857600080fd5b6020830191508360018202830111156133f057600080fd5b9250929050565b600082601f83011261340857600080fd5b81356134188482602086016132f2565b91505092915050565b600082601f83011261343257600080fd5b8151613442848260208601613330565b91505092915050565b60008135905061345a816147de565b92915050565b60008151905061346f816147de565b92915050565b60006020828403121561348757600080fd5b60006134958482850161336e565b91505092915050565b6000602082840312156134b057600080fd5b60006134be84828501613383565b91505092915050565b600080604083850312156134da57600080fd5b60006134e88582860161336e565b92505060206134f98582860161336e565b9150509250929050565b60008060008060006080868803121561351b57600080fd5b60006135298882890161336e565b955050602061353a8882890161336e565b945050604061354b8882890161344b565b935050606086013567ffffffffffffffff81111561356857600080fd5b613574888289016133ad565b92509250509295509295909350565b6000806040838503121561359657600080fd5b60006135a48582860161336e565b925050602083013567ffffffffffffffff8111156135c157600080fd5b6135cd858286016133f7565b9150509250929050565b6000602082840312156135e957600080fd5b60006135f784828501613398565b91505092915050565b60006020828403121561361257600080fd5b600082015167ffffffffffffffff81111561362c57600080fd5b61363884828501613421565b91505092915050565b60006020828403121561365357600080fd5b60006136618482850161344b565b91505092915050565b60006020828403121561367c57600080fd5b600061368a84828501613460565b91505092915050565b600080604083850312156136a657600080fd5b60006136b48582860161344b565b92505060206136c58582860161344b565b9150509250929050565b60006136db8383613b10565b6101008301905092915050565b60006136f48383613bb2565b905092915050565b61370581614202565b82525050565b61371481614202565b82525050565b6000613725826140e3565b61372f8185614129565b935061373a836140c3565b8060005b8381101561376b57815161375288826136cf565b975061375d8361410f565b92505060018101905061373e565b5085935050505092915050565b6000613783826140ee565b61378d818561413a565b93508360208202850161379f856140d3565b8060005b858110156137db57848403895281516137bc85826136e8565b94506137c78361411c565b925060208a019950506001810190506137a3565b50829750879550505050505092915050565b6137f681614214565b82525050565b61380581614214565b82525050565b61381481614220565b82525050565b6000613825826140f9565b61382f818561414b565b935061383f818560208601614285565b80840191505092915050565b600061385682614104565b6138608185614156565b9350613870818560208601614285565b61387981614390565b840191505092915050565b600061388f82614104565b6138998185614167565b93506138a9818560208601614285565b6138b281614390565b840191505092915050565b60006138ca601983614167565b91506138d5826143a1565b602082019050919050565b60006138ed600f83614167565b91506138f8826143ca565b602082019050919050565b6000613910604183614167565b915061391b826143f3565b606082019050919050565b6000613933602f83614167565b915061393e82614468565b604082019050919050565b6000613956602683614167565b9150613961826144b7565b604082019050919050565b6000613979602c83614167565b915061398482614506565b604082019050919050565b600061399c601383614167565b91506139a782614555565b602082019050919050565b60006139bf602c83614167565b91506139ca8261457e565b604082019050919050565b60006139e2601683614167565b91506139ed826145cd565b602082019050919050565b6000613a05602e83614167565b9150613a10826145f6565b604082019050919050565b6000613a28602d83614167565b9150613a3382614645565b604082019050919050565b6000613a4b602083614167565b9150613a5682614694565b602082019050919050565b6000613a6e601483614167565b9150613a79826146bd565b602082019050919050565b6000613a91602683614167565b9150613a9c826146e6565b604082019050919050565b6000613ab4601d83614167565b9150613abf82614735565b602082019050919050565b6000613ad7601f83614167565b9150613ae28261475e565b602082019050919050565b6000613afa601c83614167565b9150613b0582614787565b602082019050919050565b61010082016000820151613b276000850182613c02565b506020820151613b3a6020850182613c02565b506040820151613b4d60408501826136fc565b506060820151613b6060608501826136fc565b506080820151613b736080850182613c02565b5060a0820151613b8660a08501826137ed565b5060c0820151613b9960c08501826137ed565b5060e0820151613bac60e0850182613c02565b50505050565b6000606083016000830151613bca6000860182613c02565b506020830151613bdd60208601826136fc565b5060408301518482036040860152613bf5828261384b565b9150508091505092915050565b613c0b8161426c565b82525050565b613c1a8161426c565b82525050565b6000613c2c828461381a565b915081905092915050565b6000602082019050613c4c600083018461370b565b92915050565b6000604082019050613c67600083018561370b565b613c74602083018461370b565b9392505050565b6000606082019050613c90600083018661370b565b613c9d602083018561370b565b613caa6040830184613c11565b949350505050565b6000604082019050613cc7600083018561370b565b613cd46020830184613c11565b9392505050565b6000608082019050613cf0600083018761370b565b613cfd6020830186613c11565b613d0a60408301856137fc565b613d176060830184613c11565b95945050505050565b60006020820190508181036000830152613d3a818461371a565b905092915050565b60006020820190508181036000830152613d5c8184613778565b905092915050565b6000602082019050613d79600083018461380b565b92915050565b60006020820190508181036000830152613d998184613884565b905092915050565b60006020820190508181036000830152613dba816138bd565b9050919050565b60006020820190508181036000830152613dda816138e0565b9050919050565b60006020820190508181036000830152613dfa81613903565b9050919050565b60006020820190508181036000830152613e1a81613926565b9050919050565b60006020820190508181036000830152613e3a81613949565b9050919050565b60006020820190508181036000830152613e5a8161396c565b9050919050565b60006020820190508181036000830152613e7a8161398f565b9050919050565b60006020820190508181036000830152613e9a816139b2565b9050919050565b60006020820190508181036000830152613eba816139d5565b9050919050565b60006020820190508181036000830152613eda816139f8565b9050919050565b60006020820190508181036000830152613efa81613a1b565b9050919050565b60006020820190508181036000830152613f1a81613a3e565b9050919050565b60006020820190508181036000830152613f3a81613a61565b9050919050565b60006020820190508181036000830152613f5a81613a84565b9050919050565b60006020820190508181036000830152613f7a81613aa7565b9050919050565b60006020820190508181036000830152613f9a81613aca565b9050919050565b60006020820190508181036000830152613fba81613aed565b9050919050565b6000602082019050613fd66000830184613c11565b92915050565b6000606082019050613ff16000830186613c11565b613ffe60208301856137fc565b61400b6040830184613c11565b949350505050565b60006040820190506140286000830185613c11565b6140356020830184613c11565b9392505050565b6000614046614057565b905061405282826142b8565b919050565b6000604051905090565b600067ffffffffffffffff82111561407c5761407b614361565b5b61408582614390565b9050602081019050919050565b600067ffffffffffffffff8211156140ad576140ac614361565b5b6140b682614390565b9050602081019050919050565b6000819050602082019050919050565b6000819050602082019050919050565b600081519050919050565b600081519050919050565b600081519050919050565b600081519050919050565b6000602082019050919050565b6000602082019050919050565b600082825260208201905092915050565b600082825260208201905092915050565b600081905092915050565b600082825260208201905092915050565b600082825260208201905092915050565b60006141838261426c565b915061418e8361426c565b9250827fffffffffffffffffffffffffffffffffffffffffffffffffffffffffffffffff038211156141c3576141c2614332565b5b828201905092915050565b60006141d98261426c565b91506141e48361426c565b9250828210156141f7576141f6614332565b5b828203905092915050565b600061420d8261424c565b9050919050565b60008115159050919050565b60007fffffffff0000000000000000000000000000000000000000000000000000000082169050919050565b600073ffffffffffffffffffffffffffffffffffffffff82169050919050565b6000819050919050565b82818337600083830152505050565b60005b838110156142a3578082015181840152602081019050614288565b838111156142b2576000848401525b50505050565b6142c182614390565b810181811067ffffffffffffffff821117156142e0576142df614361565b5b80604052505050565b60006142f48261426c565b91507fffffffffffffffffffffffffffffffffffffffffffffffffffffffffffffffff82141561432757614326614332565b5b600182019050919050565b7f4e487b7100000000000000000000000000000000000000000000000000000000600052601160045260246000fd5b7f4e487b7100000000000000000000000000000000000000000000000000000000600052604160045260246000fd5b6000601f19601f8301169050919050565b7f596f7520646f206e6f74206f776e207468697320746f6b656e00000000000000600082015250565b7f53616c652077617320656e6465642e0000000000000000000000000000000000600082015250565b7f506c65617365207375626d6974207468652061736b696e67207072696365206960008201527f6e206f7264657220746f20636f6d706c6574652074686520707572636861736560208201527f2e00000000000000000000000000000000000000000000000000000000000000604082015250565b7f45524331393637557067726164653a207570677261646520627265616b73206660008201527f7572746865722075706772616465730000000000000000000000000000000000602082015250565b7f4f776e61626c653a206e6577206f776e657220697320746865207a65726f206160008201527f6464726573730000000000000000000000000000000000000000000000000000602082015250565b7f46756e6374696f6e206d7573742062652063616c6c6564207468726f7567682060008201527f64656c656761746563616c6c0000000000000000000000000000000000000000602082015250565b7f496e76616c69642073616c652073656c6c657200000000000000000000000000600082015250565b7f46756e6374696f6e206d7573742062652063616c6c6564207468726f7567682060008201527f6163746976652070726f78790000000000000000000000000000000000000000602082015250565b7f4661696c20746f207472616e7366657220746f6b656e00000000000000000000600082015250565b7f496e697469616c697a61626c653a20636f6e747261637420697320616c72656160008201527f647920696e697469616c697a6564000000000000000000000000000000000000602082015250565b7f455243313936373a206e657720696d706c656d656e746174696f6e206973206e60008201527f6f74206120636f6e747261637400000000000000000000000000000000000000602082015250565b7f4f776e61626c653a2063616c6c6572206973206e6f7420746865206f776e6572600082015250565b7f4e6f7420656e6f75676820616c6c6f77616e6365000000000000000000000000600082015250565b7f416464726573733a2064656c65676174652063616c6c20746f206e6f6e2d636f60008201527f6e74726163740000000000000000000000000000000000000000000000000000602082015250565b7f42757965722069732073656c6c6572206f662074686973206974656d2e000000600082015250565b7f5265656e7472616e637947756172643a207265656e7472616e742063616c6c00600082015250565b7f5072696365206d757374206265206174206c6561737420312077656900000000600082015250565b6147b981614202565b81146147c457600080fd5b50565b6147d081614214565b81146147db57600080fd5b50565b6147e78161426c565b81146147f257600080fd5b5056fe416464726573733a206c6f772d6c6576656c2064656c65676174652063616c6c206661696c6564a2646970667358221220ae005fe8286c2e1bf157fe854614122882586e28bba55a7c51e98196c6b72e6564736f6c63430008020033",
  "linkReferences": {},
  "deployedLinkReferences": {}
}