{
  "_format": "hh-sol-artifact-1",
  "contractName": "MasterChef",
  "sourceName": "contracts/MasterChef.sol",
  "abi": [
    {
      "anonymous": false,
      "inputs": [
        {
          "indexed": false,
          "internalType": "address",
          "name": "previousAdmin",
          "type": "address"
        },
        {
          "indexed": false,
          "internalType": "address",
          "name": "newAdmin",
          "type": "address"
        }
      ],
      "name": "AdminChanged",
      "type": "event"
    },
    {
      "anonymous": false,
      "inputs": [
        {
          "indexed": true,
          "internalType": "address",
          "name": "beacon",
          "type": "address"
        }
      ],
      "name": "BeaconUpgraded",
      "type": "event"
    },
    {
      "anonymous": false,
      "inputs": [
        {
          "indexed": true,
          "internalType": "address",
          "name": "user",
          "type": "address"
        },
        {
          "indexed": true,
          "internalType": "uint256",
          "name": "pid",
          "type": "uint256"
        },
        {
          "indexed": false,
          "internalType": "uint256",
          "name": "amount",
          "type": "uint256"
        },
        {
          "indexed": false,
          "internalType": "uint256",
          "name": "timestamp",
          "type": "uint256"
        }
      ],
      "name": "Deposit",
      "type": "event"
    },
    {
      "anonymous": false,
      "inputs": [
        {
          "indexed": true,
          "internalType": "address",
          "name": "user",
          "type": "address"
        },
        {
          "indexed": true,
          "internalType": "uint256",
          "name": "pid",
          "type": "uint256"
        },
        {
          "indexed": false,
          "internalType": "uint256",
          "name": "amount",
          "type": "uint256"
        }
      ],
      "name": "EmergencyWithdraw",
      "type": "event"
    },
    {
      "anonymous": false,
      "inputs": [
        {
          "indexed": true,
          "internalType": "address",
          "name": "previousOwner",
          "type": "address"
        },
        {
          "indexed": true,
          "internalType": "address",
          "name": "newOwner",
          "type": "address"
        }
      ],
      "name": "OwnershipTransferred",
      "type": "event"
    },
    {
      "anonymous": false,
      "inputs": [
        {
          "indexed": true,
          "internalType": "address",
          "name": "implementation",
          "type": "address"
        }
      ],
      "name": "Upgraded",
      "type": "event"
    },
    {
      "anonymous": false,
      "inputs": [
        {
          "indexed": true,
          "internalType": "address",
          "name": "user",
          "type": "address"
        },
        {
          "indexed": true,
          "internalType": "uint256",
          "name": "pid",
          "type": "uint256"
        },
        {
          "indexed": false,
          "internalType": "uint256",
          "name": "amount",
          "type": "uint256"
        }
      ],
      "name": "Withdraw",
      "type": "event"
    },
    {
      "inputs": [],
      "name": "BONUS_MULTIPLIER",
      "outputs": [
        {
          "internalType": "uint256",
          "name": "",
          "type": "uint256"
        }
      ],
      "stateMutability": "view",
      "type": "function"
    },
    {
      "inputs": [
        {
          "internalType": "uint256",
          "name": "_allocPoint",
          "type": "uint256"
        },
        {
          "internalType": "contract IERC20Upgradeable",
          "name": "_lpToken",
          "type": "address"
        },
        {
          "internalType": "bool",
          "name": "_withUpdate",
          "type": "bool"
        }
      ],
      "name": "add",
      "outputs": [],
      "stateMutability": "nonpayable",
      "type": "function"
    },
    {
      "inputs": [
        {
          "internalType": "uint256",
          "name": "_pid",
          "type": "uint256"
        },
        {
          "internalType": "uint256",
          "name": "_amount",
          "type": "uint256"
        }
      ],
      "name": "deposit",
      "outputs": [],
      "stateMutability": "nonpayable",
      "type": "function"
    },
    {
      "inputs": [
        {
          "internalType": "address",
          "name": "_devaddr",
          "type": "address"
        }
      ],
      "name": "dev",
      "outputs": [],
      "stateMutability": "nonpayable",
      "type": "function"
    },
    {
      "inputs": [],
      "name": "devaddr",
      "outputs": [
        {
          "internalType": "address",
          "name": "",
          "type": "address"
        }
      ],
      "stateMutability": "view",
      "type": "function"
    },
    {
      "inputs": [
        {
          "internalType": "uint256",
          "name": "_pid",
          "type": "uint256"
        }
      ],
      "name": "emergencyWithdraw",
      "outputs": [],
      "stateMutability": "nonpayable",
      "type": "function"
    },
    {
      "inputs": [
        {
          "internalType": "uint256",
          "name": "_from",
          "type": "uint256"
        },
        {
          "internalType": "uint256",
          "name": "_to",
          "type": "uint256"
        }
      ],
      "name": "getMultiplier",
      "outputs": [
        {
          "internalType": "uint256",
          "name": "",
          "type": "uint256"
        }
      ],
      "stateMutability": "view",
      "type": "function"
    },
    {
      "inputs": [],
      "name": "howl",
      "outputs": [
        {
          "internalType": "contract IERC20Upgradeable",
          "name": "",
          "type": "address"
        }
      ],
      "stateMutability": "view",
      "type": "function"
    },
    {
      "inputs": [],
      "name": "howlPerBlock",
      "outputs": [
        {
          "internalType": "uint256",
          "name": "",
          "type": "uint256"
        }
      ],
      "stateMutability": "view",
      "type": "function"
    },
    {
      "inputs": [
        {
          "internalType": "address",
          "name": "_howl",
          "type": "address"
        },
        {
          "internalType": "address",
          "name": "_devaddr",
          "type": "address"
        },
        {
          "internalType": "uint256",
          "name": "_howlPerBlock",
          "type": "uint256"
        },
        {
          "internalType": "uint256",
          "name": "_startBlock",
          "type": "uint256"
        }
      ],
      "name": "initialize",
      "outputs": [],
      "stateMutability": "nonpayable",
      "type": "function"
    },
    {
      "inputs": [],
      "name": "lockTime",
      "outputs": [
        {
          "internalType": "uint256",
          "name": "",
          "type": "uint256"
        }
      ],
      "stateMutability": "view",
      "type": "function"
    },
    {
      "inputs": [],
      "name": "massUpdatePools",
      "outputs": [],
      "stateMutability": "nonpayable",
      "type": "function"
    },
    {
      "inputs": [],
      "name": "minter",
      "outputs": [
        {
          "internalType": "address",
          "name": "",
          "type": "address"
        }
      ],
      "stateMutability": "view",
      "type": "function"
    },
    {
      "inputs": [],
      "name": "owner",
      "outputs": [
        {
          "internalType": "address",
          "name": "",
          "type": "address"
        }
      ],
      "stateMutability": "view",
      "type": "function"
    },
    {
      "inputs": [
        {
          "internalType": "uint256",
          "name": "_pid",
          "type": "uint256"
        },
        {
          "internalType": "address",
          "name": "_user",
          "type": "address"
        }
      ],
      "name": "pendingHowl",
      "outputs": [
        {
          "internalType": "uint256",
          "name": "",
          "type": "uint256"
        }
      ],
      "stateMutability": "view",
      "type": "function"
    },
    {
      "inputs": [
        {
          "internalType": "uint256",
          "name": "",
          "type": "uint256"
        }
      ],
      "name": "poolInfo",
      "outputs": [
        {
          "internalType": "contract IERC20Upgradeable",
          "name": "lpToken",
          "type": "address"
        },
        {
          "internalType": "uint256",
          "name": "allocPoint",
          "type": "uint256"
        },
        {
          "internalType": "uint256",
          "name": "lastRewardBlock",
          "type": "uint256"
        },
        {
          "internalType": "uint256",
          "name": "accHowlPerShare",
          "type": "uint256"
        }
      ],
      "stateMutability": "view",
      "type": "function"
    },
    {
      "inputs": [],
      "name": "poolLength",
      "outputs": [
        {
          "internalType": "uint256",
          "name": "",
          "type": "uint256"
        }
      ],
      "stateMutability": "view",
      "type": "function"
    },
    {
      "inputs": [],
      "name": "renounceOwnership",
      "outputs": [],
      "stateMutability": "nonpayable",
      "type": "function"
    },
    {
      "inputs": [
        {
          "internalType": "uint256",
          "name": "_pid",
          "type": "uint256"
        },
        {
          "internalType": "uint256",
          "name": "_allocPoint",
          "type": "uint256"
        },
        {
          "internalType": "bool",
          "name": "_withUpdate",
          "type": "bool"
        }
      ],
      "name": "set",
      "outputs": [],
      "stateMutability": "nonpayable",
      "type": "function"
    },
    {
      "inputs": [
        {
          "internalType": "uint256",
          "name": "_howlPerBlock",
          "type": "uint256"
        }
      ],
      "name": "setHowlPerBlock",
      "outputs": [],
      "stateMutability": "nonpayable",
      "type": "function"
    },
    {
      "inputs": [
        {
          "internalType": "uint256",
          "name": "_lockTime",
          "type": "uint256"
        }
      ],
      "name": "setLockTime",
      "outputs": [],
      "stateMutability": "nonpayable",
      "type": "function"
    },
    {
      "inputs": [
        {
          "internalType": "address",
          "name": "_minter",
          "type": "address"
        }
      ],
      "name": "setMinter",
      "outputs": [],
      "stateMutability": "nonpayable",
      "type": "function"
    },
    {
      "inputs": [],
      "name": "startBlock",
      "outputs": [
        {
          "internalType": "uint256",
          "name": "",
          "type": "uint256"
        }
      ],
      "stateMutability": "view",
      "type": "function"
    },
    {
      "inputs": [],
      "name": "totalAllocPoint",
      "outputs": [
        {
          "internalType": "uint256",
          "name": "",
          "type": "uint256"
        }
      ],
      "stateMutability": "view",
      "type": "function"
    },
    {
      "inputs": [],
      "name": "totalStakedHWL",
      "outputs": [
        {
          "internalType": "uint256",
          "name": "",
          "type": "uint256"
        }
      ],
      "stateMutability": "view",
      "type": "function"
    },
    {
      "inputs": [
        {
          "internalType": "address",
          "name": "newOwner",
          "type": "address"
        }
      ],
      "name": "transferOwnership",
      "outputs": [],
      "stateMutability": "nonpayable",
      "type": "function"
    },
    {
      "inputs": [
        {
          "internalType": "uint256",
          "name": "multiplierNumber",
          "type": "uint256"
        }
      ],
      "name": "updateMultiplier",
      "outputs": [],
      "stateMutability": "nonpayable",
      "type": "function"
    },
    {
      "inputs": [
        {
          "internalType": "uint256",
          "name": "_pid",
          "type": "uint256"
        }
      ],
      "name": "updatePool",
      "outputs": [],
      "stateMutability": "nonpayable",
      "type": "function"
    },
    {
      "inputs": [
        {
          "internalType": "address",
          "name": "newImplementation",
          "type": "address"
        }
      ],
      "name": "upgradeTo",
      "outputs": [],
      "stateMutability": "nonpayable",
      "type": "function"
    },
    {
      "inputs": [
        {
          "internalType": "address",
          "name": "newImplementation",
          "type": "address"
        },
        {
          "internalType": "bytes",
          "name": "data",
          "type": "bytes"
        }
      ],
      "name": "upgradeToAndCall",
      "outputs": [],
      "stateMutability": "payable",
      "type": "function"
    },
    {
      "inputs": [
        {
          "internalType": "uint256",
          "name": "",
          "type": "uint256"
        },
        {
          "internalType": "address",
          "name": "",
          "type": "address"
        }
      ],
      "name": "userInfo",
      "outputs": [
        {
          "internalType": "uint256",
          "name": "amount",
          "type": "uint256"
        },
        {
          "internalType": "uint256",
          "name": "rewardDebt",
          "type": "uint256"
        },
        {
          "internalType": "uint256",
          "name": "lastDepositTimestamp",
          "type": "uint256"
        }
      ],
      "stateMutability": "view",
      "type": "function"
    },
    {
      "inputs": [
        {
          "internalType": "uint256",
          "name": "_pid",
          "type": "uint256"
        },
        {
          "internalType": "uint256",
          "name": "_amount",
          "type": "uint256"
        }
      ],
      "name": "withdraw",
      "outputs": [],
      "stateMutability": "nonpayable",
      "type": "function"
    }
  ],
  "bytecode": "0x60a06040523073ffffffffffffffffffffffffffffffffffffffff1660809073ffffffffffffffffffffffffffffffffffffffff1660601b81525034801561004657600080fd5b5060805160601c61417f61007a6000396000818161097601528181610a0501528181610e030152610e92015261417f6000f3fe6080604052600436106101e35760003560e01c80636803c78d11610102578063a5b2ca6b11610095578063e2bbb15811610064578063e2bbb1581461069e578063eb990c59146106c7578063f2fde38b146106f0578063fca3b5aa14610719576101e3565b8063a5b2ca6b146105e4578063ae04d45d1461060d578063d3cfc55b14610636578063d49e77cd14610673576101e3565b80638d88a90e116100d15780638d88a90e146105145780638da5cb5b1461053d5780638dbb1e3a1461056857806393f1a40b146105a5576101e3565b80636803c78d1461047c578063715018a6146104a75780638650d1db146104be5780638aa28550146104e9576101e3565b8063441a3e701161017a5780635312ea8e116101495780635312ea8e146103ea5780635ffe614614610413578063630b5ba11461043c57806364482f7914610453576101e3565b8063441a3e701461035157806348cd4cb11461037a5780634f1ef286146103a557806351eb05a6146103c1576101e3565b80631526fe27116101b65780631526fe271461029457806317caf6f1146102d45780631eaaa045146102ff5780633659cfe614610328576101e3565b806305e5fd9c146101e85780630754617214610213578063081e3eda1461023e5780630d66808714610269575b600080fd5b3480156101f457600080fd5b506101fd610742565b60405161020a91906138cd565b60405180910390f35b34801561021f57600080fd5b50610228610748565b60405161023591906135f0565b60405180910390f35b34801561024a57600080fd5b5061025361076e565b60405161026091906138cd565b60405180910390f35b34801561027557600080fd5b5061027e61077b565b60405161028b91906138cd565b60405180910390f35b3480156102a057600080fd5b506102bb60048036038101906102b691906131cd565b610781565b6040516102cb9493929190613686565b60405180910390f35b3480156102e057600080fd5b506102e96107e1565b6040516102f691906138cd565b60405180910390f35b34801561030b57600080fd5b506103266004803603810190610321919061325b565b6107e7565b005b34801561033457600080fd5b5061034f600480360381019061034a91906130c4565b610974565b005b34801561035d57600080fd5b50610378600480360381019061037391906132aa565b610b23565b005b34801561038657600080fd5b5061038f610dfb565b60405161039c91906138cd565b60405180910390f35b6103bf60048036038101906103ba9190613150565b610e01565b005b3480156103cd57600080fd5b506103e860048036038101906103e391906131cd565b610f3e565b005b3480156103f657600080fd5b50610411600480360381019061040c91906131cd565b611194565b005b34801561041f57600080fd5b5061043a600480360381019061043591906131cd565b6112f3565b005b34801561044857600080fd5b50610451611379565b005b34801561045f57600080fd5b5061047a600480360381019061047591906132e6565b6113ac565b005b34801561048857600080fd5b50610491611512565b60405161049e919061366b565b60405180910390f35b3480156104b357600080fd5b506104bc611538565b005b3480156104ca57600080fd5b506104d36115c0565b6040516104e091906138cd565b60405180910390f35b3480156104f557600080fd5b506104fe6115c6565b60405161050b91906138cd565b60405180910390f35b34801561052057600080fd5b5061053b600480360381019061053691906130c4565b6115cc565b005b34801561054957600080fd5b506105526116a0565b60405161055f91906135f0565b60405180910390f35b34801561057457600080fd5b5061058f600480360381019061058a91906132aa565b6116ca565b60405161059c91906138cd565b60405180910390f35b3480156105b157600080fd5b506105cc60048036038101906105c7919061321f565b6116fb565b6040516105db93929190613911565b60405180910390f35b3480156105f057600080fd5b5061060b600480360381019061060691906131cd565b611732565b005b34801561061957600080fd5b50610634600480360381019061062f91906131cd565b6117fb565b005b34801561064257600080fd5b5061065d6004803603810190610658919061321f565b611881565b60405161066a91906138cd565b60405180910390f35b34801561067f57600080fd5b50610688611aeb565b60405161069591906135f0565b60405180910390f35b3480156106aa57600080fd5b506106c560048036038101906106c091906132aa565b611b11565b005b3480156106d357600080fd5b506106ee60048036038101906106e991906130ed565b611d66565b005b3480156106fc57600080fd5b50610717600480360381019061071291906130c4565b612010565b005b34801561072557600080fd5b50610740600480360381019061073b91906130c4565b612108565b005b60cb5481565b60ce60009054906101000a900473ffffffffffffffffffffffffffffffffffffffff1681565b600060d080549050905090565b60cd5481565b60d0818154811061079157600080fd5b90600052602060002090600402016000915090508060000160009054906101000a900473ffffffffffffffffffffffffffffffffffffffff16908060010154908060020154908060030154905084565b60d25481565b6107ef6121c8565b73ffffffffffffffffffffffffffffffffffffffff1661080d6116a0565b73ffffffffffffffffffffffffffffffffffffffff1614610863576040517f08c379a000000000000000000000000000000000000000000000000000000000815260040161085a9061380d565b60405180910390fd5b801561087257610871611379565b5b600060d35443116108855760d354610887565b435b905061089e8460d2546121d090919063ffffffff16565b60d28190555060d060405180608001604052808573ffffffffffffffffffffffffffffffffffffffff1681526020018681526020018381526020016000815250908060018154018082558091505060019003906000526020600020906004020160009091909190915060008201518160000160006101000a81548173ffffffffffffffffffffffffffffffffffffffff021916908373ffffffffffffffffffffffffffffffffffffffff160217905550602082015181600101556040820151816002015560608201518160030155505050505050565b7f000000000000000000000000000000000000000000000000000000000000000073ffffffffffffffffffffffffffffffffffffffff163073ffffffffffffffffffffffffffffffffffffffff161415610a03576040517f08c379a00000000000000000000000000000000000000000000000000000000081526004016109fa9061372d565b60405180910390fd5b7f000000000000000000000000000000000000000000000000000000000000000073ffffffffffffffffffffffffffffffffffffffff16610a426121e6565b73ffffffffffffffffffffffffffffffffffffffff1614610a98576040517f08c379a0000000000000000000000000000000000000000000000000000000008152600401610a8f9061374d565b60405180910390fd5b610aa18161223d565b610b2081600067ffffffffffffffff811115610ae6577f4e487b7100000000000000000000000000000000000000000000000000000000600052604160045260246000fd5b6040519080825280601f01601f191660200182016040528015610b185781602001600182028036833780820191505090505b5060006122bc565b50565b600060d08381548110610b5f577f4e487b7100000000000000000000000000000000000000000000000000000000600052603260045260246000fd5b90600052602060002090600402019050600060d1600085815260200190815260200160002060003373ffffffffffffffffffffffffffffffffffffffff1673ffffffffffffffffffffffffffffffffffffffff168152602001908152602001600020905042610bdd60cd5483600201546121d090919063ffffffff16565b1115610c1e576040517f08c379a0000000000000000000000000000000000000000000000000000000008152600401610c15906138ad565b60405180910390fd5b8281600001541015610c65576040517f08c379a0000000000000000000000000000000000000000000000000000000008152600401610c5c9061386d565b60405180910390fd5b610c6e84610f3e565b6000610cb88260010154610caa64e8d4a51000610c9c8760030154876000015461248d90919063ffffffff16565b6124a390919063ffffffff16565b6124b990919063ffffffff16565b90506000811115610cce57610ccd33826124cf565b5b6000841115610d6b576000851415610cfc57610cf58460cf546124b990919063ffffffff16565b60cf819055505b610d138483600001546124b990919063ffffffff16565b8260000181905550610d6a33858560000160009054906101000a900473ffffffffffffffffffffffffffffffffffffffff1673ffffffffffffffffffffffffffffffffffffffff166126f19092919063ffffffff16565b5b610d9d64e8d4a51000610d8f8560030154856000015461248d90919063ffffffff16565b6124a390919063ffffffff16565b8260010181905550843373ffffffffffffffffffffffffffffffffffffffff167ff279e6a1f5e320cca91135676d9cb6e44ca8a08c0b88342bcdb1144f6511b56886604051610dec91906138cd565b60405180910390a35050505050565b60d35481565b7f000000000000000000000000000000000000000000000000000000000000000073ffffffffffffffffffffffffffffffffffffffff163073ffffffffffffffffffffffffffffffffffffffff161415610e90576040517f08c379a0000000000000000000000000000000000000000000000000000000008152600401610e879061372d565b60405180910390fd5b7f000000000000000000000000000000000000000000000000000000000000000073ffffffffffffffffffffffffffffffffffffffff16610ecf6121e6565b73ffffffffffffffffffffffffffffffffffffffff1614610f25576040517f08c379a0000000000000000000000000000000000000000000000000000000008152600401610f1c9061374d565b60405180910390fd5b610f2e8261223d565b610f3a828260016122bc565b5050565b600060d08281548110610f7a577f4e487b7100000000000000000000000000000000000000000000000000000000600052603260045260246000fd5b9060005260206000209060040201905080600201544311610f9b5750611191565b6000808314611056578160000160009054906101000a900473ffffffffffffffffffffffffffffffffffffffff1673ffffffffffffffffffffffffffffffffffffffff166370a08231306040518263ffffffff1660e01b815260040161100191906135f0565b60206040518083038186803b15801561101957600080fd5b505afa15801561102d573d6000803e3d6000fd5b505050506040513d601f19601f8201168201806040525081019061105191906131f6565b61105a565b60cf545b90506000811415611075574382600201819055505050611191565b60006110858360020154436116ca565b905060006110c860d2546110ba86600101546110ac60cb548761248d90919063ffffffff16565b61248d90919063ffffffff16565b6124a390919063ffffffff16565b905061113b60ce60009054906101000a900473ffffffffffffffffffffffffffffffffffffffff16308360c960009054906101000a900473ffffffffffffffffffffffffffffffffffffffff1673ffffffffffffffffffffffffffffffffffffffff16612777909392919063ffffffff16565b61117b6111688461115a64e8d4a510008561248d90919063ffffffff16565b6124a390919063ffffffff16565b85600301546121d090919063ffffffff16565b8460030181905550438460020181905550505050505b50565b600060d082815481106111d0577f4e487b7100000000000000000000000000000000000000000000000000000000600052603260045260246000fd5b90600052602060002090600402019050600060d1600084815260200190815260200160002060003373ffffffffffffffffffffffffffffffffffffffff1673ffffffffffffffffffffffffffffffffffffffff16815260200190815260200160002090506112873382600001548460000160009054906101000a900473ffffffffffffffffffffffffffffffffffffffff1673ffffffffffffffffffffffffffffffffffffffff166126f19092919063ffffffff16565b823373ffffffffffffffffffffffffffffffffffffffff167fbb757047c2b5f3974fe26b7c10f732e7bce710b0952a71082702781e62ae059583600001546040516112d291906138cd565b60405180910390a36000816000018190555060008160010181905550505050565b6112fb6121c8565b73ffffffffffffffffffffffffffffffffffffffff166113196116a0565b73ffffffffffffffffffffffffffffffffffffffff161461136f576040517f08c379a00000000000000000000000000000000000000000000000000000000081526004016113669061380d565b60405180910390fd5b8060cc8190555050565b600060d080549050905060005b818110156113a85761139781610f3e565b806113a190613bd6565b9050611386565b5050565b6113b46121c8565b73ffffffffffffffffffffffffffffffffffffffff166113d26116a0565b73ffffffffffffffffffffffffffffffffffffffff1614611428576040517f08c379a000000000000000000000000000000000000000000000000000000000815260040161141f9061380d565b60405180910390fd5b801561143757611436611379565b5b600060d08481548110611473577f4e487b7100000000000000000000000000000000000000000000000000000000600052603260045260246000fd5b90600052602060002090600402016001015490508260d085815481106114c2577f4e487b7100000000000000000000000000000000000000000000000000000000600052603260045260246000fd5b90600052602060002090600402016001018190555082811461150c57611505836114f78360d2546124b990919063ffffffff16565b6121d090919063ffffffff16565b60d2819055505b50505050565b60c960009054906101000a900473ffffffffffffffffffffffffffffffffffffffff1681565b6115406121c8565b73ffffffffffffffffffffffffffffffffffffffff1661155e6116a0565b73ffffffffffffffffffffffffffffffffffffffff16146115b4576040517f08c379a00000000000000000000000000000000000000000000000000000000081526004016115ab9061380d565b60405180910390fd5b6115be6000612800565b565b60cf5481565b60cc5481565b60ca60009054906101000a900473ffffffffffffffffffffffffffffffffffffffff1673ffffffffffffffffffffffffffffffffffffffff163373ffffffffffffffffffffffffffffffffffffffff161461165c576040517f08c379a0000000000000000000000000000000000000000000000000000000008152600401611653906137ad565b60405180910390fd5b8060ca60006101000a81548173ffffffffffffffffffffffffffffffffffffffff021916908373ffffffffffffffffffffffffffffffffffffffff16021790555050565b6000609760009054906101000a900473ffffffffffffffffffffffffffffffffffffffff16905090565b60006116f360cc546116e585856124b990919063ffffffff16565b61248d90919063ffffffff16565b905092915050565b60d1602052816000526040600020602052806000526040600020600091509150508060000154908060010154908060020154905083565b61173a6121c8565b73ffffffffffffffffffffffffffffffffffffffff166117586116a0565b73ffffffffffffffffffffffffffffffffffffffff16146117ae576040517f08c379a00000000000000000000000000000000000000000000000000000000081526004016117a59061380d565b60405180910390fd5b600081116117f1576040517f08c379a00000000000000000000000000000000000000000000000000000000081526004016117e8906137cd565b60405180910390fd5b8060cb8190555050565b6118036121c8565b73ffffffffffffffffffffffffffffffffffffffff166118216116a0565b73ffffffffffffffffffffffffffffffffffffffff1614611877576040517f08c379a000000000000000000000000000000000000000000000000000000000815260040161186e9061380d565b60405180910390fd5b8060cd8190555050565b60008060d084815481106118be577f4e487b7100000000000000000000000000000000000000000000000000000000600052603260045260246000fd5b90600052602060002090600402019050600060d1600086815260200190815260200160002060008573ffffffffffffffffffffffffffffffffffffffff1673ffffffffffffffffffffffffffffffffffffffff168152602001908152602001600020905060008260030154905060008087146119e6578360000160009054906101000a900473ffffffffffffffffffffffffffffffffffffffff1673ffffffffffffffffffffffffffffffffffffffff166370a08231306040518263ffffffff1660e01b815260040161199191906135f0565b60206040518083038186803b1580156119a957600080fd5b505afa1580156119bd573d6000803e3d6000fd5b505050506040513d601f19601f820116820180604052508101906119e191906131f6565b6119ea565b60cf545b9050836002015443118015611a00575060008114155b15611a9b576000611a158560020154436116ca565b90506000611a5860d254611a4a8860010154611a3c60cb548761248d90919063ffffffff16565b61248d90919063ffffffff16565b6124a390919063ffffffff16565b9050611a96611a8784611a7964e8d4a510008561248d90919063ffffffff16565b6124a390919063ffffffff16565b856121d090919063ffffffff16565b935050505b611adf8360010154611ad164e8d4a51000611ac386886000015461248d90919063ffffffff16565b6124a390919063ffffffff16565b6124b990919063ffffffff16565b94505050505092915050565b60ca60009054906101000a900473ffffffffffffffffffffffffffffffffffffffff1681565b600060d08381548110611b4d577f4e487b7100000000000000000000000000000000000000000000000000000000600052603260045260246000fd5b90600052602060002090600402019050600060d1600085815260200190815260200160002060003373ffffffffffffffffffffffffffffffffffffffff1673ffffffffffffffffffffffffffffffffffffffff1681526020019081526020016000209050611bba84610f3e565b600081600001541115611c29576000611c118260010154611c0364e8d4a51000611bf58760030154876000015461248d90919063ffffffff16565b6124a390919063ffffffff16565b6124b990919063ffffffff16565b90506000811115611c2757611c2633826124cf565b5b505b6000831115611cc857611c833330858560000160009054906101000a900473ffffffffffffffffffffffffffffffffffffffff1673ffffffffffffffffffffffffffffffffffffffff16612777909392919063ffffffff16565b6000841415611ca857611ca18360cf546121d090919063ffffffff16565b60cf819055505b611cbf8382600001546121d090919063ffffffff16565b81600001819055505b611cfa64e8d4a51000611cec8460030154846000015461248d90919063ffffffff16565b6124a390919063ffffffff16565b8160010181905550428160020181905550833373ffffffffffffffffffffffffffffffffffffffff167f36af321ec8d3c75236829c5317affd40ddb308863a1236d2d277a4025cccee1e858460020154604051611d589291906138e8565b60405180910390a350505050565b600060019054906101000a900460ff1680611d8c575060008054906101000a900460ff16155b611dcb576040517f08c379a0000000000000000000000000000000000000000000000000000000008152600401611dc29061378d565b60405180910390fd5b60008060019054906101000a900460ff161590508015611e1b576001600060016101000a81548160ff02191690831515021790555060016000806101000a81548160ff0219169083151502179055505b611e236128c6565b8460c960006101000a81548173ffffffffffffffffffffffffffffffffffffffff021916908373ffffffffffffffffffffffffffffffffffffffff1602179055508360ca60006101000a81548173ffffffffffffffffffffffffffffffffffffffff021916908373ffffffffffffffffffffffffffffffffffffffff1602179055508260cb819055508160d381905550600160cc81905550600060cd81905550600060d281905550611ed36116a0565b60ce60006101000a81548173ffffffffffffffffffffffffffffffffffffffff021916908373ffffffffffffffffffffffffffffffffffffffff16021790555060d060405180608001604052808773ffffffffffffffffffffffffffffffffffffffff1681526020016103e881526020018481526020016000815250908060018154018082558091505060019003906000526020600020906004020160009091909190915060008201518160000160006101000a81548173ffffffffffffffffffffffffffffffffffffffff021916908373ffffffffffffffffffffffffffffffffffffffff16021790555060208201518160010155604082015181600201556060820151816003015550506103e860d28190555080156120095760008060016101000a81548160ff0219169083151502179055505b5050505050565b6120186121c8565b73ffffffffffffffffffffffffffffffffffffffff166120366116a0565b73ffffffffffffffffffffffffffffffffffffffff161461208c576040517f08c379a00000000000000000000000000000000000000000000000000000000081526004016120839061380d565b60405180910390fd5b600073ffffffffffffffffffffffffffffffffffffffff168173ffffffffffffffffffffffffffffffffffffffff1614156120fc576040517f08c379a00000000000000000000000000000000000000000000000000000000081526004016120f39061370d565b60405180910390fd5b61210581612800565b50565b6121106121c8565b73ffffffffffffffffffffffffffffffffffffffff1661212e6116a0565b73ffffffffffffffffffffffffffffffffffffffff1614612184576040517f08c379a000000000000000000000000000000000000000000000000000000000815260040161217b9061380d565b60405180910390fd5b8060ce60006101000a81548173ffffffffffffffffffffffffffffffffffffffff021916908373ffffffffffffffffffffffffffffffffffffffff16021790555050565b600033905090565b600081836121de91906139d0565b905092915050565b60006122147f360894a13ba1a3210667c828492db98dca3e2076cc3735a920a3ca505d382bbc60001b6129af565b60000160009054906101000a900473ffffffffffffffffffffffffffffffffffffffff16905090565b6122456121c8565b73ffffffffffffffffffffffffffffffffffffffff166122636116a0565b73ffffffffffffffffffffffffffffffffffffffff16146122b9576040517f08c379a00000000000000000000000000000000000000000000000000000000081526004016122b09061380d565b60405180910390fd5b50565b60006122c66121e6565b90506122d1846129b9565b6000835111806122de5750815b156122ef576122ed8484612a72565b505b600061231d7f4910fdfa16fed3260ed0e7147f7cc6da11a60208b5b9406d12a635614ffd914360001b612b56565b90508060000160009054906101000a900460ff166124865760018160000160006101000a81548160ff0219169083151502179055506123e9858360405160240161236791906135f0565b6040516020818303038152906040527f3659cfe6000000000000000000000000000000000000000000000000000000007bffffffffffffffffffffffffffffffffffffffffffffffffffffffff19166020820180517bffffffffffffffffffffffffffffffffffffffffffffffffffffffff8381831617835250505050612a72565b5060008160000160006101000a81548160ff02191690831515021790555061240f6121e6565b73ffffffffffffffffffffffffffffffffffffffff168273ffffffffffffffffffffffffffffffffffffffff161461247c576040517f08c379a0000000000000000000000000000000000000000000000000000000008152600401612473906136ed565b60405180910390fd5b61248585612b60565b5b5050505050565b6000818361249b9190613a57565b905092915050565b600081836124b19190613a26565b905092915050565b600081836124c79190613ab1565b905092915050565b600060c960009054906101000a900473ffffffffffffffffffffffffffffffffffffffff1673ffffffffffffffffffffffffffffffffffffffff166370a08231306040518263ffffffff1660e01b815260040161252c91906135f0565b60206040518083038186803b15801561254457600080fd5b505afa158015612558573d6000803e3d6000fd5b505050506040513d601f19601f8201168201806040525081019061257c91906131f6565b90508082111561263b5760c960009054906101000a900473ffffffffffffffffffffffffffffffffffffffff1673ffffffffffffffffffffffffffffffffffffffff1663a9059cbb84836040518363ffffffff1660e01b81526004016125e3929190613642565b602060405180830381600087803b1580156125fd57600080fd5b505af1158015612611573d6000803e3d6000fd5b505050506040513d601f19601f8201168201806040525081019061263591906131a4565b506126ec565b60c960009054906101000a900473ffffffffffffffffffffffffffffffffffffffff1673ffffffffffffffffffffffffffffffffffffffff1663a9059cbb84846040518363ffffffff1660e01b8152600401612698929190613642565b602060405180830381600087803b1580156126b257600080fd5b505af11580156126c6573d6000803e3d6000fd5b505050506040513d601f19601f820116820180604052508101906126ea91906131a4565b505b505050565b6127728363a9059cbb60e01b8484604051602401612710929190613642565b604051602081830303815290604052907bffffffffffffffffffffffffffffffffffffffffffffffffffffffff19166020820180517bffffffffffffffffffffffffffffffffffffffffffffffffffffffff8381831617835250505050612baf565b505050565b6127fa846323b872dd60e01b8585856040516024016127989392919061360b565b604051602081830303815290604052907bffffffffffffffffffffffffffffffffffffffffffffffffffffffff19166020820180517bffffffffffffffffffffffffffffffffffffffffffffffffffffffff8381831617835250505050612baf565b50505050565b6000609760009054906101000a900473ffffffffffffffffffffffffffffffffffffffff16905081609760006101000a81548173ffffffffffffffffffffffffffffffffffffffff021916908373ffffffffffffffffffffffffffffffffffffffff1602179055508173ffffffffffffffffffffffffffffffffffffffff168173ffffffffffffffffffffffffffffffffffffffff167f8be0079c531659141344cd1fd0a4f28419497f9722a3daafe3b4186f6b6457e060405160405180910390a35050565b600060019054906101000a900460ff16806128ec575060008054906101000a900460ff16155b61292b576040517f08c379a00000000000000000000000000000000000000000000000000000000081526004016129229061378d565b60405180910390fd5b60008060019054906101000a900460ff16159050801561297b576001600060016101000a81548160ff02191690831515021790555060016000806101000a81548160ff0219169083151502179055505b612983612c76565b61298b612d4f565b80156129ac5760008060016101000a81548160ff0219169083151502179055505b50565b6000819050919050565b6129c281612e38565b612a01576040517f08c379a00000000000000000000000000000000000000000000000000000000081526004016129f8906137ed565b60405180910390fd5b80612a2e7f360894a13ba1a3210667c828492db98dca3e2076cc3735a920a3ca505d382bbc60001b6129af565b60000160006101000a81548173ffffffffffffffffffffffffffffffffffffffff021916908373ffffffffffffffffffffffffffffffffffffffff16021790555050565b6060612a7d83612e38565b612abc576040517f08c379a0000000000000000000000000000000000000000000000000000000008152600401612ab39061382d565b60405180910390fd5b6000808473ffffffffffffffffffffffffffffffffffffffff1684604051612ae491906135d9565b600060405180830381855af49150503d8060008114612b1f576040519150601f19603f3d011682016040523d82523d6000602084013e612b24565b606091505b5091509150612b4c828260405180606001604052806027815260200161412360279139612e4b565b9250505092915050565b6000819050919050565b612b69816129b9565b8073ffffffffffffffffffffffffffffffffffffffff167fbc7cd75a20ee27fd9adebab32041f755214dbc6bffa90cc0225b39da2e5c2d3b60405160405180910390a250565b6000612c11826040518060400160405280602081526020017f5361666545524332303a206c6f772d6c6576656c2063616c6c206661696c65648152508573ffffffffffffffffffffffffffffffffffffffff16612eb29092919063ffffffff16565b9050600081511115612c715780806020019051810190612c3191906131a4565b612c70576040517f08c379a0000000000000000000000000000000000000000000000000000000008152600401612c679061388d565b60405180910390fd5b5b505050565b600060019054906101000a900460ff1680612c9c575060008054906101000a900460ff16155b612cdb576040517f08c379a0000000000000000000000000000000000000000000000000000000008152600401612cd29061378d565b60405180910390fd5b60008060019054906101000a900460ff161590508015612d2b576001600060016101000a81548160ff02191690831515021790555060016000806101000a81548160ff0219169083151502179055505b8015612d4c5760008060016101000a81548160ff0219169083151502179055505b50565b600060019054906101000a900460ff1680612d75575060008054906101000a900460ff16155b612db4576040517f08c379a0000000000000000000000000000000000000000000000000000000008152600401612dab9061378d565b60405180910390fd5b60008060019054906101000a900460ff161590508015612e04576001600060016101000a81548160ff02191690831515021790555060016000806101000a81548160ff0219169083151502179055505b612e14612e0f6121c8565b612800565b8015612e355760008060016101000a81548160ff0219169083151502179055505b50565b600080823b905060008111915050919050565b60608315612e5b57829050612eab565b600083511115612e6e5782518084602001fd5b816040517f08c379a0000000000000000000000000000000000000000000000000000000008152600401612ea291906136cb565b60405180910390fd5b9392505050565b6060612ec18484600085612eca565b90509392505050565b606082471015612f0f576040517f08c379a0000000000000000000000000000000000000000000000000000000008152600401612f069061376d565b60405180910390fd5b612f1885612e38565b612f57576040517f08c379a0000000000000000000000000000000000000000000000000000000008152600401612f4e9061384d565b60405180910390fd5b6000808673ffffffffffffffffffffffffffffffffffffffff168587604051612f8091906135d9565b60006040518083038185875af1925050503d8060008114612fbd576040519150601f19603f3d011682016040523d82523d6000602084013e612fc2565b606091505b5091509150612fd2828286612e4b565b92505050949350505050565b6000612ff1612fec8461396d565b613948565b90508281526020810184848401111561300957600080fd5b613014848285613b63565b509392505050565b60008135905061302b816140c6565b92915050565b600081359050613040816140dd565b92915050565b600081519050613055816140dd565b92915050565b600082601f83011261306c57600080fd5b813561307c848260208601612fde565b91505092915050565b600081359050613094816140f4565b92915050565b6000813590506130a98161410b565b92915050565b6000815190506130be8161410b565b92915050565b6000602082840312156130d657600080fd5b60006130e48482850161301c565b91505092915050565b6000806000806080858703121561310357600080fd5b60006131118782880161301c565b94505060206131228782880161301c565b93505060406131338782880161309a565b92505060606131448782880161309a565b91505092959194509250565b6000806040838503121561316357600080fd5b60006131718582860161301c565b925050602083013567ffffffffffffffff81111561318e57600080fd5b61319a8582860161305b565b9150509250929050565b6000602082840312156131b657600080fd5b60006131c484828501613046565b91505092915050565b6000602082840312156131df57600080fd5b60006131ed8482850161309a565b91505092915050565b60006020828403121561320857600080fd5b6000613216848285016130af565b91505092915050565b6000806040838503121561323257600080fd5b60006132408582860161309a565b92505060206132518582860161301c565b9150509250929050565b60008060006060848603121561327057600080fd5b600061327e8682870161309a565b935050602061328f86828701613085565b92505060406132a086828701613031565b9150509250925092565b600080604083850312156132bd57600080fd5b60006132cb8582860161309a565b92505060206132dc8582860161309a565b9150509250929050565b6000806000606084860312156132fb57600080fd5b60006133098682870161309a565b935050602061331a8682870161309a565b925050604061332b86828701613031565b9150509250925092565b61333e81613ae5565b82525050565b600061334f8261399e565b61335981856139b4565b9350613369818560208601613b72565b80840191505092915050565b61337e81613b3f565b82525050565b600061338f826139a9565b61339981856139bf565b93506133a9818560208601613b72565b6133b281613cac565b840191505092915050565b60006133ca602f836139bf565b91506133d582613cbd565b604082019050919050565b60006133ed6026836139bf565b91506133f882613d0c565b604082019050919050565b6000613410602c836139bf565b915061341b82613d5b565b604082019050919050565b6000613433602c836139bf565b915061343e82613daa565b604082019050919050565b60006134566026836139bf565b915061346182613df9565b604082019050919050565b6000613479602e836139bf565b915061348482613e48565b604082019050919050565b600061349c6009836139bf565b91506134a782613e97565b602082019050919050565b60006134bf6032836139bf565b91506134ca82613ec0565b604082019050919050565b60006134e2602d836139bf565b91506134ed82613f0f565b604082019050919050565b60006135056020836139bf565b915061351082613f5e565b602082019050919050565b60006135286026836139bf565b915061353382613f87565b604082019050919050565b600061354b601d836139bf565b915061355682613fd6565b602082019050919050565b600061356e6012836139bf565b915061357982613fff565b602082019050919050565b6000613591602a836139bf565b915061359c82614028565b604082019050919050565b60006135b46036836139bf565b91506135bf82614077565b604082019050919050565b6135d381613b35565b82525050565b60006135e58284613344565b915081905092915050565b60006020820190506136056000830184613335565b92915050565b60006060820190506136206000830186613335565b61362d6020830185613335565b61363a60408301846135ca565b949350505050565b60006040820190506136576000830185613335565b61366460208301846135ca565b9392505050565b60006020820190506136806000830184613375565b92915050565b600060808201905061369b6000830187613375565b6136a860208301866135ca565b6136b560408301856135ca565b6136c260608301846135ca565b95945050505050565b600060208201905081810360008301526136e58184613384565b905092915050565b60006020820190508181036000830152613706816133bd565b9050919050565b60006020820190508181036000830152613726816133e0565b9050919050565b6000602082019050818103600083015261374681613403565b9050919050565b6000602082019050818103600083015261376681613426565b9050919050565b6000602082019050818103600083015261378681613449565b9050919050565b600060208201905081810360008301526137a68161346c565b9050919050565b600060208201905081810360008301526137c68161348f565b9050919050565b600060208201905081810360008301526137e6816134b2565b9050919050565b60006020820190508181036000830152613806816134d5565b9050919050565b60006020820190508181036000830152613826816134f8565b9050919050565b600060208201905081810360008301526138468161351b565b9050919050565b600060208201905081810360008301526138668161353e565b9050919050565b6000602082019050818103600083015261388681613561565b9050919050565b600060208201905081810360008301526138a681613584565b9050919050565b600060208201905081810360008301526138c6816135a7565b9050919050565b60006020820190506138e260008301846135ca565b92915050565b60006040820190506138fd60008301856135ca565b61390a60208301846135ca565b9392505050565b600060608201905061392660008301866135ca565b61393360208301856135ca565b61394060408301846135ca565b949350505050565b6000613952613963565b905061395e8282613ba5565b919050565b6000604051905090565b600067ffffffffffffffff82111561398857613987613c7d565b5b61399182613cac565b9050602081019050919050565b600081519050919050565b600081519050919050565b600081905092915050565b600082825260208201905092915050565b60006139db82613b35565b91506139e683613b35565b9250827fffffffffffffffffffffffffffffffffffffffffffffffffffffffffffffffff03821115613a1b57613a1a613c1f565b5b828201905092915050565b6000613a3182613b35565b9150613a3c83613b35565b925082613a4c57613a4b613c4e565b5b828204905092915050565b6000613a6282613b35565b9150613a6d83613b35565b9250817fffffffffffffffffffffffffffffffffffffffffffffffffffffffffffffffff0483118215151615613aa657613aa5613c1f565b5b828202905092915050565b6000613abc82613b35565b9150613ac783613b35565b925082821015613ada57613ad9613c1f565b5b828203905092915050565b6000613af082613b15565b9050919050565b60008115159050919050565b6000613b0e82613ae5565b9050919050565b600073ffffffffffffffffffffffffffffffffffffffff82169050919050565b6000819050919050565b6000613b4a82613b51565b9050919050565b6000613b5c82613b15565b9050919050565b82818337600083830152505050565b60005b83811015613b90578082015181840152602081019050613b75565b83811115613b9f576000848401525b50505050565b613bae82613cac565b810181811067ffffffffffffffff82111715613bcd57613bcc613c7d565b5b80604052505050565b6000613be182613b35565b91507fffffffffffffffffffffffffffffffffffffffffffffffffffffffffffffffff821415613c1457613c13613c1f565b5b600182019050919050565b7f4e487b7100000000000000000000000000000000000000000000000000000000600052601160045260246000fd5b7f4e487b7100000000000000000000000000000000000000000000000000000000600052601260045260246000fd5b7f4e487b7100000000000000000000000000000000000000000000000000000000600052604160045260246000fd5b6000601f19601f8301169050919050565b7f45524331393637557067726164653a207570677261646520627265616b73206660008201527f7572746865722075706772616465730000000000000000000000000000000000602082015250565b7f4f776e61626c653a206e6577206f776e657220697320746865207a65726f206160008201527f6464726573730000000000000000000000000000000000000000000000000000602082015250565b7f46756e6374696f6e206d7573742062652063616c6c6564207468726f7567682060008201527f64656c656761746563616c6c0000000000000000000000000000000000000000602082015250565b7f46756e6374696f6e206d7573742062652063616c6c6564207468726f7567682060008201527f6163746976652070726f78790000000000000000000000000000000000000000602082015250565b7f416464726573733a20696e73756666696369656e742062616c616e636520666f60008201527f722063616c6c0000000000000000000000000000000000000000000000000000602082015250565b7f496e697469616c697a61626c653a20636f6e747261637420697320616c72656160008201527f647920696e697469616c697a6564000000000000000000000000000000000000602082015250565b7f6465763a207775743f0000000000000000000000000000000000000000000000600082015250565b7f736574486f776c506572426c6f636b3a20616d6f756e74206d7573742062652060008201527f67726561746572207468616e2031207765690000000000000000000000000000602082015250565b7f455243313936373a206e657720696d706c656d656e746174696f6e206973206e60008201527f6f74206120636f6e747261637400000000000000000000000000000000000000602082015250565b7f4f776e61626c653a2063616c6c6572206973206e6f7420746865206f776e6572600082015250565b7f416464726573733a2064656c65676174652063616c6c20746f206e6f6e2d636f60008201527f6e74726163740000000000000000000000000000000000000000000000000000602082015250565b7f416464726573733a2063616c6c20746f206e6f6e2d636f6e7472616374000000600082015250565b7f77697468647261773a206e6f7420676f6f640000000000000000000000000000600082015250565b7f5361666545524332303a204552433230206f7065726174696f6e20646964206e60008201527f6f74207375636365656400000000000000000000000000000000000000000000602082015250565b7f77697468647261773a207769746864726177616c206973206f6e6c792061766160008201527f696c61626c65206166746572206c6f636b2074696d6500000000000000000000602082015250565b6140cf81613ae5565b81146140da57600080fd5b50565b6140e681613af7565b81146140f157600080fd5b50565b6140fd81613b03565b811461410857600080fd5b50565b61411481613b35565b811461411f57600080fd5b5056fe416464726573733a206c6f772d6c6576656c2064656c65676174652063616c6c206661696c6564a2646970667358221220ffd91a5e6ec8a75aefa68cc48fdcb5d97113af800f7859b41866303309a3912e64736f6c63430008020033",
  "linkReferences": {},
  "deployedLinkReferences": {}
}