{
  "_format": "hh-sol-artifact-1",
  "contractName": "MasterChef",
  "sourceName": "contracts/MasterChef.sol",
  "abi": [
    {
      "inputs": [
        {
          "internalType": "address",
          "name": "_howl",
          "type": "address"
        },
        {
          "internalType": "address",
          "name": "_devaddr",
          "type": "address"
        },
        {
          "internalType": "uint256",
          "name": "_howlPerBlock",
          "type": "uint256"
        },
        {
          "internalType": "uint256",
          "name": "_startBlock",
          "type": "uint256"
        }
      ],
      "stateMutability": "nonpayable",
      "type": "constructor"
    },
    {
      "anonymous": false,
      "inputs": [
        {
          "indexed": true,
          "internalType": "address",
          "name": "user",
          "type": "address"
        },
        {
          "indexed": true,
          "internalType": "uint256",
          "name": "pid",
          "type": "uint256"
        },
        {
          "indexed": false,
          "internalType": "uint256",
          "name": "amount",
          "type": "uint256"
        },
        {
          "indexed": false,
          "internalType": "uint256",
          "name": "timestamp",
          "type": "uint256"
        }
      ],
      "name": "Deposit",
      "type": "event"
    },
    {
      "anonymous": false,
      "inputs": [
        {
          "indexed": true,
          "internalType": "address",
          "name": "user",
          "type": "address"
        },
        {
          "indexed": true,
          "internalType": "uint256",
          "name": "pid",
          "type": "uint256"
        },
        {
          "indexed": false,
          "internalType": "uint256",
          "name": "tokenId",
          "type": "uint256"
        },
        {
          "indexed": false,
          "internalType": "uint256",
          "name": "timestamp",
          "type": "uint256"
        }
      ],
      "name": "DepositNFT",
      "type": "event"
    },
    {
      "anonymous": false,
      "inputs": [
        {
          "indexed": true,
          "internalType": "address",
          "name": "user",
          "type": "address"
        },
        {
          "indexed": true,
          "internalType": "uint256",
          "name": "pid",
          "type": "uint256"
        },
        {
          "indexed": false,
          "internalType": "uint256",
          "name": "amount",
          "type": "uint256"
        }
      ],
      "name": "EmergencyWithdraw",
      "type": "event"
    },
    {
      "anonymous": false,
      "inputs": [
        {
          "indexed": true,
          "internalType": "address",
          "name": "user",
          "type": "address"
        },
        {
          "indexed": true,
          "internalType": "uint256",
          "name": "pid",
          "type": "uint256"
        },
        {
          "indexed": false,
          "internalType": "uint256",
          "name": "tokenId",
          "type": "uint256"
        }
      ],
      "name": "EmergencyWithdrawNFT",
      "type": "event"
    },
    {
      "anonymous": false,
      "inputs": [
        {
          "indexed": true,
          "internalType": "address",
          "name": "previousOwner",
          "type": "address"
        },
        {
          "indexed": true,
          "internalType": "address",
          "name": "newOwner",
          "type": "address"
        }
      ],
      "name": "OwnershipTransferred",
      "type": "event"
    },
    {
      "anonymous": false,
      "inputs": [
        {
          "indexed": true,
          "internalType": "address",
          "name": "user",
          "type": "address"
        },
        {
          "indexed": true,
          "internalType": "uint256",
          "name": "pid",
          "type": "uint256"
        },
        {
          "indexed": false,
          "internalType": "uint256",
          "name": "amount",
          "type": "uint256"
        }
      ],
      "name": "Withdraw",
      "type": "event"
    },
    {
      "anonymous": false,
      "inputs": [
        {
          "indexed": true,
          "internalType": "address",
          "name": "user",
          "type": "address"
        },
        {
          "indexed": true,
          "internalType": "uint256",
          "name": "pid",
          "type": "uint256"
        },
        {
          "indexed": false,
          "internalType": "uint256",
          "name": "tokenId",
          "type": "uint256"
        }
      ],
      "name": "WithdrawNFT",
      "type": "event"
    },
    {
      "inputs": [],
      "name": "BONUS_MULTIPLIER",
      "outputs": [
        {
          "internalType": "uint256",
          "name": "",
          "type": "uint256"
        }
      ],
      "stateMutability": "view",
      "type": "function"
    },
    {
      "inputs": [
        {
          "internalType": "uint256",
          "name": "_allocPoint",
          "type": "uint256"
        },
        {
          "internalType": "contract IERC20",
          "name": "_lpToken",
          "type": "address"
        },
        {
          "internalType": "bool",
          "name": "_withUpdate",
          "type": "bool"
        }
      ],
      "name": "add",
      "outputs": [],
      "stateMutability": "nonpayable",
      "type": "function"
    },
    {
      "inputs": [
        {
          "internalType": "uint256",
          "name": "_pid",
          "type": "uint256"
        },
        {
          "internalType": "uint256",
          "name": "_amount",
          "type": "uint256"
        }
      ],
      "name": "deposit",
      "outputs": [],
      "stateMutability": "nonpayable",
      "type": "function"
    },
    {
      "inputs": [
        {
          "internalType": "address",
          "name": "_devaddr",
          "type": "address"
        }
      ],
      "name": "dev",
      "outputs": [],
      "stateMutability": "nonpayable",
      "type": "function"
    },
    {
      "inputs": [],
      "name": "devaddr",
      "outputs": [
        {
          "internalType": "address",
          "name": "",
          "type": "address"
        }
      ],
      "stateMutability": "view",
      "type": "function"
    },
    {
      "inputs": [
        {
          "internalType": "uint256",
          "name": "_pid",
          "type": "uint256"
        }
      ],
      "name": "emergencyWithdraw",
      "outputs": [],
      "stateMutability": "nonpayable",
      "type": "function"
    },
    {
      "inputs": [
        {
          "internalType": "uint256",
          "name": "_from",
          "type": "uint256"
        },
        {
          "internalType": "uint256",
          "name": "_to",
          "type": "uint256"
        }
      ],
      "name": "getMultiplier",
      "outputs": [
        {
          "internalType": "uint256",
          "name": "",
          "type": "uint256"
        }
      ],
      "stateMutability": "view",
      "type": "function"
    },
    {
      "inputs": [],
      "name": "howl",
      "outputs": [
        {
          "internalType": "contract HOWLCapped",
          "name": "",
          "type": "address"
        }
      ],
      "stateMutability": "view",
      "type": "function"
    },
    {
      "inputs": [],
      "name": "howlPerBlock",
      "outputs": [
        {
          "internalType": "uint256",
          "name": "",
          "type": "uint256"
        }
      ],
      "stateMutability": "view",
      "type": "function"
    },
    {
      "inputs": [],
      "name": "lockTime",
      "outputs": [
        {
          "internalType": "uint256",
          "name": "",
          "type": "uint256"
        }
      ],
      "stateMutability": "view",
      "type": "function"
    },
    {
      "inputs": [],
      "name": "massUpdatePools",
      "outputs": [],
      "stateMutability": "nonpayable",
      "type": "function"
    },
    {
      "inputs": [],
      "name": "nft",
      "outputs": [
        {
          "internalType": "contract IGameItem",
          "name": "",
          "type": "address"
        }
      ],
      "stateMutability": "view",
      "type": "function"
    },
    {
      "inputs": [],
      "name": "owner",
      "outputs": [
        {
          "internalType": "address",
          "name": "",
          "type": "address"
        }
      ],
      "stateMutability": "view",
      "type": "function"
    },
    {
      "inputs": [
        {
          "internalType": "uint256",
          "name": "_pid",
          "type": "uint256"
        },
        {
          "internalType": "address",
          "name": "_user",
          "type": "address"
        }
      ],
      "name": "pendingHowl",
      "outputs": [
        {
          "internalType": "uint256",
          "name": "",
          "type": "uint256"
        }
      ],
      "stateMutability": "view",
      "type": "function"
    },
    {
      "inputs": [
        {
          "internalType": "uint256",
          "name": "",
          "type": "uint256"
        }
      ],
      "name": "poolInfo",
      "outputs": [
        {
          "internalType": "contract IERC20",
          "name": "lpToken",
          "type": "address"
        },
        {
          "internalType": "uint256",
          "name": "allocPoint",
          "type": "uint256"
        },
        {
          "internalType": "uint256",
          "name": "lastRewardBlock",
          "type": "uint256"
        },
        {
          "internalType": "uint256",
          "name": "accHowlPerShare",
          "type": "uint256"
        }
      ],
      "stateMutability": "view",
      "type": "function"
    },
    {
      "inputs": [],
      "name": "poolLength",
      "outputs": [
        {
          "internalType": "uint256",
          "name": "",
          "type": "uint256"
        }
      ],
      "stateMutability": "view",
      "type": "function"
    },
    {
      "inputs": [],
      "name": "renounceOwnership",
      "outputs": [],
      "stateMutability": "nonpayable",
      "type": "function"
    },
    {
      "inputs": [
        {
          "internalType": "uint256",
          "name": "_pid",
          "type": "uint256"
        },
        {
          "internalType": "uint256",
          "name": "_allocPoint",
          "type": "uint256"
        },
        {
          "internalType": "bool",
          "name": "_withUpdate",
          "type": "bool"
        }
      ],
      "name": "set",
      "outputs": [],
      "stateMutability": "nonpayable",
      "type": "function"
    },
    {
      "inputs": [],
      "name": "startBlock",
      "outputs": [
        {
          "internalType": "uint256",
          "name": "",
          "type": "uint256"
        }
      ],
      "stateMutability": "view",
      "type": "function"
    },
    {
      "inputs": [],
      "name": "totalAllocPoint",
      "outputs": [
        {
          "internalType": "uint256",
          "name": "",
          "type": "uint256"
        }
      ],
      "stateMutability": "view",
      "type": "function"
    },
    {
      "inputs": [
        {
          "internalType": "address",
          "name": "newOwner",
          "type": "address"
        }
      ],
      "name": "transferOwnership",
      "outputs": [],
      "stateMutability": "nonpayable",
      "type": "function"
    },
    {
      "inputs": [
        {
          "internalType": "uint256",
          "name": "multiplierNumber",
          "type": "uint256"
        }
      ],
      "name": "updateMultiplier",
      "outputs": [],
      "stateMutability": "nonpayable",
      "type": "function"
    },
    {
      "inputs": [
        {
          "internalType": "uint256",
          "name": "_pid",
          "type": "uint256"
        }
      ],
      "name": "updatePool",
      "outputs": [],
      "stateMutability": "nonpayable",
      "type": "function"
    },
    {
      "inputs": [
        {
          "internalType": "uint256",
          "name": "",
          "type": "uint256"
        },
        {
          "internalType": "address",
          "name": "",
          "type": "address"
        }
      ],
      "name": "userInfo",
      "outputs": [
        {
          "internalType": "uint256",
          "name": "amount",
          "type": "uint256"
        },
        {
          "internalType": "uint256",
          "name": "rewardDebt",
          "type": "uint256"
        },
        {
          "internalType": "uint256",
          "name": "lastDepositTimestamp",
          "type": "uint256"
        },
        {
          "internalType": "uint256",
          "name": "lastNFTDepositTimestamp",
          "type": "uint256"
        }
      ],
      "stateMutability": "view",
      "type": "function"
    },
    {
      "inputs": [
        {
          "internalType": "uint256",
          "name": "_pid",
          "type": "uint256"
        },
        {
          "internalType": "uint256",
          "name": "_amount",
          "type": "uint256"
        }
      ],
      "name": "withdraw",
      "outputs": [],
      "stateMutability": "nonpayable",
      "type": "function"
    }
  ],
  "bytecode": "0x608060405260016005556276a70060065560006009553480156200002257600080fd5b5060405162002de238038062002de28339818101604052810190620000489190620002c8565b620000686200005c620001ce60201b60201c565b620001d660201b60201c565b83600160006101000a81548173ffffffffffffffffffffffffffffffffffffffff021916908373ffffffffffffffffffffffffffffffffffffffff16021790555082600360006101000a81548173ffffffffffffffffffffffffffffffffffffffff021916908373ffffffffffffffffffffffffffffffffffffffff1602179055508160048190555080600a8190555060076040518060800160405280600073ffffffffffffffffffffffffffffffffffffffff168152602001600081526020018381526020016000815250908060018154018082558091505060019003906000526020600020906004020160009091909190915060008201518160000160006101000a81548173ffffffffffffffffffffffffffffffffffffffff021916908373ffffffffffffffffffffffffffffffffffffffff160217905550602082015181600101556040820151816002015560608201518160030155505050505050620003a6565b600033905090565b60008060009054906101000a900473ffffffffffffffffffffffffffffffffffffffff169050816000806101000a81548173ffffffffffffffffffffffffffffffffffffffff021916908373ffffffffffffffffffffffffffffffffffffffff1602179055508173ffffffffffffffffffffffffffffffffffffffff168173ffffffffffffffffffffffffffffffffffffffff167f8be0079c531659141344cd1fd0a4f28419497f9722a3daafe3b4186f6b6457e060405160405180910390a35050565b600081519050620002ab8162000372565b92915050565b600081519050620002c2816200038c565b92915050565b60008060008060808587031215620002df57600080fd5b6000620002ef878288016200029a565b945050602062000302878288016200029a565b93505060406200031587828801620002b1565b92505060606200032887828801620002b1565b91505092959194509250565b6000620003418262000348565b9050919050565b600073ffffffffffffffffffffffffffffffffffffffff82169050919050565b6000819050919050565b6200037d8162000334565b81146200038957600080fd5b50565b620003978162000368565b8114620003a357600080fd5b50565b612a2c80620003b66000396000f3fe608060405234801561001057600080fd5b50600436106101735760003560e01c8063630b5ba1116100de5780638da5cb5b11610097578063d3cfc55b11610071578063d3cfc55b146103f4578063d49e77cd14610424578063e2bbb15814610442578063f2fde38b1461045e57610173565b80638da5cb5b146103735780638dbb1e3a1461039157806393f1a40b146103c157610173565b8063630b5ba1146102eb57806364482f79146102f55780636803c78d14610311578063715018a61461032f5780638aa28550146103395780638d88a90e1461035757610173565b8063441a3e7011610130578063441a3e701461023f57806347ccca021461025b57806348cd4cb11461027957806351eb05a6146102975780635312ea8e146102b35780635ffe6146146102cf57610173565b806305e5fd9c14610178578063081e3eda146101965780630d668087146101b45780631526fe27146101d257806317caf6f1146102055780631eaaa04514610223575b600080fd5b61018061047a565b60405161018d9190612439565b60405180910390f35b61019e610480565b6040516101ab9190612439565b60405180910390f35b6101bc61048d565b6040516101c99190612439565b60405180910390f35b6101ec60048036038101906101e79190611ed5565b610493565b6040516101fc94939291906122b7565b60405180910390f35b61020d6104f3565b60405161021a9190612439565b60405180910390f35b61023d60048036038101906102389190611f63565b6104f9565b005b61025960048036038101906102549190611fb2565b610686565b005b610263610939565b60405161027091906122fc565b60405180910390f35b61028161095f565b60405161028e9190612439565b60405180910390f35b6102b160048036038101906102ac9190611ed5565b610965565b005b6102cd60048036038101906102c89190611ed5565b610bfe565b005b6102e960048036038101906102e49190611ed5565b610d5d565b005b6102f3610de3565b005b61030f600480360381019061030a9190611fee565b610e16565b005b610319610f7c565b604051610326919061229c565b60405180910390f35b610337610fa2565b005b61034161102a565b60405161034e9190612439565b60405180910390f35b610371600480360381019061036c9190611e83565b611030565b005b61037b611104565b6040516103889190612221565b60405180910390f35b6103ab60048036038101906103a69190611fb2565b61112d565b6040516103b89190612439565b60405180910390f35b6103db60048036038101906103d69190611f27565b61115e565b6040516103eb949392919061247d565b60405180910390f35b61040e60048036038101906104099190611f27565b61119b565b60405161041b9190612439565b60405180910390f35b61042c6113f5565b6040516104399190612221565b60405180910390f35b61045c60048036038101906104579190611fb2565b61141b565b005b61047860048036038101906104739190611e83565b61164b565b005b60045481565b6000600780549050905090565b60065481565b600781815481106104a357600080fd5b90600052602060002090600402016000915090508060000160009054906101000a900473ffffffffffffffffffffffffffffffffffffffff16908060010154908060020154908060030154905084565b60095481565b610501611743565b73ffffffffffffffffffffffffffffffffffffffff1661051f611104565b73ffffffffffffffffffffffffffffffffffffffff1614610575576040517f08c379a000000000000000000000000000000000000000000000000000000000815260040161056c90612399565b60405180910390fd5b801561058457610583610de3565b5b6000600a54431161059757600a54610599565b435b90506105b08460095461174b90919063ffffffff16565b600981905550600760405180608001604052808573ffffffffffffffffffffffffffffffffffffffff1681526020018681526020018381526020016000815250908060018154018082558091505060019003906000526020600020906004020160009091909190915060008201518160000160006101000a81548173ffffffffffffffffffffffffffffffffffffffff021916908373ffffffffffffffffffffffffffffffffffffffff160217905550602082015181600101556040820151816002015560608201518160030155505050505050565b6000600783815481106106c2577f4e487b7100000000000000000000000000000000000000000000000000000000600052603260045260246000fd5b9060005260206000209060040201905060006008600085815260200190815260200160002060003373ffffffffffffffffffffffffffffffffffffffff1673ffffffffffffffffffffffffffffffffffffffff168152602001908152602001600020905042610740600654836002015461174b90919063ffffffff16565b1115610781576040517f08c379a000000000000000000000000000000000000000000000000000000000815260040161077890612419565b60405180910390fd5b82816000015410156107c8576040517f08c379a00000000000000000000000000000000000000000000000000000000081526004016107bf906123d9565b60405180910390fd5b6107d184610965565b600061081b826001015461080d64e8d4a510006107ff8760030154876000015461176190919063ffffffff16565b61177790919063ffffffff16565b61178d90919063ffffffff16565b905060008111156108315761083033826117a3565b5b60008411156108a95761085184836000015461178d90919063ffffffff16565b82600001819055506108a833858560000160009054906101000a900473ffffffffffffffffffffffffffffffffffffffff1673ffffffffffffffffffffffffffffffffffffffff166119c59092919063ffffffff16565b5b6108db64e8d4a510006108cd8560030154856000015461176190919063ffffffff16565b61177790919063ffffffff16565b8260010181905550843373ffffffffffffffffffffffffffffffffffffffff167ff279e6a1f5e320cca91135676d9cb6e44ca8a08c0b88342bcdb1144f6511b5688660405161092a9190612439565b60405180910390a35050505050565b600260009054906101000a900473ffffffffffffffffffffffffffffffffffffffff1681565b600a5481565b6000600782815481106109a1577f4e487b7100000000000000000000000000000000000000000000000000000000600052603260045260246000fd5b90600052602060002090600402019050806002015443116109c25750610bfb565b60008160000160009054906101000a900473ffffffffffffffffffffffffffffffffffffffff1673ffffffffffffffffffffffffffffffffffffffff166370a08231306040518263ffffffff1660e01b8152600401610a219190612221565b60206040518083038186803b158015610a3957600080fd5b505afa158015610a4d573d6000803e3d6000fd5b505050506040513d601f19601f82011682018060405250810190610a719190611efe565b90506000811415610a8c574382600201819055505050610bfb565b6000610a9c83600201544361112d565b90506000610adf600954610ad18660010154610ac36004548761176190919063ffffffff16565b61176190919063ffffffff16565b61177790919063ffffffff16565b9050600160009054906101000a900473ffffffffffffffffffffffffffffffffffffffff1673ffffffffffffffffffffffffffffffffffffffff166340c10f19600360009054906101000a900473ffffffffffffffffffffffffffffffffffffffff16610b56600a8561177790919063ffffffff16565b6040518363ffffffff1660e01b8152600401610b73929190612273565b600060405180830381600087803b158015610b8d57600080fd5b505af1158015610ba1573d6000803e3d6000fd5b50505050610be5610bd284610bc464e8d4a510008561176190919063ffffffff16565b61177790919063ffffffff16565b856003015461174b90919063ffffffff16565b8460030181905550438460020181905550505050505b50565b600060078281548110610c3a577f4e487b7100000000000000000000000000000000000000000000000000000000600052603260045260246000fd5b9060005260206000209060040201905060006008600084815260200190815260200160002060003373ffffffffffffffffffffffffffffffffffffffff1673ffffffffffffffffffffffffffffffffffffffff1681526020019081526020016000209050610cf13382600001548460000160009054906101000a900473ffffffffffffffffffffffffffffffffffffffff1673ffffffffffffffffffffffffffffffffffffffff166119c59092919063ffffffff16565b823373ffffffffffffffffffffffffffffffffffffffff167fbb757047c2b5f3974fe26b7c10f732e7bce710b0952a71082702781e62ae05958360000154604051610d3c9190612439565b60405180910390a36000816000018190555060008160010181905550505050565b610d65611743565b73ffffffffffffffffffffffffffffffffffffffff16610d83611104565b73ffffffffffffffffffffffffffffffffffffffff1614610dd9576040517f08c379a0000000000000000000000000000000000000000000000000000000008152600401610dd090612399565b60405180910390fd5b8060058190555050565b6000600780549050905060005b81811015610e1257610e0181610965565b80610e0b90612702565b9050610df0565b5050565b610e1e611743565b73ffffffffffffffffffffffffffffffffffffffff16610e3c611104565b73ffffffffffffffffffffffffffffffffffffffff1614610e92576040517f08c379a0000000000000000000000000000000000000000000000000000000008152600401610e8990612399565b60405180910390fd5b8015610ea157610ea0610de3565b5b600060078481548110610edd577f4e487b7100000000000000000000000000000000000000000000000000000000600052603260045260246000fd5b90600052602060002090600402016001015490508260078581548110610f2c577f4e487b7100000000000000000000000000000000000000000000000000000000600052603260045260246000fd5b906000526020600020906004020160010181905550828114610f7657610f6f83610f618360095461178d90919063ffffffff16565b61174b90919063ffffffff16565b6009819055505b50505050565b600160009054906101000a900473ffffffffffffffffffffffffffffffffffffffff1681565b610faa611743565b73ffffffffffffffffffffffffffffffffffffffff16610fc8611104565b73ffffffffffffffffffffffffffffffffffffffff161461101e576040517f08c379a000000000000000000000000000000000000000000000000000000000815260040161101590612399565b60405180910390fd5b6110286000611a4b565b565b60055481565b600360009054906101000a900473ffffffffffffffffffffffffffffffffffffffff1673ffffffffffffffffffffffffffffffffffffffff163373ffffffffffffffffffffffffffffffffffffffff16146110c0576040517f08c379a00000000000000000000000000000000000000000000000000000000081526004016110b790612379565b60405180910390fd5b80600360006101000a81548173ffffffffffffffffffffffffffffffffffffffff021916908373ffffffffffffffffffffffffffffffffffffffff16021790555050565b60008060009054906101000a900473ffffffffffffffffffffffffffffffffffffffff16905090565b6000611156600554611148858561178d90919063ffffffff16565b61176190919063ffffffff16565b905092915050565b6008602052816000526040600020602052806000526040600020600091509150508060000154908060010154908060020154908060040154905084565b600080600784815481106111d8577f4e487b7100000000000000000000000000000000000000000000000000000000600052603260045260246000fd5b9060005260206000209060040201905060006008600086815260200190815260200160002060008573ffffffffffffffffffffffffffffffffffffffff1673ffffffffffffffffffffffffffffffffffffffff168152602001908152602001600020905060008260030154905060008360000160009054906101000a900473ffffffffffffffffffffffffffffffffffffffff1673ffffffffffffffffffffffffffffffffffffffff166370a08231306040518263ffffffff1660e01b81526004016112a49190612221565b60206040518083038186803b1580156112bc57600080fd5b505afa1580156112d0573d6000803e3d6000fd5b505050506040513d601f19601f820116820180604052508101906112f49190611efe565b905083600201544311801561130a575060008114155b156113a557600061131f85600201544361112d565b9050600061136260095461135488600101546113466004548761176190919063ffffffff16565b61176190919063ffffffff16565b61177790919063ffffffff16565b90506113a06113918461138364e8d4a510008561176190919063ffffffff16565b61177790919063ffffffff16565b8561174b90919063ffffffff16565b935050505b6113e983600101546113db64e8d4a510006113cd86886000015461176190919063ffffffff16565b61177790919063ffffffff16565b61178d90919063ffffffff16565b94505050505092915050565b600360009054906101000a900473ffffffffffffffffffffffffffffffffffffffff1681565b600060078381548110611457577f4e487b7100000000000000000000000000000000000000000000000000000000600052603260045260246000fd5b9060005260206000209060040201905060006008600085815260200190815260200160002060003373ffffffffffffffffffffffffffffffffffffffff1673ffffffffffffffffffffffffffffffffffffffff16815260200190815260200160002090506114c484610965565b60008160000154111561153357600061151b826001015461150d64e8d4a510006114ff8760030154876000015461176190919063ffffffff16565b61177790919063ffffffff16565b61178d90919063ffffffff16565b905060008111156115315761153033826117a3565b5b505b60008311156115ad5761158d3330858560000160009054906101000a900473ffffffffffffffffffffffffffffffffffffffff1673ffffffffffffffffffffffffffffffffffffffff16611b0f909392919063ffffffff16565b6115a483826000015461174b90919063ffffffff16565b81600001819055505b6115df64e8d4a510006115d18460030154846000015461176190919063ffffffff16565b61177790919063ffffffff16565b8160010181905550428160020181905550833373ffffffffffffffffffffffffffffffffffffffff167f36af321ec8d3c75236829c5317affd40ddb308863a1236d2d277a4025cccee1e85846002015460405161163d929190612454565b60405180910390a350505050565b611653611743565b73ffffffffffffffffffffffffffffffffffffffff16611671611104565b73ffffffffffffffffffffffffffffffffffffffff16146116c7576040517f08c379a00000000000000000000000000000000000000000000000000000000081526004016116be90612399565b60405180910390fd5b600073ffffffffffffffffffffffffffffffffffffffff168173ffffffffffffffffffffffffffffffffffffffff161415611737576040517f08c379a000000000000000000000000000000000000000000000000000000000815260040161172e90612339565b60405180910390fd5b61174081611a4b565b50565b600033905090565b6000818361175991906124f4565b905092915050565b6000818361176f919061257b565b905092915050565b60008183611785919061254a565b905092915050565b6000818361179b91906125d5565b905092915050565b6000600160009054906101000a900473ffffffffffffffffffffffffffffffffffffffff1673ffffffffffffffffffffffffffffffffffffffff166370a08231306040518263ffffffff1660e01b81526004016118009190612221565b60206040518083038186803b15801561181857600080fd5b505afa15801561182c573d6000803e3d6000fd5b505050506040513d601f19601f820116820180604052508101906118509190611efe565b90508082111561190f57600160009054906101000a900473ffffffffffffffffffffffffffffffffffffffff1673ffffffffffffffffffffffffffffffffffffffff1663a9059cbb84836040518363ffffffff1660e01b81526004016118b7929190612273565b602060405180830381600087803b1580156118d157600080fd5b505af11580156118e5573d6000803e3d6000fd5b505050506040513d601f19601f820116820180604052508101906119099190611eac565b506119c0565b600160009054906101000a900473ffffffffffffffffffffffffffffffffffffffff1673ffffffffffffffffffffffffffffffffffffffff1663a9059cbb84846040518363ffffffff1660e01b815260040161196c929190612273565b602060405180830381600087803b15801561198657600080fd5b505af115801561199a573d6000803e3d6000fd5b505050506040513d601f19601f820116820180604052508101906119be9190611eac565b505b505050565b611a468363a9059cbb60e01b84846040516024016119e4929190612273565b604051602081830303815290604052907bffffffffffffffffffffffffffffffffffffffffffffffffffffffff19166020820180517bffffffffffffffffffffffffffffffffffffffffffffffffffffffff8381831617835250505050611b98565b505050565b60008060009054906101000a900473ffffffffffffffffffffffffffffffffffffffff169050816000806101000a81548173ffffffffffffffffffffffffffffffffffffffff021916908373ffffffffffffffffffffffffffffffffffffffff1602179055508173ffffffffffffffffffffffffffffffffffffffff168173ffffffffffffffffffffffffffffffffffffffff167f8be0079c531659141344cd1fd0a4f28419497f9722a3daafe3b4186f6b6457e060405160405180910390a35050565b611b92846323b872dd60e01b858585604051602401611b309392919061223c565b604051602081830303815290604052907bffffffffffffffffffffffffffffffffffffffffffffffffffffffff19166020820180517bffffffffffffffffffffffffffffffffffffffffffffffffffffffff8381831617835250505050611b98565b50505050565b6000611bfa826040518060400160405280602081526020017f5361666545524332303a206c6f772d6c6576656c2063616c6c206661696c65648152508573ffffffffffffffffffffffffffffffffffffffff16611c5f9092919063ffffffff16565b9050600081511115611c5a5780806020019051810190611c1a9190611eac565b611c59576040517f08c379a0000000000000000000000000000000000000000000000000000000008152600401611c50906123f9565b60405180910390fd5b5b505050565b6060611c6e8484600085611c77565b90509392505050565b606082471015611cbc576040517f08c379a0000000000000000000000000000000000000000000000000000000008152600401611cb390612359565b60405180910390fd5b611cc585611d8b565b611d04576040517f08c379a0000000000000000000000000000000000000000000000000000000008152600401611cfb906123b9565b60405180910390fd5b6000808673ffffffffffffffffffffffffffffffffffffffff168587604051611d2d919061220a565b60006040518083038185875af1925050503d8060008114611d6a576040519150601f19603f3d011682016040523d82523d6000602084013e611d6f565b606091505b5091509150611d7f828286611d9e565b92505050949350505050565b600080823b905060008111915050919050565b60608315611dae57829050611dfe565b600083511115611dc15782518084602001fd5b816040517f08c379a0000000000000000000000000000000000000000000000000000000008152600401611df59190612317565b60405180910390fd5b9392505050565b600081359050611e148161299a565b92915050565b600081359050611e29816129b1565b92915050565b600081519050611e3e816129b1565b92915050565b600081359050611e53816129c8565b92915050565b600081359050611e68816129df565b92915050565b600081519050611e7d816129df565b92915050565b600060208284031215611e9557600080fd5b6000611ea384828501611e05565b91505092915050565b600060208284031215611ebe57600080fd5b6000611ecc84828501611e2f565b91505092915050565b600060208284031215611ee757600080fd5b6000611ef584828501611e59565b91505092915050565b600060208284031215611f1057600080fd5b6000611f1e84828501611e6e565b91505092915050565b60008060408385031215611f3a57600080fd5b6000611f4885828601611e59565b9250506020611f5985828601611e05565b9150509250929050565b600080600060608486031215611f7857600080fd5b6000611f8686828701611e59565b9350506020611f9786828701611e44565b9250506040611fa886828701611e1a565b9150509250925092565b60008060408385031215611fc557600080fd5b6000611fd385828601611e59565b9250506020611fe485828601611e59565b9150509250929050565b60008060006060848603121561200357600080fd5b600061201186828701611e59565b935050602061202286828701611e59565b925050604061203386828701611e1a565b9150509250925092565b61204681612609565b82525050565b6000612057826124c2565b61206181856124d8565b93506120718185602086016126cf565b80840191505092915050565b61208681612663565b82525050565b61209581612687565b82525050565b6120a4816126ab565b82525050565b60006120b5826124cd565b6120bf81856124e3565b93506120cf8185602086016126cf565b6120d8816127a9565b840191505092915050565b60006120f06026836124e3565b91506120fb826127ba565b604082019050919050565b60006121136026836124e3565b915061211e82612809565b604082019050919050565b60006121366009836124e3565b915061214182612858565b602082019050919050565b60006121596020836124e3565b915061216482612881565b602082019050919050565b600061217c601d836124e3565b9150612187826128aa565b602082019050919050565b600061219f6012836124e3565b91506121aa826128d3565b602082019050919050565b60006121c2602a836124e3565b91506121cd826128fc565b604082019050919050565b60006121e56036836124e3565b91506121f08261294b565b604082019050919050565b61220481612659565b82525050565b6000612216828461204c565b915081905092915050565b6000602082019050612236600083018461203d565b92915050565b6000606082019050612251600083018661203d565b61225e602083018561203d565b61226b60408301846121fb565b949350505050565b6000604082019050612288600083018561203d565b61229560208301846121fb565b9392505050565b60006020820190506122b1600083018461207d565b92915050565b60006080820190506122cc600083018761208c565b6122d960208301866121fb565b6122e660408301856121fb565b6122f360608301846121fb565b95945050505050565b6000602082019050612311600083018461209b565b92915050565b6000602082019050818103600083015261233181846120aa565b905092915050565b60006020820190508181036000830152612352816120e3565b9050919050565b6000602082019050818103600083015261237281612106565b9050919050565b6000602082019050818103600083015261239281612129565b9050919050565b600060208201905081810360008301526123b28161214c565b9050919050565b600060208201905081810360008301526123d28161216f565b9050919050565b600060208201905081810360008301526123f281612192565b9050919050565b60006020820190508181036000830152612412816121b5565b9050919050565b60006020820190508181036000830152612432816121d8565b9050919050565b600060208201905061244e60008301846121fb565b92915050565b600060408201905061246960008301856121fb565b61247660208301846121fb565b9392505050565b600060808201905061249260008301876121fb565b61249f60208301866121fb565b6124ac60408301856121fb565b6124b960608301846121fb565b95945050505050565b600081519050919050565b600081519050919050565b600081905092915050565b600082825260208201905092915050565b60006124ff82612659565b915061250a83612659565b9250827fffffffffffffffffffffffffffffffffffffffffffffffffffffffffffffffff0382111561253f5761253e61274b565b5b828201905092915050565b600061255582612659565b915061256083612659565b9250826125705761256f61277a565b5b828204905092915050565b600061258682612659565b915061259183612659565b9250817fffffffffffffffffffffffffffffffffffffffffffffffffffffffffffffffff04831182151516156125ca576125c961274b565b5b828202905092915050565b60006125e082612659565b91506125eb83612659565b9250828210156125fe576125fd61274b565b5b828203905092915050565b600061261482612639565b9050919050565b60008115159050919050565b600061263282612609565b9050919050565b600073ffffffffffffffffffffffffffffffffffffffff82169050919050565b6000819050919050565b600061266e82612675565b9050919050565b600061268082612639565b9050919050565b600061269282612699565b9050919050565b60006126a482612639565b9050919050565b60006126b6826126bd565b9050919050565b60006126c882612639565b9050919050565b60005b838110156126ed5780820151818401526020810190506126d2565b838111156126fc576000848401525b50505050565b600061270d82612659565b91507fffffffffffffffffffffffffffffffffffffffffffffffffffffffffffffffff8214156127405761273f61274b565b5b600182019050919050565b7f4e487b7100000000000000000000000000000000000000000000000000000000600052601160045260246000fd5b7f4e487b7100000000000000000000000000000000000000000000000000000000600052601260045260246000fd5b6000601f19601f8301169050919050565b7f4f776e61626c653a206e6577206f776e657220697320746865207a65726f206160008201527f6464726573730000000000000000000000000000000000000000000000000000602082015250565b7f416464726573733a20696e73756666696369656e742062616c616e636520666f60008201527f722063616c6c0000000000000000000000000000000000000000000000000000602082015250565b7f6465763a207775743f0000000000000000000000000000000000000000000000600082015250565b7f4f776e61626c653a2063616c6c6572206973206e6f7420746865206f776e6572600082015250565b7f416464726573733a2063616c6c20746f206e6f6e2d636f6e7472616374000000600082015250565b7f77697468647261773a206e6f7420676f6f640000000000000000000000000000600082015250565b7f5361666545524332303a204552433230206f7065726174696f6e20646964206e60008201527f6f74207375636365656400000000000000000000000000000000000000000000602082015250565b7f77697468647261773a207769746864726177616c206973206f6e6c792061766160008201527f696c61626c65206166746572206c6f636b2074696d6500000000000000000000602082015250565b6129a381612609565b81146129ae57600080fd5b50565b6129ba8161261b565b81146129c557600080fd5b50565b6129d181612627565b81146129dc57600080fd5b50565b6129e881612659565b81146129f357600080fd5b5056fea264697066735822122058033d568a438be620cc3124941df21467d288ea9726a7041d225b4948caec7164736f6c63430008020033",
  "linkReferences": {},
  "deployedLinkReferences": {}
}