{
  "_format": "hh-sol-artifact-1",
  "contractName": "MasterChef",
  "sourceName": "contracts/MasterChef.sol",
  "abi": [
    {
      "inputs": [
        {
          "internalType": "address",
          "name": "_howl",
          "type": "address"
        },
        {
          "internalType": "address",
          "name": "_devaddr",
          "type": "address"
        },
        {
          "internalType": "uint256",
          "name": "_howlPerBlock",
          "type": "uint256"
        },
        {
          "internalType": "uint256",
          "name": "_startBlock",
          "type": "uint256"
        }
      ],
      "stateMutability": "nonpayable",
      "type": "constructor"
    },
    {
      "anonymous": false,
      "inputs": [
        {
          "indexed": true,
          "internalType": "address",
          "name": "user",
          "type": "address"
        },
        {
          "indexed": true,
          "internalType": "uint256",
          "name": "pid",
          "type": "uint256"
        },
        {
          "indexed": false,
          "internalType": "uint256",
          "name": "amount",
          "type": "uint256"
        },
        {
          "indexed": false,
          "internalType": "uint256",
          "name": "timestamp",
          "type": "uint256"
        }
      ],
      "name": "Deposit",
      "type": "event"
    },
    {
      "anonymous": false,
      "inputs": [
        {
          "indexed": true,
          "internalType": "address",
          "name": "user",
          "type": "address"
        },
        {
          "indexed": true,
          "internalType": "uint256",
          "name": "pid",
          "type": "uint256"
        },
        {
          "indexed": false,
          "internalType": "uint256[]",
          "name": "tokenIds",
          "type": "uint256[]"
        },
        {
          "indexed": false,
          "internalType": "uint256",
          "name": "timestamp",
          "type": "uint256"
        }
      ],
      "name": "DepositNFT",
      "type": "event"
    },
    {
      "anonymous": false,
      "inputs": [
        {
          "indexed": true,
          "internalType": "address",
          "name": "user",
          "type": "address"
        },
        {
          "indexed": true,
          "internalType": "uint256",
          "name": "pid",
          "type": "uint256"
        },
        {
          "indexed": false,
          "internalType": "uint256",
          "name": "amount",
          "type": "uint256"
        }
      ],
      "name": "EmergencyWithdraw",
      "type": "event"
    },
    {
      "anonymous": false,
      "inputs": [
        {
          "indexed": true,
          "internalType": "address",
          "name": "user",
          "type": "address"
        },
        {
          "indexed": true,
          "internalType": "uint256",
          "name": "pid",
          "type": "uint256"
        },
        {
          "indexed": false,
          "internalType": "uint256",
          "name": "tokenId",
          "type": "uint256"
        }
      ],
      "name": "EmergencyWithdrawNFT",
      "type": "event"
    },
    {
      "anonymous": false,
      "inputs": [
        {
          "indexed": true,
          "internalType": "address",
          "name": "previousOwner",
          "type": "address"
        },
        {
          "indexed": true,
          "internalType": "address",
          "name": "newOwner",
          "type": "address"
        }
      ],
      "name": "OwnershipTransferred",
      "type": "event"
    },
    {
      "anonymous": false,
      "inputs": [
        {
          "indexed": true,
          "internalType": "address",
          "name": "user",
          "type": "address"
        },
        {
          "indexed": true,
          "internalType": "uint256",
          "name": "pid",
          "type": "uint256"
        },
        {
          "indexed": false,
          "internalType": "uint256",
          "name": "amount",
          "type": "uint256"
        }
      ],
      "name": "Withdraw",
      "type": "event"
    },
    {
      "anonymous": false,
      "inputs": [
        {
          "indexed": true,
          "internalType": "address",
          "name": "user",
          "type": "address"
        },
        {
          "indexed": true,
          "internalType": "uint256",
          "name": "pid",
          "type": "uint256"
        },
        {
          "indexed": false,
          "internalType": "uint256[]",
          "name": "tokenIds",
          "type": "uint256[]"
        }
      ],
      "name": "WithdrawNFT",
      "type": "event"
    },
    {
      "inputs": [],
      "name": "BONUS_MULTIPLIER",
      "outputs": [
        {
          "internalType": "uint256",
          "name": "",
          "type": "uint256"
        }
      ],
      "stateMutability": "view",
      "type": "function"
    },
    {
      "inputs": [
        {
          "internalType": "uint256",
          "name": "_allocPoint",
          "type": "uint256"
        },
        {
          "internalType": "contract IERC20",
          "name": "_lpToken",
          "type": "address"
        },
        {
          "internalType": "bool",
          "name": "_withUpdate",
          "type": "bool"
        }
      ],
      "name": "add",
      "outputs": [],
      "stateMutability": "nonpayable",
      "type": "function"
    },
    {
      "inputs": [
        {
          "internalType": "uint256",
          "name": "_pid",
          "type": "uint256"
        },
        {
          "internalType": "uint256",
          "name": "_amount",
          "type": "uint256"
        }
      ],
      "name": "deposit",
      "outputs": [],
      "stateMutability": "nonpayable",
      "type": "function"
    },
    {
      "inputs": [
        {
          "internalType": "uint256[]",
          "name": "_nftIds",
          "type": "uint256[]"
        }
      ],
      "name": "depositNFT",
      "outputs": [],
      "stateMutability": "nonpayable",
      "type": "function"
    },
    {
      "inputs": [
        {
          "internalType": "address",
          "name": "_devaddr",
          "type": "address"
        }
      ],
      "name": "dev",
      "outputs": [],
      "stateMutability": "nonpayable",
      "type": "function"
    },
    {
      "inputs": [],
      "name": "devaddr",
      "outputs": [
        {
          "internalType": "address",
          "name": "",
          "type": "address"
        }
      ],
      "stateMutability": "view",
      "type": "function"
    },
    {
      "inputs": [
        {
          "internalType": "uint256",
          "name": "_pid",
          "type": "uint256"
        }
      ],
      "name": "emergencyWithdraw",
      "outputs": [],
      "stateMutability": "nonpayable",
      "type": "function"
    },
    {
      "inputs": [
        {
          "internalType": "uint256",
          "name": "_from",
          "type": "uint256"
        },
        {
          "internalType": "uint256",
          "name": "_to",
          "type": "uint256"
        }
      ],
      "name": "getMultiplier",
      "outputs": [
        {
          "internalType": "uint256",
          "name": "",
          "type": "uint256"
        }
      ],
      "stateMutability": "view",
      "type": "function"
    },
    {
      "inputs": [],
      "name": "getPoolNftStakingPoint",
      "outputs": [
        {
          "internalType": "uint256",
          "name": "",
          "type": "uint256"
        }
      ],
      "stateMutability": "view",
      "type": "function"
    },
    {
      "inputs": [],
      "name": "howl",
      "outputs": [
        {
          "internalType": "contract HOWLCapped",
          "name": "",
          "type": "address"
        }
      ],
      "stateMutability": "view",
      "type": "function"
    },
    {
      "inputs": [],
      "name": "howlPerBlock",
      "outputs": [
        {
          "internalType": "uint256",
          "name": "",
          "type": "uint256"
        }
      ],
      "stateMutability": "view",
      "type": "function"
    },
    {
      "inputs": [],
      "name": "lockTime",
      "outputs": [
        {
          "internalType": "uint256",
          "name": "",
          "type": "uint256"
        }
      ],
      "stateMutability": "view",
      "type": "function"
    },
    {
      "inputs": [],
      "name": "massUpdatePools",
      "outputs": [],
      "stateMutability": "nonpayable",
      "type": "function"
    },
    {
      "inputs": [],
      "name": "nft",
      "outputs": [
        {
          "internalType": "contract IGameItem",
          "name": "",
          "type": "address"
        }
      ],
      "stateMutability": "view",
      "type": "function"
    },
    {
      "inputs": [],
      "name": "owner",
      "outputs": [
        {
          "internalType": "address",
          "name": "",
          "type": "address"
        }
      ],
      "stateMutability": "view",
      "type": "function"
    },
    {
      "inputs": [
        {
          "internalType": "uint256",
          "name": "_pid",
          "type": "uint256"
        },
        {
          "internalType": "address",
          "name": "_user",
          "type": "address"
        }
      ],
      "name": "pendingHowl",
      "outputs": [
        {
          "internalType": "uint256",
          "name": "",
          "type": "uint256"
        }
      ],
      "stateMutability": "view",
      "type": "function"
    },
    {
      "inputs": [
        {
          "internalType": "uint256",
          "name": "",
          "type": "uint256"
        }
      ],
      "name": "poolInfo",
      "outputs": [
        {
          "internalType": "contract IERC20",
          "name": "lpToken",
          "type": "address"
        },
        {
          "internalType": "uint256",
          "name": "allocPoint",
          "type": "uint256"
        },
        {
          "internalType": "uint256",
          "name": "lastRewardBlock",
          "type": "uint256"
        },
        {
          "internalType": "uint256",
          "name": "accHowlPerShare",
          "type": "uint256"
        },
        {
          "internalType": "uint256",
          "name": "totalNftStakingPoint",
          "type": "uint256"
        }
      ],
      "stateMutability": "view",
      "type": "function"
    },
    {
      "inputs": [],
      "name": "poolLength",
      "outputs": [
        {
          "internalType": "uint256",
          "name": "",
          "type": "uint256"
        }
      ],
      "stateMutability": "view",
      "type": "function"
    },
    {
      "inputs": [],
      "name": "renounceOwnership",
      "outputs": [],
      "stateMutability": "nonpayable",
      "type": "function"
    },
    {
      "inputs": [
        {
          "internalType": "uint256",
          "name": "_pid",
          "type": "uint256"
        },
        {
          "internalType": "uint256",
          "name": "_allocPoint",
          "type": "uint256"
        },
        {
          "internalType": "bool",
          "name": "_withUpdate",
          "type": "bool"
        }
      ],
      "name": "set",
      "outputs": [],
      "stateMutability": "nonpayable",
      "type": "function"
    },
    {
      "inputs": [],
      "name": "startBlock",
      "outputs": [
        {
          "internalType": "uint256",
          "name": "",
          "type": "uint256"
        }
      ],
      "stateMutability": "view",
      "type": "function"
    },
    {
      "inputs": [],
      "name": "totalAllocPoint",
      "outputs": [
        {
          "internalType": "uint256",
          "name": "",
          "type": "uint256"
        }
      ],
      "stateMutability": "view",
      "type": "function"
    },
    {
      "inputs": [
        {
          "internalType": "address",
          "name": "newOwner",
          "type": "address"
        }
      ],
      "name": "transferOwnership",
      "outputs": [],
      "stateMutability": "nonpayable",
      "type": "function"
    },
    {
      "inputs": [
        {
          "internalType": "uint256",
          "name": "multiplierNumber",
          "type": "uint256"
        }
      ],
      "name": "updateMultiplier",
      "outputs": [],
      "stateMutability": "nonpayable",
      "type": "function"
    },
    {
      "inputs": [
        {
          "internalType": "uint256",
          "name": "_pid",
          "type": "uint256"
        }
      ],
      "name": "updatePool",
      "outputs": [],
      "stateMutability": "nonpayable",
      "type": "function"
    },
    {
      "inputs": [
        {
          "internalType": "uint256",
          "name": "",
          "type": "uint256"
        },
        {
          "internalType": "address",
          "name": "",
          "type": "address"
        }
      ],
      "name": "userInfo",
      "outputs": [
        {
          "internalType": "uint256",
          "name": "amount",
          "type": "uint256"
        },
        {
          "internalType": "uint256",
          "name": "rewardDebt",
          "type": "uint256"
        },
        {
          "internalType": "uint256",
          "name": "lastDepositTimestamp",
          "type": "uint256"
        },
        {
          "internalType": "bool",
          "name": "staked",
          "type": "bool"
        },
        {
          "internalType": "uint256",
          "name": "nftStakingPoint",
          "type": "uint256"
        },
        {
          "internalType": "uint256",
          "name": "lastNFTDepositTimestamp",
          "type": "uint256"
        }
      ],
      "stateMutability": "view",
      "type": "function"
    },
    {
      "inputs": [
        {
          "internalType": "uint256",
          "name": "_pid",
          "type": "uint256"
        },
        {
          "internalType": "uint256",
          "name": "_amount",
          "type": "uint256"
        }
      ],
      "name": "withdraw",
      "outputs": [],
      "stateMutability": "nonpayable",
      "type": "function"
    },
    {
      "inputs": [
        {
          "internalType": "uint256[]",
          "name": "_nftIds",
          "type": "uint256[]"
        }
      ],
      "name": "withdrawNFT",
      "outputs": [],
      "stateMutability": "nonpayable",
      "type": "function"
    }
  ],
  "bytecode": "0x60806040526001600555600060065560006009553480156200002057600080fd5b5060405162003a2d38038062003a2d8339818101604052810190620000469190620002d7565b620000666200005a620001dd60201b60201c565b620001e560201b60201c565b83600160006101000a81548173ffffffffffffffffffffffffffffffffffffffff021916908373ffffffffffffffffffffffffffffffffffffffff16021790555082600360006101000a81548173ffffffffffffffffffffffffffffffffffffffff021916908373ffffffffffffffffffffffffffffffffffffffff1602179055508160048190555080600a8190555060076040518060a00160405280600073ffffffffffffffffffffffffffffffffffffffff16815260200160008152602001838152602001600081526020016000815250908060018154018082558091505060019003906000526020600020906005020160009091909190915060008201518160000160006101000a81548173ffffffffffffffffffffffffffffffffffffffff021916908373ffffffffffffffffffffffffffffffffffffffff16021790555060208201518160010155604082015181600201556060820151816003015560808201518160040155505050505050620003b5565b600033905090565b60008060009054906101000a900473ffffffffffffffffffffffffffffffffffffffff169050816000806101000a81548173ffffffffffffffffffffffffffffffffffffffff021916908373ffffffffffffffffffffffffffffffffffffffff1602179055508173ffffffffffffffffffffffffffffffffffffffff168173ffffffffffffffffffffffffffffffffffffffff167f8be0079c531659141344cd1fd0a4f28419497f9722a3daafe3b4186f6b6457e060405160405180910390a35050565b600081519050620002ba8162000381565b92915050565b600081519050620002d1816200039b565b92915050565b60008060008060808587031215620002ee57600080fd5b6000620002fe87828801620002a9565b94505060206200031187828801620002a9565b93505060406200032487828801620002c0565b92505060606200033787828801620002c0565b91505092959194509250565b6000620003508262000357565b9050919050565b600073ffffffffffffffffffffffffffffffffffffffff82169050919050565b6000819050919050565b6200038c8162000343565b81146200039857600080fd5b50565b620003a68162000377565b8114620003b257600080fd5b50565b61366880620003c56000396000f3fe608060405234801561001057600080fd5b50600436106101c45760003560e01c8063630b5ba1116100f95780638dbb1e3a11610097578063d3cfc55b11610071578063d3cfc55b1461049e578063d49e77cd146104ce578063e2bbb158146104ec578063f2fde38b14610508576101c4565b80638dbb1e3a1461041b57806393f1a40b1461044b578063c093251414610480576101c4565b8063715018a6116100d3578063715018a6146103b95780638aa28550146103c35780638d88a90e146103e15780638da5cb5b146103fd576101c4565b8063630b5ba11461037557806364482f791461037f5780636803c78d1461039b576101c4565b8063441a3e70116101665780634b0b3dc7116101405780634b0b3dc71461030557806351eb05a6146103215780635312ea8e1461033d5780635ffe614614610359576101c4565b8063441a3e70146102ad57806347ccca02146102c957806348cd4cb1146102e7576101c4565b80630d668087116101a25780630d668087146102215780631526fe271461023f57806317caf6f1146102735780631eaaa04514610291576101c4565b806305e5fd9c146101c9578063081e3eda146101e75780630a72298e14610205575b600080fd5b6101d1610524565b6040516101de9190612ef7565b60405180910390f35b6101ef61052a565b6040516101fc9190612ef7565b60405180910390f35b61021f600480360381019061021a9190612773565b610537565b005b6102296107a4565b6040516102369190612ef7565b60405180910390f35b610259600480360381019061025491906127dd565b6107aa565b60405161026a959493929190612d27565b60405180910390f35b61027b610810565b6040516102889190612ef7565b60405180910390f35b6102ab60048036038101906102a6919061286b565b610816565b005b6102c760048036038101906102c291906128ba565b6109b4565b005b6102d1610cde565b6040516102de9190612d7a565b60405180910390f35b6102ef610d04565b6040516102fc9190612ef7565b60405180910390f35b61031f600480360381019061031a9190612773565b610d0a565b005b61033b600480360381019061033691906127dd565b610f98565b005b610357600480360381019061035291906127dd565b61124e565b005b610373600480360381019061036e91906127dd565b6113ad565b005b61037d611433565b005b61039960048036038101906103949190612932565b611466565b005b6103a36115cc565b6040516103b09190612d0c565b60405180910390f35b6103c16115f2565b005b6103cb61167a565b6040516103d89190612ef7565b60405180910390f35b6103fb60048036038101906103f6919061274a565b611680565b005b610405611754565b6040516104129190612c3f565b60405180910390f35b610435600480360381019061043091906128ba565b61177d565b6040516104429190612ef7565b60405180910390f35b6104656004803603810190610460919061282f565b6117ae565b60405161047796959493929190612f3b565b60405180910390f35b610488611804565b6040516104959190612ef7565b60405180910390f35b6104b860048036038101906104b3919061282f565b61185d565b6040516104c59190612ef7565b60405180910390f35b6104d6611ab7565b6040516104e39190612c3f565b60405180910390f35b610506600480360381019061050191906128ba565b611add565b005b610522600480360381019061051d919061274a565b611d83565b005b60045481565b6000600780549050905090565b60006007600081548110610574577f4e487b7100000000000000000000000000000000000000000000000000000000600052603260045260246000fd5b9060005260206000209060050201905060006008600080815260200190815260200160002060003373ffffffffffffffffffffffffffffffffffffffff1673ffffffffffffffffffffffffffffffffffffffff168152602001908152602001600020905060005b835181101561073f57600084828151811061061f577f4e487b7100000000000000000000000000000000000000000000000000000000600052603260045260246000fd5b60200260200101519050600260009054906101000a900473ffffffffffffffffffffffffffffffffffffffff1673ffffffffffffffffffffffffffffffffffffffff166323b872dd3330846040518463ffffffff1660e01b815260040161068893929190612c5a565b600060405180830381600087803b1580156106a257600080fd5b505af11580156106b6573d6000803e3d6000fd5b50505050826004018190806001815401808255809150506001900390600052602060002001600090919091909150556106ee81611e7b565b8360050160008282546107019190613058565b9250508190555061071181611e7b565b8460040160008282546107249190613058565b9250508190555050808061073790613297565b9150506105db565b5042816006018190555060003373ffffffffffffffffffffffffffffffffffffffff167fcc5322873eee45e6067dd01022acfcc7b9c77b366bb2fca8a6e13ceee1b3eda0858460060154604051610797929190612cdc565b60405180910390a3505050565b60065481565b600781815481106107ba57600080fd5b90600052602060002090600502016000915090508060000160009054906101000a900473ffffffffffffffffffffffffffffffffffffffff16908060010154908060020154908060030154908060040154905085565b60095481565b61081e611f74565b73ffffffffffffffffffffffffffffffffffffffff1661083c611754565b73ffffffffffffffffffffffffffffffffffffffff1614610892576040517f08c379a000000000000000000000000000000000000000000000000000000000815260040161088990612e37565b60405180910390fd5b80156108a1576108a0611433565b5b6000600a5443116108b457600a546108b6565b435b90506108cd84600954611f7c90919063ffffffff16565b60098190555060076040518060a001604052808573ffffffffffffffffffffffffffffffffffffffff168152602001868152602001838152602001600081526020016000815250908060018154018082558091505060019003906000526020600020906005020160009091909190915060008201518160000160006101000a81548173ffffffffffffffffffffffffffffffffffffffff021916908373ffffffffffffffffffffffffffffffffffffffff16021790555060208201518160010155604082015181600201556060820151816003015560808201518160040155505050505050565b60008214156109f8576040517f08c379a00000000000000000000000000000000000000000000000000000000081526004016109ef90612db7565b60405180910390fd5b600060078381548110610a34577f4e487b7100000000000000000000000000000000000000000000000000000000600052603260045260246000fd5b9060005260206000209060050201905060006008600085815260200190815260200160002060003373ffffffffffffffffffffffffffffffffffffffff1673ffffffffffffffffffffffffffffffffffffffff168152602001908152602001600020905042610ab26006548360020154611f7c90919063ffffffff16565b1115610af3576040517f08c379a0000000000000000000000000000000000000000000000000000000008152600401610aea90612ed7565b60405180910390fd5b8281600001541015610b3a576040517f08c379a0000000000000000000000000000000000000000000000000000000008152600401610b3190612e97565b60405180910390fd5b610b4384610f98565b6000610b8d8260010154610b7f64e8d4a51000610b7187600301548760000154611f9290919063ffffffff16565b611fa890919063ffffffff16565b611fbe90919063ffffffff16565b90506000811115610ba357610ba23382611fd4565b5b6000841115610c1b57610bc3848360000154611fbe90919063ffffffff16565b8260000181905550610c1a33858560000160009054906101000a900473ffffffffffffffffffffffffffffffffffffffff1673ffffffffffffffffffffffffffffffffffffffff166121f69092919063ffffffff16565b5b680340aad21b3b70000082600001541015610c4e5760008260030160006101000a81548160ff0219169083151502179055505b610c8064e8d4a51000610c7285600301548560000154611f9290919063ffffffff16565b611fa890919063ffffffff16565b8260010181905550843373ffffffffffffffffffffffffffffffffffffffff167ff279e6a1f5e320cca91135676d9cb6e44ca8a08c0b88342bcdb1144f6511b56886604051610ccf9190612ef7565b60405180910390a35050505050565b600260009054906101000a900473ffffffffffffffffffffffffffffffffffffffff1681565b600a5481565b60006007600081548110610d47577f4e487b7100000000000000000000000000000000000000000000000000000000600052603260045260246000fd5b9060005260206000209060050201905060006008600080815260200190815260200160002060003373ffffffffffffffffffffffffffffffffffffffff1673ffffffffffffffffffffffffffffffffffffffff168152602001908152602001600020905042610dc56006548360060154611f7c90919063ffffffff16565b1115610e06576040517f08c379a0000000000000000000000000000000000000000000000000000000008152600401610dfd90612e57565b60405180910390fd5b60005b8351811015610f42576000848281518110610e4d577f4e487b7100000000000000000000000000000000000000000000000000000000600052603260045260246000fd5b60200260200101519050600260009054906101000a900473ffffffffffffffffffffffffffffffffffffffff1673ffffffffffffffffffffffffffffffffffffffff166323b872dd3033846040518463ffffffff1660e01b8152600401610eb693929190612c5a565b600060405180830381600087803b158015610ed057600080fd5b505af1158015610ee4573d6000803e3d6000fd5b50505050610ef181611e7b565b836005016000828254610f049190613139565b92505081905550610f1481611e7b565b846004016000828254610f279190613139565b92505081905550508080610f3a90613297565b915050610e09565b5060003373ffffffffffffffffffffffffffffffffffffffff167fa3b723d0069bf1b91c5462ea628e22f4baa149a28ff051ac1532a2259525b6ec85604051610f8b9190612cba565b60405180910390a3505050565b600060078281548110610fd4577f4e487b7100000000000000000000000000000000000000000000000000000000600052603260045260246000fd5b9060005260206000209060050201905080600201544311610ff5575061124b565b60008160000160009054906101000a900473ffffffffffffffffffffffffffffffffffffffff1673ffffffffffffffffffffffffffffffffffffffff166370a08231306040518263ffffffff1660e01b81526004016110549190612c3f565b60206040518083038186803b15801561106c57600080fd5b505afa158015611080573d6000803e3d6000fd5b505050506040513d601f19601f820116820180604052508101906110a49190612806565b905060008114156110bf57438260020181905550505061124b565b60006110cf83600201544361177d565b9050600061111260095461110486600101546110f660045487611f9290919063ffffffff16565b611f9290919063ffffffff16565b611fa890919063ffffffff16565b905061119f61111f611754565b600360009054906101000a900473ffffffffffffffffffffffffffffffffffffffff16611156600a85611fa890919063ffffffff16565b600160009054906101000a900473ffffffffffffffffffffffffffffffffffffffff1673ffffffffffffffffffffffffffffffffffffffff1661227c909392919063ffffffff16565b6111f56111aa611754565b3083600160009054906101000a900473ffffffffffffffffffffffffffffffffffffffff1673ffffffffffffffffffffffffffffffffffffffff1661227c909392919063ffffffff16565b6112356112228461121464e8d4a5100085611f9290919063ffffffff16565b611fa890919063ffffffff16565b8560030154611f7c90919063ffffffff16565b8460030181905550438460020181905550505050505b50565b60006007828154811061128a577f4e487b7100000000000000000000000000000000000000000000000000000000600052603260045260246000fd5b9060005260206000209060050201905060006008600084815260200190815260200160002060003373ffffffffffffffffffffffffffffffffffffffff1673ffffffffffffffffffffffffffffffffffffffff16815260200190815260200160002090506113413382600001548460000160009054906101000a900473ffffffffffffffffffffffffffffffffffffffff1673ffffffffffffffffffffffffffffffffffffffff166121f69092919063ffffffff16565b823373ffffffffffffffffffffffffffffffffffffffff167fbb757047c2b5f3974fe26b7c10f732e7bce710b0952a71082702781e62ae0595836000015460405161138c9190612ef7565b60405180910390a36000816000018190555060008160010181905550505050565b6113b5611f74565b73ffffffffffffffffffffffffffffffffffffffff166113d3611754565b73ffffffffffffffffffffffffffffffffffffffff1614611429576040517f08c379a000000000000000000000000000000000000000000000000000000000815260040161142090612e37565b60405180910390fd5b8060058190555050565b6000600780549050905060005b818110156114625761145181610f98565b8061145b90613297565b9050611440565b5050565b61146e611f74565b73ffffffffffffffffffffffffffffffffffffffff1661148c611754565b73ffffffffffffffffffffffffffffffffffffffff16146114e2576040517f08c379a00000000000000000000000000000000000000000000000000000000081526004016114d990612e37565b60405180910390fd5b80156114f1576114f0611433565b5b60006007848154811061152d577f4e487b7100000000000000000000000000000000000000000000000000000000600052603260045260246000fd5b9060005260206000209060050201600101549050826007858154811061157c577f4e487b7100000000000000000000000000000000000000000000000000000000600052603260045260246000fd5b9060005260206000209060050201600101819055508281146115c6576115bf836115b183600954611fbe90919063ffffffff16565b611f7c90919063ffffffff16565b6009819055505b50505050565b600160009054906101000a900473ffffffffffffffffffffffffffffffffffffffff1681565b6115fa611f74565b73ffffffffffffffffffffffffffffffffffffffff16611618611754565b73ffffffffffffffffffffffffffffffffffffffff161461166e576040517f08c379a000000000000000000000000000000000000000000000000000000000815260040161166590612e37565b60405180910390fd5b6116786000612305565b565b60055481565b600360009054906101000a900473ffffffffffffffffffffffffffffffffffffffff1673ffffffffffffffffffffffffffffffffffffffff163373ffffffffffffffffffffffffffffffffffffffff1614611710576040517f08c379a000000000000000000000000000000000000000000000000000000000815260040161170790612e17565b60405180910390fd5b80600360006101000a81548173ffffffffffffffffffffffffffffffffffffffff021916908373ffffffffffffffffffffffffffffffffffffffff16021790555050565b60008060009054906101000a900473ffffffffffffffffffffffffffffffffffffffff16905090565b60006117a66005546117988585611fbe90919063ffffffff16565b611f9290919063ffffffff16565b905092915050565b6008602052816000526040600020602052806000526040600020600091509150508060000154908060010154908060020154908060030160009054906101000a900460ff16908060050154908060060154905086565b6000806007600081548110611842577f4e487b7100000000000000000000000000000000000000000000000000000000600052603260045260246000fd5b90600052602060002090600502019050806004015491505090565b6000806007848154811061189a577f4e487b7100000000000000000000000000000000000000000000000000000000600052603260045260246000fd5b9060005260206000209060050201905060006008600086815260200190815260200160002060008573ffffffffffffffffffffffffffffffffffffffff1673ffffffffffffffffffffffffffffffffffffffff168152602001908152602001600020905060008260030154905060008360000160009054906101000a900473ffffffffffffffffffffffffffffffffffffffff1673ffffffffffffffffffffffffffffffffffffffff166370a08231306040518263ffffffff1660e01b81526004016119669190612c3f565b60206040518083038186803b15801561197e57600080fd5b505afa158015611992573d6000803e3d6000fd5b505050506040513d601f19601f820116820180604052508101906119b69190612806565b90508360020154431180156119cc575060008114155b15611a675760006119e185600201544361177d565b90506000611a24600954611a168860010154611a0860045487611f9290919063ffffffff16565b611f9290919063ffffffff16565b611fa890919063ffffffff16565b9050611a62611a5384611a4564e8d4a5100085611f9290919063ffffffff16565b611fa890919063ffffffff16565b85611f7c90919063ffffffff16565b935050505b611aab8360010154611a9d64e8d4a51000611a8f868860000154611f9290919063ffffffff16565b611fa890919063ffffffff16565b611fbe90919063ffffffff16565b94505050505092915050565b600360009054906101000a900473ffffffffffffffffffffffffffffffffffffffff1681565b6000821415611b21576040517f08c379a0000000000000000000000000000000000000000000000000000000008152600401611b1890612db7565b60405180910390fd5b600060078381548110611b5d577f4e487b7100000000000000000000000000000000000000000000000000000000600052603260045260246000fd5b9060005260206000209060050201905060006008600085815260200190815260200160002060003373ffffffffffffffffffffffffffffffffffffffff1673ffffffffffffffffffffffffffffffffffffffff1681526020019081526020016000209050611bca84610f98565b600081600001541115611c39576000611c218260010154611c1364e8d4a51000611c0587600301548760000154611f9290919063ffffffff16565b611fa890919063ffffffff16565b611fbe90919063ffffffff16565b90506000811115611c3757611c363382611fd4565b5b505b6000831115611cb357611c933330858560000160009054906101000a900473ffffffffffffffffffffffffffffffffffffffff1673ffffffffffffffffffffffffffffffffffffffff1661227c909392919063ffffffff16565b611caa838260000154611f7c90919063ffffffff16565b81600001819055505b680340aad21b3b700000816000015410611ce55760018160030160006101000a81548160ff0219169083151502179055505b611d1764e8d4a51000611d0984600301548460000154611f9290919063ffffffff16565b611fa890919063ffffffff16565b8160010181905550428160020181905550833373ffffffffffffffffffffffffffffffffffffffff167f36af321ec8d3c75236829c5317affd40ddb308863a1236d2d277a4025cccee1e858460020154604051611d75929190612f12565b60405180910390a350505050565b611d8b611f74565b73ffffffffffffffffffffffffffffffffffffffff16611da9611754565b73ffffffffffffffffffffffffffffffffffffffff1614611dff576040517f08c379a0000000000000000000000000000000000000000000000000000000008152600401611df690612e37565b60405180910390fd5b600073ffffffffffffffffffffffffffffffffffffffff168173ffffffffffffffffffffffffffffffffffffffff161415611e6f576040517f08c379a0000000000000000000000000000000000000000000000000000000008152600401611e6690612dd7565b60405180910390fd5b611e7881612305565b50565b6000806000600260009054906101000a900473ffffffffffffffffffffffffffffffffffffffff1673ffffffffffffffffffffffffffffffffffffffff166394f13f4a856040518263ffffffff1660e01b8152600401611edb9190612ef7565b604080518083038186803b158015611ef257600080fd5b505afa158015611f06573d6000803e3d6000fd5b505050506040513d601f19601f82011682018060405250810190611f2a91906128f6565b915091506000603290506005821415611f47576101f49050611f69565b6004821415611f595760fa9050611f68565b6003821415611f6757606490505b5b5b809350505050919050565b600033905090565b60008183611f8a9190613058565b905092915050565b60008183611fa091906130df565b905092915050565b60008183611fb691906130ae565b905092915050565b60008183611fcc9190613139565b905092915050565b6000600160009054906101000a900473ffffffffffffffffffffffffffffffffffffffff1673ffffffffffffffffffffffffffffffffffffffff166370a08231306040518263ffffffff1660e01b81526004016120319190612c3f565b60206040518083038186803b15801561204957600080fd5b505afa15801561205d573d6000803e3d6000fd5b505050506040513d601f19601f820116820180604052508101906120819190612806565b90508082111561214057600160009054906101000a900473ffffffffffffffffffffffffffffffffffffffff1673ffffffffffffffffffffffffffffffffffffffff1663a9059cbb84836040518363ffffffff1660e01b81526004016120e8929190612c91565b602060405180830381600087803b15801561210257600080fd5b505af1158015612116573d6000803e3d6000fd5b505050506040513d601f19601f8201168201806040525081019061213a91906127b4565b506121f1565b600160009054906101000a900473ffffffffffffffffffffffffffffffffffffffff1673ffffffffffffffffffffffffffffffffffffffff1663a9059cbb84846040518363ffffffff1660e01b815260040161219d929190612c91565b602060405180830381600087803b1580156121b757600080fd5b505af11580156121cb573d6000803e3d6000fd5b505050506040513d601f19601f820116820180604052508101906121ef91906127b4565b505b505050565b6122778363a9059cbb60e01b8484604051602401612215929190612c91565b604051602081830303815290604052907bffffffffffffffffffffffffffffffffffffffffffffffffffffffff19166020820180517bffffffffffffffffffffffffffffffffffffffffffffffffffffffff83818316178352505050506123c9565b505050565b6122ff846323b872dd60e01b85858560405160240161229d93929190612c5a565b604051602081830303815290604052907bffffffffffffffffffffffffffffffffffffffffffffffffffffffff19166020820180517bffffffffffffffffffffffffffffffffffffffffffffffffffffffff83818316178352505050506123c9565b50505050565b60008060009054906101000a900473ffffffffffffffffffffffffffffffffffffffff169050816000806101000a81548173ffffffffffffffffffffffffffffffffffffffff021916908373ffffffffffffffffffffffffffffffffffffffff1602179055508173ffffffffffffffffffffffffffffffffffffffff168173ffffffffffffffffffffffffffffffffffffffff167f8be0079c531659141344cd1fd0a4f28419497f9722a3daafe3b4186f6b6457e060405160405180910390a35050565b600061242b826040518060400160405280602081526020017f5361666545524332303a206c6f772d6c6576656c2063616c6c206661696c65648152508573ffffffffffffffffffffffffffffffffffffffff166124909092919063ffffffff16565b905060008151111561248b578080602001905181019061244b91906127b4565b61248a576040517f08c379a000000000000000000000000000000000000000000000000000000000815260040161248190612eb7565b60405180910390fd5b5b505050565b606061249f84846000856124a8565b90509392505050565b6060824710156124ed576040517f08c379a00000000000000000000000000000000000000000000000000000000081526004016124e490612df7565b60405180910390fd5b6124f6856125bc565b612535576040517f08c379a000000000000000000000000000000000000000000000000000000000815260040161252c90612e77565b60405180910390fd5b6000808673ffffffffffffffffffffffffffffffffffffffff16858760405161255e9190612c28565b60006040518083038185875af1925050503d806000811461259b576040519150601f19603f3d011682016040523d82523d6000602084013e6125a0565b606091505b50915091506125b08282866125cf565b92505050949350505050565b600080823b905060008111915050919050565b606083156125df5782905061262f565b6000835111156125f25782518084602001fd5b816040517f08c379a00000000000000000000000000000000000000000000000000000000081526004016126269190612d95565b60405180910390fd5b9392505050565b600061264961264484612fc1565b612f9c565b9050808382526020820190508285602086028201111561266857600080fd5b60005b85811015612698578161267e8882612720565b84526020840193506020830192505060018101905061266b565b5050509392505050565b6000813590506126b1816135d6565b92915050565b600082601f8301126126c857600080fd5b81356126d8848260208601612636565b91505092915050565b6000813590506126f0816135ed565b92915050565b600081519050612705816135ed565b92915050565b60008135905061271a81613604565b92915050565b60008135905061272f8161361b565b92915050565b6000815190506127448161361b565b92915050565b60006020828403121561275c57600080fd5b600061276a848285016126a2565b91505092915050565b60006020828403121561278557600080fd5b600082013567ffffffffffffffff81111561279f57600080fd5b6127ab848285016126b7565b91505092915050565b6000602082840312156127c657600080fd5b60006127d4848285016126f6565b91505092915050565b6000602082840312156127ef57600080fd5b60006127fd84828501612720565b91505092915050565b60006020828403121561281857600080fd5b600061282684828501612735565b91505092915050565b6000806040838503121561284257600080fd5b600061285085828601612720565b9250506020612861858286016126a2565b9150509250929050565b60008060006060848603121561288057600080fd5b600061288e86828701612720565b935050602061289f8682870161270b565b92505060406128b0868287016126e1565b9150509250925092565b600080604083850312156128cd57600080fd5b60006128db85828601612720565b92505060206128ec85828601612720565b9150509250929050565b6000806040838503121561290957600080fd5b600061291785828601612735565b925050602061292885828601612735565b9150509250929050565b60008060006060848603121561294757600080fd5b600061295586828701612720565b935050602061296686828701612720565b9250506040612977868287016126e1565b9150509250925092565b600061298d8383612c0a565b60208301905092915050565b6129a28161316d565b82525050565b60006129b382612ffd565b6129bd818561302b565b93506129c883612fed565b8060005b838110156129f95781516129e08882612981565b97506129eb8361301e565b9250506001810190506129cc565b5085935050505092915050565b612a0f8161317f565b82525050565b6000612a2082613008565b612a2a818561303c565b9350612a3a818560208601613233565b80840191505092915050565b612a4f816131c7565b82525050565b612a5e816131eb565b82525050565b612a6d8161320f565b82525050565b6000612a7e82613013565b612a888185613047565b9350612a98818560208601613233565b612aa18161336d565b840191505092915050565b6000612ab9601a83613047565b9150612ac48261337e565b602082019050919050565b6000612adc602683613047565b9150612ae7826133a7565b604082019050919050565b6000612aff602683613047565b9150612b0a826133f6565b604082019050919050565b6000612b22600983613047565b9150612b2d82613445565b602082019050919050565b6000612b45602083613047565b9150612b508261346e565b602082019050919050565b6000612b68603d83613047565b9150612b7382613497565b604082019050919050565b6000612b8b601d83613047565b9150612b96826134e6565b602082019050919050565b6000612bae601283613047565b9150612bb98261350f565b602082019050919050565b6000612bd1602a83613047565b9150612bdc82613538565b604082019050919050565b6000612bf4603683613047565b9150612bff82613587565b604082019050919050565b612c13816131bd565b82525050565b612c22816131bd565b82525050565b6000612c348284612a15565b915081905092915050565b6000602082019050612c546000830184612999565b92915050565b6000606082019050612c6f6000830186612999565b612c7c6020830185612999565b612c896040830184612c19565b949350505050565b6000604082019050612ca66000830185612999565b612cb36020830184612c19565b9392505050565b60006020820190508181036000830152612cd481846129a8565b905092915050565b60006040820190508181036000830152612cf681856129a8565b9050612d056020830184612c19565b9392505050565b6000602082019050612d216000830184612a46565b92915050565b600060a082019050612d3c6000830188612a55565b612d496020830187612c19565b612d566040830186612c19565b612d636060830185612c19565b612d706080830184612c19565b9695505050505050565b6000602082019050612d8f6000830184612a64565b92915050565b60006020820190508181036000830152612daf8184612a73565b905092915050565b60006020820190508181036000830152612dd081612aac565b9050919050565b60006020820190508181036000830152612df081612acf565b9050919050565b60006020820190508181036000830152612e1081612af2565b9050919050565b60006020820190508181036000830152612e3081612b15565b9050919050565b60006020820190508181036000830152612e5081612b38565b9050919050565b60006020820190508181036000830152612e7081612b5b565b9050919050565b60006020820190508181036000830152612e9081612b7e565b9050919050565b60006020820190508181036000830152612eb081612ba1565b9050919050565b60006020820190508181036000830152612ed081612bc4565b9050919050565b60006020820190508181036000830152612ef081612be7565b9050919050565b6000602082019050612f0c6000830184612c19565b92915050565b6000604082019050612f276000830185612c19565b612f346020830184612c19565b9392505050565b600060c082019050612f506000830189612c19565b612f5d6020830188612c19565b612f6a6040830187612c19565b612f776060830186612a06565b612f846080830185612c19565b612f9160a0830184612c19565b979650505050505050565b6000612fa6612fb7565b9050612fb28282613266565b919050565b6000604051905090565b600067ffffffffffffffff821115612fdc57612fdb61333e565b5b602082029050602081019050919050565b6000819050602082019050919050565b600081519050919050565b600081519050919050565b600081519050919050565b6000602082019050919050565b600082825260208201905092915050565b600081905092915050565b600082825260208201905092915050565b6000613063826131bd565b915061306e836131bd565b9250827fffffffffffffffffffffffffffffffffffffffffffffffffffffffffffffffff038211156130a3576130a26132e0565b5b828201905092915050565b60006130b9826131bd565b91506130c4836131bd565b9250826130d4576130d361330f565b5b828204905092915050565b60006130ea826131bd565b91506130f5836131bd565b9250817fffffffffffffffffffffffffffffffffffffffffffffffffffffffffffffffff048311821515161561312e5761312d6132e0565b5b828202905092915050565b6000613144826131bd565b915061314f836131bd565b925082821015613162576131616132e0565b5b828203905092915050565b60006131788261319d565b9050919050565b60008115159050919050565b60006131968261316d565b9050919050565b600073ffffffffffffffffffffffffffffffffffffffff82169050919050565b6000819050919050565b60006131d2826131d9565b9050919050565b60006131e48261319d565b9050919050565b60006131f6826131fd565b9050919050565b60006132088261319d565b9050919050565b600061321a82613221565b9050919050565b600061322c8261319d565b9050919050565b60005b83811015613251578082015181840152602081019050613236565b83811115613260576000848401525b50505050565b61326f8261336d565b810181811067ffffffffffffffff8211171561328e5761328d61333e565b5b80604052505050565b60006132a2826131bd565b91507fffffffffffffffffffffffffffffffffffffffffffffffffffffffffffffffff8214156132d5576132d46132e0565b5b600182019050919050565b7f4e487b7100000000000000000000000000000000000000000000000000000000600052601160045260246000fd5b7f4e487b7100000000000000000000000000000000000000000000000000000000600052601260045260246000fd5b7f4e487b7100000000000000000000000000000000000000000000000000000000600052604160045260246000fd5b6000601f19601f8301169050919050565b7f6465706f7369743a206e6f74204c5020746f6b656e20706f6f6c000000000000600082015250565b7f4f776e61626c653a206e6577206f776e657220697320746865207a65726f206160008201527f6464726573730000000000000000000000000000000000000000000000000000602082015250565b7f416464726573733a20696e73756666696369656e742062616c616e636520666f60008201527f722063616c6c0000000000000000000000000000000000000000000000000000602082015250565b7f6465763a207775743f0000000000000000000000000000000000000000000000600082015250565b7f4f776e61626c653a2063616c6c6572206973206e6f7420746865206f776e6572600082015250565b7f77697468647261774e46543a204e4654207769746864726177616c206973206f60008201527f6e6c7920617661696c61626c65206166746572206c6f636b2074696d65000000602082015250565b7f416464726573733a2063616c6c20746f206e6f6e2d636f6e7472616374000000600082015250565b7f77697468647261773a206e6f7420676f6f640000000000000000000000000000600082015250565b7f5361666545524332303a204552433230206f7065726174696f6e20646964206e60008201527f6f74207375636365656400000000000000000000000000000000000000000000602082015250565b7f77697468647261773a207769746864726177616c206973206f6e6c792061766160008201527f696c61626c65206166746572206c6f636b2074696d6500000000000000000000602082015250565b6135df8161316d565b81146135ea57600080fd5b50565b6135f68161317f565b811461360157600080fd5b50565b61360d8161318b565b811461361857600080fd5b50565b613624816131bd565b811461362f57600080fd5b5056fea2646970667358221220f6b151c83a71df577bd04799818d7051cadedbeb6c392c6e6f3e48bffb315ed164736f6c63430008020033",
  "linkReferences": {},
  "deployedLinkReferences": {}
}