{
  "_format": "hh-sol-artifact-1",
  "contractName": "MasterChef",
  "sourceName": "contracts/MasterChef.sol",
  "abi": [
    {
      "anonymous": false,
      "inputs": [
        {
          "indexed": false,
          "internalType": "address",
          "name": "previousAdmin",
          "type": "address"
        },
        {
          "indexed": false,
          "internalType": "address",
          "name": "newAdmin",
          "type": "address"
        }
      ],
      "name": "AdminChanged",
      "type": "event"
    },
    {
      "anonymous": false,
      "inputs": [
        {
          "indexed": true,
          "internalType": "address",
          "name": "beacon",
          "type": "address"
        }
      ],
      "name": "BeaconUpgraded",
      "type": "event"
    },
    {
      "anonymous": false,
      "inputs": [
        {
          "indexed": true,
          "internalType": "address",
          "name": "user",
          "type": "address"
        },
        {
          "indexed": true,
          "internalType": "uint256",
          "name": "pid",
          "type": "uint256"
        },
        {
          "indexed": false,
          "internalType": "uint256",
          "name": "amount",
          "type": "uint256"
        },
        {
          "indexed": false,
          "internalType": "uint256",
          "name": "timestamp",
          "type": "uint256"
        }
      ],
      "name": "Deposit",
      "type": "event"
    },
    {
      "anonymous": false,
      "inputs": [
        {
          "indexed": true,
          "internalType": "address",
          "name": "user",
          "type": "address"
        },
        {
          "indexed": true,
          "internalType": "uint256",
          "name": "pid",
          "type": "uint256"
        },
        {
          "indexed": false,
          "internalType": "uint256[]",
          "name": "tokenIds",
          "type": "uint256[]"
        },
        {
          "indexed": false,
          "internalType": "uint256",
          "name": "timestamp",
          "type": "uint256"
        }
      ],
      "name": "DepositNFT",
      "type": "event"
    },
    {
      "anonymous": false,
      "inputs": [
        {
          "indexed": true,
          "internalType": "address",
          "name": "user",
          "type": "address"
        },
        {
          "indexed": true,
          "internalType": "uint256",
          "name": "pid",
          "type": "uint256"
        },
        {
          "indexed": false,
          "internalType": "uint256",
          "name": "amount",
          "type": "uint256"
        }
      ],
      "name": "EmergencyWithdraw",
      "type": "event"
    },
    {
      "anonymous": false,
      "inputs": [
        {
          "indexed": true,
          "internalType": "address",
          "name": "user",
          "type": "address"
        },
        {
          "indexed": true,
          "internalType": "uint256",
          "name": "pid",
          "type": "uint256"
        },
        {
          "indexed": false,
          "internalType": "uint256",
          "name": "tokenId",
          "type": "uint256"
        }
      ],
      "name": "EmergencyWithdrawNFT",
      "type": "event"
    },
    {
      "anonymous": false,
      "inputs": [
        {
          "indexed": true,
          "internalType": "address",
          "name": "previousOwner",
          "type": "address"
        },
        {
          "indexed": true,
          "internalType": "address",
          "name": "newOwner",
          "type": "address"
        }
      ],
      "name": "OwnershipTransferred",
      "type": "event"
    },
    {
      "anonymous": false,
      "inputs": [
        {
          "indexed": true,
          "internalType": "address",
          "name": "implementation",
          "type": "address"
        }
      ],
      "name": "Upgraded",
      "type": "event"
    },
    {
      "anonymous": false,
      "inputs": [
        {
          "indexed": true,
          "internalType": "address",
          "name": "user",
          "type": "address"
        },
        {
          "indexed": true,
          "internalType": "uint256",
          "name": "pid",
          "type": "uint256"
        },
        {
          "indexed": false,
          "internalType": "uint256",
          "name": "amount",
          "type": "uint256"
        }
      ],
      "name": "Withdraw",
      "type": "event"
    },
    {
      "anonymous": false,
      "inputs": [
        {
          "indexed": true,
          "internalType": "address",
          "name": "user",
          "type": "address"
        },
        {
          "indexed": true,
          "internalType": "uint256",
          "name": "pid",
          "type": "uint256"
        },
        {
          "indexed": false,
          "internalType": "uint256[]",
          "name": "tokenIds",
          "type": "uint256[]"
        }
      ],
      "name": "WithdrawNFT",
      "type": "event"
    },
    {
      "inputs": [],
      "name": "BONUS_MULTIPLIER",
      "outputs": [
        {
          "internalType": "uint256",
          "name": "",
          "type": "uint256"
        }
      ],
      "stateMutability": "view",
      "type": "function"
    },
    {
      "inputs": [
        {
          "internalType": "uint256",
          "name": "_allocPoint",
          "type": "uint256"
        },
        {
          "internalType": "contract IERC20Upgradeable",
          "name": "_lpToken",
          "type": "address"
        },
        {
          "internalType": "bool",
          "name": "_withUpdate",
          "type": "bool"
        }
      ],
      "name": "add",
      "outputs": [],
      "stateMutability": "nonpayable",
      "type": "function"
    },
    {
      "inputs": [
        {
          "internalType": "uint256",
          "name": "_pid",
          "type": "uint256"
        },
        {
          "internalType": "uint256",
          "name": "_amount",
          "type": "uint256"
        }
      ],
      "name": "deposit",
      "outputs": [],
      "stateMutability": "nonpayable",
      "type": "function"
    },
    {
      "inputs": [
        {
          "internalType": "uint256[]",
          "name": "_nftIds",
          "type": "uint256[]"
        }
      ],
      "name": "depositNFT",
      "outputs": [],
      "stateMutability": "nonpayable",
      "type": "function"
    },
    {
      "inputs": [
        {
          "internalType": "address",
          "name": "_devaddr",
          "type": "address"
        }
      ],
      "name": "dev",
      "outputs": [],
      "stateMutability": "nonpayable",
      "type": "function"
    },
    {
      "inputs": [],
      "name": "devaddr",
      "outputs": [
        {
          "internalType": "address",
          "name": "",
          "type": "address"
        }
      ],
      "stateMutability": "view",
      "type": "function"
    },
    {
      "inputs": [
        {
          "internalType": "uint256",
          "name": "_pid",
          "type": "uint256"
        }
      ],
      "name": "emergencyWithdraw",
      "outputs": [],
      "stateMutability": "nonpayable",
      "type": "function"
    },
    {
      "inputs": [
        {
          "internalType": "uint256",
          "name": "_from",
          "type": "uint256"
        },
        {
          "internalType": "uint256",
          "name": "_to",
          "type": "uint256"
        }
      ],
      "name": "getMultiplier",
      "outputs": [
        {
          "internalType": "uint256",
          "name": "",
          "type": "uint256"
        }
      ],
      "stateMutability": "view",
      "type": "function"
    },
    {
      "inputs": [],
      "name": "getPoolNftStakingPoint",
      "outputs": [
        {
          "internalType": "uint256",
          "name": "",
          "type": "uint256"
        }
      ],
      "stateMutability": "view",
      "type": "function"
    },
    {
      "inputs": [],
      "name": "howl",
      "outputs": [
        {
          "internalType": "contract HOWLCapped",
          "name": "",
          "type": "address"
        }
      ],
      "stateMutability": "view",
      "type": "function"
    },
    {
      "inputs": [],
      "name": "howlPerBlock",
      "outputs": [
        {
          "internalType": "uint256",
          "name": "",
          "type": "uint256"
        }
      ],
      "stateMutability": "view",
      "type": "function"
    },
    {
      "inputs": [
        {
          "internalType": "address",
          "name": "_howl",
          "type": "address"
        },
        {
          "internalType": "address",
          "name": "_devaddr",
          "type": "address"
        },
        {
          "internalType": "uint256",
          "name": "_howlPerBlock",
          "type": "uint256"
        },
        {
          "internalType": "uint256",
          "name": "_startBlock",
          "type": "uint256"
        }
      ],
      "name": "initialize",
      "outputs": [],
      "stateMutability": "nonpayable",
      "type": "function"
    },
    {
      "inputs": [],
      "name": "lockTime",
      "outputs": [
        {
          "internalType": "uint256",
          "name": "",
          "type": "uint256"
        }
      ],
      "stateMutability": "view",
      "type": "function"
    },
    {
      "inputs": [],
      "name": "massUpdatePools",
      "outputs": [],
      "stateMutability": "nonpayable",
      "type": "function"
    },
    {
      "inputs": [],
      "name": "nft",
      "outputs": [
        {
          "internalType": "contract IGameItem",
          "name": "",
          "type": "address"
        }
      ],
      "stateMutability": "view",
      "type": "function"
    },
    {
      "inputs": [],
      "name": "owner",
      "outputs": [
        {
          "internalType": "address",
          "name": "",
          "type": "address"
        }
      ],
      "stateMutability": "view",
      "type": "function"
    },
    {
      "inputs": [
        {
          "internalType": "uint256",
          "name": "_pid",
          "type": "uint256"
        },
        {
          "internalType": "address",
          "name": "_user",
          "type": "address"
        }
      ],
      "name": "pendingHowl",
      "outputs": [
        {
          "internalType": "uint256",
          "name": "",
          "type": "uint256"
        }
      ],
      "stateMutability": "view",
      "type": "function"
    },
    {
      "inputs": [
        {
          "internalType": "uint256",
          "name": "",
          "type": "uint256"
        }
      ],
      "name": "poolInfo",
      "outputs": [
        {
          "internalType": "contract IERC20Upgradeable",
          "name": "lpToken",
          "type": "address"
        },
        {
          "internalType": "uint256",
          "name": "allocPoint",
          "type": "uint256"
        },
        {
          "internalType": "uint256",
          "name": "lastRewardBlock",
          "type": "uint256"
        },
        {
          "internalType": "uint256",
          "name": "accHowlPerShare",
          "type": "uint256"
        },
        {
          "internalType": "uint256",
          "name": "totalNftStakingPoint",
          "type": "uint256"
        }
      ],
      "stateMutability": "view",
      "type": "function"
    },
    {
      "inputs": [],
      "name": "poolLength",
      "outputs": [
        {
          "internalType": "uint256",
          "name": "",
          "type": "uint256"
        }
      ],
      "stateMutability": "view",
      "type": "function"
    },
    {
      "inputs": [],
      "name": "renounceOwnership",
      "outputs": [],
      "stateMutability": "nonpayable",
      "type": "function"
    },
    {
      "inputs": [
        {
          "internalType": "uint256",
          "name": "_pid",
          "type": "uint256"
        },
        {
          "internalType": "uint256",
          "name": "_allocPoint",
          "type": "uint256"
        },
        {
          "internalType": "bool",
          "name": "_withUpdate",
          "type": "bool"
        }
      ],
      "name": "set",
      "outputs": [],
      "stateMutability": "nonpayable",
      "type": "function"
    },
    {
      "inputs": [
        {
          "internalType": "uint256",
          "name": "_howlPerBlock",
          "type": "uint256"
        }
      ],
      "name": "setHowlPerBlock",
      "outputs": [],
      "stateMutability": "nonpayable",
      "type": "function"
    },
    {
      "inputs": [
        {
          "internalType": "uint256",
          "name": "_lockTime",
          "type": "uint256"
        }
      ],
      "name": "setLockTime",
      "outputs": [],
      "stateMutability": "nonpayable",
      "type": "function"
    },
    {
      "inputs": [],
      "name": "startBlock",
      "outputs": [
        {
          "internalType": "uint256",
          "name": "",
          "type": "uint256"
        }
      ],
      "stateMutability": "view",
      "type": "function"
    },
    {
      "inputs": [],
      "name": "totalAllocPoint",
      "outputs": [
        {
          "internalType": "uint256",
          "name": "",
          "type": "uint256"
        }
      ],
      "stateMutability": "view",
      "type": "function"
    },
    {
      "inputs": [
        {
          "internalType": "address",
          "name": "newOwner",
          "type": "address"
        }
      ],
      "name": "transferOwnership",
      "outputs": [],
      "stateMutability": "nonpayable",
      "type": "function"
    },
    {
      "inputs": [
        {
          "internalType": "uint256",
          "name": "multiplierNumber",
          "type": "uint256"
        }
      ],
      "name": "updateMultiplier",
      "outputs": [],
      "stateMutability": "nonpayable",
      "type": "function"
    },
    {
      "inputs": [
        {
          "internalType": "uint256",
          "name": "_pid",
          "type": "uint256"
        }
      ],
      "name": "updatePool",
      "outputs": [],
      "stateMutability": "nonpayable",
      "type": "function"
    },
    {
      "inputs": [
        {
          "internalType": "address",
          "name": "newImplementation",
          "type": "address"
        }
      ],
      "name": "upgradeTo",
      "outputs": [],
      "stateMutability": "nonpayable",
      "type": "function"
    },
    {
      "inputs": [
        {
          "internalType": "address",
          "name": "newImplementation",
          "type": "address"
        },
        {
          "internalType": "bytes",
          "name": "data",
          "type": "bytes"
        }
      ],
      "name": "upgradeToAndCall",
      "outputs": [],
      "stateMutability": "payable",
      "type": "function"
    },
    {
      "inputs": [
        {
          "internalType": "uint256",
          "name": "",
          "type": "uint256"
        },
        {
          "internalType": "address",
          "name": "",
          "type": "address"
        }
      ],
      "name": "userInfo",
      "outputs": [
        {
          "internalType": "uint256",
          "name": "amount",
          "type": "uint256"
        },
        {
          "internalType": "uint256",
          "name": "rewardDebt",
          "type": "uint256"
        },
        {
          "internalType": "uint256",
          "name": "lastDepositTimestamp",
          "type": "uint256"
        },
        {
          "internalType": "bool",
          "name": "staked",
          "type": "bool"
        },
        {
          "internalType": "uint256",
          "name": "nftStakingPoint",
          "type": "uint256"
        },
        {
          "internalType": "uint256",
          "name": "lastNFTDepositTimestamp",
          "type": "uint256"
        }
      ],
      "stateMutability": "view",
      "type": "function"
    },
    {
      "inputs": [
        {
          "internalType": "uint256",
          "name": "_pid",
          "type": "uint256"
        },
        {
          "internalType": "uint256",
          "name": "_amount",
          "type": "uint256"
        }
      ],
      "name": "withdraw",
      "outputs": [],
      "stateMutability": "nonpayable",
      "type": "function"
    },
    {
      "inputs": [
        {
          "internalType": "uint256[]",
          "name": "_nftIds",
          "type": "uint256[]"
        }
      ],
      "name": "withdrawNFT",
      "outputs": [],
      "stateMutability": "nonpayable",
      "type": "function"
    }
  ],
  "bytecode": "0x60a06040523073ffffffffffffffffffffffffffffffffffffffff1660809073ffffffffffffffffffffffffffffffffffffffff1660601b81525034801561004657600080fd5b5060805160601c614c3c61007a60003960008181610c0c01528181610c9b0152818161139f015261142e0152614c3c6000f3fe6080604052600436106101ee5760003560e01c8063630b5ba11161010d57806393f1a40b116100a0578063d3cfc55b1161006f578063d3cfc55b14610697578063d49e77cd146106d4578063e2bbb158146106ff578063eb990c5914610728578063f2fde38b14610751576101ee565b806393f1a40b146105d8578063a5b2ca6b1461061a578063ae04d45d14610643578063c09325141461066c576101ee565b80638aa28550116100dc5780638aa285501461051c5780638d88a90e146105475780638da5cb5b146105705780638dbb1e3a1461059b576101ee565b8063630b5ba11461049a57806364482f79146104b15780636803c78d146104da578063715018a614610505576101ee565b8063441a3e70116101855780634f1ef286116101545780634f1ef2861461040357806351eb05a61461041f5780635312ea8e146104485780635ffe614614610471576101ee565b8063441a3e701461035b57806347ccca021461038457806348cd4cb1146103af5780634b0b3dc7146103da576101ee565b80631526fe27116101c15780631526fe271461029d57806317caf6f1146102de5780631eaaa045146103095780633659cfe614610332576101ee565b806305e5fd9c146101f3578063081e3eda1461021e5780630a72298e146102495780630d66808714610272575b600080fd5b3480156101ff57600080fd5b5061020861077a565b604051610215919061423b565b60405180910390f35b34801561022a57600080fd5b50610233610780565b604051610240919061423b565b60405180910390f35b34801561025557600080fd5b50610270600480360381019061026b91906138e2565b61078d565b005b34801561027e57600080fd5b506102876109fa565b604051610294919061423b565b60405180910390f35b3480156102a957600080fd5b506102c460048036038101906102bf919061394c565b610a00565b6040516102d5959493929190613f8b565b60405180910390f35b3480156102ea57600080fd5b506102f3610a66565b604051610300919061423b565b60405180910390f35b34801561031557600080fd5b50610330600480360381019061032b91906139da565b610a6c565b005b34801561033e57600080fd5b5061035960048036038101906103549190613802565b610c0a565b005b34801561036757600080fd5b50610382600480360381019061037d9190613a29565b610db9565b005b34801561039057600080fd5b506103996110e3565b6040516103a69190613fde565b60405180910390f35b3480156103bb57600080fd5b506103c4611109565b6040516103d1919061423b565b60405180910390f35b3480156103e657600080fd5b5061040160048036038101906103fc91906138e2565b61110f565b005b61041d6004803603810190610418919061388e565b61139d565b005b34801561042b57600080fd5b506104466004803603810190610441919061394c565b6114da565b005b34801561045457600080fd5b5061046f600480360381019061046a919061394c565b611790565b005b34801561047d57600080fd5b506104986004803603810190610493919061394c565b6118ef565b005b3480156104a657600080fd5b506104af611975565b005b3480156104bd57600080fd5b506104d860048036038101906104d39190613aa1565b6119a8565b005b3480156104e657600080fd5b506104ef611b0e565b6040516104fc9190613f70565b60405180910390f35b34801561051157600080fd5b5061051a611b34565b005b34801561052857600080fd5b50610531611bbc565b60405161053e919061423b565b60405180910390f35b34801561055357600080fd5b5061056e60048036038101906105699190613802565b611bc2565b005b34801561057c57600080fd5b50610585611c96565b6040516105929190613ea3565b60405180910390f35b3480156105a757600080fd5b506105c260048036038101906105bd9190613a29565b611cc0565b6040516105cf919061423b565b60405180910390f35b3480156105e457600080fd5b506105ff60048036038101906105fa919061399e565b611cf1565b6040516106119695949392919061427f565b60405180910390f35b34801561062657600080fd5b50610641600480360381019061063c919061394c565b611d47565b005b34801561064f57600080fd5b5061066a6004803603810190610665919061394c565b611e10565b005b34801561067857600080fd5b50610681611e96565b60405161068e919061423b565b60405180910390f35b3480156106a357600080fd5b506106be60048036038101906106b9919061399e565b611eef565b6040516106cb919061423b565b60405180910390f35b3480156106e057600080fd5b506106e9612149565b6040516106f69190613ea3565b60405180910390f35b34801561070b57600080fd5b5061072660048036038101906107219190613a29565b61216f565b005b34801561073457600080fd5b5061074f600480360381019061074a919061382b565b612415565b005b34801561075d57600080fd5b5061077860048036038101906107739190613802565b61267f565b005b60cc5481565b600060cf80549050905090565b600060cf6000815481106107ca577f4e487b7100000000000000000000000000000000000000000000000000000000600052603260045260246000fd5b90600052602060002090600502019050600060d0600080815260200190815260200160002060003373ffffffffffffffffffffffffffffffffffffffff1673ffffffffffffffffffffffffffffffffffffffff168152602001908152602001600020905060005b8351811015610995576000848281518110610875577f4e487b7100000000000000000000000000000000000000000000000000000000600052603260045260246000fd5b6020026020010151905060ca60009054906101000a900473ffffffffffffffffffffffffffffffffffffffff1673ffffffffffffffffffffffffffffffffffffffff166323b872dd3330846040518463ffffffff1660e01b81526004016108de93929190613ebe565b600060405180830381600087803b1580156108f857600080fd5b505af115801561090c573d6000803e3d6000fd5b505050508260040181908060018154018082558091505060019003906000526020600020016000909190919091505561094481612777565b83600501600082825461095791906143cd565b9250508190555061096781612777565b84600401600082825461097a91906143cd565b9250508190555050808061098d9061461b565b915050610831565b5042816006018190555060003373ffffffffffffffffffffffffffffffffffffffff167fcc5322873eee45e6067dd01022acfcc7b9c77b366bb2fca8a6e13ceee1b3eda08584600601546040516109ed929190613f40565b60405180910390a3505050565b60ce5481565b60cf8181548110610a1057600080fd5b90600052602060002090600502016000915090508060000160009054906101000a900473ffffffffffffffffffffffffffffffffffffffff16908060010154908060020154908060030154908060040154905085565b60d15481565b610a74612870565b73ffffffffffffffffffffffffffffffffffffffff16610a92611c96565b73ffffffffffffffffffffffffffffffffffffffff1614610ae8576040517f08c379a0000000000000000000000000000000000000000000000000000000008152600401610adf9061415b565b60405180910390fd5b8015610af757610af6611975565b5b600060d2544311610b0a5760d254610b0c565b435b9050610b238460d15461287890919063ffffffff16565b60d18190555060cf6040518060a001604052808573ffffffffffffffffffffffffffffffffffffffff168152602001868152602001838152602001600081526020016000815250908060018154018082558091505060019003906000526020600020906005020160009091909190915060008201518160000160006101000a81548173ffffffffffffffffffffffffffffffffffffffff021916908373ffffffffffffffffffffffffffffffffffffffff16021790555060208201518160010155604082015181600201556060820151816003015560808201518160040155505050505050565b7f000000000000000000000000000000000000000000000000000000000000000073ffffffffffffffffffffffffffffffffffffffff163073ffffffffffffffffffffffffffffffffffffffff161415610c99576040517f08c379a0000000000000000000000000000000000000000000000000000000008152600401610c909061407b565b60405180910390fd5b7f000000000000000000000000000000000000000000000000000000000000000073ffffffffffffffffffffffffffffffffffffffff16610cd861288e565b73ffffffffffffffffffffffffffffffffffffffff1614610d2e576040517f08c379a0000000000000000000000000000000000000000000000000000000008152600401610d259061409b565b60405180910390fd5b610d37816128e5565b610db681600067ffffffffffffffff811115610d7c577f4e487b7100000000000000000000000000000000000000000000000000000000600052604160045260246000fd5b6040519080825280601f01601f191660200182016040528015610dae5781602001600182028036833780820191505090505b506000612964565b50565b6000821415610dfd576040517f08c379a0000000000000000000000000000000000000000000000000000000008152600401610df49061401b565b60405180910390fd5b600060cf8381548110610e39577f4e487b7100000000000000000000000000000000000000000000000000000000600052603260045260246000fd5b90600052602060002090600502019050600060d0600085815260200190815260200160002060003373ffffffffffffffffffffffffffffffffffffffff1673ffffffffffffffffffffffffffffffffffffffff168152602001908152602001600020905042610eb760ce54836002015461287890919063ffffffff16565b1115610ef8576040517f08c379a0000000000000000000000000000000000000000000000000000000008152600401610eef9061421b565b60405180910390fd5b8281600001541015610f3f576040517f08c379a0000000000000000000000000000000000000000000000000000000008152600401610f36906141db565b60405180910390fd5b610f48846114da565b6000610f928260010154610f8464e8d4a51000610f7687600301548760000154612b3590919063ffffffff16565b612b4b90919063ffffffff16565b612b6190919063ffffffff16565b90506000811115610fa857610fa73382612b77565b5b600084111561102057610fc8848360000154612b6190919063ffffffff16565b826000018190555061101f33858560000160009054906101000a900473ffffffffffffffffffffffffffffffffffffffff1673ffffffffffffffffffffffffffffffffffffffff16612d999092919063ffffffff16565b5b680340aad21b3b700000826000015410156110535760008260030160006101000a81548160ff0219169083151502179055505b61108564e8d4a5100061107785600301548560000154612b3590919063ffffffff16565b612b4b90919063ffffffff16565b8260010181905550843373ffffffffffffffffffffffffffffffffffffffff167ff279e6a1f5e320cca91135676d9cb6e44ca8a08c0b88342bcdb1144f6511b568866040516110d4919061423b565b60405180910390a35050505050565b60ca60009054906101000a900473ffffffffffffffffffffffffffffffffffffffff1681565b60d25481565b600060cf60008154811061114c577f4e487b7100000000000000000000000000000000000000000000000000000000600052603260045260246000fd5b90600052602060002090600502019050600060d0600080815260200190815260200160002060003373ffffffffffffffffffffffffffffffffffffffff1673ffffffffffffffffffffffffffffffffffffffff1681526020019081526020016000209050426111ca60ce54836006015461287890919063ffffffff16565b111561120b576040517f08c379a00000000000000000000000000000000000000000000000000000000081526004016112029061419b565b60405180910390fd5b60005b8351811015611347576000848281518110611252577f4e487b7100000000000000000000000000000000000000000000000000000000600052603260045260246000fd5b6020026020010151905060ca60009054906101000a900473ffffffffffffffffffffffffffffffffffffffff1673ffffffffffffffffffffffffffffffffffffffff166323b872dd3033846040518463ffffffff1660e01b81526004016112bb93929190613ebe565b600060405180830381600087803b1580156112d557600080fd5b505af11580156112e9573d6000803e3d6000fd5b505050506112f681612777565b83600501600082825461130991906144ae565b9250508190555061131981612777565b84600401600082825461132c91906144ae565b9250508190555050808061133f9061461b565b91505061120e565b5060003373ffffffffffffffffffffffffffffffffffffffff167fa3b723d0069bf1b91c5462ea628e22f4baa149a28ff051ac1532a2259525b6ec856040516113909190613f1e565b60405180910390a3505050565b7f000000000000000000000000000000000000000000000000000000000000000073ffffffffffffffffffffffffffffffffffffffff163073ffffffffffffffffffffffffffffffffffffffff16141561142c576040517f08c379a00000000000000000000000000000000000000000000000000000000081526004016114239061407b565b60405180910390fd5b7f000000000000000000000000000000000000000000000000000000000000000073ffffffffffffffffffffffffffffffffffffffff1661146b61288e565b73ffffffffffffffffffffffffffffffffffffffff16146114c1576040517f08c379a00000000000000000000000000000000000000000000000000000000081526004016114b89061409b565b60405180910390fd5b6114ca826128e5565b6114d682826001612964565b5050565b600060cf8281548110611516577f4e487b7100000000000000000000000000000000000000000000000000000000600052603260045260246000fd5b9060005260206000209060050201905080600201544311611537575061178d565b60008160000160009054906101000a900473ffffffffffffffffffffffffffffffffffffffff1673ffffffffffffffffffffffffffffffffffffffff166370a08231306040518263ffffffff1660e01b81526004016115969190613ea3565b60206040518083038186803b1580156115ae57600080fd5b505afa1580156115c2573d6000803e3d6000fd5b505050506040513d601f19601f820116820180604052508101906115e69190613975565b9050600081141561160157438260020181905550505061178d565b6000611611836002015443611cc0565b9050600061165460d154611646866001015461163860cc5487612b3590919063ffffffff16565b612b3590919063ffffffff16565b612b4b90919063ffffffff16565b90506116e1611661611c96565b60cb60009054906101000a900473ffffffffffffffffffffffffffffffffffffffff16611698600a85612b4b90919063ffffffff16565b60c960009054906101000a900473ffffffffffffffffffffffffffffffffffffffff1673ffffffffffffffffffffffffffffffffffffffff16612e1f909392919063ffffffff16565b6117376116ec611c96565b308360c960009054906101000a900473ffffffffffffffffffffffffffffffffffffffff1673ffffffffffffffffffffffffffffffffffffffff16612e1f909392919063ffffffff16565b6117776117648461175664e8d4a5100085612b3590919063ffffffff16565b612b4b90919063ffffffff16565b856003015461287890919063ffffffff16565b8460030181905550438460020181905550505050505b50565b600060cf82815481106117cc577f4e487b7100000000000000000000000000000000000000000000000000000000600052603260045260246000fd5b90600052602060002090600502019050600060d0600084815260200190815260200160002060003373ffffffffffffffffffffffffffffffffffffffff1673ffffffffffffffffffffffffffffffffffffffff16815260200190815260200160002090506118833382600001548460000160009054906101000a900473ffffffffffffffffffffffffffffffffffffffff1673ffffffffffffffffffffffffffffffffffffffff16612d999092919063ffffffff16565b823373ffffffffffffffffffffffffffffffffffffffff167fbb757047c2b5f3974fe26b7c10f732e7bce710b0952a71082702781e62ae059583600001546040516118ce919061423b565b60405180910390a36000816000018190555060008160010181905550505050565b6118f7612870565b73ffffffffffffffffffffffffffffffffffffffff16611915611c96565b73ffffffffffffffffffffffffffffffffffffffff161461196b576040517f08c379a00000000000000000000000000000000000000000000000000000000081526004016119629061415b565b60405180910390fd5b8060cd8190555050565b600060cf80549050905060005b818110156119a457611993816114da565b8061199d9061461b565b9050611982565b5050565b6119b0612870565b73ffffffffffffffffffffffffffffffffffffffff166119ce611c96565b73ffffffffffffffffffffffffffffffffffffffff1614611a24576040517f08c379a0000000000000000000000000000000000000000000000000000000008152600401611a1b9061415b565b60405180910390fd5b8015611a3357611a32611975565b5b600060cf8481548110611a6f577f4e487b7100000000000000000000000000000000000000000000000000000000600052603260045260246000fd5b90600052602060002090600502016001015490508260cf8581548110611abe577f4e487b7100000000000000000000000000000000000000000000000000000000600052603260045260246000fd5b906000526020600020906005020160010181905550828114611b0857611b0183611af38360d154612b6190919063ffffffff16565b61287890919063ffffffff16565b60d1819055505b50505050565b60c960009054906101000a900473ffffffffffffffffffffffffffffffffffffffff1681565b611b3c612870565b73ffffffffffffffffffffffffffffffffffffffff16611b5a611c96565b73ffffffffffffffffffffffffffffffffffffffff1614611bb0576040517f08c379a0000000000000000000000000000000000000000000000000000000008152600401611ba79061415b565b60405180910390fd5b611bba6000612ea8565b565b60cd5481565b60cb60009054906101000a900473ffffffffffffffffffffffffffffffffffffffff1673ffffffffffffffffffffffffffffffffffffffff163373ffffffffffffffffffffffffffffffffffffffff1614611c52576040517f08c379a0000000000000000000000000000000000000000000000000000000008152600401611c49906140fb565b60405180910390fd5b8060cb60006101000a81548173ffffffffffffffffffffffffffffffffffffffff021916908373ffffffffffffffffffffffffffffffffffffffff16021790555050565b6000609760009054906101000a900473ffffffffffffffffffffffffffffffffffffffff16905090565b6000611ce960cd54611cdb8585612b6190919063ffffffff16565b612b3590919063ffffffff16565b905092915050565b60d0602052816000526040600020602052806000526040600020600091509150508060000154908060010154908060020154908060030160009054906101000a900460ff16908060050154908060060154905086565b611d4f612870565b73ffffffffffffffffffffffffffffffffffffffff16611d6d611c96565b73ffffffffffffffffffffffffffffffffffffffff1614611dc3576040517f08c379a0000000000000000000000000000000000000000000000000000000008152600401611dba9061415b565b60405180910390fd5b60008111611e06576040517f08c379a0000000000000000000000000000000000000000000000000000000008152600401611dfd9061411b565b60405180910390fd5b8060cc8190555050565b611e18612870565b73ffffffffffffffffffffffffffffffffffffffff16611e36611c96565b73ffffffffffffffffffffffffffffffffffffffff1614611e8c576040517f08c379a0000000000000000000000000000000000000000000000000000000008152600401611e839061415b565b60405180910390fd5b8060ce8190555050565b60008060cf600081548110611ed4577f4e487b7100000000000000000000000000000000000000000000000000000000600052603260045260246000fd5b90600052602060002090600502019050806004015491505090565b60008060cf8481548110611f2c577f4e487b7100000000000000000000000000000000000000000000000000000000600052603260045260246000fd5b90600052602060002090600502019050600060d0600086815260200190815260200160002060008573ffffffffffffffffffffffffffffffffffffffff1673ffffffffffffffffffffffffffffffffffffffff168152602001908152602001600020905060008260030154905060008360000160009054906101000a900473ffffffffffffffffffffffffffffffffffffffff1673ffffffffffffffffffffffffffffffffffffffff166370a08231306040518263ffffffff1660e01b8152600401611ff89190613ea3565b60206040518083038186803b15801561201057600080fd5b505afa158015612024573d6000803e3d6000fd5b505050506040513d601f19601f820116820180604052508101906120489190613975565b905083600201544311801561205e575060008114155b156120f9576000612073856002015443611cc0565b905060006120b660d1546120a8886001015461209a60cc5487612b3590919063ffffffff16565b612b3590919063ffffffff16565b612b4b90919063ffffffff16565b90506120f46120e5846120d764e8d4a5100085612b3590919063ffffffff16565b612b4b90919063ffffffff16565b8561287890919063ffffffff16565b935050505b61213d836001015461212f64e8d4a51000612121868860000154612b3590919063ffffffff16565b612b4b90919063ffffffff16565b612b6190919063ffffffff16565b94505050505092915050565b60cb60009054906101000a900473ffffffffffffffffffffffffffffffffffffffff1681565b60008214156121b3576040517f08c379a00000000000000000000000000000000000000000000000000000000081526004016121aa9061401b565b60405180910390fd5b600060cf83815481106121ef577f4e487b7100000000000000000000000000000000000000000000000000000000600052603260045260246000fd5b90600052602060002090600502019050600060d0600085815260200190815260200160002060003373ffffffffffffffffffffffffffffffffffffffff1673ffffffffffffffffffffffffffffffffffffffff168152602001908152602001600020905061225c846114da565b6000816000015411156122cb5760006122b382600101546122a564e8d4a5100061229787600301548760000154612b3590919063ffffffff16565b612b4b90919063ffffffff16565b612b6190919063ffffffff16565b905060008111156122c9576122c83382612b77565b5b505b6000831115612345576123253330858560000160009054906101000a900473ffffffffffffffffffffffffffffffffffffffff1673ffffffffffffffffffffffffffffffffffffffff16612e1f909392919063ffffffff16565b61233c83826000015461287890919063ffffffff16565b81600001819055505b680340aad21b3b7000008160000154106123775760018160030160006101000a81548160ff0219169083151502179055505b6123a964e8d4a5100061239b84600301548460000154612b3590919063ffffffff16565b612b4b90919063ffffffff16565b8160010181905550428160020181905550833373ffffffffffffffffffffffffffffffffffffffff167f36af321ec8d3c75236829c5317affd40ddb308863a1236d2d277a4025cccee1e858460020154604051612407929190614256565b60405180910390a350505050565b600060019054906101000a900460ff168061243b575060008054906101000a900460ff16155b61247a576040517f08c379a0000000000000000000000000000000000000000000000000000000008152600401612471906140db565b60405180910390fd5b60008060019054906101000a900460ff1615905080156124ca576001600060016101000a81548160ff02191690831515021790555060016000806101000a81548160ff0219169083151502179055505b6124d2612f6e565b8460c960006101000a81548173ffffffffffffffffffffffffffffffffffffffff021916908373ffffffffffffffffffffffffffffffffffffffff1602179055508360cb60006101000a81548173ffffffffffffffffffffffffffffffffffffffff021916908373ffffffffffffffffffffffffffffffffffffffff1602179055508260cc819055508160d281905550600160cd81905550600060ce81905550600060d18190555060cf6040518060a00160405280600073ffffffffffffffffffffffffffffffffffffffff16815260200160008152602001848152602001600081526020016000815250908060018154018082558091505060019003906000526020600020906005020160009091909190915060008201518160000160006101000a81548173ffffffffffffffffffffffffffffffffffffffff021916908373ffffffffffffffffffffffffffffffffffffffff16021790555060208201518160010155604082015181600201556060820151816003015560808201518160040155505080156126785760008060016101000a81548160ff0219169083151502179055505b5050505050565b612687612870565b73ffffffffffffffffffffffffffffffffffffffff166126a5611c96565b73ffffffffffffffffffffffffffffffffffffffff16146126fb576040517f08c379a00000000000000000000000000000000000000000000000000000000081526004016126f29061415b565b60405180910390fd5b600073ffffffffffffffffffffffffffffffffffffffff168173ffffffffffffffffffffffffffffffffffffffff16141561276b576040517f08c379a00000000000000000000000000000000000000000000000000000000081526004016127629061405b565b60405180910390fd5b61277481612ea8565b50565b600080600060ca60009054906101000a900473ffffffffffffffffffffffffffffffffffffffff1673ffffffffffffffffffffffffffffffffffffffff166394f13f4a856040518263ffffffff1660e01b81526004016127d7919061423b565b604080518083038186803b1580156127ee57600080fd5b505afa158015612802573d6000803e3d6000fd5b505050506040513d601f19601f820116820180604052508101906128269190613a65565b915091506000603290506005821415612843576101f49050612865565b60048214156128555760fa9050612864565b600382141561286357606490505b5b5b809350505050919050565b600033905090565b6000818361288691906143cd565b905092915050565b60006128bc7f360894a13ba1a3210667c828492db98dca3e2076cc3735a920a3ca505d382bbc60001b613057565b60000160009054906101000a900473ffffffffffffffffffffffffffffffffffffffff16905090565b6128ed612870565b73ffffffffffffffffffffffffffffffffffffffff1661290b611c96565b73ffffffffffffffffffffffffffffffffffffffff1614612961576040517f08c379a00000000000000000000000000000000000000000000000000000000081526004016129589061415b565b60405180910390fd5b50565b600061296e61288e565b905061297984613061565b6000835111806129865750815b1561299757612995848461311a565b505b60006129c57f4910fdfa16fed3260ed0e7147f7cc6da11a60208b5b9406d12a635614ffd914360001b6131fe565b90508060000160009054906101000a900460ff16612b2e5760018160000160006101000a81548160ff021916908315150217905550612a918583604051602401612a0f9190613ea3565b6040516020818303038152906040527f3659cfe6000000000000000000000000000000000000000000000000000000007bffffffffffffffffffffffffffffffffffffffffffffffffffffffff19166020820180517bffffffffffffffffffffffffffffffffffffffffffffffffffffffff838183161783525050505061311a565b5060008160000160006101000a81548160ff021916908315150217905550612ab761288e565b73ffffffffffffffffffffffffffffffffffffffff168273ffffffffffffffffffffffffffffffffffffffff1614612b24576040517f08c379a0000000000000000000000000000000000000000000000000000000008152600401612b1b9061403b565b60405180910390fd5b612b2d85613208565b5b5050505050565b60008183612b439190614454565b905092915050565b60008183612b599190614423565b905092915050565b60008183612b6f91906144ae565b905092915050565b600060c960009054906101000a900473ffffffffffffffffffffffffffffffffffffffff1673ffffffffffffffffffffffffffffffffffffffff166370a08231306040518263ffffffff1660e01b8152600401612bd49190613ea3565b60206040518083038186803b158015612bec57600080fd5b505afa158015612c00573d6000803e3d6000fd5b505050506040513d601f19601f82011682018060405250810190612c249190613975565b905080821115612ce35760c960009054906101000a900473ffffffffffffffffffffffffffffffffffffffff1673ffffffffffffffffffffffffffffffffffffffff1663a9059cbb84836040518363ffffffff1660e01b8152600401612c8b929190613ef5565b602060405180830381600087803b158015612ca557600080fd5b505af1158015612cb9573d6000803e3d6000fd5b505050506040513d601f19601f82011682018060405250810190612cdd9190613923565b50612d94565b60c960009054906101000a900473ffffffffffffffffffffffffffffffffffffffff1673ffffffffffffffffffffffffffffffffffffffff1663a9059cbb84846040518363ffffffff1660e01b8152600401612d40929190613ef5565b602060405180830381600087803b158015612d5a57600080fd5b505af1158015612d6e573d6000803e3d6000fd5b505050506040513d601f19601f82011682018060405250810190612d929190613923565b505b505050565b612e1a8363a9059cbb60e01b8484604051602401612db8929190613ef5565b604051602081830303815290604052907bffffffffffffffffffffffffffffffffffffffffffffffffffffffff19166020820180517bffffffffffffffffffffffffffffffffffffffffffffffffffffffff8381831617835250505050613257565b505050565b612ea2846323b872dd60e01b858585604051602401612e4093929190613ebe565b604051602081830303815290604052907bffffffffffffffffffffffffffffffffffffffffffffffffffffffff19166020820180517bffffffffffffffffffffffffffffffffffffffffffffffffffffffff8381831617835250505050613257565b50505050565b6000609760009054906101000a900473ffffffffffffffffffffffffffffffffffffffff16905081609760006101000a81548173ffffffffffffffffffffffffffffffffffffffff021916908373ffffffffffffffffffffffffffffffffffffffff1602179055508173ffffffffffffffffffffffffffffffffffffffff168173ffffffffffffffffffffffffffffffffffffffff167f8be0079c531659141344cd1fd0a4f28419497f9722a3daafe3b4186f6b6457e060405160405180910390a35050565b600060019054906101000a900460ff1680612f94575060008054906101000a900460ff16155b612fd3576040517f08c379a0000000000000000000000000000000000000000000000000000000008152600401612fca906140db565b60405180910390fd5b60008060019054906101000a900460ff161590508015613023576001600060016101000a81548160ff02191690831515021790555060016000806101000a81548160ff0219169083151502179055505b61302b61331e565b6130336133f7565b80156130545760008060016101000a81548160ff0219169083151502179055505b50565b6000819050919050565b61306a816134e0565b6130a9576040517f08c379a00000000000000000000000000000000000000000000000000000000081526004016130a09061413b565b60405180910390fd5b806130d67f360894a13ba1a3210667c828492db98dca3e2076cc3735a920a3ca505d382bbc60001b613057565b60000160006101000a81548173ffffffffffffffffffffffffffffffffffffffff021916908373ffffffffffffffffffffffffffffffffffffffff16021790555050565b6060613125836134e0565b613164576040517f08c379a000000000000000000000000000000000000000000000000000000000815260040161315b9061417b565b60405180910390fd5b6000808473ffffffffffffffffffffffffffffffffffffffff168460405161318c9190613e8c565b600060405180830381855af49150503d80600081146131c7576040519150601f19603f3d011682016040523d82523d6000602084013e6131cc565b606091505b50915091506131f48282604051806060016040528060278152602001614be0602791396134f3565b9250505092915050565b6000819050919050565b61321181613061565b8073ffffffffffffffffffffffffffffffffffffffff167fbc7cd75a20ee27fd9adebab32041f755214dbc6bffa90cc0225b39da2e5c2d3b60405160405180910390a250565b60006132b9826040518060400160405280602081526020017f5361666545524332303a206c6f772d6c6576656c2063616c6c206661696c65648152508573ffffffffffffffffffffffffffffffffffffffff1661355a9092919063ffffffff16565b905060008151111561331957808060200190518101906132d99190613923565b613318576040517f08c379a000000000000000000000000000000000000000000000000000000000815260040161330f906141fb565b60405180910390fd5b5b505050565b600060019054906101000a900460ff1680613344575060008054906101000a900460ff16155b613383576040517f08c379a000000000000000000000000000000000000000000000000000000000815260040161337a906140db565b60405180910390fd5b60008060019054906101000a900460ff1615905080156133d3576001600060016101000a81548160ff02191690831515021790555060016000806101000a81548160ff0219169083151502179055505b80156133f45760008060016101000a81548160ff0219169083151502179055505b50565b600060019054906101000a900460ff168061341d575060008054906101000a900460ff16155b61345c576040517f08c379a0000000000000000000000000000000000000000000000000000000008152600401613453906140db565b60405180910390fd5b60008060019054906101000a900460ff1615905080156134ac576001600060016101000a81548160ff02191690831515021790555060016000806101000a81548160ff0219169083151502179055505b6134bc6134b7612870565b612ea8565b80156134dd5760008060016101000a81548160ff0219169083151502179055505b50565b600080823b905060008111915050919050565b6060831561350357829050613553565b6000835111156135165782518084602001fd5b816040517f08c379a000000000000000000000000000000000000000000000000000000000815260040161354a9190613ff9565b60405180910390fd5b9392505050565b60606135698484600085613572565b90509392505050565b6060824710156135b7576040517f08c379a00000000000000000000000000000000000000000000000000000000081526004016135ae906140bb565b60405180910390fd5b6135c0856134e0565b6135ff576040517f08c379a00000000000000000000000000000000000000000000000000000000081526004016135f6906141bb565b60405180910390fd5b6000808673ffffffffffffffffffffffffffffffffffffffff1685876040516136289190613e8c565b60006040518083038185875af1925050503d8060008114613665576040519150601f19603f3d011682016040523d82523d6000602084013e61366a565b606091505b509150915061367a8282866134f3565b92505050949350505050565b600061369961369484614305565b6142e0565b905080838252602082019050828560208602820111156136b857600080fd5b60005b858110156136e857816136ce88826137d8565b8452602084019350602083019250506001810190506136bb565b5050509392505050565b600061370561370084614331565b6142e0565b90508281526020810184848401111561371d57600080fd5b6137288482856145a8565b509392505050565b60008135905061373f81614b83565b92915050565b600082601f83011261375657600080fd5b8135613766848260208601613686565b91505092915050565b60008135905061377e81614b9a565b92915050565b60008151905061379381614b9a565b92915050565b600082601f8301126137aa57600080fd5b81356137ba8482602086016136f2565b91505092915050565b6000813590506137d281614bb1565b92915050565b6000813590506137e781614bc8565b92915050565b6000815190506137fc81614bc8565b92915050565b60006020828403121561381457600080fd5b600061382284828501613730565b91505092915050565b6000806000806080858703121561384157600080fd5b600061384f87828801613730565b945050602061386087828801613730565b9350506040613871878288016137d8565b9250506060613882878288016137d8565b91505092959194509250565b600080604083850312156138a157600080fd5b60006138af85828601613730565b925050602083013567ffffffffffffffff8111156138cc57600080fd5b6138d885828601613799565b9150509250929050565b6000602082840312156138f457600080fd5b600082013567ffffffffffffffff81111561390e57600080fd5b61391a84828501613745565b91505092915050565b60006020828403121561393557600080fd5b600061394384828501613784565b91505092915050565b60006020828403121561395e57600080fd5b600061396c848285016137d8565b91505092915050565b60006020828403121561398757600080fd5b6000613995848285016137ed565b91505092915050565b600080604083850312156139b157600080fd5b60006139bf858286016137d8565b92505060206139d085828601613730565b9150509250929050565b6000806000606084860312156139ef57600080fd5b60006139fd868287016137d8565b9350506020613a0e868287016137c3565b9250506040613a1f8682870161376f565b9150509250925092565b60008060408385031215613a3c57600080fd5b6000613a4a858286016137d8565b9250506020613a5b858286016137d8565b9150509250929050565b60008060408385031215613a7857600080fd5b6000613a86858286016137ed565b9250506020613a97858286016137ed565b9150509250929050565b600080600060608486031215613ab657600080fd5b6000613ac4868287016137d8565b9350506020613ad5868287016137d8565b9250506040613ae68682870161376f565b9150509250925092565b6000613afc8383613e6e565b60208301905092915050565b613b11816144e2565b82525050565b6000613b2282614372565b613b2c81856143a0565b9350613b3783614362565b8060005b83811015613b68578151613b4f8882613af0565b9750613b5a83614393565b925050600181019050613b3b565b5085935050505092915050565b613b7e816144f4565b82525050565b6000613b8f8261437d565b613b9981856143b1565b9350613ba98185602086016145b7565b80840191505092915050565b613bbe8161453c565b82525050565b613bcd81614560565b82525050565b613bdc81614584565b82525050565b6000613bed82614388565b613bf781856143bc565b9350613c078185602086016145b7565b613c10816146f1565b840191505092915050565b6000613c28601a836143bc565b9150613c3382614702565b602082019050919050565b6000613c4b602f836143bc565b9150613c568261472b565b604082019050919050565b6000613c6e6026836143bc565b9150613c798261477a565b604082019050919050565b6000613c91602c836143bc565b9150613c9c826147c9565b604082019050919050565b6000613cb4602c836143bc565b9150613cbf82614818565b604082019050919050565b6000613cd76026836143bc565b9150613ce282614867565b604082019050919050565b6000613cfa602e836143bc565b9150613d05826148b6565b604082019050919050565b6000613d1d6009836143bc565b9150613d2882614905565b602082019050919050565b6000613d406032836143bc565b9150613d4b8261492e565b604082019050919050565b6000613d63602d836143bc565b9150613d6e8261497d565b604082019050919050565b6000613d866020836143bc565b9150613d91826149cc565b602082019050919050565b6000613da96026836143bc565b9150613db4826149f5565b604082019050919050565b6000613dcc603d836143bc565b9150613dd782614a44565b604082019050919050565b6000613def601d836143bc565b9150613dfa82614a93565b602082019050919050565b6000613e126012836143bc565b9150613e1d82614abc565b602082019050919050565b6000613e35602a836143bc565b9150613e4082614ae5565b604082019050919050565b6000613e586036836143bc565b9150613e6382614b34565b604082019050919050565b613e7781614532565b82525050565b613e8681614532565b82525050565b6000613e988284613b84565b915081905092915050565b6000602082019050613eb86000830184613b08565b92915050565b6000606082019050613ed36000830186613b08565b613ee06020830185613b08565b613eed6040830184613e7d565b949350505050565b6000604082019050613f0a6000830185613b08565b613f176020830184613e7d565b9392505050565b60006020820190508181036000830152613f388184613b17565b905092915050565b60006040820190508181036000830152613f5a8185613b17565b9050613f696020830184613e7d565b9392505050565b6000602082019050613f856000830184613bb5565b92915050565b600060a082019050613fa06000830188613bc4565b613fad6020830187613e7d565b613fba6040830186613e7d565b613fc76060830185613e7d565b613fd46080830184613e7d565b9695505050505050565b6000602082019050613ff36000830184613bd3565b92915050565b600060208201905081810360008301526140138184613be2565b905092915050565b6000602082019050818103600083015261403481613c1b565b9050919050565b6000602082019050818103600083015261405481613c3e565b9050919050565b6000602082019050818103600083015261407481613c61565b9050919050565b6000602082019050818103600083015261409481613c84565b9050919050565b600060208201905081810360008301526140b481613ca7565b9050919050565b600060208201905081810360008301526140d481613cca565b9050919050565b600060208201905081810360008301526140f481613ced565b9050919050565b6000602082019050818103600083015261411481613d10565b9050919050565b6000602082019050818103600083015261413481613d33565b9050919050565b6000602082019050818103600083015261415481613d56565b9050919050565b6000602082019050818103600083015261417481613d79565b9050919050565b6000602082019050818103600083015261419481613d9c565b9050919050565b600060208201905081810360008301526141b481613dbf565b9050919050565b600060208201905081810360008301526141d481613de2565b9050919050565b600060208201905081810360008301526141f481613e05565b9050919050565b6000602082019050818103600083015261421481613e28565b9050919050565b6000602082019050818103600083015261423481613e4b565b9050919050565b60006020820190506142506000830184613e7d565b92915050565b600060408201905061426b6000830185613e7d565b6142786020830184613e7d565b9392505050565b600060c0820190506142946000830189613e7d565b6142a16020830188613e7d565b6142ae6040830187613e7d565b6142bb6060830186613b75565b6142c86080830185613e7d565b6142d560a0830184613e7d565b979650505050505050565b60006142ea6142fb565b90506142f682826145ea565b919050565b6000604051905090565b600067ffffffffffffffff8211156143205761431f6146c2565b5b602082029050602081019050919050565b600067ffffffffffffffff82111561434c5761434b6146c2565b5b614355826146f1565b9050602081019050919050565b6000819050602082019050919050565b600081519050919050565b600081519050919050565b600081519050919050565b6000602082019050919050565b600082825260208201905092915050565b600081905092915050565b600082825260208201905092915050565b60006143d882614532565b91506143e383614532565b9250827fffffffffffffffffffffffffffffffffffffffffffffffffffffffffffffffff0382111561441857614417614664565b5b828201905092915050565b600061442e82614532565b915061443983614532565b92508261444957614448614693565b5b828204905092915050565b600061445f82614532565b915061446a83614532565b9250817fffffffffffffffffffffffffffffffffffffffffffffffffffffffffffffffff04831182151516156144a3576144a2614664565b5b828202905092915050565b60006144b982614532565b91506144c483614532565b9250828210156144d7576144d6614664565b5b828203905092915050565b60006144ed82614512565b9050919050565b60008115159050919050565b600061450b826144e2565b9050919050565b600073ffffffffffffffffffffffffffffffffffffffff82169050919050565b6000819050919050565b60006145478261454e565b9050919050565b600061455982614512565b9050919050565b600061456b82614572565b9050919050565b600061457d82614512565b9050919050565b600061458f82614596565b9050919050565b60006145a182614512565b9050919050565b82818337600083830152505050565b60005b838110156145d55780820151818401526020810190506145ba565b838111156145e4576000848401525b50505050565b6145f3826146f1565b810181811067ffffffffffffffff82111715614612576146116146c2565b5b80604052505050565b600061462682614532565b91507fffffffffffffffffffffffffffffffffffffffffffffffffffffffffffffffff82141561465957614658614664565b5b600182019050919050565b7f4e487b7100000000000000000000000000000000000000000000000000000000600052601160045260246000fd5b7f4e487b7100000000000000000000000000000000000000000000000000000000600052601260045260246000fd5b7f4e487b7100000000000000000000000000000000000000000000000000000000600052604160045260246000fd5b6000601f19601f8301169050919050565b7f6465706f7369743a206e6f74204c5020746f6b656e20706f6f6c000000000000600082015250565b7f45524331393637557067726164653a207570677261646520627265616b73206660008201527f7572746865722075706772616465730000000000000000000000000000000000602082015250565b7f4f776e61626c653a206e6577206f776e657220697320746865207a65726f206160008201527f6464726573730000000000000000000000000000000000000000000000000000602082015250565b7f46756e6374696f6e206d7573742062652063616c6c6564207468726f7567682060008201527f64656c656761746563616c6c0000000000000000000000000000000000000000602082015250565b7f46756e6374696f6e206d7573742062652063616c6c6564207468726f7567682060008201527f6163746976652070726f78790000000000000000000000000000000000000000602082015250565b7f416464726573733a20696e73756666696369656e742062616c616e636520666f60008201527f722063616c6c0000000000000000000000000000000000000000000000000000602082015250565b7f496e697469616c697a61626c653a20636f6e747261637420697320616c72656160008201527f647920696e697469616c697a6564000000000000000000000000000000000000602082015250565b7f6465763a207775743f0000000000000000000000000000000000000000000000600082015250565b7f736574486f776c506572426c6f636b3a20616d6f756e74206d7573742062652060008201527f67726561746572207468616e2031207765690000000000000000000000000000602082015250565b7f455243313936373a206e657720696d706c656d656e746174696f6e206973206e60008201527f6f74206120636f6e747261637400000000000000000000000000000000000000602082015250565b7f4f776e61626c653a2063616c6c6572206973206e6f7420746865206f776e6572600082015250565b7f416464726573733a2064656c65676174652063616c6c20746f206e6f6e2d636f60008201527f6e74726163740000000000000000000000000000000000000000000000000000602082015250565b7f77697468647261774e46543a204e4654207769746864726177616c206973206f60008201527f6e6c7920617661696c61626c65206166746572206c6f636b2074696d65000000602082015250565b7f416464726573733a2063616c6c20746f206e6f6e2d636f6e7472616374000000600082015250565b7f77697468647261773a206e6f7420676f6f640000000000000000000000000000600082015250565b7f5361666545524332303a204552433230206f7065726174696f6e20646964206e60008201527f6f74207375636365656400000000000000000000000000000000000000000000602082015250565b7f77697468647261773a207769746864726177616c206973206f6e6c792061766160008201527f696c61626c65206166746572206c6f636b2074696d6500000000000000000000602082015250565b614b8c816144e2565b8114614b9757600080fd5b50565b614ba3816144f4565b8114614bae57600080fd5b50565b614bba81614500565b8114614bc557600080fd5b50565b614bd181614532565b8114614bdc57600080fd5b5056fe416464726573733a206c6f772d6c6576656c2064656c65676174652063616c6c206661696c6564a26469706673582212205d7ad92a30de9dd44c6a2ac77d06aeeebfa55234c786e3038dd4e427ce62a2b264736f6c63430008020033",
  "linkReferences": {},
  "deployedLinkReferences": {}
}