{
  "_format": "hh-sol-artifact-1",
  "contractName": "HowlToken",
  "sourceName": "contracts/HowlToken.sol",
  "abi": [
    {
      "inputs": [],
      "stateMutability": "nonpayable",
      "type": "constructor"
    },
    {
      "anonymous": false,
      "inputs": [
        {
          "indexed": true,
          "internalType": "address",
          "name": "owner",
          "type": "address"
        },
        {
          "indexed": true,
          "internalType": "address",
          "name": "spender",
          "type": "address"
        },
        {
          "indexed": false,
          "internalType": "uint256",
          "name": "value",
          "type": "uint256"
        }
      ],
      "name": "Approval",
      "type": "event"
    },
    {
      "anonymous": false,
      "inputs": [
        {
          "indexed": false,
          "internalType": "address",
          "name": "account",
          "type": "address"
        }
      ],
      "name": "Paused",
      "type": "event"
    },
    {
      "anonymous": false,
      "inputs": [
        {
          "indexed": true,
          "internalType": "bytes32",
          "name": "role",
          "type": "bytes32"
        },
        {
          "indexed": true,
          "internalType": "bytes32",
          "name": "previousAdminRole",
          "type": "bytes32"
        },
        {
          "indexed": true,
          "internalType": "bytes32",
          "name": "newAdminRole",
          "type": "bytes32"
        }
      ],
      "name": "RoleAdminChanged",
      "type": "event"
    },
    {
      "anonymous": false,
      "inputs": [
        {
          "indexed": true,
          "internalType": "bytes32",
          "name": "role",
          "type": "bytes32"
        },
        {
          "indexed": true,
          "internalType": "address",
          "name": "account",
          "type": "address"
        },
        {
          "indexed": true,
          "internalType": "address",
          "name": "sender",
          "type": "address"
        }
      ],
      "name": "RoleGranted",
      "type": "event"
    },
    {
      "anonymous": false,
      "inputs": [
        {
          "indexed": true,
          "internalType": "bytes32",
          "name": "role",
          "type": "bytes32"
        },
        {
          "indexed": true,
          "internalType": "address",
          "name": "account",
          "type": "address"
        },
        {
          "indexed": true,
          "internalType": "address",
          "name": "sender",
          "type": "address"
        }
      ],
      "name": "RoleRevoked",
      "type": "event"
    },
    {
      "anonymous": false,
      "inputs": [
        {
          "indexed": true,
          "internalType": "address",
          "name": "from",
          "type": "address"
        },
        {
          "indexed": true,
          "internalType": "address",
          "name": "to",
          "type": "address"
        },
        {
          "indexed": false,
          "internalType": "uint256",
          "name": "value",
          "type": "uint256"
        }
      ],
      "name": "Transfer",
      "type": "event"
    },
    {
      "anonymous": false,
      "inputs": [
        {
          "indexed": false,
          "internalType": "address",
          "name": "account",
          "type": "address"
        }
      ],
      "name": "Unpaused",
      "type": "event"
    },
    {
      "inputs": [],
      "name": "DEFAULT_ADMIN_ROLE",
      "outputs": [
        {
          "internalType": "bytes32",
          "name": "",
          "type": "bytes32"
        }
      ],
      "stateMutability": "view",
      "type": "function"
    },
    {
      "inputs": [],
      "name": "MINTER_ROLE",
      "outputs": [
        {
          "internalType": "bytes32",
          "name": "",
          "type": "bytes32"
        }
      ],
      "stateMutability": "view",
      "type": "function"
    },
    {
      "inputs": [],
      "name": "PAUSER_ROLE",
      "outputs": [
        {
          "internalType": "bytes32",
          "name": "",
          "type": "bytes32"
        }
      ],
      "stateMutability": "view",
      "type": "function"
    },
    {
      "inputs": [
        {
          "internalType": "address",
          "name": "owner",
          "type": "address"
        },
        {
          "internalType": "address",
          "name": "spender",
          "type": "address"
        }
      ],
      "name": "allowance",
      "outputs": [
        {
          "internalType": "uint256",
          "name": "",
          "type": "uint256"
        }
      ],
      "stateMutability": "view",
      "type": "function"
    },
    {
      "inputs": [
        {
          "internalType": "address",
          "name": "spender",
          "type": "address"
        },
        {
          "internalType": "uint256",
          "name": "amount",
          "type": "uint256"
        }
      ],
      "name": "approve",
      "outputs": [
        {
          "internalType": "bool",
          "name": "",
          "type": "bool"
        }
      ],
      "stateMutability": "nonpayable",
      "type": "function"
    },
    {
      "inputs": [
        {
          "internalType": "address",
          "name": "account",
          "type": "address"
        }
      ],
      "name": "balanceOf",
      "outputs": [
        {
          "internalType": "uint256",
          "name": "",
          "type": "uint256"
        }
      ],
      "stateMutability": "view",
      "type": "function"
    },
    {
      "inputs": [
        {
          "internalType": "uint256",
          "name": "amount",
          "type": "uint256"
        }
      ],
      "name": "burn",
      "outputs": [],
      "stateMutability": "nonpayable",
      "type": "function"
    },
    {
      "inputs": [
        {
          "internalType": "address",
          "name": "account",
          "type": "address"
        },
        {
          "internalType": "uint256",
          "name": "amount",
          "type": "uint256"
        }
      ],
      "name": "burnFrom",
      "outputs": [],
      "stateMutability": "nonpayable",
      "type": "function"
    },
    {
      "inputs": [],
      "name": "decimals",
      "outputs": [
        {
          "internalType": "uint8",
          "name": "",
          "type": "uint8"
        }
      ],
      "stateMutability": "view",
      "type": "function"
    },
    {
      "inputs": [
        {
          "internalType": "address",
          "name": "spender",
          "type": "address"
        },
        {
          "internalType": "uint256",
          "name": "subtractedValue",
          "type": "uint256"
        }
      ],
      "name": "decreaseAllowance",
      "outputs": [
        {
          "internalType": "bool",
          "name": "",
          "type": "bool"
        }
      ],
      "stateMutability": "nonpayable",
      "type": "function"
    },
    {
      "inputs": [
        {
          "internalType": "bytes32",
          "name": "role",
          "type": "bytes32"
        }
      ],
      "name": "getRoleAdmin",
      "outputs": [
        {
          "internalType": "bytes32",
          "name": "",
          "type": "bytes32"
        }
      ],
      "stateMutability": "view",
      "type": "function"
    },
    {
      "inputs": [
        {
          "internalType": "bytes32",
          "name": "role",
          "type": "bytes32"
        },
        {
          "internalType": "address",
          "name": "account",
          "type": "address"
        }
      ],
      "name": "grantRole",
      "outputs": [],
      "stateMutability": "nonpayable",
      "type": "function"
    },
    {
      "inputs": [
        {
          "internalType": "bytes32",
          "name": "role",
          "type": "bytes32"
        },
        {
          "internalType": "address",
          "name": "account",
          "type": "address"
        }
      ],
      "name": "hasRole",
      "outputs": [
        {
          "internalType": "bool",
          "name": "",
          "type": "bool"
        }
      ],
      "stateMutability": "view",
      "type": "function"
    },
    {
      "inputs": [
        {
          "internalType": "address",
          "name": "spender",
          "type": "address"
        },
        {
          "internalType": "uint256",
          "name": "addedValue",
          "type": "uint256"
        }
      ],
      "name": "increaseAllowance",
      "outputs": [
        {
          "internalType": "bool",
          "name": "",
          "type": "bool"
        }
      ],
      "stateMutability": "nonpayable",
      "type": "function"
    },
    {
      "inputs": [
        {
          "internalType": "address",
          "name": "to",
          "type": "address"
        },
        {
          "internalType": "uint256",
          "name": "amount",
          "type": "uint256"
        }
      ],
      "name": "mint",
      "outputs": [],
      "stateMutability": "nonpayable",
      "type": "function"
    },
    {
      "inputs": [],
      "name": "name",
      "outputs": [
        {
          "internalType": "string",
          "name": "",
          "type": "string"
        }
      ],
      "stateMutability": "view",
      "type": "function"
    },
    {
      "inputs": [],
      "name": "pause",
      "outputs": [],
      "stateMutability": "nonpayable",
      "type": "function"
    },
    {
      "inputs": [],
      "name": "paused",
      "outputs": [
        {
          "internalType": "bool",
          "name": "",
          "type": "bool"
        }
      ],
      "stateMutability": "view",
      "type": "function"
    },
    {
      "inputs": [
        {
          "internalType": "bytes32",
          "name": "role",
          "type": "bytes32"
        },
        {
          "internalType": "address",
          "name": "account",
          "type": "address"
        }
      ],
      "name": "renounceRole",
      "outputs": [],
      "stateMutability": "nonpayable",
      "type": "function"
    },
    {
      "inputs": [
        {
          "internalType": "bytes32",
          "name": "role",
          "type": "bytes32"
        },
        {
          "internalType": "address",
          "name": "account",
          "type": "address"
        }
      ],
      "name": "revokeRole",
      "outputs": [],
      "stateMutability": "nonpayable",
      "type": "function"
    },
    {
      "inputs": [
        {
          "internalType": "bytes4",
          "name": "interfaceId",
          "type": "bytes4"
        }
      ],
      "name": "supportsInterface",
      "outputs": [
        {
          "internalType": "bool",
          "name": "",
          "type": "bool"
        }
      ],
      "stateMutability": "view",
      "type": "function"
    },
    {
      "inputs": [],
      "name": "symbol",
      "outputs": [
        {
          "internalType": "string",
          "name": "",
          "type": "string"
        }
      ],
      "stateMutability": "view",
      "type": "function"
    },
    {
      "inputs": [],
      "name": "totalSupply",
      "outputs": [
        {
          "internalType": "uint256",
          "name": "",
          "type": "uint256"
        }
      ],
      "stateMutability": "view",
      "type": "function"
    },
    {
      "inputs": [
        {
          "internalType": "address",
          "name": "recipient",
          "type": "address"
        },
        {
          "internalType": "uint256",
          "name": "amount",
          "type": "uint256"
        }
      ],
      "name": "transfer",
      "outputs": [
        {
          "internalType": "bool",
          "name": "",
          "type": "bool"
        }
      ],
      "stateMutability": "nonpayable",
      "type": "function"
    },
    {
      "inputs": [
        {
          "internalType": "address",
          "name": "sender",
          "type": "address"
        },
        {
          "internalType": "address",
          "name": "recipient",
          "type": "address"
        },
        {
          "internalType": "uint256",
          "name": "amount",
          "type": "uint256"
        }
      ],
      "name": "transferFrom",
      "outputs": [
        {
          "internalType": "bool",
          "name": "",
          "type": "bool"
        }
      ],
      "stateMutability": "nonpayable",
      "type": "function"
    },
    {
      "inputs": [],
      "name": "unpause",
      "outputs": [],
      "stateMutability": "nonpayable",
      "type": "function"
    }
  ],
  "bytecode": "0x60806040523480156200001157600080fd5b506040518060400160405280600981526020017f486f776c546f6b656e00000000000000000000000000000000000000000000008152506040518060400160405280600381526020017f48574c00000000000000000000000000000000000000000000000000000000008152508160039080519060200190620000969291906200051a565b508060049080519060200190620000af9291906200051a565b5050506000600560006101000a81548160ff021916908315150217905550620000e26000801b336200018c60201b60201c565b620001147f65d7a28e3265b37a6474929f336521b332c1681b933f6cb9f3376673440d862a336200018c60201b60201c565b620001467f9f2df0fed2c77648de5860a4cc508cd0818c85b8b8a1ab4ceeef8d981c8956a6336200018c60201b60201c565b62000186336200015b620001a260201b60201c565b600a62000169919062000789565b631dcd65006200017a9190620008c6565b620001ab60201b60201c565b620009df565b6200019e82826200032460201b60201c565b5050565b60006012905090565b600073ffffffffffffffffffffffffffffffffffffffff168273ffffffffffffffffffffffffffffffffffffffff1614156200021e576040517f08c379a0000000000000000000000000000000000000000000000000000000008152600401620002159062000681565b60405180910390fd5b62000232600083836200041660201b60201c565b8060026000828254620002469190620006d1565b92505081905550806000808473ffffffffffffffffffffffffffffffffffffffff1673ffffffffffffffffffffffffffffffffffffffff16815260200190815260200160002060008282546200029d9190620006d1565b925050819055508173ffffffffffffffffffffffffffffffffffffffff16600073ffffffffffffffffffffffffffffffffffffffff167fddf252ad1be2c89b69c2b068fc378daa952ba7f163c4a11628f55a4df523b3ef83604051620003049190620006a3565b60405180910390a362000320600083836200048660201b60201c565b5050565b6200033682826200048b60201b60201c565b620004125760016006600084815260200190815260200160002060000160008373ffffffffffffffffffffffffffffffffffffffff1673ffffffffffffffffffffffffffffffffffffffff16815260200190815260200160002060006101000a81548160ff021916908315150217905550620003b7620004f660201b60201c565b73ffffffffffffffffffffffffffffffffffffffff168173ffffffffffffffffffffffffffffffffffffffff16837f2f8788117e7eff1d82e926ec794901d17c78024a50270940304540a733656f0d60405160405180910390a45b5050565b62000426620004fe60201b60201c565b1562000469576040517f08c379a000000000000000000000000000000000000000000000000000000000815260040162000460906200065f565b60405180910390fd5b620004818383836200051560201b62000d7a1760201c565b505050565b505050565b60006006600084815260200190815260200160002060000160008373ffffffffffffffffffffffffffffffffffffffff1673ffffffffffffffffffffffffffffffffffffffff16815260200190815260200160002060009054906101000a900460ff16905092915050565b600033905090565b6000600560009054906101000a900460ff16905090565b505050565b82805462000528906200093e565b90600052602060002090601f0160209004810192826200054c576000855562000598565b82601f106200056757805160ff191683800117855562000598565b8280016001018555821562000598579182015b82811115620005975782518255916020019190600101906200057a565b5b509050620005a79190620005ab565b5090565b5b80821115620005c6576000816000905550600101620005ac565b5090565b6000620005d9601083620006c0565b91507f5061757361626c653a20706175736564000000000000000000000000000000006000830152602082019050919050565b60006200061b601f83620006c0565b91507f45524332303a206d696e7420746f20746865207a65726f2061646472657373006000830152602082019050919050565b620006598162000927565b82525050565b600060208201905081810360008301526200067a81620005ca565b9050919050565b600060208201905081810360008301526200069c816200060c565b9050919050565b6000602082019050620006ba60008301846200064e565b92915050565b600082825260208201905092915050565b6000620006de8262000927565b9150620006eb8362000927565b9250827fffffffffffffffffffffffffffffffffffffffffffffffffffffffffffffffff0382111562000723576200072262000974565b5b828201905092915050565b6000808291508390505b6001851115620007805780860481111562000758576200075762000974565b5b6001851615620007685780820291505b80810290506200077885620009d2565b945062000738565b94509492505050565b6000620007968262000927565b9150620007a38362000931565b9250620007d27fffffffffffffffffffffffffffffffffffffffffffffffffffffffffffffffff8484620007da565b905092915050565b600082620007ec5760019050620008bf565b81620007fc5760009050620008bf565b8160018114620008155760028114620008205762000856565b6001915050620008bf565b60ff84111562000835576200083462000974565b5b8360020a9150848211156200084f576200084e62000974565b5b50620008bf565b5060208310610133831016604e8410600b8410161715620008905782820a9050838111156200088a576200088962000974565b5b620008bf565b6200089f84848460016200072e565b92509050818404811115620008b957620008b862000974565b5b81810290505b9392505050565b6000620008d38262000927565b9150620008e08362000927565b9250817fffffffffffffffffffffffffffffffffffffffffffffffffffffffffffffffff04831182151516156200091c576200091b62000974565b5b828202905092915050565b6000819050919050565b600060ff82169050919050565b600060028204905060018216806200095757607f821691505b602082108114156200096e576200096d620009a3565b5b50919050565b7f4e487b7100000000000000000000000000000000000000000000000000000000600052601160045260246000fd5b7f4e487b7100000000000000000000000000000000000000000000000000000000600052602260045260246000fd5b60008160011c9050919050565b612aeb80620009ef6000396000f3fe608060405234801561001057600080fd5b506004361061018e5760003560e01c80635c975abb116100de578063a217fddf11610097578063d539139311610071578063d539139314610497578063d547741f146104b5578063dd62ed3e146104d1578063e63ab1e9146105015761018e565b8063a217fddf14610419578063a457c2d714610437578063a9059cbb146104675761018e565b80635c975abb1461035757806370a082311461037557806379cc6790146103a55780638456cb59146103c157806391d14854146103cb57806395d89b41146103fb5761018e565b80632f2ff15d1161014b578063395093511161012557806339509351146102e55780633f4ba83a1461031557806340c10f191461031f57806342966c681461033b5761018e565b80632f2ff15d1461028f578063313ce567146102ab57806336568abe146102c95761018e565b806301ffc9a71461019357806306fdde03146101c3578063095ea7b3146101e157806318160ddd1461021157806323b872dd1461022f578063248a9ca31461025f575b600080fd5b6101ad60048036038101906101a89190611e19565b61051f565b6040516101ba9190612557565b60405180910390f35b6101cb610599565b6040516101d8919061258d565b60405180910390f35b6101fb60048036038101906101f69190611d78565b61062b565b6040516102089190612557565b60405180910390f35b610219610649565b604051610226919061278f565b60405180910390f35b61024960048036038101906102449190611d29565b610653565b6040516102569190612557565b60405180910390f35b61027960048036038101906102749190611db4565b61074b565b6040516102869190612572565b60405180910390f35b6102a960048036038101906102a49190611ddd565b61076b565b005b6102b3610794565b6040516102c091906127aa565b60405180910390f35b6102e360048036038101906102de9190611ddd565b61079d565b005b6102ff60048036038101906102fa9190611d78565b610820565b60405161030c9190612557565b60405180910390f35b61031d6108cc565b005b61033960048036038101906103349190611d78565b610909565b005b61035560048036038101906103509190611e42565b61094a565b005b61035f61095e565b60405161036c9190612557565b60405180910390f35b61038f600480360381019061038a9190611cc4565b610975565b60405161039c919061278f565b60405180910390f35b6103bf60048036038101906103ba9190611d78565b6109bd565b005b6103c9610a38565b005b6103e560048036038101906103e09190611ddd565b610a75565b6040516103f29190612557565b60405180910390f35b610403610ae0565b604051610410919061258d565b60405180910390f35b610421610b72565b60405161042e9190612572565b60405180910390f35b610451600480360381019061044c9190611d78565b610b79565b60405161045e9190612557565b60405180910390f35b610481600480360381019061047c9190611d78565b610c64565b60405161048e9190612557565b60405180910390f35b61049f610c82565b6040516104ac9190612572565b60405180910390f35b6104cf60048036038101906104ca9190611ddd565b610ca6565b005b6104eb60048036038101906104e69190611ced565b610ccf565b6040516104f8919061278f565b60405180910390f35b610509610d56565b6040516105169190612572565b60405180910390f35b60007f7965db0b000000000000000000000000000000000000000000000000000000007bffffffffffffffffffffffffffffffffffffffffffffffffffffffff1916827bffffffffffffffffffffffffffffffffffffffffffffffffffffffff19161480610592575061059182610d7f565b5b9050919050565b6060600380546105a8906129b8565b80601f01602080910402602001604051908101604052809291908181526020018280546105d4906129b8565b80156106215780601f106105f657610100808354040283529160200191610621565b820191906000526020600020905b81548152906001019060200180831161060457829003601f168201915b5050505050905090565b600061063f610638610de9565b8484610df1565b6001905092915050565b6000600254905090565b6000610660848484610fbc565b6000600160008673ffffffffffffffffffffffffffffffffffffffff1673ffffffffffffffffffffffffffffffffffffffff16815260200190815260200160002060006106ab610de9565b73ffffffffffffffffffffffffffffffffffffffff1673ffffffffffffffffffffffffffffffffffffffff1681526020019081526020016000205490508281101561072b576040517f08c379a00000000000000000000000000000000000000000000000000000000081526004016107229061268f565b60405180910390fd5b61073f85610737610de9565b858403610df1565b60019150509392505050565b600060066000838152602001908152602001600020600101549050919050565b6107748261074b565b61078581610780610de9565b61123d565b61078f83836112da565b505050565b60006012905090565b6107a5610de9565b73ffffffffffffffffffffffffffffffffffffffff168173ffffffffffffffffffffffffffffffffffffffff1614610812576040517f08c379a00000000000000000000000000000000000000000000000000000000081526004016108099061274f565b60405180910390fd5b61081c82826113bb565b5050565b60006108c261082d610de9565b84846001600061083b610de9565b73ffffffffffffffffffffffffffffffffffffffff1673ffffffffffffffffffffffffffffffffffffffff16815260200190815260200160002060008873ffffffffffffffffffffffffffffffffffffffff1673ffffffffffffffffffffffffffffffffffffffff168152602001908152602001600020546108bd91906127ec565b610df1565b6001905092915050565b7f65d7a28e3265b37a6474929f336521b332c1681b933f6cb9f3376673440d862a6108fe816108f9610de9565b61123d565b61090661149d565b50565b7f9f2df0fed2c77648de5860a4cc508cd0818c85b8b8a1ab4ceeef8d981c8956a661093b81610936610de9565b61123d565b610945838361153f565b505050565b61095b610955610de9565b8261169f565b50565b6000600560009054906101000a900460ff16905090565b60008060008373ffffffffffffffffffffffffffffffffffffffff1673ffffffffffffffffffffffffffffffffffffffff168152602001908152602001600020549050919050565b60006109d0836109cb610de9565b610ccf565b905081811015610a15576040517f08c379a0000000000000000000000000000000000000000000000000000000008152600401610a0c906126af565b60405180910390fd5b610a2983610a21610de9565b848403610df1565b610a33838361169f565b505050565b7f65d7a28e3265b37a6474929f336521b332c1681b933f6cb9f3376673440d862a610a6a81610a65610de9565b61123d565b610a72611876565b50565b60006006600084815260200190815260200160002060000160008373ffffffffffffffffffffffffffffffffffffffff1673ffffffffffffffffffffffffffffffffffffffff16815260200190815260200160002060009054906101000a900460ff16905092915050565b606060048054610aef906129b8565b80601f0160208091040260200160405190810160405280929190818152602001828054610b1b906129b8565b8015610b685780601f10610b3d57610100808354040283529160200191610b68565b820191906000526020600020905b815481529060010190602001808311610b4b57829003601f168201915b5050505050905090565b6000801b81565b60008060016000610b88610de9565b73ffffffffffffffffffffffffffffffffffffffff1673ffffffffffffffffffffffffffffffffffffffff16815260200190815260200160002060008573ffffffffffffffffffffffffffffffffffffffff1673ffffffffffffffffffffffffffffffffffffffff16815260200190815260200160002054905082811015610c45576040517f08c379a0000000000000000000000000000000000000000000000000000000008152600401610c3c9061272f565b60405180910390fd5b610c59610c50610de9565b85858403610df1565b600191505092915050565b6000610c78610c71610de9565b8484610fbc565b6001905092915050565b7f9f2df0fed2c77648de5860a4cc508cd0818c85b8b8a1ab4ceeef8d981c8956a681565b610caf8261074b565b610cc081610cbb610de9565b61123d565b610cca83836113bb565b505050565b6000600160008473ffffffffffffffffffffffffffffffffffffffff1673ffffffffffffffffffffffffffffffffffffffff16815260200190815260200160002060008373ffffffffffffffffffffffffffffffffffffffff1673ffffffffffffffffffffffffffffffffffffffff16815260200190815260200160002054905092915050565b7f65d7a28e3265b37a6474929f336521b332c1681b933f6cb9f3376673440d862a81565b505050565b60007f01ffc9a7000000000000000000000000000000000000000000000000000000007bffffffffffffffffffffffffffffffffffffffffffffffffffffffff1916827bffffffffffffffffffffffffffffffffffffffffffffffffffffffff1916149050919050565b600033905090565b600073ffffffffffffffffffffffffffffffffffffffff168373ffffffffffffffffffffffffffffffffffffffff161415610e61576040517f08c379a0000000000000000000000000000000000000000000000000000000008152600401610e589061270f565b60405180910390fd5b600073ffffffffffffffffffffffffffffffffffffffff168273ffffffffffffffffffffffffffffffffffffffff161415610ed1576040517f08c379a0000000000000000000000000000000000000000000000000000000008152600401610ec89061262f565b60405180910390fd5b80600160008573ffffffffffffffffffffffffffffffffffffffff1673ffffffffffffffffffffffffffffffffffffffff16815260200190815260200160002060008473ffffffffffffffffffffffffffffffffffffffff1673ffffffffffffffffffffffffffffffffffffffff168152602001908152602001600020819055508173ffffffffffffffffffffffffffffffffffffffff168373ffffffffffffffffffffffffffffffffffffffff167f8c5be1e5ebec7d5bd14f71427d1e84f3dd0314c0f7b2291e5b200ac8c7c3b92583604051610faf919061278f565b60405180910390a3505050565b600073ffffffffffffffffffffffffffffffffffffffff168373ffffffffffffffffffffffffffffffffffffffff16141561102c576040517f08c379a0000000000000000000000000000000000000000000000000000000008152600401611023906126ef565b60405180910390fd5b600073ffffffffffffffffffffffffffffffffffffffff168273ffffffffffffffffffffffffffffffffffffffff16141561109c576040517f08c379a0000000000000000000000000000000000000000000000000000000008152600401611093906125cf565b60405180910390fd5b6110a7838383611919565b60008060008573ffffffffffffffffffffffffffffffffffffffff1673ffffffffffffffffffffffffffffffffffffffff1681526020019081526020016000205490508181101561112d576040517f08c379a00000000000000000000000000000000000000000000000000000000081526004016111249061264f565b60405180910390fd5b8181036000808673ffffffffffffffffffffffffffffffffffffffff1673ffffffffffffffffffffffffffffffffffffffff16815260200190815260200160002081905550816000808573ffffffffffffffffffffffffffffffffffffffff1673ffffffffffffffffffffffffffffffffffffffff16815260200190815260200160002060008282546111c091906127ec565b925050819055508273ffffffffffffffffffffffffffffffffffffffff168473ffffffffffffffffffffffffffffffffffffffff167fddf252ad1be2c89b69c2b068fc378daa952ba7f163c4a11628f55a4df523b3ef84604051611224919061278f565b60405180910390a3611237848484611971565b50505050565b6112478282610a75565b6112d65761126c8173ffffffffffffffffffffffffffffffffffffffff166014611976565b61127a8360001c6020611976565b60405160200161128b929190612502565b6040516020818303038152906040526040517f08c379a00000000000000000000000000000000000000000000000000000000081526004016112cd919061258d565b60405180910390fd5b5050565b6112e48282610a75565b6113b75760016006600084815260200190815260200160002060000160008373ffffffffffffffffffffffffffffffffffffffff1673ffffffffffffffffffffffffffffffffffffffff16815260200190815260200160002060006101000a81548160ff02191690831515021790555061135c610de9565b73ffffffffffffffffffffffffffffffffffffffff168173ffffffffffffffffffffffffffffffffffffffff16837f2f8788117e7eff1d82e926ec794901d17c78024a50270940304540a733656f0d60405160405180910390a45b5050565b6113c58282610a75565b156114995760006006600084815260200190815260200160002060000160008373ffffffffffffffffffffffffffffffffffffffff1673ffffffffffffffffffffffffffffffffffffffff16815260200190815260200160002060006101000a81548160ff02191690831515021790555061143e610de9565b73ffffffffffffffffffffffffffffffffffffffff168173ffffffffffffffffffffffffffffffffffffffff16837ff6391f5c32d9c69d2a47ea670b442974b53935d1edc7fd64eb21e047a839171b60405160405180910390a45b5050565b6114a561095e565b6114e4576040517f08c379a00000000000000000000000000000000000000000000000000000000081526004016114db906125ef565b60405180910390fd5b6000600560006101000a81548160ff0219169083151502179055507f5db9ee0a495bf2e6ff9c91a7834c1ba4fdd244a5e8aa4e537bd38aeae4b073aa611528610de9565b604051611535919061253c565b60405180910390a1565b600073ffffffffffffffffffffffffffffffffffffffff168273ffffffffffffffffffffffffffffffffffffffff1614156115af576040517f08c379a00000000000000000000000000000000000000000000000000000000081526004016115a69061276f565b60405180910390fd5b6115bb60008383611919565b80600260008282546115cd91906127ec565b92505081905550806000808473ffffffffffffffffffffffffffffffffffffffff1673ffffffffffffffffffffffffffffffffffffffff168152602001908152602001600020600082825461162291906127ec565b925050819055508173ffffffffffffffffffffffffffffffffffffffff16600073ffffffffffffffffffffffffffffffffffffffff167fddf252ad1be2c89b69c2b068fc378daa952ba7f163c4a11628f55a4df523b3ef83604051611687919061278f565b60405180910390a361169b60008383611971565b5050565b600073ffffffffffffffffffffffffffffffffffffffff168273ffffffffffffffffffffffffffffffffffffffff16141561170f576040517f08c379a0000000000000000000000000000000000000000000000000000000008152600401611706906126cf565b60405180910390fd5b61171b82600083611919565b60008060008473ffffffffffffffffffffffffffffffffffffffff1673ffffffffffffffffffffffffffffffffffffffff168152602001908152602001600020549050818110156117a1576040517f08c379a00000000000000000000000000000000000000000000000000000000081526004016117989061260f565b60405180910390fd5b8181036000808573ffffffffffffffffffffffffffffffffffffffff1673ffffffffffffffffffffffffffffffffffffffff1681526020019081526020016000208190555081600260008282546117f8919061289c565b92505081905550600073ffffffffffffffffffffffffffffffffffffffff168373ffffffffffffffffffffffffffffffffffffffff167fddf252ad1be2c89b69c2b068fc378daa952ba7f163c4a11628f55a4df523b3ef8460405161185d919061278f565b60405180910390a361187183600084611971565b505050565b61187e61095e565b156118be576040517f08c379a00000000000000000000000000000000000000000000000000000000081526004016118b59061266f565b60405180910390fd5b6001600560006101000a81548160ff0219169083151502179055507f62e78cea01bee320cd4e420270b5ea74000d11b0c9f74754ebdbfc544b05a258611902610de9565b60405161190f919061253c565b60405180910390a1565b61192161095e565b15611961576040517f08c379a00000000000000000000000000000000000000000000000000000000081526004016119589061266f565b60405180910390fd5b61196c838383610d7a565b505050565b505050565b6060600060028360026119899190612842565b61199391906127ec565b67ffffffffffffffff8111156119d2577f4e487b7100000000000000000000000000000000000000000000000000000000600052604160045260246000fd5b6040519080825280601f01601f191660200182016040528015611a045781602001600182028036833780820191505090505b5090507f300000000000000000000000000000000000000000000000000000000000000081600081518110611a62577f4e487b7100000000000000000000000000000000000000000000000000000000600052603260045260246000fd5b60200101907effffffffffffffffffffffffffffffffffffffffffffffffffffffffffffff1916908160001a9053507f780000000000000000000000000000000000000000000000000000000000000081600181518110611aec577f4e487b7100000000000000000000000000000000000000000000000000000000600052603260045260246000fd5b60200101907effffffffffffffffffffffffffffffffffffffffffffffffffffffffffffff1916908160001a90535060006001846002611b2c9190612842565b611b3691906127ec565b90505b6001811115611c22577f3031323334353637383961626364656600000000000000000000000000000000600f861660108110611b9e577f4e487b7100000000000000000000000000000000000000000000000000000000600052603260045260246000fd5b1a60f81b828281518110611bdb577f4e487b7100000000000000000000000000000000000000000000000000000000600052603260045260246000fd5b60200101907effffffffffffffffffffffffffffffffffffffffffffffffffffffffffffff1916908160001a905350600485901c945080611c1b9061298e565b9050611b39565b5060008414611c66576040517f08c379a0000000000000000000000000000000000000000000000000000000008152600401611c5d906125af565b60405180910390fd5b8091505092915050565b600081359050611c7f81612a59565b92915050565b600081359050611c9481612a70565b92915050565b600081359050611ca981612a87565b92915050565b600081359050611cbe81612a9e565b92915050565b600060208284031215611cd657600080fd5b6000611ce484828501611c70565b91505092915050565b60008060408385031215611d0057600080fd5b6000611d0e85828601611c70565b9250506020611d1f85828601611c70565b9150509250929050565b600080600060608486031215611d3e57600080fd5b6000611d4c86828701611c70565b9350506020611d5d86828701611c70565b9250506040611d6e86828701611caf565b9150509250925092565b60008060408385031215611d8b57600080fd5b6000611d9985828601611c70565b9250506020611daa85828601611caf565b9150509250929050565b600060208284031215611dc657600080fd5b6000611dd484828501611c85565b91505092915050565b60008060408385031215611df057600080fd5b6000611dfe85828601611c85565b9250506020611e0f85828601611c70565b9150509250929050565b600060208284031215611e2b57600080fd5b6000611e3984828501611c9a565b91505092915050565b600060208284031215611e5457600080fd5b6000611e6284828501611caf565b91505092915050565b611e74816128d0565b82525050565b611e83816128e2565b82525050565b611e92816128ee565b82525050565b6000611ea3826127c5565b611ead81856127d0565b9350611ebd81856020860161295b565b611ec681612a48565b840191505092915050565b6000611edc826127c5565b611ee681856127e1565b9350611ef681856020860161295b565b80840191505092915050565b6000611f0f6020836127d0565b91507f537472696e67733a20686578206c656e67746820696e73756666696369656e746000830152602082019050919050565b6000611f4f6023836127d0565b91507f45524332303a207472616e7366657220746f20746865207a65726f206164647260008301527f65737300000000000000000000000000000000000000000000000000000000006020830152604082019050919050565b6000611fb56014836127d0565b91507f5061757361626c653a206e6f74207061757365640000000000000000000000006000830152602082019050919050565b6000611ff56022836127d0565b91507f45524332303a206275726e20616d6f756e7420657863656564732062616c616e60008301527f63650000000000000000000000000000000000000000000000000000000000006020830152604082019050919050565b600061205b6022836127d0565b91507f45524332303a20617070726f766520746f20746865207a65726f20616464726560008301527f73730000000000000000000000000000000000000000000000000000000000006020830152604082019050919050565b60006120c16026836127d0565b91507f45524332303a207472616e7366657220616d6f756e742065786365656473206260008301527f616c616e636500000000000000000000000000000000000000000000000000006020830152604082019050919050565b60006121276010836127d0565b91507f5061757361626c653a20706175736564000000000000000000000000000000006000830152602082019050919050565b60006121676028836127d0565b91507f45524332303a207472616e7366657220616d6f756e742065786365656473206160008301527f6c6c6f77616e63650000000000000000000000000000000000000000000000006020830152604082019050919050565b60006121cd6024836127d0565b91507f45524332303a206275726e20616d6f756e74206578636565647320616c6c6f7760008301527f616e6365000000000000000000000000000000000000000000000000000000006020830152604082019050919050565b60006122336021836127d0565b91507f45524332303a206275726e2066726f6d20746865207a65726f2061646472657360008301527f73000000000000000000000000000000000000000000000000000000000000006020830152604082019050919050565b60006122996025836127d0565b91507f45524332303a207472616e736665722066726f6d20746865207a65726f20616460008301527f64726573730000000000000000000000000000000000000000000000000000006020830152604082019050919050565b60006122ff6024836127d0565b91507f45524332303a20617070726f76652066726f6d20746865207a65726f2061646460008301527f72657373000000000000000000000000000000000000000000000000000000006020830152604082019050919050565b60006123656017836127e1565b91507f416363657373436f6e74726f6c3a206163636f756e74200000000000000000006000830152601782019050919050565b60006123a56025836127d0565b91507f45524332303a2064656372656173656420616c6c6f77616e63652062656c6f7760008301527f207a65726f0000000000000000000000000000000000000000000000000000006020830152604082019050919050565b600061240b6011836127e1565b91507f206973206d697373696e6720726f6c65200000000000000000000000000000006000830152601182019050919050565b600061244b602f836127d0565b91507f416363657373436f6e74726f6c3a2063616e206f6e6c792072656e6f756e636560008301527f20726f6c657320666f722073656c6600000000000000000000000000000000006020830152604082019050919050565b60006124b1601f836127d0565b91507f45524332303a206d696e7420746f20746865207a65726f2061646472657373006000830152602082019050919050565b6124ed81612944565b82525050565b6124fc8161294e565b82525050565b600061250d82612358565b91506125198285611ed1565b9150612524826123fe565b91506125308284611ed1565b91508190509392505050565b60006020820190506125516000830184611e6b565b92915050565b600060208201905061256c6000830184611e7a565b92915050565b60006020820190506125876000830184611e89565b92915050565b600060208201905081810360008301526125a78184611e98565b905092915050565b600060208201905081810360008301526125c881611f02565b9050919050565b600060208201905081810360008301526125e881611f42565b9050919050565b6000602082019050818103600083015261260881611fa8565b9050919050565b6000602082019050818103600083015261262881611fe8565b9050919050565b600060208201905081810360008301526126488161204e565b9050919050565b60006020820190508181036000830152612668816120b4565b9050919050565b600060208201905081810360008301526126888161211a565b9050919050565b600060208201905081810360008301526126a88161215a565b9050919050565b600060208201905081810360008301526126c8816121c0565b9050919050565b600060208201905081810360008301526126e881612226565b9050919050565b600060208201905081810360008301526127088161228c565b9050919050565b60006020820190508181036000830152612728816122f2565b9050919050565b6000602082019050818103600083015261274881612398565b9050919050565b600060208201905081810360008301526127688161243e565b9050919050565b60006020820190508181036000830152612788816124a4565b9050919050565b60006020820190506127a460008301846124e4565b92915050565b60006020820190506127bf60008301846124f3565b92915050565b600081519050919050565b600082825260208201905092915050565b600081905092915050565b60006127f782612944565b915061280283612944565b9250827fffffffffffffffffffffffffffffffffffffffffffffffffffffffffffffffff03821115612837576128366129ea565b5b828201905092915050565b600061284d82612944565b915061285883612944565b9250817fffffffffffffffffffffffffffffffffffffffffffffffffffffffffffffffff0483118215151615612891576128906129ea565b5b828202905092915050565b60006128a782612944565b91506128b283612944565b9250828210156128c5576128c46129ea565b5b828203905092915050565b60006128db82612924565b9050919050565b60008115159050919050565b6000819050919050565b60007fffffffff0000000000000000000000000000000000000000000000000000000082169050919050565b600073ffffffffffffffffffffffffffffffffffffffff82169050919050565b6000819050919050565b600060ff82169050919050565b60005b8381101561297957808201518184015260208101905061295e565b83811115612988576000848401525b50505050565b600061299982612944565b915060008214156129ad576129ac6129ea565b5b600182039050919050565b600060028204905060018216806129d057607f821691505b602082108114156129e4576129e3612a19565b5b50919050565b7f4e487b7100000000000000000000000000000000000000000000000000000000600052601160045260246000fd5b7f4e487b7100000000000000000000000000000000000000000000000000000000600052602260045260246000fd5b6000601f19601f8301169050919050565b612a62816128d0565b8114612a6d57600080fd5b50565b612a79816128ee565b8114612a8457600080fd5b50565b612a90816128f8565b8114612a9b57600080fd5b50565b612aa781612944565b8114612ab257600080fd5b5056fea2646970667358221220cc4357826388e1fa046d513e97820451a8b4db73930b70f9b3e6b1ae6e50493664736f6c63430008000033",
  "linkReferences": {},
  "deployedLinkReferences": {}
}