{
  "_format": "hh-sol-artifact-1",
  "contractName": "Marketplace",
  "sourceName": "contracts/Marketplace.sol",
  "abi": [
    {
      "anonymous": false,
      "inputs": [
        {
          "indexed": false,
          "internalType": "address",
          "name": "previousAdmin",
          "type": "address"
        },
        {
          "indexed": false,
          "internalType": "address",
          "name": "newAdmin",
          "type": "address"
        }
      ],
      "name": "AdminChanged",
      "type": "event"
    },
    {
      "anonymous": false,
      "inputs": [
        {
          "indexed": true,
          "internalType": "address",
          "name": "beacon",
          "type": "address"
        }
      ],
      "name": "BeaconUpgraded",
      "type": "event"
    },
    {
      "anonymous": false,
      "inputs": [
        {
          "indexed": false,
          "internalType": "uint256",
          "name": "saleId",
          "type": "uint256"
        },
        {
          "indexed": false,
          "internalType": "uint256",
          "name": "tokenId",
          "type": "uint256"
        },
        {
          "indexed": false,
          "internalType": "address",
          "name": "seller",
          "type": "address"
        },
        {
          "indexed": false,
          "internalType": "address",
          "name": "buyer",
          "type": "address"
        },
        {
          "indexed": false,
          "internalType": "address",
          "name": "feeReceiver",
          "type": "address"
        },
        {
          "indexed": false,
          "internalType": "uint256",
          "name": "fee",
          "type": "uint256"
        },
        {
          "indexed": false,
          "internalType": "uint256",
          "name": "lastUpdated",
          "type": "uint256"
        }
      ],
      "name": "FeeTransfered",
      "type": "event"
    },
    {
      "anonymous": false,
      "inputs": [
        {
          "indexed": true,
          "internalType": "address",
          "name": "previousOwner",
          "type": "address"
        },
        {
          "indexed": true,
          "internalType": "address",
          "name": "newOwner",
          "type": "address"
        }
      ],
      "name": "OwnershipTransferred",
      "type": "event"
    },
    {
      "anonymous": false,
      "inputs": [
        {
          "indexed": true,
          "internalType": "uint256",
          "name": "saleId",
          "type": "uint256"
        },
        {
          "indexed": true,
          "internalType": "uint256",
          "name": "tokenId",
          "type": "uint256"
        },
        {
          "indexed": true,
          "internalType": "address",
          "name": "seller",
          "type": "address"
        },
        {
          "indexed": false,
          "internalType": "uint256",
          "name": "price",
          "type": "uint256"
        },
        {
          "indexed": false,
          "internalType": "uint256",
          "name": "lastUpdated",
          "type": "uint256"
        }
      ],
      "name": "SaleCanceled",
      "type": "event"
    },
    {
      "anonymous": false,
      "inputs": [
        {
          "indexed": true,
          "internalType": "uint256",
          "name": "saleId",
          "type": "uint256"
        },
        {
          "indexed": true,
          "internalType": "uint256",
          "name": "tokenId",
          "type": "uint256"
        },
        {
          "indexed": true,
          "internalType": "address",
          "name": "seller",
          "type": "address"
        },
        {
          "indexed": false,
          "internalType": "uint256",
          "name": "price",
          "type": "uint256"
        },
        {
          "indexed": false,
          "internalType": "bool",
          "name": "isSold",
          "type": "bool"
        },
        {
          "indexed": false,
          "internalType": "uint256",
          "name": "lastUpdated",
          "type": "uint256"
        }
      ],
      "name": "SaleCreated",
      "type": "event"
    },
    {
      "anonymous": false,
      "inputs": [
        {
          "indexed": true,
          "internalType": "uint256",
          "name": "saleId",
          "type": "uint256"
        },
        {
          "indexed": true,
          "internalType": "uint256",
          "name": "tokenId",
          "type": "uint256"
        },
        {
          "indexed": false,
          "internalType": "address",
          "name": "seller",
          "type": "address"
        },
        {
          "indexed": false,
          "internalType": "uint256",
          "name": "price",
          "type": "uint256"
        },
        {
          "indexed": false,
          "internalType": "bool",
          "name": "isSold",
          "type": "bool"
        },
        {
          "indexed": false,
          "internalType": "uint256",
          "name": "lastUpdated",
          "type": "uint256"
        }
      ],
      "name": "SaleSold",
      "type": "event"
    },
    {
      "anonymous": false,
      "inputs": [
        {
          "indexed": true,
          "internalType": "uint256",
          "name": "saleId",
          "type": "uint256"
        },
        {
          "indexed": true,
          "internalType": "uint256",
          "name": "tokenId",
          "type": "uint256"
        },
        {
          "indexed": true,
          "internalType": "address",
          "name": "seller",
          "type": "address"
        },
        {
          "indexed": false,
          "internalType": "uint256",
          "name": "price",
          "type": "uint256"
        },
        {
          "indexed": false,
          "internalType": "uint256",
          "name": "lastUpdated",
          "type": "uint256"
        }
      ],
      "name": "SaleUpdated",
      "type": "event"
    },
    {
      "anonymous": false,
      "inputs": [
        {
          "indexed": true,
          "internalType": "address",
          "name": "implementation",
          "type": "address"
        }
      ],
      "name": "Upgraded",
      "type": "event"
    },
    {
      "inputs": [
        {
          "internalType": "uint256",
          "name": "saleId",
          "type": "uint256"
        }
      ],
      "name": "cancelSale",
      "outputs": [],
      "stateMutability": "nonpayable",
      "type": "function"
    },
    {
      "inputs": [
        {
          "internalType": "uint256",
          "name": "saleId",
          "type": "uint256"
        },
        {
          "internalType": "uint256",
          "name": "newPrice",
          "type": "uint256"
        }
      ],
      "name": "changeSalePrice",
      "outputs": [],
      "stateMutability": "nonpayable",
      "type": "function"
    },
    {
      "inputs": [
        {
          "internalType": "uint256",
          "name": "tokenId",
          "type": "uint256"
        },
        {
          "internalType": "uint256",
          "name": "price",
          "type": "uint256"
        }
      ],
      "name": "createSale",
      "outputs": [],
      "stateMutability": "nonpayable",
      "type": "function"
    },
    {
      "inputs": [],
      "name": "getActiveSales",
      "outputs": [
        {
          "components": [
            {
              "internalType": "uint256",
              "name": "saleId",
              "type": "uint256"
            },
            {
              "internalType": "uint256",
              "name": "tokenId",
              "type": "uint256"
            },
            {
              "internalType": "address",
              "name": "seller",
              "type": "address"
            },
            {
              "internalType": "address",
              "name": "buyer",
              "type": "address"
            },
            {
              "internalType": "uint256",
              "name": "price",
              "type": "uint256"
            },
            {
              "internalType": "bool",
              "name": "isSold",
              "type": "bool"
            },
            {
              "internalType": "bool",
              "name": "isActive",
              "type": "bool"
            },
            {
              "internalType": "uint256",
              "name": "lastUpdated",
              "type": "uint256"
            }
          ],
          "internalType": "struct Marketplace.Sale[]",
          "name": "",
          "type": "tuple[]"
        }
      ],
      "stateMutability": "view",
      "type": "function"
    },
    {
      "inputs": [],
      "name": "getFee",
      "outputs": [
        {
          "internalType": "uint256",
          "name": "",
          "type": "uint256"
        }
      ],
      "stateMutability": "view",
      "type": "function"
    },
    {
      "inputs": [],
      "name": "getFeeReceiver",
      "outputs": [
        {
          "internalType": "address",
          "name": "",
          "type": "address"
        }
      ],
      "stateMutability": "view",
      "type": "function"
    },
    {
      "inputs": [],
      "name": "getInactiveSales",
      "outputs": [
        {
          "components": [
            {
              "internalType": "uint256",
              "name": "saleId",
              "type": "uint256"
            },
            {
              "internalType": "uint256",
              "name": "tokenId",
              "type": "uint256"
            },
            {
              "internalType": "address",
              "name": "seller",
              "type": "address"
            },
            {
              "internalType": "address",
              "name": "buyer",
              "type": "address"
            },
            {
              "internalType": "uint256",
              "name": "price",
              "type": "uint256"
            },
            {
              "internalType": "bool",
              "name": "isSold",
              "type": "bool"
            },
            {
              "internalType": "bool",
              "name": "isActive",
              "type": "bool"
            },
            {
              "internalType": "uint256",
              "name": "lastUpdated",
              "type": "uint256"
            }
          ],
          "internalType": "struct Marketplace.Sale[]",
          "name": "",
          "type": "tuple[]"
        }
      ],
      "stateMutability": "view",
      "type": "function"
    },
    {
      "inputs": [],
      "name": "getUserCreatedSales",
      "outputs": [
        {
          "components": [
            {
              "internalType": "uint256",
              "name": "saleId",
              "type": "uint256"
            },
            {
              "internalType": "uint256",
              "name": "tokenId",
              "type": "uint256"
            },
            {
              "internalType": "address",
              "name": "seller",
              "type": "address"
            },
            {
              "internalType": "address",
              "name": "buyer",
              "type": "address"
            },
            {
              "internalType": "uint256",
              "name": "price",
              "type": "uint256"
            },
            {
              "internalType": "bool",
              "name": "isSold",
              "type": "bool"
            },
            {
              "internalType": "bool",
              "name": "isActive",
              "type": "bool"
            },
            {
              "internalType": "uint256",
              "name": "lastUpdated",
              "type": "uint256"
            }
          ],
          "internalType": "struct Marketplace.Sale[]",
          "name": "",
          "type": "tuple[]"
        }
      ],
      "stateMutability": "view",
      "type": "function"
    },
    {
      "inputs": [],
      "name": "getUserNFTs",
      "outputs": [
        {
          "components": [
            {
              "internalType": "uint256",
              "name": "tokenId",
              "type": "uint256"
            },
            {
              "internalType": "address",
              "name": "contractAddress",
              "type": "address"
            },
            {
              "internalType": "string",
              "name": "URI",
              "type": "string"
            }
          ],
          "internalType": "struct Marketplace.TokenInfo[]",
          "name": "",
          "type": "tuple[]"
        }
      ],
      "stateMutability": "view",
      "type": "function"
    },
    {
      "inputs": [],
      "name": "getUserPurchasedSales",
      "outputs": [
        {
          "components": [
            {
              "internalType": "uint256",
              "name": "saleId",
              "type": "uint256"
            },
            {
              "internalType": "uint256",
              "name": "tokenId",
              "type": "uint256"
            },
            {
              "internalType": "address",
              "name": "seller",
              "type": "address"
            },
            {
              "internalType": "address",
              "name": "buyer",
              "type": "address"
            },
            {
              "internalType": "uint256",
              "name": "price",
              "type": "uint256"
            },
            {
              "internalType": "bool",
              "name": "isSold",
              "type": "bool"
            },
            {
              "internalType": "bool",
              "name": "isActive",
              "type": "bool"
            },
            {
              "internalType": "uint256",
              "name": "lastUpdated",
              "type": "uint256"
            }
          ],
          "internalType": "struct Marketplace.Sale[]",
          "name": "",
          "type": "tuple[]"
        }
      ],
      "stateMutability": "view",
      "type": "function"
    },
    {
      "inputs": [],
      "name": "howl",
      "outputs": [
        {
          "internalType": "contract IERC20",
          "name": "",
          "type": "address"
        }
      ],
      "stateMutability": "view",
      "type": "function"
    },
    {
      "inputs": [
        {
          "internalType": "address",
          "name": "erc20",
          "type": "address"
        },
        {
          "internalType": "address",
          "name": "erc721",
          "type": "address"
        }
      ],
      "name": "initialize",
      "outputs": [],
      "stateMutability": "nonpayable",
      "type": "function"
    },
    {
      "inputs": [],
      "name": "nft",
      "outputs": [
        {
          "internalType": "contract IERC721",
          "name": "",
          "type": "address"
        }
      ],
      "stateMutability": "view",
      "type": "function"
    },
    {
      "inputs": [
        {
          "internalType": "address",
          "name": "operator",
          "type": "address"
        },
        {
          "internalType": "address",
          "name": "from",
          "type": "address"
        },
        {
          "internalType": "uint256",
          "name": "tokenId",
          "type": "uint256"
        },
        {
          "internalType": "bytes",
          "name": "data",
          "type": "bytes"
        }
      ],
      "name": "onERC721Received",
      "outputs": [
        {
          "internalType": "bytes4",
          "name": "",
          "type": "bytes4"
        }
      ],
      "stateMutability": "pure",
      "type": "function"
    },
    {
      "inputs": [],
      "name": "owner",
      "outputs": [
        {
          "internalType": "address",
          "name": "",
          "type": "address"
        }
      ],
      "stateMutability": "view",
      "type": "function"
    },
    {
      "inputs": [
        {
          "internalType": "uint256",
          "name": "saleId",
          "type": "uint256"
        }
      ],
      "name": "purchaseSale",
      "outputs": [],
      "stateMutability": "nonpayable",
      "type": "function"
    },
    {
      "inputs": [],
      "name": "renounceOwnership",
      "outputs": [],
      "stateMutability": "nonpayable",
      "type": "function"
    },
    {
      "inputs": [
        {
          "internalType": "uint256",
          "name": "newFee",
          "type": "uint256"
        }
      ],
      "name": "setFee",
      "outputs": [],
      "stateMutability": "nonpayable",
      "type": "function"
    },
    {
      "inputs": [
        {
          "internalType": "address",
          "name": "newFeeReceiver",
          "type": "address"
        }
      ],
      "name": "setFeeReceiver",
      "outputs": [],
      "stateMutability": "nonpayable",
      "type": "function"
    },
    {
      "inputs": [
        {
          "internalType": "address",
          "name": "newOwner",
          "type": "address"
        }
      ],
      "name": "transferOwnership",
      "outputs": [],
      "stateMutability": "nonpayable",
      "type": "function"
    },
    {
      "inputs": [
        {
          "internalType": "address",
          "name": "newImplementation",
          "type": "address"
        }
      ],
      "name": "upgradeTo",
      "outputs": [],
      "stateMutability": "nonpayable",
      "type": "function"
    },
    {
      "inputs": [
        {
          "internalType": "address",
          "name": "newImplementation",
          "type": "address"
        },
        {
          "internalType": "bytes",
          "name": "data",
          "type": "bytes"
        }
      ],
      "name": "upgradeToAndCall",
      "outputs": [],
      "stateMutability": "payable",
      "type": "function"
    }
  ],
  "bytecode": "0x60a06040523073ffffffffffffffffffffffffffffffffffffffff1660809073ffffffffffffffffffffffffffffffffffffffff1660601b81525034801561004657600080fd5b5060805160601c614e4a61007a60003960008181610b6c01528181610bfb0152818161118501526112140152614e4a6000f3fe6080604052600436106101355760003560e01c8063715018a6116100ab578063e5f9b4091161006f578063e5f9b409146103cd578063e8a35392146103f8578063efdcd97414610423578063f2fde38b1461044c578063f47cf5da14610475578063fdc5ab8e1461049e57610135565b8063715018a61461030e5780638da5cb5b14610325578063bd94b00514610350578063c82e474b14610379578063ced72f87146103a257610135565b806347ccca02116100fd57806347ccca0214610221578063485cc9551461024c5780634f1ef286146102755780636019061b146102915780636803c78d146102ba57806369fe0e2d146102e557610135565b80630974ed4b1461013a578063150b7a021461016557806321b7e7e1146101a25780633659cfe6146101cd578063436141d2146101f6575b600080fd5b34801561014657600080fd5b5061014f6104c9565b60405161015c9190614105565b60405180910390f35b34801561017157600080fd5b5061018c60048036038101906101879190613884565b61080f565b6040516101999190614149565b60405180910390f35b3480156101ae57600080fd5b506101b7610824565b6040516101c49190614105565b60405180910390f35b3480156101d957600080fd5b506101f460048036038101906101ef91906137f6565b610b6a565b005b34801561020257600080fd5b5061020b610d19565b6040516102189190614105565b60405180910390f35b34801561022d57600080fd5b50610236610fac565b604051610243919061417f565b60405180910390f35b34801561025857600080fd5b50610273600480360381019061026e9190613848565b610fd3565b005b61028f600480360381019061028a9190613904565b611183565b005b34801561029d57600080fd5b506102b860048036038101906102b39190613a14565b6112c0565b005b3480156102c657600080fd5b506102cf6116f0565b6040516102dc9190614164565b60405180910390f35b3480156102f157600080fd5b5061030c600480360381019061030791906139c2565b611717565b005b34801561031a57600080fd5b506103236117e1565b005b34801561033157600080fd5b5061033a611869565b604051610347919061401c565b60405180910390f35b34801561035c57600080fd5b50610377600480360381019061037291906139c2565b611893565b005b34801561038557600080fd5b506103a0600480360381019061039b9190613a14565b611b38565b005b3480156103ae57600080fd5b506103b7611d32565b6040516103c4919061441c565b60405180910390f35b3480156103d957600080fd5b506103e2611d3c565b6040516103ef9190614105565b60405180910390f35b34801561040457600080fd5b5061040d611fa9565b60405161041a919061401c565b60405180910390f35b34801561042f57600080fd5b5061044a600480360381019061044591906137f6565b611fd3565b005b34801561045857600080fd5b50610473600480360381019061046e91906137f6565b612103565b005b34801561048157600080fd5b5061049c600480360381019061049791906139c2565b6121fb565b005b3480156104aa57600080fd5b506104b3612985565b6040516104c09190614127565b60405180910390f35b606060006104d760fb612cdd565b90506000806000600190505b838111610578573373ffffffffffffffffffffffffffffffffffffffff16610102600083815260200190815260200160002060030160009054906101000a900473ffffffffffffffffffffffffffffffffffffffff1673ffffffffffffffffffffffffffffffffffffffff161415610565576001836105629190614642565b92505b808061057090614886565b9150506104e3565b5060008267ffffffffffffffff8111156105bb577f4e487b7100000000000000000000000000000000000000000000000000000000600052604160045260246000fd5b6040519080825280602002602001820160405280156105f457816020015b6105e16135c7565b8152602001906001900390816105d95790505b5090506000600190505b848111610804573373ffffffffffffffffffffffffffffffffffffffff16610102600083815260200190815260200160002060030160009054906101000a900473ffffffffffffffffffffffffffffffffffffffff1673ffffffffffffffffffffffffffffffffffffffff1614156107f157600061010260008381526020019081526020016000209050806040518061010001604052908160008201548152602001600182015481526020016002820160009054906101000a900473ffffffffffffffffffffffffffffffffffffffff1673ffffffffffffffffffffffffffffffffffffffff1673ffffffffffffffffffffffffffffffffffffffff1681526020016003820160009054906101000a900473ffffffffffffffffffffffffffffffffffffffff1673ffffffffffffffffffffffffffffffffffffffff1673ffffffffffffffffffffffffffffffffffffffff168152602001600482015481526020016005820160009054906101000a900460ff161515151581526020016005820160019054906101000a900460ff161515151581526020016006820154815250508385806107ab90614886565b9650815181106107e4577f4e487b7100000000000000000000000000000000000000000000000000000000600052603260045260246000fd5b6020026020010181905250505b80806107fc90614886565b9150506105fe565b508094505050505090565b600063150b7a0260e01b905095945050505050565b6060600061083260fb612cdd565b90506000806000600190505b8381116108d3573373ffffffffffffffffffffffffffffffffffffffff16610102600083815260200190815260200160002060020160009054906101000a900473ffffffffffffffffffffffffffffffffffffffff1673ffffffffffffffffffffffffffffffffffffffff1614156108c0576001836108bd9190614642565b92505b80806108cb90614886565b91505061083e565b5060008267ffffffffffffffff811115610916577f4e487b7100000000000000000000000000000000000000000000000000000000600052604160045260246000fd5b60405190808252806020026020018201604052801561094f57816020015b61093c6135c7565b8152602001906001900390816109345790505b5090506000600190505b848111610b5f573373ffffffffffffffffffffffffffffffffffffffff16610102600083815260200190815260200160002060020160009054906101000a900473ffffffffffffffffffffffffffffffffffffffff1673ffffffffffffffffffffffffffffffffffffffff161415610b4c57600061010260008381526020019081526020016000209050806040518061010001604052908160008201548152602001600182015481526020016002820160009054906101000a900473ffffffffffffffffffffffffffffffffffffffff1673ffffffffffffffffffffffffffffffffffffffff1673ffffffffffffffffffffffffffffffffffffffff1681526020016003820160009054906101000a900473ffffffffffffffffffffffffffffffffffffffff1673ffffffffffffffffffffffffffffffffffffffff1673ffffffffffffffffffffffffffffffffffffffff168152602001600482015481526020016005820160009054906101000a900460ff161515151581526020016005820160019054906101000a900460ff16151515158152602001600682015481525050838580610b0690614886565b965081518110610b3f577f4e487b7100000000000000000000000000000000000000000000000000000000600052603260045260246000fd5b6020026020010181905250505b8080610b5790614886565b915050610959565b508094505050505090565b7f000000000000000000000000000000000000000000000000000000000000000073ffffffffffffffffffffffffffffffffffffffff163073ffffffffffffffffffffffffffffffffffffffff161415610bf9576040517f08c379a0000000000000000000000000000000000000000000000000000000008152600401610bf09061425c565b60405180910390fd5b7f000000000000000000000000000000000000000000000000000000000000000073ffffffffffffffffffffffffffffffffffffffff16610c38612ceb565b73ffffffffffffffffffffffffffffffffffffffff1614610c8e576040517f08c379a0000000000000000000000000000000000000000000000000000000008152600401610c85906142bc565b60405180910390fd5b610c9781612d42565b610d1681600067ffffffffffffffff811115610cdc577f4e487b7100000000000000000000000000000000000000000000000000000000600052604160045260246000fd5b6040519080825280601f01601f191660200182016040528015610d0e5781602001600182028036833780820191505090505b506000612dc1565b50565b60606000610d2760fb612cdd565b90506000610d3560fc612cdd565b610d3f60fd612cdd565b83610d4a9190614723565b610d549190614723565b90506000808267ffffffffffffffff811115610d99577f4e487b7100000000000000000000000000000000000000000000000000000000600052604160045260246000fd5b604051908082528060200260200182016040528015610dd257816020015b610dbf6135c7565b815260200190600190039081610db75790505b5090506000600190505b848111610fa157610102600082815260200190815260200160002060050160019054906101000a900460ff1615610f8e57600061010260008381526020019081526020016000209050806040518061010001604052908160008201548152602001600182015481526020016002820160009054906101000a900473ffffffffffffffffffffffffffffffffffffffff1673ffffffffffffffffffffffffffffffffffffffff1673ffffffffffffffffffffffffffffffffffffffff1681526020016003820160009054906101000a900473ffffffffffffffffffffffffffffffffffffffff1673ffffffffffffffffffffffffffffffffffffffff1673ffffffffffffffffffffffffffffffffffffffff168152602001600482015481526020016005820160009054906101000a900460ff161515151581526020016005820160019054906101000a900460ff16151515158152602001600682015481525050838580610f4890614886565b965081518110610f81577f4e487b7100000000000000000000000000000000000000000000000000000000600052603260045260246000fd5b6020026020010181905250505b8080610f9990614886565b915050610ddc565b508094505050505090565b61010160009054906101000a900473ffffffffffffffffffffffffffffffffffffffff1681565b600060019054906101000a900460ff1680610ff9575060008054906101000a900460ff16155b611038576040517f08c379a000000000000000000000000000000000000000000000000000000000815260040161102f906142dc565b60405180910390fd5b60008060019054906101000a900460ff161590508015611088576001600060016101000a81548160ff02191690831515021790555060016000806101000a81548160ff0219169083151502179055505b611090612f92565b8261010060006101000a81548173ffffffffffffffffffffffffffffffffffffffff021916908373ffffffffffffffffffffffffffffffffffffffff1602179055508161010160006101000a81548173ffffffffffffffffffffffffffffffffffffffff021916908373ffffffffffffffffffffffffffffffffffffffff160217905550600a60fe819055503360ff60006101000a81548173ffffffffffffffffffffffffffffffffffffffff021916908373ffffffffffffffffffffffffffffffffffffffff160217905550801561117e5760008060016101000a81548160ff0219169083151502179055505b505050565b7f000000000000000000000000000000000000000000000000000000000000000073ffffffffffffffffffffffffffffffffffffffff163073ffffffffffffffffffffffffffffffffffffffff161415611212576040517f08c379a00000000000000000000000000000000000000000000000000000000081526004016112099061425c565b60405180910390fd5b7f000000000000000000000000000000000000000000000000000000000000000073ffffffffffffffffffffffffffffffffffffffff16611251612ceb565b73ffffffffffffffffffffffffffffffffffffffff16146112a7576040517f08c379a000000000000000000000000000000000000000000000000000000000815260040161129e906142bc565b60405180910390fd5b6112b082612d42565b6112bc82826001612dc1565b5050565b60026065541415611306576040517f08c379a00000000000000000000000000000000000000000000000000000000081526004016112fd906143dc565b60405180910390fd5b600260658190555060008111611351576040517f08c379a0000000000000000000000000000000000000000000000000000000008152600401611348906143fc565b60405180910390fd5b3373ffffffffffffffffffffffffffffffffffffffff1661010160009054906101000a900473ffffffffffffffffffffffffffffffffffffffff1673ffffffffffffffffffffffffffffffffffffffff16636352211e846040518263ffffffff1660e01b81526004016113c4919061441c565b60206040518083038186803b1580156113dc57600080fd5b505afa1580156113f0573d6000803e3d6000fd5b505050506040513d601f19601f82011682018060405250810190611414919061381f565b73ffffffffffffffffffffffffffffffffffffffff161461146a576040517f08c379a0000000000000000000000000000000000000000000000000000000008152600401611461906141bc565b60405180910390fd5b61147460fb61307b565b600061148060fb612cdd565b905061010160009054906101000a900473ffffffffffffffffffffffffffffffffffffffff1673ffffffffffffffffffffffffffffffffffffffff166342842e0e3330866040518463ffffffff1660e01b81526004016114e293929190614060565b600060405180830381600087803b1580156114fc57600080fd5b505af1158015611510573d6000803e3d6000fd5b505050506040518061010001604052808281526020018481526020013373ffffffffffffffffffffffffffffffffffffffff168152602001600073ffffffffffffffffffffffffffffffffffffffff168152602001838152602001600015158152602001600115158152602001428152506101026000838152602001908152602001600020600082015181600001556020820151816001015560408201518160020160006101000a81548173ffffffffffffffffffffffffffffffffffffffff021916908373ffffffffffffffffffffffffffffffffffffffff16021790555060608201518160030160006101000a81548173ffffffffffffffffffffffffffffffffffffffff021916908373ffffffffffffffffffffffffffffffffffffffff1602179055506080820151816004015560a08201518160050160006101000a81548160ff02191690831515021790555060c08201518160050160016101000a81548160ff02191690831515021790555060e082015181600601559050503373ffffffffffffffffffffffffffffffffffffffff1683827fd035e36eed79dc051f4a1821b06d9defcfe2a74be16adb4991291117112a50f0856000426040516116db93929190614437565b60405180910390a45060016065819055505050565b61010060009054906101000a900473ffffffffffffffffffffffffffffffffffffffff1681565b61171f613091565b73ffffffffffffffffffffffffffffffffffffffff1661173d611869565b73ffffffffffffffffffffffffffffffffffffffff1614611793576040517f08c379a000000000000000000000000000000000000000000000000000000000815260040161178a9061431c565b60405180910390fd5b60648111156117d7576040517f08c379a00000000000000000000000000000000000000000000000000000000081526004016117ce9061423c565b60405180910390fd5b8060fe8190555050565b6117e9613091565b73ffffffffffffffffffffffffffffffffffffffff16611807611869565b73ffffffffffffffffffffffffffffffffffffffff161461185d576040517f08c379a00000000000000000000000000000000000000000000000000000000081526004016118549061431c565b60405180910390fd5b6118676000613099565b565b600060c960009054906101000a900473ffffffffffffffffffffffffffffffffffffffff16905090565b600260655414156118d9576040517f08c379a00000000000000000000000000000000000000000000000000000000081526004016118d0906143dc565b60405180910390fd5b600260658190555080610102600082815260200190815260200160002060020160009054906101000a900473ffffffffffffffffffffffffffffffffffffffff1673ffffffffffffffffffffffffffffffffffffffff163373ffffffffffffffffffffffffffffffffffffffff1614611987576040517f08c379a000000000000000000000000000000000000000000000000000000000815260040161197e9061427c565b60405180910390fd5b6000610102600084815260200190815260200160002090508060050160019054906101000a900460ff166119f0576040517f08c379a00000000000000000000000000000000000000000000000000000000081526004016119e7906141dc565b60405180910390fd5b61010160009054906101000a900473ffffffffffffffffffffffffffffffffffffffff1673ffffffffffffffffffffffffffffffffffffffff166323b872dd303384600101546040518463ffffffff1660e01b8152600401611a5493929190614060565b600060405180830381600087803b158015611a6e57600080fd5b505af1158015611a82573d6000803e3d6000fd5b5050505060008160050160016101000a81548160ff021916908315150217905550611aad60fd61307b565b8060020160009054906101000a900473ffffffffffffffffffffffffffffffffffffffff1673ffffffffffffffffffffffffffffffffffffffff168160010154847f9cf3aa3c21065a435a0fd60111abd0ae5148ec0805525a8ade76e8c0632b89cd846004015442604051611b2392919061446e565b60405180910390a45050600160658190555050565b81610102600082815260200190815260200160002060020160009054906101000a900473ffffffffffffffffffffffffffffffffffffffff1673ffffffffffffffffffffffffffffffffffffffff163373ffffffffffffffffffffffffffffffffffffffff1614611bde576040517f08c379a0000000000000000000000000000000000000000000000000000000008152600401611bd59061427c565b60405180910390fd5b6000610102600085815260200190815260200160002090508060050160019054906101000a900460ff168015611c2357508060050160009054906101000a900460ff16155b611c62576040517f08c379a0000000000000000000000000000000000000000000000000000000008152600401611c59906141dc565b60405180910390fd5b60008311611ca5576040517f08c379a0000000000000000000000000000000000000000000000000000000008152600401611c9c906143fc565b60405180910390fd5b8281600401819055508060020160009054906101000a900473ffffffffffffffffffffffffffffffffffffffff1673ffffffffffffffffffffffffffffffffffffffff168160010154857fb5ff818b1e47858abe4b8dbeee7509d67cc6b3e461dc17faf8340a2defdaa8d7846004015442604051611d2492919061446e565b60405180910390a450505050565b600060fe54905090565b60606000611d4a60fd612cdd565b90506000808267ffffffffffffffff811115611d8f577f4e487b7100000000000000000000000000000000000000000000000000000000600052604160045260246000fd5b604051908082528060200260200182016040528015611dc857816020015b611db56135c7565b815260200190600190039081611dad5790505b5090506000600190505b611ddc60fb612cdd565b8111611f9f57610102600082815260200190815260200160002060050160019054906101000a900460ff16611f8c57600061010260008381526020019081526020016000209050806040518061010001604052908160008201548152602001600182015481526020016002820160009054906101000a900473ffffffffffffffffffffffffffffffffffffffff1673ffffffffffffffffffffffffffffffffffffffff1673ffffffffffffffffffffffffffffffffffffffff1681526020016003820160009054906101000a900473ffffffffffffffffffffffffffffffffffffffff1673ffffffffffffffffffffffffffffffffffffffff1673ffffffffffffffffffffffffffffffffffffffff168152602001600482015481526020016005820160009054906101000a900460ff161515151581526020016005820160019054906101000a900460ff16151515158152602001600682015481525050838580611f4690614886565b965081518110611f7f577f4e487b7100000000000000000000000000000000000000000000000000000000600052603260045260246000fd5b6020026020010181905250505b8080611f9790614886565b915050611dd2565b5080935050505090565b600060ff60009054906101000a900473ffffffffffffffffffffffffffffffffffffffff16905090565b611fdb613091565b73ffffffffffffffffffffffffffffffffffffffff16611ff9611869565b73ffffffffffffffffffffffffffffffffffffffff161461204f576040517f08c379a00000000000000000000000000000000000000000000000000000000081526004016120469061431c565b60405180910390fd5b600073ffffffffffffffffffffffffffffffffffffffff168173ffffffffffffffffffffffffffffffffffffffff1614156120bf576040517f08c379a00000000000000000000000000000000000000000000000000000000081526004016120b6906143bc565b60405180910390fd5b8060ff60006101000a81548173ffffffffffffffffffffffffffffffffffffffff021916908373ffffffffffffffffffffffffffffffffffffffff16021790555050565b61210b613091565b73ffffffffffffffffffffffffffffffffffffffff16612129611869565b73ffffffffffffffffffffffffffffffffffffffff161461217f576040517f08c379a00000000000000000000000000000000000000000000000000000000081526004016121769061431c565b60405180910390fd5b600073ffffffffffffffffffffffffffffffffffffffff168173ffffffffffffffffffffffffffffffffffffffff1614156121ef576040517f08c379a00000000000000000000000000000000000000000000000000000000081526004016121e69061421c565b60405180910390fd5b6121f881613099565b50565b60026065541415612241576040517f08c379a0000000000000000000000000000000000000000000000000000000008152600401612238906143dc565b60405180910390fd5b6002606581905550600061010260008381526020019081526020016000209050600081600401549050600061010060009054906101000a900473ffffffffffffffffffffffffffffffffffffffff1673ffffffffffffffffffffffffffffffffffffffff1663dd62ed3e33306040518363ffffffff1660e01b81526004016122ca929190614037565b60206040518083038186803b1580156122e257600080fd5b505afa1580156122f6573d6000803e3d6000fd5b505050506040513d601f19601f8201168201806040525081019061231a91906139eb565b90508181101561235f576040517f08c379a00000000000000000000000000000000000000000000000000000000081526004016123569061435c565b60405180910390fd5b600115158360050160019054906101000a900460ff1615151480156123995750600015158360050160009054906101000a900460ff161515145b6123d8576040517f08c379a00000000000000000000000000000000000000000000000000000000081526004016123cf906141dc565b60405180910390fd5b8260020160009054906101000a900473ffffffffffffffffffffffffffffffffffffffff1673ffffffffffffffffffffffffffffffffffffffff163373ffffffffffffffffffffffffffffffffffffffff16141561246b576040517f08c379a00000000000000000000000000000000000000000000000000000000081526004016124629061439c565b60405180910390fd5b600061010060009054906101000a900473ffffffffffffffffffffffffffffffffffffffff1673ffffffffffffffffffffffffffffffffffffffff166323b872dd3360ff60009054906101000a900473ffffffffffffffffffffffffffffffffffffffff166124f96103e86124eb60fe548a61315f90919063ffffffff16565b61317590919063ffffffff16565b6040518463ffffffff1660e01b815260040161251793929190614060565b602060405180830381600087803b15801561253157600080fd5b505af1158015612545573d6000803e3d6000fd5b505050506040513d601f19601f820116820180604052508101906125699190613958565b9050806125ab576040517f08c379a00000000000000000000000000000000000000000000000000000000081526004016125a29061433c565b60405180910390fd5b600061010060009054906101000a900473ffffffffffffffffffffffffffffffffffffffff1673ffffffffffffffffffffffffffffffffffffffff166323b872dd338760020160009054906101000a900473ffffffffffffffffffffffffffffffffffffffff166126486103e861263a60fe546103e861262b9190614723565b8b61315f90919063ffffffff16565b61317590919063ffffffff16565b6040518463ffffffff1660e01b815260040161266693929190614060565b602060405180830381600087803b15801561268057600080fd5b505af1158015612694573d6000803e3d6000fd5b505050506040513d601f19601f820116820180604052508101906126b89190613958565b9050806126fa576040517f08c379a00000000000000000000000000000000000000000000000000000000081526004016126f19061429c565b60405180910390fd5b60008560010154905061010160009054906101000a900473ffffffffffffffffffffffffffffffffffffffff1673ffffffffffffffffffffffffffffffffffffffff166323b872dd3033846040518463ffffffff1660e01b815260040161276393929190614060565b600060405180830381600087803b15801561277d57600080fd5b505af1158015612791573d6000803e3d6000fd5b50505050600042905060018760050160006101000a81548160ff02191690831515021790555060008760050160016101000a81548160ff021916908315150217905550338760030160006101000a81548173ffffffffffffffffffffffffffffffffffffffff021916908373ffffffffffffffffffffffffffffffffffffffff16021790555080876006018190555061282a60fc61307b565b81887fa1ffbf809f5113e0312f081bb16d51434d610320b7ea557250fdcbded2fbd4478960020160009054906101000a900473ffffffffffffffffffffffffffffffffffffffff16898b60050160009054906101000a900460ff168660405161289694939291906140c0565b60405180910390a37f7c8ecd76e70d007ea55274b3222da38779706d055ca4fe9a1e61dfc2a7e0c1e388838960020160009054906101000a900473ffffffffffffffffffffffffffffffffffffffff168a60030160009054906101000a900473ffffffffffffffffffffffffffffffffffffffff1660ff60009054906101000a900473ffffffffffffffffffffffffffffffffffffffff166129576103e861294960fe548f61315f90919063ffffffff16565b61317590919063ffffffff16565b8760405161296b9796959493929190614497565b60405180910390a150505050505050600160658190555050565b6060600061010160009054906101000a900473ffffffffffffffffffffffffffffffffffffffff1673ffffffffffffffffffffffffffffffffffffffff166370a08231336040518263ffffffff1660e01b81526004016129e5919061401c565b60206040518083038186803b1580156129fd57600080fd5b505afa158015612a11573d6000803e3d6000fd5b505050506040513d601f19601f82011682018060405250810190612a3591906139eb565b905060008167ffffffffffffffff811115612a79577f4e487b7100000000000000000000000000000000000000000000000000000000600052604160045260246000fd5b604051908082528060200260200182016040528015612ab257816020015b612a9f61363c565b815260200190600190039081612a975790505b50905060005b82811015612cd457600061010160009054906101000a900473ffffffffffffffffffffffffffffffffffffffff1673ffffffffffffffffffffffffffffffffffffffff16632f745c5933846040518363ffffffff1660e01b8152600401612b20929190614097565b60206040518083038186803b158015612b3857600080fd5b505afa158015612b4c573d6000803e3d6000fd5b505050506040513d601f19601f82011682018060405250810190612b7091906139eb565b9050600061010160009054906101000a900473ffffffffffffffffffffffffffffffffffffffff1673ffffffffffffffffffffffffffffffffffffffff1663c87b56dd836040518263ffffffff1660e01b8152600401612bd0919061441c565b60006040518083038186803b158015612be857600080fd5b505afa158015612bfc573d6000803e3d6000fd5b505050506040513d6000823e3d601f19601f82011682018060405250810190612c259190613981565b9050604051806060016040528083815260200161010160009054906101000a900473ffffffffffffffffffffffffffffffffffffffff1673ffffffffffffffffffffffffffffffffffffffff16815260200182815250848481518110612cb4577f4e487b7100000000000000000000000000000000000000000000000000000000600052603260045260246000fd5b602002602001018190525050508080612ccc90614886565b915050612ab8565b50809250505090565b600081600001549050919050565b6000612d197f360894a13ba1a3210667c828492db98dca3e2076cc3735a920a3ca505d382bbc60001b61318b565b60000160009054906101000a900473ffffffffffffffffffffffffffffffffffffffff16905090565b612d4a613091565b73ffffffffffffffffffffffffffffffffffffffff16612d68611869565b73ffffffffffffffffffffffffffffffffffffffff1614612dbe576040517f08c379a0000000000000000000000000000000000000000000000000000000008152600401612db59061431c565b60405180910390fd5b50565b6000612dcb612ceb565b9050612dd684613195565b600083511180612de35750815b15612df457612df2848461324e565b505b6000612e227f4910fdfa16fed3260ed0e7147f7cc6da11a60208b5b9406d12a635614ffd914360001b613332565b90508060000160009054906101000a900460ff16612f8b5760018160000160006101000a81548160ff021916908315150217905550612eee8583604051602401612e6c919061401c565b6040516020818303038152906040527f3659cfe6000000000000000000000000000000000000000000000000000000007bffffffffffffffffffffffffffffffffffffffffffffffffffffffff19166020820180517bffffffffffffffffffffffffffffffffffffffffffffffffffffffff838183161783525050505061324e565b5060008160000160006101000a81548160ff021916908315150217905550612f14612ceb565b73ffffffffffffffffffffffffffffffffffffffff168273ffffffffffffffffffffffffffffffffffffffff1614612f81576040517f08c379a0000000000000000000000000000000000000000000000000000000008152600401612f78906141fc565b60405180910390fd5b612f8a8561333c565b5b5050505050565b600060019054906101000a900460ff1680612fb8575060008054906101000a900460ff16155b612ff7576040517f08c379a0000000000000000000000000000000000000000000000000000000008152600401612fee906142dc565b60405180910390fd5b60008060019054906101000a900460ff161590508015613047576001600060016101000a81548160ff02191690831515021790555060016000806101000a81548160ff0219169083151502179055505b61304f61338b565b613057613464565b80156130785760008060016101000a81548160ff0219169083151502179055505b50565b6001816000016000828254019250508190555050565b600033905090565b600060c960009054906101000a900473ffffffffffffffffffffffffffffffffffffffff1690508160c960006101000a81548173ffffffffffffffffffffffffffffffffffffffff021916908373ffffffffffffffffffffffffffffffffffffffff1602179055508173ffffffffffffffffffffffffffffffffffffffff168173ffffffffffffffffffffffffffffffffffffffff167f8be0079c531659141344cd1fd0a4f28419497f9722a3daafe3b4186f6b6457e060405160405180910390a35050565b6000818361316d91906146c9565b905092915050565b600081836131839190614698565b905092915050565b6000819050919050565b61319e8161354d565b6131dd576040517f08c379a00000000000000000000000000000000000000000000000000000000081526004016131d4906142fc565b60405180910390fd5b8061320a7f360894a13ba1a3210667c828492db98dca3e2076cc3735a920a3ca505d382bbc60001b61318b565b60000160006101000a81548173ffffffffffffffffffffffffffffffffffffffff021916908373ffffffffffffffffffffffffffffffffffffffff16021790555050565b60606132598361354d565b613298576040517f08c379a000000000000000000000000000000000000000000000000000000000815260040161328f9061437c565b60405180910390fd5b6000808473ffffffffffffffffffffffffffffffffffffffff16846040516132c09190614005565b600060405180830381855af49150503d80600081146132fb576040519150601f19603f3d011682016040523d82523d6000602084013e613300565b606091505b50915091506133288282604051806060016040528060278152602001614dee60279139613560565b9250505092915050565b6000819050919050565b61334581613195565b8073ffffffffffffffffffffffffffffffffffffffff167fbc7cd75a20ee27fd9adebab32041f755214dbc6bffa90cc0225b39da2e5c2d3b60405160405180910390a250565b600060019054906101000a900460ff16806133b1575060008054906101000a900460ff16155b6133f0576040517f08c379a00000000000000000000000000000000000000000000000000000000081526004016133e7906142dc565b60405180910390fd5b60008060019054906101000a900460ff161590508015613440576001600060016101000a81548160ff02191690831515021790555060016000806101000a81548160ff0219169083151502179055505b80156134615760008060016101000a81548160ff0219169083151502179055505b50565b600060019054906101000a900460ff168061348a575060008054906101000a900460ff16155b6134c9576040517f08c379a00000000000000000000000000000000000000000000000000000000081526004016134c0906142dc565b60405180910390fd5b60008060019054906101000a900460ff161590508015613519576001600060016101000a81548160ff02191690831515021790555060016000806101000a81548160ff0219169083151502179055505b613529613524613091565b613099565b801561354a5760008060016101000a81548160ff0219169083151502179055505b50565b600080823b905060008111915050919050565b60608315613570578290506135c0565b6000835111156135835782518084602001fd5b816040517f08c379a00000000000000000000000000000000000000000000000000000000081526004016135b7919061419a565b60405180910390fd5b9392505050565b6040518061010001604052806000815260200160008152602001600073ffffffffffffffffffffffffffffffffffffffff168152602001600073ffffffffffffffffffffffffffffffffffffffff16815260200160008152602001600015158152602001600015158152602001600081525090565b604051806060016040528060008152602001600073ffffffffffffffffffffffffffffffffffffffff168152602001606081525090565b60006136866136818461452b565b614506565b90508281526020810184848401111561369e57600080fd5b6136a9848285614813565b509392505050565b60006136c46136bf8461455c565b614506565b9050828152602081018484840111156136dc57600080fd5b6136e7848285614822565b509392505050565b6000813590506136fe81614da8565b92915050565b60008151905061371381614da8565b92915050565b60008151905061372881614dbf565b92915050565b60008083601f84011261374057600080fd5b8235905067ffffffffffffffff81111561375957600080fd5b60208301915083600182028301111561377157600080fd5b9250929050565b600082601f83011261378957600080fd5b8135613799848260208601613673565b91505092915050565b600082601f8301126137b357600080fd5b81516137c38482602086016136b1565b91505092915050565b6000813590506137db81614dd6565b92915050565b6000815190506137f081614dd6565b92915050565b60006020828403121561380857600080fd5b6000613816848285016136ef565b91505092915050565b60006020828403121561383157600080fd5b600061383f84828501613704565b91505092915050565b6000806040838503121561385b57600080fd5b6000613869858286016136ef565b925050602061387a858286016136ef565b9150509250929050565b60008060008060006080868803121561389c57600080fd5b60006138aa888289016136ef565b95505060206138bb888289016136ef565b94505060406138cc888289016137cc565b935050606086013567ffffffffffffffff8111156138e957600080fd5b6138f58882890161372e565b92509250509295509295909350565b6000806040838503121561391757600080fd5b6000613925858286016136ef565b925050602083013567ffffffffffffffff81111561394257600080fd5b61394e85828601613778565b9150509250929050565b60006020828403121561396a57600080fd5b600061397884828501613719565b91505092915050565b60006020828403121561399357600080fd5b600082015167ffffffffffffffff8111156139ad57600080fd5b6139b9848285016137a2565b91505092915050565b6000602082840312156139d457600080fd5b60006139e2848285016137cc565b91505092915050565b6000602082840312156139fd57600080fd5b6000613a0b848285016137e1565b91505092915050565b60008060408385031215613a2757600080fd5b6000613a35858286016137cc565b9250506020613a46858286016137cc565b9150509250929050565b6000613a5c8383613ef5565b6101008301905092915050565b6000613a758383613f97565b905092915050565b613a8681614757565b82525050565b613a9581614757565b82525050565b6000613aa6826145ad565b613ab081856145f3565b9350613abb8361458d565b8060005b83811015613aec578151613ad38882613a50565b9750613ade836145d9565b925050600181019050613abf565b5085935050505092915050565b6000613b04826145b8565b613b0e8185614604565b935083602082028501613b208561459d565b8060005b85811015613b5c5784840389528151613b3d8582613a69565b9450613b48836145e6565b925060208a01995050600181019050613b24565b50829750879550505050505092915050565b613b7781614769565b82525050565b613b8681614769565b82525050565b613b9581614775565b82525050565b6000613ba6826145c3565b613bb08185614615565b9350613bc0818560208601614822565b80840191505092915050565b613bd5816147cb565b82525050565b613be4816147ef565b82525050565b6000613bf5826145ce565b613bff8185614620565b9350613c0f818560208601614822565b613c188161495c565b840191505092915050565b6000613c2e826145ce565b613c388185614631565b9350613c48818560208601614822565b613c518161495c565b840191505092915050565b6000613c69601983614631565b9150613c748261496d565b602082019050919050565b6000613c8c600f83614631565b9150613c9782614996565b602082019050919050565b6000613caf602f83614631565b9150613cba826149bf565b604082019050919050565b6000613cd2602683614631565b9150613cdd82614a0e565b604082019050919050565b6000613cf5602483614631565b9150613d0082614a5d565b604082019050919050565b6000613d18602c83614631565b9150613d2382614aac565b604082019050919050565b6000613d3b601383614631565b9150613d4682614afb565b602082019050919050565b6000613d5e601883614631565b9150613d6982614b24565b602082019050919050565b6000613d81602c83614631565b9150613d8c82614b4d565b604082019050919050565b6000613da4602e83614631565b9150613daf82614b9c565b604082019050919050565b6000613dc7602d83614631565b9150613dd282614beb565b604082019050919050565b6000613dea602083614631565b9150613df582614c3a565b602082019050919050565b6000613e0d601683614631565b9150613e1882614c63565b602082019050919050565b6000613e30601483614631565b9150613e3b82614c8c565b602082019050919050565b6000613e53602683614631565b9150613e5e82614cb5565b604082019050919050565b6000613e76601d83614631565b9150613e8182614d04565b602082019050919050565b6000613e99601c83614631565b9150613ea482614d2d565b602082019050919050565b6000613ebc601f83614631565b9150613ec782614d56565b602082019050919050565b6000613edf601c83614631565b9150613eea82614d7f565b602082019050919050565b61010082016000820151613f0c6000850182613fe7565b506020820151613f1f6020850182613fe7565b506040820151613f326040850182613a7d565b506060820151613f456060850182613a7d565b506080820151613f586080850182613fe7565b5060a0820151613f6b60a0850182613b6e565b5060c0820151613f7e60c0850182613b6e565b5060e0820151613f9160e0850182613fe7565b50505050565b6000606083016000830151613faf6000860182613fe7565b506020830151613fc26020860182613a7d565b5060408301518482036040860152613fda8282613bea565b9150508091505092915050565b613ff0816147c1565b82525050565b613fff816147c1565b82525050565b60006140118284613b9b565b915081905092915050565b60006020820190506140316000830184613a8c565b92915050565b600060408201905061404c6000830185613a8c565b6140596020830184613a8c565b9392505050565b60006060820190506140756000830186613a8c565b6140826020830185613a8c565b61408f6040830184613ff6565b949350505050565b60006040820190506140ac6000830185613a8c565b6140b96020830184613ff6565b9392505050565b60006080820190506140d56000830187613a8c565b6140e26020830186613ff6565b6140ef6040830185613b7d565b6140fc6060830184613ff6565b95945050505050565b6000602082019050818103600083015261411f8184613a9b565b905092915050565b600060208201905081810360008301526141418184613af9565b905092915050565b600060208201905061415e6000830184613b8c565b92915050565b60006020820190506141796000830184613bcc565b92915050565b60006020820190506141946000830184613bdb565b92915050565b600060208201905081810360008301526141b48184613c23565b905092915050565b600060208201905081810360008301526141d581613c5c565b9050919050565b600060208201905081810360008301526141f581613c7f565b9050919050565b6000602082019050818103600083015261421581613ca2565b9050919050565b6000602082019050818103600083015261423581613cc5565b9050919050565b6000602082019050818103600083015261425581613ce8565b9050919050565b6000602082019050818103600083015261427581613d0b565b9050919050565b6000602082019050818103600083015261429581613d2e565b9050919050565b600060208201905081810360008301526142b581613d51565b9050919050565b600060208201905081810360008301526142d581613d74565b9050919050565b600060208201905081810360008301526142f581613d97565b9050919050565b6000602082019050818103600083015261431581613dba565b9050919050565b6000602082019050818103600083015261433581613ddd565b9050919050565b6000602082019050818103600083015261435581613e00565b9050919050565b6000602082019050818103600083015261437581613e23565b9050919050565b6000602082019050818103600083015261439581613e46565b9050919050565b600060208201905081810360008301526143b581613e69565b9050919050565b600060208201905081810360008301526143d581613e8c565b9050919050565b600060208201905081810360008301526143f581613eaf565b9050919050565b6000602082019050818103600083015261441581613ed2565b9050919050565b60006020820190506144316000830184613ff6565b92915050565b600060608201905061444c6000830186613ff6565b6144596020830185613b7d565b6144666040830184613ff6565b949350505050565b60006040820190506144836000830185613ff6565b6144906020830184613ff6565b9392505050565b600060e0820190506144ac600083018a613ff6565b6144b96020830189613ff6565b6144c66040830188613a8c565b6144d36060830187613a8c565b6144e06080830186613a8c565b6144ed60a0830185613ff6565b6144fa60c0830184613ff6565b98975050505050505050565b6000614510614521565b905061451c8282614855565b919050565b6000604051905090565b600067ffffffffffffffff8211156145465761454561492d565b5b61454f8261495c565b9050602081019050919050565b600067ffffffffffffffff8211156145775761457661492d565b5b6145808261495c565b9050602081019050919050565b6000819050602082019050919050565b6000819050602082019050919050565b600081519050919050565b600081519050919050565b600081519050919050565b600081519050919050565b6000602082019050919050565b6000602082019050919050565b600082825260208201905092915050565b600082825260208201905092915050565b600081905092915050565b600082825260208201905092915050565b600082825260208201905092915050565b600061464d826147c1565b9150614658836147c1565b9250827fffffffffffffffffffffffffffffffffffffffffffffffffffffffffffffffff0382111561468d5761468c6148cf565b5b828201905092915050565b60006146a3826147c1565b91506146ae836147c1565b9250826146be576146bd6148fe565b5b828204905092915050565b60006146d4826147c1565b91506146df836147c1565b9250817fffffffffffffffffffffffffffffffffffffffffffffffffffffffffffffffff0483118215151615614718576147176148cf565b5b828202905092915050565b600061472e826147c1565b9150614739836147c1565b92508282101561474c5761474b6148cf565b5b828203905092915050565b6000614762826147a1565b9050919050565b60008115159050919050565b60007fffffffff0000000000000000000000000000000000000000000000000000000082169050919050565b600073ffffffffffffffffffffffffffffffffffffffff82169050919050565b6000819050919050565b60006147d6826147dd565b9050919050565b60006147e8826147a1565b9050919050565b60006147fa82614801565b9050919050565b600061480c826147a1565b9050919050565b82818337600083830152505050565b60005b83811015614840578082015181840152602081019050614825565b8381111561484f576000848401525b50505050565b61485e8261495c565b810181811067ffffffffffffffff8211171561487d5761487c61492d565b5b80604052505050565b6000614891826147c1565b91507fffffffffffffffffffffffffffffffffffffffffffffffffffffffffffffffff8214156148c4576148c36148cf565b5b600182019050919050565b7f4e487b7100000000000000000000000000000000000000000000000000000000600052601160045260246000fd5b7f4e487b7100000000000000000000000000000000000000000000000000000000600052601260045260246000fd5b7f4e487b7100000000000000000000000000000000000000000000000000000000600052604160045260246000fd5b6000601f19601f8301169050919050565b7f596f7520646f206e6f74206f776e207468697320746f6b656e00000000000000600082015250565b7f53616c652077617320656e6465642e0000000000000000000000000000000000600082015250565b7f45524331393637557067726164653a207570677261646520627265616b73206660008201527f7572746865722075706772616465730000000000000000000000000000000000602082015250565b7f4f776e61626c653a206e6577206f776e657220697320746865207a65726f206160008201527f6464726573730000000000000000000000000000000000000000000000000000602082015250565b7f4665652070657263656e74206d75737420626520736d616c6c6572207468616e60008201527f2031302500000000000000000000000000000000000000000000000000000000602082015250565b7f46756e6374696f6e206d7573742062652063616c6c6564207468726f7567682060008201527f64656c656761746563616c6c0000000000000000000000000000000000000000602082015250565b7f496e76616c69642073616c652073656c6c657200000000000000000000000000600082015250565b7f4661696c656420746f207472616e7366657220746f6b656e0000000000000000600082015250565b7f46756e6374696f6e206d7573742062652063616c6c6564207468726f7567682060008201527f6163746976652070726f78790000000000000000000000000000000000000000602082015250565b7f496e697469616c697a61626c653a20636f6e747261637420697320616c72656160008201527f647920696e697469616c697a6564000000000000000000000000000000000000602082015250565b7f455243313936373a206e657720696d706c656d656e746174696f6e206973206e60008201527f6f74206120636f6e747261637400000000000000000000000000000000000000602082015250565b7f4f776e61626c653a2063616c6c6572206973206e6f7420746865206f776e6572600082015250565b7f4661696c656420746f207472616e736665722066656500000000000000000000600082015250565b7f4e6f7420656e6f75676820616c6c6f77616e6365000000000000000000000000600082015250565b7f416464726573733a2064656c65676174652063616c6c20746f206e6f6e2d636f60008201527f6e74726163740000000000000000000000000000000000000000000000000000602082015250565b7f42757965722069732073656c6c6572206f662074686973206974656d2e000000600082015250565b7f73657446656552656365697665723a206e756c6c206164647265737300000000600082015250565b7f5265656e7472616e637947756172643a207265656e7472616e742063616c6c00600082015250565b7f5072696365206d757374206265206174206c6561737420312077656900000000600082015250565b614db181614757565b8114614dbc57600080fd5b50565b614dc881614769565b8114614dd357600080fd5b50565b614ddf816147c1565b8114614dea57600080fd5b5056fe416464726573733a206c6f772d6c6576656c2064656c65676174652063616c6c206661696c6564a26469706673582212203b627fafda9e250f8ea7b38de5a9ec404599fa475450d95874267798c2a7242b64736f6c63430008020033",
  "linkReferences": {},
  "deployedLinkReferences": {}
}