{
  "_format": "hh-sol-artifact-1",
  "contractName": "Marketplace",
  "sourceName": "contracts/Marketplace.sol",
  "abi": [
    {
      "anonymous": false,
      "inputs": [
        {
          "indexed": true,
          "internalType": "uint256",
          "name": "saleId",
          "type": "uint256"
        },
        {
          "indexed": true,
          "internalType": "uint256",
          "name": "tokenId",
          "type": "uint256"
        },
        {
          "indexed": true,
          "internalType": "address",
          "name": "seller",
          "type": "address"
        },
        {
          "indexed": false,
          "internalType": "uint256",
          "name": "price",
          "type": "uint256"
        }
      ],
      "name": "SaleCanceled",
      "type": "event"
    },
    {
      "anonymous": false,
      "inputs": [
        {
          "indexed": true,
          "internalType": "uint256",
          "name": "saleId",
          "type": "uint256"
        },
        {
          "indexed": true,
          "internalType": "uint256",
          "name": "tokenId",
          "type": "uint256"
        },
        {
          "indexed": true,
          "internalType": "address",
          "name": "seller",
          "type": "address"
        },
        {
          "indexed": false,
          "internalType": "uint256",
          "name": "price",
          "type": "uint256"
        },
        {
          "indexed": false,
          "internalType": "bool",
          "name": "isSold",
          "type": "bool"
        }
      ],
      "name": "SaleCreated",
      "type": "event"
    },
    {
      "anonymous": false,
      "inputs": [
        {
          "indexed": true,
          "internalType": "uint256",
          "name": "saleId",
          "type": "uint256"
        },
        {
          "indexed": true,
          "internalType": "uint256",
          "name": "tokenId",
          "type": "uint256"
        },
        {
          "indexed": true,
          "internalType": "address",
          "name": "seller",
          "type": "address"
        },
        {
          "indexed": false,
          "internalType": "uint256",
          "name": "price",
          "type": "uint256"
        }
      ],
      "name": "SaleUpdated",
      "type": "event"
    },
    {
      "anonymous": false,
      "inputs": [
        {
          "indexed": true,
          "internalType": "uint256",
          "name": "saleId",
          "type": "uint256"
        },
        {
          "indexed": true,
          "internalType": "uint256",
          "name": "tokenId",
          "type": "uint256"
        },
        {
          "indexed": false,
          "internalType": "address",
          "name": "seller",
          "type": "address"
        },
        {
          "indexed": false,
          "internalType": "uint256",
          "name": "price",
          "type": "uint256"
        },
        {
          "indexed": false,
          "internalType": "bool",
          "name": "isSold",
          "type": "bool"
        }
      ],
      "name": "TokenSold",
      "type": "event"
    },
    {
      "inputs": [
        {
          "internalType": "uint256",
          "name": "saleId",
          "type": "uint256"
        },
        {
          "internalType": "uint256",
          "name": "price",
          "type": "uint256"
        }
      ],
      "name": "buyToken",
      "outputs": [],
      "stateMutability": "nonpayable",
      "type": "function"
    },
    {
      "inputs": [
        {
          "internalType": "uint256",
          "name": "saleId",
          "type": "uint256"
        }
      ],
      "name": "cancelSale",
      "outputs": [],
      "stateMutability": "nonpayable",
      "type": "function"
    },
    {
      "inputs": [
        {
          "internalType": "uint256",
          "name": "newListingPrice",
          "type": "uint256"
        }
      ],
      "name": "changeListingPrice",
      "outputs": [],
      "stateMutability": "nonpayable",
      "type": "function"
    },
    {
      "inputs": [
        {
          "internalType": "uint256",
          "name": "saleId",
          "type": "uint256"
        },
        {
          "internalType": "uint256",
          "name": "newPrice",
          "type": "uint256"
        }
      ],
      "name": "changePrice",
      "outputs": [],
      "stateMutability": "nonpayable",
      "type": "function"
    },
    {
      "inputs": [
        {
          "internalType": "uint256",
          "name": "tokenId",
          "type": "uint256"
        },
        {
          "internalType": "uint256",
          "name": "price",
          "type": "uint256"
        }
      ],
      "name": "createSale",
      "outputs": [],
      "stateMutability": "payable",
      "type": "function"
    },
    {
      "inputs": [],
      "name": "getActiveSales",
      "outputs": [
        {
          "components": [
            {
              "internalType": "uint256",
              "name": "saleId",
              "type": "uint256"
            },
            {
              "internalType": "uint256",
              "name": "tokenId",
              "type": "uint256"
            },
            {
              "internalType": "address",
              "name": "seller",
              "type": "address"
            },
            {
              "internalType": "address",
              "name": "buyer",
              "type": "address"
            },
            {
              "internalType": "uint256",
              "name": "price",
              "type": "uint256"
            },
            {
              "internalType": "bool",
              "name": "isSold",
              "type": "bool"
            },
            {
              "internalType": "bool",
              "name": "isActive",
              "type": "bool"
            },
            {
              "internalType": "uint256",
              "name": "lastUpdated",
              "type": "uint256"
            }
          ],
          "internalType": "struct Marketplace.Sale[]",
          "name": "",
          "type": "tuple[]"
        }
      ],
      "stateMutability": "view",
      "type": "function"
    },
    {
      "inputs": [],
      "name": "getInactiveSales",
      "outputs": [
        {
          "components": [
            {
              "internalType": "uint256",
              "name": "saleId",
              "type": "uint256"
            },
            {
              "internalType": "uint256",
              "name": "tokenId",
              "type": "uint256"
            },
            {
              "internalType": "address",
              "name": "seller",
              "type": "address"
            },
            {
              "internalType": "address",
              "name": "buyer",
              "type": "address"
            },
            {
              "internalType": "uint256",
              "name": "price",
              "type": "uint256"
            },
            {
              "internalType": "bool",
              "name": "isSold",
              "type": "bool"
            },
            {
              "internalType": "bool",
              "name": "isActive",
              "type": "bool"
            },
            {
              "internalType": "uint256",
              "name": "lastUpdated",
              "type": "uint256"
            }
          ],
          "internalType": "struct Marketplace.Sale[]",
          "name": "",
          "type": "tuple[]"
        }
      ],
      "stateMutability": "view",
      "type": "function"
    },
    {
      "inputs": [],
      "name": "getListingPrice",
      "outputs": [
        {
          "internalType": "uint256",
          "name": "",
          "type": "uint256"
        }
      ],
      "stateMutability": "view",
      "type": "function"
    },
    {
      "inputs": [],
      "name": "getUserCreatedSales",
      "outputs": [
        {
          "components": [
            {
              "internalType": "uint256",
              "name": "saleId",
              "type": "uint256"
            },
            {
              "internalType": "uint256",
              "name": "tokenId",
              "type": "uint256"
            },
            {
              "internalType": "address",
              "name": "seller",
              "type": "address"
            },
            {
              "internalType": "address",
              "name": "buyer",
              "type": "address"
            },
            {
              "internalType": "uint256",
              "name": "price",
              "type": "uint256"
            },
            {
              "internalType": "bool",
              "name": "isSold",
              "type": "bool"
            },
            {
              "internalType": "bool",
              "name": "isActive",
              "type": "bool"
            },
            {
              "internalType": "uint256",
              "name": "lastUpdated",
              "type": "uint256"
            }
          ],
          "internalType": "struct Marketplace.Sale[]",
          "name": "",
          "type": "tuple[]"
        }
      ],
      "stateMutability": "view",
      "type": "function"
    },
    {
      "inputs": [],
      "name": "getUserNFTs",
      "outputs": [
        {
          "components": [
            {
              "internalType": "uint256",
              "name": "tokenId",
              "type": "uint256"
            },
            {
              "internalType": "address",
              "name": "contractAddress",
              "type": "address"
            },
            {
              "internalType": "string",
              "name": "URI",
              "type": "string"
            }
          ],
          "internalType": "struct Marketplace.TokenInfo[]",
          "name": "",
          "type": "tuple[]"
        }
      ],
      "stateMutability": "view",
      "type": "function"
    },
    {
      "inputs": [],
      "name": "getUserPurchasedSales",
      "outputs": [
        {
          "components": [
            {
              "internalType": "uint256",
              "name": "saleId",
              "type": "uint256"
            },
            {
              "internalType": "uint256",
              "name": "tokenId",
              "type": "uint256"
            },
            {
              "internalType": "address",
              "name": "seller",
              "type": "address"
            },
            {
              "internalType": "address",
              "name": "buyer",
              "type": "address"
            },
            {
              "internalType": "uint256",
              "name": "price",
              "type": "uint256"
            },
            {
              "internalType": "bool",
              "name": "isSold",
              "type": "bool"
            },
            {
              "internalType": "bool",
              "name": "isActive",
              "type": "bool"
            },
            {
              "internalType": "uint256",
              "name": "lastUpdated",
              "type": "uint256"
            }
          ],
          "internalType": "struct Marketplace.Sale[]",
          "name": "",
          "type": "tuple[]"
        }
      ],
      "stateMutability": "view",
      "type": "function"
    },
    {
      "inputs": [
        {
          "internalType": "address",
          "name": "erc20",
          "type": "address"
        },
        {
          "internalType": "address",
          "name": "erc721",
          "type": "address"
        }
      ],
      "name": "initialize",
      "outputs": [],
      "stateMutability": "nonpayable",
      "type": "function"
    },
    {
      "inputs": [
        {
          "internalType": "address",
          "name": "operator",
          "type": "address"
        },
        {
          "internalType": "address",
          "name": "from",
          "type": "address"
        },
        {
          "internalType": "uint256",
          "name": "tokenId",
          "type": "uint256"
        },
        {
          "internalType": "bytes",
          "name": "data",
          "type": "bytes"
        }
      ],
      "name": "onERC721Received",
      "outputs": [
        {
          "internalType": "bytes4",
          "name": "",
          "type": "bytes4"
        }
      ],
      "stateMutability": "pure",
      "type": "function"
    }
  ],
  "bytecode": "0x6080604052600060085534801561001557600080fd5b5060016000819055506132ee8061002d6000396000f3fe6080604052600436106100c25760003560e01c8063485cc9551161007f578063ba0f1d9c11610059578063ba0f1d9c14610247578063bd94b00514610270578063e5f9b40914610299578063fdc5ab8e146102c4576100c2565b8063485cc955146101d95780636019061b14610202578063b3de019c1461021e576100c2565b8063057466ea146100c75780630974ed4b146100f057806312e855851461011b578063150b7a021461014657806321b7e7e114610183578063436141d2146101ae575b600080fd5b3480156100d357600080fd5b506100ee60048036038101906100e991906125a8565b6102ef565b005b3480156100fc57600080fd5b506101056106ba565b6040516101129190612d4f565b60405180910390f35b34801561012757600080fd5b506101306109fd565b60405161013d9190612f30565b60405180910390f35b34801561015257600080fd5b5061016d6004803603810190610168919061246c565b610a07565b60405161017a9190612d93565b60405180910390f35b34801561018f57600080fd5b50610198610a1c565b6040516101a59190612d4f565b60405180910390f35b3480156101ba57600080fd5b506101c3610d5f565b6040516101d09190612d4f565b60405180910390f35b3480156101e557600080fd5b5061020060048036038101906101fb9190612430565b610fdc565b005b61021c600480360381019061021791906125a8565b611178565b005b34801561022a57600080fd5b50610245600480360381019061024091906125a8565b6114cf565b005b34801561025357600080fd5b5061026e60048036038101906102699190612556565b6116b1565b005b34801561027c57600080fd5b5061029760048036038101906102929190612556565b6116fe565b005b3480156102a557600080fd5b506102ae6119a5565b6040516102bb9190612d4f565b60405180910390f35b3480156102d057600080fd5b506102d9611c10565b6040516102e69190612d71565b60405180910390f35b60026000541415610335576040517f08c379a000000000000000000000000000000000000000000000000000000000815260040161032c90612ef0565b60405180910390fd5b60026000819055506000600960008481526020019081526020016000209050600115158160050160019054906101000a900460ff16151514801561038e5750600015158160050160009054906101000a900460ff161515145b6103cd576040517f08c379a00000000000000000000000000000000000000000000000000000000081526004016103c490612dd0565b60405180910390fd5b8060020160009054906101000a900473ffffffffffffffffffffffffffffffffffffffff1673ffffffffffffffffffffffffffffffffffffffff163373ffffffffffffffffffffffffffffffffffffffff161415610460576040517f08c379a000000000000000000000000000000000000000000000000000000000815260040161045790612e90565b60405180910390fd5b806004015482146104a6576040517f08c379a000000000000000000000000000000000000000000000000000000000815260040161049d90612df0565b60405180910390fd5b600081600101549050610522338360020160009054906101000a900473ffffffffffffffffffffffffffffffffffffffff1685600660009054906101000a900473ffffffffffffffffffffffffffffffffffffffff1673ffffffffffffffffffffffffffffffffffffffff16611f64909392919063ffffffff16565b600760009054906101000a900473ffffffffffffffffffffffffffffffffffffffff1673ffffffffffffffffffffffffffffffffffffffff166323b872dd3033846040518463ffffffff1660e01b815260040161058193929190612cb8565b600060405180830381600087803b15801561059b57600080fd5b505af11580156105af573d6000803e3d6000fd5b5050505060018260050160006101000a81548160ff02191690831515021790555060008260050160016101000a81548160ff021916908315150217905550338260030160006101000a81548173ffffffffffffffffffffffffffffffffffffffff021916908373ffffffffffffffffffffffffffffffffffffffff16021790555061063a6003611fed565b80847f088aa3ac50814cb27b2ee6c32024956aab92bef59f8b6640f83e4b539e6c5c7b8460020160009054906101000a900473ffffffffffffffffffffffffffffffffffffffff16868660050160009054906101000a900460ff166040516106a493929190612d18565b60405180910390a3505060016000819055505050565b606060006106c86002612003565b90506000806000600190505b838111610768573373ffffffffffffffffffffffffffffffffffffffff166009600083815260200190815260200160002060030160009054906101000a900473ffffffffffffffffffffffffffffffffffffffff1673ffffffffffffffffffffffffffffffffffffffff16141561075557600183610752919061308a565b92505b8080610760906131bb565b9150506106d4565b5060008267ffffffffffffffff8111156107ab577f4e487b7100000000000000000000000000000000000000000000000000000000600052604160045260246000fd5b6040519080825280602002602001820160405280156107e457816020015b6107d161227e565b8152602001906001900390816107c95790505b5090506000600190505b8481116109f2573373ffffffffffffffffffffffffffffffffffffffff166009600083815260200190815260200160002060030160009054906101000a900473ffffffffffffffffffffffffffffffffffffffff1673ffffffffffffffffffffffffffffffffffffffff1614156109df576000600960008381526020019081526020016000209050806040518061010001604052908160008201548152602001600182015481526020016002820160009054906101000a900473ffffffffffffffffffffffffffffffffffffffff1673ffffffffffffffffffffffffffffffffffffffff1673ffffffffffffffffffffffffffffffffffffffff1681526020016003820160009054906101000a900473ffffffffffffffffffffffffffffffffffffffff1673ffffffffffffffffffffffffffffffffffffffff1673ffffffffffffffffffffffffffffffffffffffff168152602001600482015481526020016005820160009054906101000a900460ff161515151581526020016005820160019054906101000a900460ff16151515158152602001600682015481525050838580610999906131bb565b9650815181106109d2577f4e487b7100000000000000000000000000000000000000000000000000000000600052603260045260246000fd5b6020026020010181905250505b80806109ea906131bb565b9150506107ee565b508094505050505090565b6000600854905090565b600063150b7a0260e01b905095945050505050565b60606000610a2a6002612003565b90506000806000600190505b838111610aca573373ffffffffffffffffffffffffffffffffffffffff166009600083815260200190815260200160002060020160009054906101000a900473ffffffffffffffffffffffffffffffffffffffff1673ffffffffffffffffffffffffffffffffffffffff161415610ab757600183610ab4919061308a565b92505b8080610ac2906131bb565b915050610a36565b5060008267ffffffffffffffff811115610b0d577f4e487b7100000000000000000000000000000000000000000000000000000000600052604160045260246000fd5b604051908082528060200260200182016040528015610b4657816020015b610b3361227e565b815260200190600190039081610b2b5790505b5090506000600190505b848111610d54573373ffffffffffffffffffffffffffffffffffffffff166009600083815260200190815260200160002060020160009054906101000a900473ffffffffffffffffffffffffffffffffffffffff1673ffffffffffffffffffffffffffffffffffffffff161415610d41576000600960008381526020019081526020016000209050806040518061010001604052908160008201548152602001600182015481526020016002820160009054906101000a900473ffffffffffffffffffffffffffffffffffffffff1673ffffffffffffffffffffffffffffffffffffffff1673ffffffffffffffffffffffffffffffffffffffff1681526020016003820160009054906101000a900473ffffffffffffffffffffffffffffffffffffffff1673ffffffffffffffffffffffffffffffffffffffff1673ffffffffffffffffffffffffffffffffffffffff168152602001600482015481526020016005820160009054906101000a900460ff161515151581526020016005820160019054906101000a900460ff16151515158152602001600682015481525050838580610cfb906131bb565b965081518110610d34577f4e487b7100000000000000000000000000000000000000000000000000000000600052603260045260246000fd5b6020026020010181905250505b8080610d4c906131bb565b915050610b50565b508094505050505090565b60606000610d6d6002612003565b90506000610d7b6004612003565b82610d8691906130e0565b90506000808267ffffffffffffffff811115610dcb577f4e487b7100000000000000000000000000000000000000000000000000000000600052604160045260246000fd5b604051908082528060200260200182016040528015610e0457816020015b610df161227e565b815260200190600190039081610de95790505b5090506000600190505b848111610fd1576009600082815260200190815260200160002060050160019054906101000a900460ff1615610fbe576000600960008381526020019081526020016000209050806040518061010001604052908160008201548152602001600182015481526020016002820160009054906101000a900473ffffffffffffffffffffffffffffffffffffffff1673ffffffffffffffffffffffffffffffffffffffff1673ffffffffffffffffffffffffffffffffffffffff1681526020016003820160009054906101000a900473ffffffffffffffffffffffffffffffffffffffff1673ffffffffffffffffffffffffffffffffffffffff1673ffffffffffffffffffffffffffffffffffffffff168152602001600482015481526020016005820160009054906101000a900460ff161515151581526020016005820160019054906101000a900460ff16151515158152602001600682015481525050838580610f78906131bb565b965081518110610fb1577f4e487b7100000000000000000000000000000000000000000000000000000000600052603260045260246000fd5b6020026020010181905250505b8080610fc9906131bb565b915050610e0e565b508094505050505090565b60018054906101000a900460ff16806110025750600160009054906101000a900460ff16155b611041576040517f08c379a000000000000000000000000000000000000000000000000000000000815260040161103890612e50565b60405180910390fd5b600060018054906101000a900460ff16159050801561108f5760018060016101000a81548160ff02191690831515021790555060018060006101000a81548160ff0219169083151502179055505b33600560006101000a81548173ffffffffffffffffffffffffffffffffffffffff021916908373ffffffffffffffffffffffffffffffffffffffff16021790555082600660006101000a81548173ffffffffffffffffffffffffffffffffffffffff021916908373ffffffffffffffffffffffffffffffffffffffff16021790555081600760006101000a81548173ffffffffffffffffffffffffffffffffffffffff021916908373ffffffffffffffffffffffffffffffffffffffff16021790555080156111735760006001806101000a81548160ff0219169083151502179055505b505050565b600260005414156111be576040517f08c379a00000000000000000000000000000000000000000000000000000000081526004016111b590612ef0565b60405180910390fd5b600260008190555060008111611209576040517f08c379a000000000000000000000000000000000000000000000000000000000815260040161120090612f10565b60405180910390fd5b600854341461124d576040517f08c379a000000000000000000000000000000000000000000000000000000000815260040161124490612e70565b60405180910390fd5b6112576002611fed565b60006112636002612003565b90506040518061010001604052808281526020018481526020013373ffffffffffffffffffffffffffffffffffffffff168152602001600073ffffffffffffffffffffffffffffffffffffffff1681526020018381526020016000151581526020016001151581526020014281525060096000838152602001908152602001600020600082015181600001556020820151816001015560408201518160020160006101000a81548173ffffffffffffffffffffffffffffffffffffffff021916908373ffffffffffffffffffffffffffffffffffffffff16021790555060608201518160030160006101000a81548173ffffffffffffffffffffffffffffffffffffffff021916908373ffffffffffffffffffffffffffffffffffffffff1602179055506080820151816004015560a08201518160050160006101000a81548160ff02191690831515021790555060c08201518160050160016101000a81548160ff02191690831515021790555060e08201518160060155905050600760009054906101000a900473ffffffffffffffffffffffffffffffffffffffff1673ffffffffffffffffffffffffffffffffffffffff166342842e0e3330866040518463ffffffff1660e01b815260040161143d93929190612cb8565b600060405180830381600087803b15801561145757600080fd5b505af115801561146b573d6000803e3d6000fd5b505050503373ffffffffffffffffffffffffffffffffffffffff1683827f5f575a364dc9a1861d6ee15b0d89b77863fa4ad0f2cfa58c4fc07fa4a003f5cb8560006040516114ba929190612f4b565b60405180910390a45060016000819055505050565b816009600082815260200190815260200160002060020160009054906101000a900473ffffffffffffffffffffffffffffffffffffffff1673ffffffffffffffffffffffffffffffffffffffff163373ffffffffffffffffffffffffffffffffffffffff1614611574576040517f08c379a000000000000000000000000000000000000000000000000000000000815260040161156b90612e10565b60405180910390fd5b6000600960008581526020019081526020016000209050600115158160050160019054906101000a900460ff161515146115e3576040517f08c379a00000000000000000000000000000000000000000000000000000000081526004016115da90612dd0565b60405180910390fd5b60008311611626576040517f08c379a000000000000000000000000000000000000000000000000000000000815260040161161d90612f10565b60405180910390fd5b8281600401819055508060020160009054906101000a900473ffffffffffffffffffffffffffffffffffffffff1673ffffffffffffffffffffffffffffffffffffffff168160010154857f3e320174b7b923cf2b4d6295efda5b388f1cb64b2304810a98c889b38ed09f1a84600401546040516116a39190612f30565b60405180910390a450505050565b600081116116f4576040517f08c379a00000000000000000000000000000000000000000000000000000000081526004016116eb90612f10565b60405180910390fd5b8060088190555050565b60026000541415611744576040517f08c379a000000000000000000000000000000000000000000000000000000000815260040161173b90612ef0565b60405180910390fd5b6002600081905550806009600082815260200190815260200160002060020160009054906101000a900473ffffffffffffffffffffffffffffffffffffffff1673ffffffffffffffffffffffffffffffffffffffff163373ffffffffffffffffffffffffffffffffffffffff16146117f1576040517f08c379a00000000000000000000000000000000000000000000000000000000081526004016117e890612e10565b60405180910390fd5b6000600960008481526020019081526020016000209050600115158160050160019054906101000a900460ff16151514611860576040517f08c379a000000000000000000000000000000000000000000000000000000000815260040161185790612dd0565b60405180910390fd5b600760009054906101000a900473ffffffffffffffffffffffffffffffffffffffff1673ffffffffffffffffffffffffffffffffffffffff166323b872dd303384600101546040518463ffffffff1660e01b81526004016118c393929190612cb8565b600060405180830381600087803b1580156118dd57600080fd5b505af11580156118f1573d6000803e3d6000fd5b5050505060008160050160016101000a81548160ff02191690831515021790555061191c6004611fed565b8060020160009054906101000a900473ffffffffffffffffffffffffffffffffffffffff1673ffffffffffffffffffffffffffffffffffffffff168160010154847fea6cc3bff2c107fc72aca0b418d4ac725d7fbcb9f679f33ee90e0cdd79c9eb4f84600401546040516119909190612f30565b60405180910390a45050600160008190555050565b606060006119b36004612003565b90506000808267ffffffffffffffff8111156119f8577f4e487b7100000000000000000000000000000000000000000000000000000000600052604160045260246000fd5b604051908082528060200260200182016040528015611a3157816020015b611a1e61227e565b815260200190600190039081611a165790505b5090506000600190505b611a456002612003565b8111611c06576009600082815260200190815260200160002060050160019054906101000a900460ff16611bf3576000600960008381526020019081526020016000209050806040518061010001604052908160008201548152602001600182015481526020016002820160009054906101000a900473ffffffffffffffffffffffffffffffffffffffff1673ffffffffffffffffffffffffffffffffffffffff1673ffffffffffffffffffffffffffffffffffffffff1681526020016003820160009054906101000a900473ffffffffffffffffffffffffffffffffffffffff1673ffffffffffffffffffffffffffffffffffffffff1673ffffffffffffffffffffffffffffffffffffffff168152602001600482015481526020016005820160009054906101000a900460ff161515151581526020016005820160019054906101000a900460ff16151515158152602001600682015481525050838580611bad906131bb565b965081518110611be6577f4e487b7100000000000000000000000000000000000000000000000000000000600052603260045260246000fd5b6020026020010181905250505b8080611bfe906131bb565b915050611a3b565b5080935050505090565b60606000600760009054906101000a900473ffffffffffffffffffffffffffffffffffffffff1673ffffffffffffffffffffffffffffffffffffffff166370a08231336040518263ffffffff1660e01b8152600401611c6f9190612c9d565b60206040518083038186803b158015611c8757600080fd5b505afa158015611c9b573d6000803e3d6000fd5b505050506040513d601f19601f82011682018060405250810190611cbf919061257f565b905060008167ffffffffffffffff811115611d03577f4e487b7100000000000000000000000000000000000000000000000000000000600052604160045260246000fd5b604051908082528060200260200182016040528015611d3c57816020015b611d296122f3565b815260200190600190039081611d215790505b50905060005b82811015611f5b576000600760009054906101000a900473ffffffffffffffffffffffffffffffffffffffff1673ffffffffffffffffffffffffffffffffffffffff16632f745c5933846040518363ffffffff1660e01b8152600401611da9929190612cef565b60206040518083038186803b158015611dc157600080fd5b505afa158015611dd5573d6000803e3d6000fd5b505050506040513d601f19601f82011682018060405250810190611df9919061257f565b90506000600760009054906101000a900473ffffffffffffffffffffffffffffffffffffffff1673ffffffffffffffffffffffffffffffffffffffff1663c87b56dd836040518263ffffffff1660e01b8152600401611e589190612f30565b60006040518083038186803b158015611e7057600080fd5b505afa158015611e84573d6000803e3d6000fd5b505050506040513d6000823e3d601f19601f82011682018060405250810190611ead9190612515565b90506040518060600160405280838152602001600760009054906101000a900473ffffffffffffffffffffffffffffffffffffffff1673ffffffffffffffffffffffffffffffffffffffff16815260200182815250848481518110611f3b577f4e487b7100000000000000000000000000000000000000000000000000000000600052603260045260246000fd5b602002602001018190525050508080611f53906131bb565b915050611d42565b50809250505090565b611fe7846323b872dd60e01b858585604051602401611f8593929190612cb8565b604051602081830303815290604052907bffffffffffffffffffffffffffffffffffffffffffffffffffffffff19166020820180517bffffffffffffffffffffffffffffffffffffffffffffffffffffffff8381831617835250505050612011565b50505050565b6001816000016000828254019250508190555050565b600081600001549050919050565b6000612073826040518060400160405280602081526020017f5361666545524332303a206c6f772d6c6576656c2063616c6c206661696c65648152508573ffffffffffffffffffffffffffffffffffffffff166120d89092919063ffffffff16565b90506000815111156120d3578080602001905181019061209391906124ec565b6120d2576040517f08c379a00000000000000000000000000000000000000000000000000000000081526004016120c990612ed0565b60405180910390fd5b5b505050565b60606120e784846000856120f0565b90509392505050565b606082471015612135576040517f08c379a000000000000000000000000000000000000000000000000000000000815260040161212c90612e30565b60405180910390fd5b61213e85612204565b61217d576040517f08c379a000000000000000000000000000000000000000000000000000000000815260040161217490612eb0565b60405180910390fd5b6000808673ffffffffffffffffffffffffffffffffffffffff1685876040516121a69190612c86565b60006040518083038185875af1925050503d80600081146121e3576040519150601f19603f3d011682016040523d82523d6000602084013e6121e8565b606091505b50915091506121f8828286612217565b92505050949350505050565b600080823b905060008111915050919050565b6060831561222757829050612277565b60008351111561223a5782518084602001fd5b816040517f08c379a000000000000000000000000000000000000000000000000000000000815260040161226e9190612dae565b60405180910390fd5b9392505050565b6040518061010001604052806000815260200160008152602001600073ffffffffffffffffffffffffffffffffffffffff168152602001600073ffffffffffffffffffffffffffffffffffffffff16815260200160008152602001600015158152602001600015158152602001600081525090565b604051806060016040528060008152602001600073ffffffffffffffffffffffffffffffffffffffff168152602001606081525090565b600061233d61233884612fa5565b612f74565b90508281526020810184848401111561235557600080fd5b612360848285613188565b509392505050565b60008135905061237781613273565b92915050565b60008151905061238c8161328a565b92915050565b60008083601f8401126123a457600080fd5b8235905067ffffffffffffffff8111156123bd57600080fd5b6020830191508360018202830111156123d557600080fd5b9250929050565b600082601f8301126123ed57600080fd5b81516123fd84826020860161232a565b91505092915050565b600081359050612415816132a1565b92915050565b60008151905061242a816132a1565b92915050565b6000806040838503121561244357600080fd5b600061245185828601612368565b925050602061246285828601612368565b9150509250929050565b60008060008060006080868803121561248457600080fd5b600061249288828901612368565b95505060206124a388828901612368565b94505060406124b488828901612406565b935050606086013567ffffffffffffffff8111156124d157600080fd5b6124dd88828901612392565b92509250509295509295909350565b6000602082840312156124fe57600080fd5b600061250c8482850161237d565b91505092915050565b60006020828403121561252757600080fd5b600082015167ffffffffffffffff81111561254157600080fd5b61254d848285016123dc565b91505092915050565b60006020828403121561256857600080fd5b600061257684828501612406565b91505092915050565b60006020828403121561259157600080fd5b600061259f8482850161241b565b91505092915050565b600080604083850312156125bb57600080fd5b60006125c985828601612406565b92505060206125da85828601612406565b9150509250929050565b60006125f08383612b76565b6101008301905092915050565b60006126098383612c18565b905092915050565b61261a81613114565b82525050565b61262981613114565b82525050565b600061263a82612ff5565b612644818561303b565b935061264f83612fd5565b8060005b8381101561268057815161266788826125e4565b975061267283613021565b925050600181019050612653565b5085935050505092915050565b600061269882613000565b6126a2818561304c565b9350836020820285016126b485612fe5565b8060005b858110156126f057848403895281516126d185826125fd565b94506126dc8361302e565b925060208a019950506001810190506126b8565b50829750879550505050505092915050565b61270b81613126565b82525050565b61271a81613126565b82525050565b61272981613132565b82525050565b600061273a8261300b565b612744818561305d565b9350612754818560208601613188565b80840191505092915050565b600061276b82613016565b6127758185613068565b9350612785818560208601613188565b61278e81613262565b840191505092915050565b60006127a482613016565b6127ae8185613079565b93506127be818560208601613188565b6127c781613262565b840191505092915050565b60006127df600f83613079565b91507f53616c652077617320656e6465642e00000000000000000000000000000000006000830152602082019050919050565b600061281f604183613079565b91507f506c65617365207375626d6974207468652061736b696e67207072696365206960008301527f6e206f7264657220746f20636f6d706c6574652074686520707572636861736560208301527f2e000000000000000000000000000000000000000000000000000000000000006040830152606082019050919050565b60006128ab601383613079565b91507f496e76616c69642073616c652073656c6c6572000000000000000000000000006000830152602082019050919050565b60006128eb602683613079565b91507f416464726573733a20696e73756666696369656e742062616c616e636520666f60008301527f722063616c6c00000000000000000000000000000000000000000000000000006020830152604082019050919050565b6000612951602e83613079565b91507f496e697469616c697a61626c653a20636f6e747261637420697320616c72656160008301527f647920696e697469616c697a65640000000000000000000000000000000000006020830152604082019050919050565b60006129b7602483613079565b91507f5072696365206d75737420626520657175616c20746f206c697374696e67207060008301527f72696365000000000000000000000000000000000000000000000000000000006020830152604082019050919050565b6000612a1d601d83613079565b91507f42757965722069732073656c6c6572206f662074686973206974656d2e0000006000830152602082019050919050565b6000612a5d601d83613079565b91507f416464726573733a2063616c6c20746f206e6f6e2d636f6e74726163740000006000830152602082019050919050565b6000612a9d602a83613079565b91507f5361666545524332303a204552433230206f7065726174696f6e20646964206e60008301527f6f742073756363656564000000000000000000000000000000000000000000006020830152604082019050919050565b6000612b03601f83613079565b91507f5265656e7472616e637947756172643a207265656e7472616e742063616c6c006000830152602082019050919050565b6000612b43601c83613079565b91507f5072696365206d757374206265206174206c65617374203120776569000000006000830152602082019050919050565b61010082016000820151612b8d6000850182612c68565b506020820151612ba06020850182612c68565b506040820151612bb36040850182612611565b506060820151612bc66060850182612611565b506080820151612bd96080850182612c68565b5060a0820151612bec60a0850182612702565b5060c0820151612bff60c0850182612702565b5060e0820151612c1260e0850182612c68565b50505050565b6000606083016000830151612c306000860182612c68565b506020830151612c436020860182612611565b5060408301518482036040860152612c5b8282612760565b9150508091505092915050565b612c718161317e565b82525050565b612c808161317e565b82525050565b6000612c92828461272f565b915081905092915050565b6000602082019050612cb26000830184612620565b92915050565b6000606082019050612ccd6000830186612620565b612cda6020830185612620565b612ce76040830184612c77565b949350505050565b6000604082019050612d046000830185612620565b612d116020830184612c77565b9392505050565b6000606082019050612d2d6000830186612620565b612d3a6020830185612c77565b612d476040830184612711565b949350505050565b60006020820190508181036000830152612d69818461262f565b905092915050565b60006020820190508181036000830152612d8b818461268d565b905092915050565b6000602082019050612da86000830184612720565b92915050565b60006020820190508181036000830152612dc88184612799565b905092915050565b60006020820190508181036000830152612de9816127d2565b9050919050565b60006020820190508181036000830152612e0981612812565b9050919050565b60006020820190508181036000830152612e298161289e565b9050919050565b60006020820190508181036000830152612e49816128de565b9050919050565b60006020820190508181036000830152612e6981612944565b9050919050565b60006020820190508181036000830152612e89816129aa565b9050919050565b60006020820190508181036000830152612ea981612a10565b9050919050565b60006020820190508181036000830152612ec981612a50565b9050919050565b60006020820190508181036000830152612ee981612a90565b9050919050565b60006020820190508181036000830152612f0981612af6565b9050919050565b60006020820190508181036000830152612f2981612b36565b9050919050565b6000602082019050612f456000830184612c77565b92915050565b6000604082019050612f606000830185612c77565b612f6d6020830184612711565b9392505050565b6000604051905081810181811067ffffffffffffffff82111715612f9b57612f9a613233565b5b8060405250919050565b600067ffffffffffffffff821115612fc057612fbf613233565b5b601f19601f8301169050602081019050919050565b6000819050602082019050919050565b6000819050602082019050919050565b600081519050919050565b600081519050919050565b600081519050919050565b600081519050919050565b6000602082019050919050565b6000602082019050919050565b600082825260208201905092915050565b600082825260208201905092915050565b600081905092915050565b600082825260208201905092915050565b600082825260208201905092915050565b60006130958261317e565b91506130a08361317e565b9250827fffffffffffffffffffffffffffffffffffffffffffffffffffffffffffffffff038211156130d5576130d4613204565b5b828201905092915050565b60006130eb8261317e565b91506130f68361317e565b92508282101561310957613108613204565b5b828203905092915050565b600061311f8261315e565b9050919050565b60008115159050919050565b60007fffffffff0000000000000000000000000000000000000000000000000000000082169050919050565b600073ffffffffffffffffffffffffffffffffffffffff82169050919050565b6000819050919050565b60005b838110156131a657808201518184015260208101905061318b565b838111156131b5576000848401525b50505050565b60006131c68261317e565b91507fffffffffffffffffffffffffffffffffffffffffffffffffffffffffffffffff8214156131f9576131f8613204565b5b600182019050919050565b7f4e487b7100000000000000000000000000000000000000000000000000000000600052601160045260246000fd5b7f4e487b7100000000000000000000000000000000000000000000000000000000600052604160045260246000fd5b6000601f19601f8301169050919050565b61327c81613114565b811461328757600080fd5b50565b61329381613126565b811461329e57600080fd5b50565b6132aa8161317e565b81146132b557600080fd5b5056fea2646970667358221220fad7c526b4234f7d5fa434deda09aa6ab19718e7dc428ca5059322aa0aa66fe064736f6c63430008000033",
  "linkReferences": {},
  "deployedLinkReferences": {}
}