{
  "_format": "hh-sol-artifact-1",
  "contractName": "Marketplace",
  "sourceName": "contracts/Marketplace.sol",
  "abi": [
    {
      "anonymous": false,
      "inputs": [
        {
          "indexed": true,
          "internalType": "address",
          "name": "previousOwner",
          "type": "address"
        },
        {
          "indexed": true,
          "internalType": "address",
          "name": "newOwner",
          "type": "address"
        }
      ],
      "name": "OwnershipTransferred",
      "type": "event"
    },
    {
      "anonymous": false,
      "inputs": [
        {
          "indexed": true,
          "internalType": "uint256",
          "name": "saleId",
          "type": "uint256"
        },
        {
          "indexed": true,
          "internalType": "uint256",
          "name": "tokenId",
          "type": "uint256"
        },
        {
          "indexed": true,
          "internalType": "address",
          "name": "seller",
          "type": "address"
        },
        {
          "indexed": false,
          "internalType": "uint256",
          "name": "price",
          "type": "uint256"
        },
        {
          "indexed": false,
          "internalType": "uint256",
          "name": "lastUpdated",
          "type": "uint256"
        }
      ],
      "name": "SaleCanceled",
      "type": "event"
    },
    {
      "anonymous": false,
      "inputs": [
        {
          "indexed": true,
          "internalType": "uint256",
          "name": "saleId",
          "type": "uint256"
        },
        {
          "indexed": true,
          "internalType": "uint256",
          "name": "tokenId",
          "type": "uint256"
        },
        {
          "indexed": true,
          "internalType": "address",
          "name": "seller",
          "type": "address"
        },
        {
          "indexed": false,
          "internalType": "uint256",
          "name": "price",
          "type": "uint256"
        },
        {
          "indexed": false,
          "internalType": "bool",
          "name": "isSold",
          "type": "bool"
        },
        {
          "indexed": false,
          "internalType": "uint256",
          "name": "lastUpdated",
          "type": "uint256"
        }
      ],
      "name": "SaleCreated",
      "type": "event"
    },
    {
      "anonymous": false,
      "inputs": [
        {
          "indexed": true,
          "internalType": "uint256",
          "name": "saleId",
          "type": "uint256"
        },
        {
          "indexed": true,
          "internalType": "uint256",
          "name": "tokenId",
          "type": "uint256"
        },
        {
          "indexed": false,
          "internalType": "address",
          "name": "seller",
          "type": "address"
        },
        {
          "indexed": false,
          "internalType": "uint256",
          "name": "price",
          "type": "uint256"
        },
        {
          "indexed": false,
          "internalType": "bool",
          "name": "isSold",
          "type": "bool"
        },
        {
          "indexed": false,
          "internalType": "uint256",
          "name": "lastUpdated",
          "type": "uint256"
        }
      ],
      "name": "SaleSold",
      "type": "event"
    },
    {
      "anonymous": false,
      "inputs": [
        {
          "indexed": true,
          "internalType": "uint256",
          "name": "saleId",
          "type": "uint256"
        },
        {
          "indexed": true,
          "internalType": "uint256",
          "name": "tokenId",
          "type": "uint256"
        },
        {
          "indexed": true,
          "internalType": "address",
          "name": "seller",
          "type": "address"
        },
        {
          "indexed": false,
          "internalType": "uint256",
          "name": "price",
          "type": "uint256"
        },
        {
          "indexed": false,
          "internalType": "uint256",
          "name": "lastUpdated",
          "type": "uint256"
        }
      ],
      "name": "SaleUpdated",
      "type": "event"
    },
    {
      "inputs": [
        {
          "internalType": "uint256",
          "name": "saleId",
          "type": "uint256"
        }
      ],
      "name": "cancelSale",
      "outputs": [],
      "stateMutability": "nonpayable",
      "type": "function"
    },
    {
      "inputs": [
        {
          "internalType": "uint256",
          "name": "newListingPrice",
          "type": "uint256"
        }
      ],
      "name": "changeListingPrice",
      "outputs": [],
      "stateMutability": "nonpayable",
      "type": "function"
    },
    {
      "inputs": [
        {
          "internalType": "uint256",
          "name": "saleId",
          "type": "uint256"
        },
        {
          "internalType": "uint256",
          "name": "newPrice",
          "type": "uint256"
        }
      ],
      "name": "changePrice",
      "outputs": [],
      "stateMutability": "nonpayable",
      "type": "function"
    },
    {
      "inputs": [
        {
          "internalType": "uint256",
          "name": "tokenId",
          "type": "uint256"
        },
        {
          "internalType": "uint256",
          "name": "price",
          "type": "uint256"
        }
      ],
      "name": "createSale",
      "outputs": [],
      "stateMutability": "payable",
      "type": "function"
    },
    {
      "inputs": [],
      "name": "getActiveSales",
      "outputs": [
        {
          "components": [
            {
              "internalType": "uint256",
              "name": "saleId",
              "type": "uint256"
            },
            {
              "internalType": "uint256",
              "name": "tokenId",
              "type": "uint256"
            },
            {
              "internalType": "address",
              "name": "seller",
              "type": "address"
            },
            {
              "internalType": "address",
              "name": "buyer",
              "type": "address"
            },
            {
              "internalType": "uint256",
              "name": "price",
              "type": "uint256"
            },
            {
              "internalType": "bool",
              "name": "isSold",
              "type": "bool"
            },
            {
              "internalType": "bool",
              "name": "isActive",
              "type": "bool"
            },
            {
              "internalType": "uint256",
              "name": "lastUpdated",
              "type": "uint256"
            }
          ],
          "internalType": "struct Marketplace.Sale[]",
          "name": "",
          "type": "tuple[]"
        }
      ],
      "stateMutability": "view",
      "type": "function"
    },
    {
      "inputs": [],
      "name": "getInactiveSales",
      "outputs": [
        {
          "components": [
            {
              "internalType": "uint256",
              "name": "saleId",
              "type": "uint256"
            },
            {
              "internalType": "uint256",
              "name": "tokenId",
              "type": "uint256"
            },
            {
              "internalType": "address",
              "name": "seller",
              "type": "address"
            },
            {
              "internalType": "address",
              "name": "buyer",
              "type": "address"
            },
            {
              "internalType": "uint256",
              "name": "price",
              "type": "uint256"
            },
            {
              "internalType": "bool",
              "name": "isSold",
              "type": "bool"
            },
            {
              "internalType": "bool",
              "name": "isActive",
              "type": "bool"
            },
            {
              "internalType": "uint256",
              "name": "lastUpdated",
              "type": "uint256"
            }
          ],
          "internalType": "struct Marketplace.Sale[]",
          "name": "",
          "type": "tuple[]"
        }
      ],
      "stateMutability": "view",
      "type": "function"
    },
    {
      "inputs": [],
      "name": "getListingPrice",
      "outputs": [
        {
          "internalType": "uint256",
          "name": "",
          "type": "uint256"
        }
      ],
      "stateMutability": "view",
      "type": "function"
    },
    {
      "inputs": [],
      "name": "getUserCreatedSales",
      "outputs": [
        {
          "components": [
            {
              "internalType": "uint256",
              "name": "saleId",
              "type": "uint256"
            },
            {
              "internalType": "uint256",
              "name": "tokenId",
              "type": "uint256"
            },
            {
              "internalType": "address",
              "name": "seller",
              "type": "address"
            },
            {
              "internalType": "address",
              "name": "buyer",
              "type": "address"
            },
            {
              "internalType": "uint256",
              "name": "price",
              "type": "uint256"
            },
            {
              "internalType": "bool",
              "name": "isSold",
              "type": "bool"
            },
            {
              "internalType": "bool",
              "name": "isActive",
              "type": "bool"
            },
            {
              "internalType": "uint256",
              "name": "lastUpdated",
              "type": "uint256"
            }
          ],
          "internalType": "struct Marketplace.Sale[]",
          "name": "",
          "type": "tuple[]"
        }
      ],
      "stateMutability": "view",
      "type": "function"
    },
    {
      "inputs": [],
      "name": "getUserNFTs",
      "outputs": [
        {
          "components": [
            {
              "internalType": "uint256",
              "name": "tokenId",
              "type": "uint256"
            },
            {
              "internalType": "address",
              "name": "contractAddress",
              "type": "address"
            },
            {
              "internalType": "string",
              "name": "URI",
              "type": "string"
            }
          ],
          "internalType": "struct Marketplace.TokenInfo[]",
          "name": "",
          "type": "tuple[]"
        }
      ],
      "stateMutability": "view",
      "type": "function"
    },
    {
      "inputs": [],
      "name": "getUserPurchasedSales",
      "outputs": [
        {
          "components": [
            {
              "internalType": "uint256",
              "name": "saleId",
              "type": "uint256"
            },
            {
              "internalType": "uint256",
              "name": "tokenId",
              "type": "uint256"
            },
            {
              "internalType": "address",
              "name": "seller",
              "type": "address"
            },
            {
              "internalType": "address",
              "name": "buyer",
              "type": "address"
            },
            {
              "internalType": "uint256",
              "name": "price",
              "type": "uint256"
            },
            {
              "internalType": "bool",
              "name": "isSold",
              "type": "bool"
            },
            {
              "internalType": "bool",
              "name": "isActive",
              "type": "bool"
            },
            {
              "internalType": "uint256",
              "name": "lastUpdated",
              "type": "uint256"
            }
          ],
          "internalType": "struct Marketplace.Sale[]",
          "name": "",
          "type": "tuple[]"
        }
      ],
      "stateMutability": "view",
      "type": "function"
    },
    {
      "inputs": [
        {
          "internalType": "address",
          "name": "erc20",
          "type": "address"
        },
        {
          "internalType": "address",
          "name": "erc721",
          "type": "address"
        }
      ],
      "name": "initialize",
      "outputs": [],
      "stateMutability": "nonpayable",
      "type": "function"
    },
    {
      "inputs": [
        {
          "internalType": "address",
          "name": "operator",
          "type": "address"
        },
        {
          "internalType": "address",
          "name": "from",
          "type": "address"
        },
        {
          "internalType": "uint256",
          "name": "tokenId",
          "type": "uint256"
        },
        {
          "internalType": "bytes",
          "name": "data",
          "type": "bytes"
        }
      ],
      "name": "onERC721Received",
      "outputs": [
        {
          "internalType": "bytes4",
          "name": "",
          "type": "bytes4"
        }
      ],
      "stateMutability": "pure",
      "type": "function"
    },
    {
      "inputs": [],
      "name": "owner",
      "outputs": [
        {
          "internalType": "address",
          "name": "",
          "type": "address"
        }
      ],
      "stateMutability": "view",
      "type": "function"
    },
    {
      "inputs": [
        {
          "internalType": "uint256",
          "name": "saleId",
          "type": "uint256"
        },
        {
          "internalType": "uint256",
          "name": "price",
          "type": "uint256"
        }
      ],
      "name": "purchaseSale",
      "outputs": [],
      "stateMutability": "nonpayable",
      "type": "function"
    },
    {
      "inputs": [],
      "name": "renounceOwnership",
      "outputs": [],
      "stateMutability": "nonpayable",
      "type": "function"
    },
    {
      "inputs": [
        {
          "internalType": "address",
          "name": "newOwner",
          "type": "address"
        }
      ],
      "name": "transferOwnership",
      "outputs": [],
      "stateMutability": "nonpayable",
      "type": "function"
    }
  ],
  "bytecode": "0x608060405260006008553480156200001657600080fd5b5060016000819055506200003f620000336200004560201b60201c565b6200004d60201b60201c565b62000113565b600033905090565b6000600160029054906101000a900473ffffffffffffffffffffffffffffffffffffffff16905081600160026101000a81548173ffffffffffffffffffffffffffffffffffffffff021916908373ffffffffffffffffffffffffffffffffffffffff1602179055508173ffffffffffffffffffffffffffffffffffffffff168173ffffffffffffffffffffffffffffffffffffffff167f8be0079c531659141344cd1fd0a4f28419497f9722a3daafe3b4186f6b6457e060405160405180910390a35050565b613afd80620001236000396000f3fe6080604052600436106100f35760003560e01c8063715018a61161008a578063bd94b00511610059578063bd94b005146102e3578063e5f9b4091461030c578063f2fde38b14610337578063fdc5ab8e14610360576100f3565b8063715018a61461024f5780638da5cb5b14610266578063b3de019c14610291578063ba0f1d9c146102ba576100f3565b8063436141d2116100c6578063436141d2146101b6578063485cc955146101e157806351c696d21461020a5780636019061b14610233576100f3565b80630974ed4b146100f857806312e8558514610123578063150b7a021461014e57806321b7e7e11461018b575b600080fd5b34801561010457600080fd5b5061010d61038b565b60405161011a9190613159565b60405180910390f35b34801561012f57600080fd5b506101386106ce565b604051610145919061339a565b60405180910390f35b34801561015a57600080fd5b50610175600480360381019061017091906129f9565b6106d8565b604051610182919061319d565b60405180910390f35b34801561019757600080fd5b506101a06106ed565b6040516101ad9190613159565b60405180910390f35b3480156101c257600080fd5b506101cb610a30565b6040516101d89190613159565b60405180910390f35b3480156101ed57600080fd5b50610208600480360381019061020391906129bd565b610cc1565b005b34801561021657600080fd5b50610231600480360381019061022c9190612b35565b610e5d565b005b61024d60048036038101906102489190612b35565b61128c565b005b34801561025b57600080fd5b506102646116fd565b005b34801561027257600080fd5b5061027b611785565b6040516102889190613070565b60405180910390f35b34801561029d57600080fd5b506102b860048036038101906102b39190612b35565b6117af565b005b3480156102c657600080fd5b506102e160048036038101906102dc9190612ae3565b611993565b005b3480156102ef57600080fd5b5061030a60048036038101906103059190612ae3565b611a5c565b005b34801561031857600080fd5b50610321611d05565b60405161032e9190613159565b60405180910390f35b34801561034357600080fd5b5061035e6004803603810190610359919061296b565b611f70565b005b34801561036c57600080fd5b50610375612068565b604051610382919061317b565b60405180910390f35b6060600061039960026123bc565b90506000806000600190505b838111610439573373ffffffffffffffffffffffffffffffffffffffff166009600083815260200190815260200160002060030160009054906101000a900473ffffffffffffffffffffffffffffffffffffffff1673ffffffffffffffffffffffffffffffffffffffff161415610426576001836104239190613520565b92505b808061043190613682565b9150506103a5565b5060008267ffffffffffffffff81111561047c577f4e487b7100000000000000000000000000000000000000000000000000000000600052604160045260246000fd5b6040519080825280602002602001820160405280156104b557816020015b6104a26127a4565b81526020019060019003908161049a5790505b5090506000600190505b8481116106c3573373ffffffffffffffffffffffffffffffffffffffff166009600083815260200190815260200160002060030160009054906101000a900473ffffffffffffffffffffffffffffffffffffffff1673ffffffffffffffffffffffffffffffffffffffff1614156106b0576000600960008381526020019081526020016000209050806040518061010001604052908160008201548152602001600182015481526020016002820160009054906101000a900473ffffffffffffffffffffffffffffffffffffffff1673ffffffffffffffffffffffffffffffffffffffff1673ffffffffffffffffffffffffffffffffffffffff1681526020016003820160009054906101000a900473ffffffffffffffffffffffffffffffffffffffff1673ffffffffffffffffffffffffffffffffffffffff1673ffffffffffffffffffffffffffffffffffffffff168152602001600482015481526020016005820160009054906101000a900460ff161515151581526020016005820160019054906101000a900460ff1615151515815260200160068201548152505083858061066a90613682565b9650815181106106a3577f4e487b7100000000000000000000000000000000000000000000000000000000600052603260045260246000fd5b6020026020010181905250505b80806106bb90613682565b9150506104bf565b508094505050505090565b6000600854905090565b600063150b7a0260e01b905095945050505050565b606060006106fb60026123bc565b90506000806000600190505b83811161079b573373ffffffffffffffffffffffffffffffffffffffff166009600083815260200190815260200160002060020160009054906101000a900473ffffffffffffffffffffffffffffffffffffffff1673ffffffffffffffffffffffffffffffffffffffff161415610788576001836107859190613520565b92505b808061079390613682565b915050610707565b5060008267ffffffffffffffff8111156107de577f4e487b7100000000000000000000000000000000000000000000000000000000600052604160045260246000fd5b60405190808252806020026020018201604052801561081757816020015b6108046127a4565b8152602001906001900390816107fc5790505b5090506000600190505b848111610a25573373ffffffffffffffffffffffffffffffffffffffff166009600083815260200190815260200160002060020160009054906101000a900473ffffffffffffffffffffffffffffffffffffffff1673ffffffffffffffffffffffffffffffffffffffff161415610a12576000600960008381526020019081526020016000209050806040518061010001604052908160008201548152602001600182015481526020016002820160009054906101000a900473ffffffffffffffffffffffffffffffffffffffff1673ffffffffffffffffffffffffffffffffffffffff1673ffffffffffffffffffffffffffffffffffffffff1681526020016003820160009054906101000a900473ffffffffffffffffffffffffffffffffffffffff1673ffffffffffffffffffffffffffffffffffffffff1673ffffffffffffffffffffffffffffffffffffffff168152602001600482015481526020016005820160009054906101000a900460ff161515151581526020016005820160019054906101000a900460ff161515151581526020016006820154815250508385806109cc90613682565b965081518110610a05577f4e487b7100000000000000000000000000000000000000000000000000000000600052603260045260246000fd5b6020026020010181905250505b8080610a1d90613682565b915050610821565b508094505050505090565b60606000610a3e60026123bc565b90506000610a4c60036123bc565b610a5660046123bc565b83610a619190613576565b610a6b9190613576565b90506000808267ffffffffffffffff811115610ab0577f4e487b7100000000000000000000000000000000000000000000000000000000600052604160045260246000fd5b604051908082528060200260200182016040528015610ae957816020015b610ad66127a4565b815260200190600190039081610ace5790505b5090506000600190505b848111610cb6576009600082815260200190815260200160002060050160019054906101000a900460ff1615610ca3576000600960008381526020019081526020016000209050806040518061010001604052908160008201548152602001600182015481526020016002820160009054906101000a900473ffffffffffffffffffffffffffffffffffffffff1673ffffffffffffffffffffffffffffffffffffffff1673ffffffffffffffffffffffffffffffffffffffff1681526020016003820160009054906101000a900473ffffffffffffffffffffffffffffffffffffffff1673ffffffffffffffffffffffffffffffffffffffff1673ffffffffffffffffffffffffffffffffffffffff168152602001600482015481526020016005820160009054906101000a900460ff161515151581526020016005820160019054906101000a900460ff16151515158152602001600682015481525050838580610c5d90613682565b965081518110610c96577f4e487b7100000000000000000000000000000000000000000000000000000000600052603260045260246000fd5b6020026020010181905250505b8080610cae90613682565b915050610af3565b508094505050505090565b60018054906101000a900460ff1680610ce75750600160009054906101000a900460ff16155b610d26576040517f08c379a0000000000000000000000000000000000000000000000000000000008152600401610d1d9061329a565b60405180910390fd5b600060018054906101000a900460ff161590508015610d745760018060016101000a81548160ff02191690831515021790555060018060006101000a81548160ff0219169083151502179055505b33600560006101000a81548173ffffffffffffffffffffffffffffffffffffffff021916908373ffffffffffffffffffffffffffffffffffffffff16021790555082600660006101000a81548173ffffffffffffffffffffffffffffffffffffffff021916908373ffffffffffffffffffffffffffffffffffffffff16021790555081600760006101000a81548173ffffffffffffffffffffffffffffffffffffffff021916908373ffffffffffffffffffffffffffffffffffffffff1602179055508015610e585760006001806101000a81548160ff0219169083151502179055505b505050565b60026000541415610ea3576040517f08c379a0000000000000000000000000000000000000000000000000000000008152600401610e9a9061335a565b60405180910390fd5b60026000819055506000600660009054906101000a900473ffffffffffffffffffffffffffffffffffffffff1673ffffffffffffffffffffffffffffffffffffffff1663dd62ed3e33306040518363ffffffff1660e01b8152600401610f0a92919061308b565b60206040518083038186803b158015610f2257600080fd5b505afa158015610f36573d6000803e3d6000fd5b505050506040513d601f19601f82011682018060405250810190610f5a9190612b0c565b905081811015610f9f576040517f08c379a0000000000000000000000000000000000000000000000000000000008152600401610f96906132da565b60405180910390fd5b6000600960008581526020019081526020016000209050600115158160050160019054906101000a900460ff161515148015610ff05750600015158160050160009054906101000a900460ff161515145b61102f576040517f08c379a0000000000000000000000000000000000000000000000000000000008152600401611026906131fa565b60405180910390fd5b80600401548314611075576040517f08c379a000000000000000000000000000000000000000000000000000000000815260040161106c9061321a565b60405180910390fd5b6000816001015490506110f1338360020160009054906101000a900473ffffffffffffffffffffffffffffffffffffffff1686600660009054906101000a900473ffffffffffffffffffffffffffffffffffffffff1673ffffffffffffffffffffffffffffffffffffffff166123ca909392919063ffffffff16565b600760009054906101000a900473ffffffffffffffffffffffffffffffffffffffff1673ffffffffffffffffffffffffffffffffffffffff166323b872dd3033846040518463ffffffff1660e01b8152600401611150939291906130b4565b600060405180830381600087803b15801561116a57600080fd5b505af115801561117e573d6000803e3d6000fd5b5050505060018260050160006101000a81548160ff02191690831515021790555060008260050160016101000a81548160ff021916908315150217905550338260030160006101000a81548173ffffffffffffffffffffffffffffffffffffffff021916908373ffffffffffffffffffffffffffffffffffffffff1602179055506112096003612453565b80857fa1ffbf809f5113e0312f081bb16d51434d610320b7ea557250fdcbded2fbd4478460020160009054906101000a900473ffffffffffffffffffffffffffffffffffffffff16878660050160009054906101000a900460ff16426040516112759493929190613114565b60405180910390a350505060016000819055505050565b600260005414156112d2576040517f08c379a00000000000000000000000000000000000000000000000000000000081526004016112c99061335a565b60405180910390fd5b60026000819055506000811161131d576040517f08c379a00000000000000000000000000000000000000000000000000000000081526004016113149061337a565b60405180910390fd5b6008543414611361576040517f08c379a0000000000000000000000000000000000000000000000000000000008152600401611358906132fa565b60405180910390fd5b3373ffffffffffffffffffffffffffffffffffffffff16600760009054906101000a900473ffffffffffffffffffffffffffffffffffffffff1673ffffffffffffffffffffffffffffffffffffffff16636352211e846040518263ffffffff1660e01b81526004016113d3919061339a565b60206040518083038186803b1580156113eb57600080fd5b505afa1580156113ff573d6000803e3d6000fd5b505050506040513d601f19601f820116820180604052508101906114239190612994565b73ffffffffffffffffffffffffffffffffffffffff1614611479576040517f08c379a0000000000000000000000000000000000000000000000000000000008152600401611470906131da565b60405180910390fd5b6114836002612453565b600061148f60026123bc565b90506040518061010001604052808281526020018481526020013373ffffffffffffffffffffffffffffffffffffffff168152602001600073ffffffffffffffffffffffffffffffffffffffff1681526020018381526020016000151581526020016001151581526020014281525060096000838152602001908152602001600020600082015181600001556020820151816001015560408201518160020160006101000a81548173ffffffffffffffffffffffffffffffffffffffff021916908373ffffffffffffffffffffffffffffffffffffffff16021790555060608201518160030160006101000a81548173ffffffffffffffffffffffffffffffffffffffff021916908373ffffffffffffffffffffffffffffffffffffffff1602179055506080820151816004015560a08201518160050160006101000a81548160ff02191690831515021790555060c08201518160050160016101000a81548160ff02191690831515021790555060e08201518160060155905050600760009054906101000a900473ffffffffffffffffffffffffffffffffffffffff1673ffffffffffffffffffffffffffffffffffffffff166342842e0e3330866040518463ffffffff1660e01b8152600401611669939291906130b4565b600060405180830381600087803b15801561168357600080fd5b505af1158015611697573d6000803e3d6000fd5b505050503373ffffffffffffffffffffffffffffffffffffffff1683827fd035e36eed79dc051f4a1821b06d9defcfe2a74be16adb4991291117112a50f0856000426040516116e8939291906133b5565b60405180910390a45060016000819055505050565b611705612469565b73ffffffffffffffffffffffffffffffffffffffff16611723611785565b73ffffffffffffffffffffffffffffffffffffffff1614611779576040517f08c379a0000000000000000000000000000000000000000000000000000000008152600401611770906132ba565b60405180910390fd5b6117836000612471565b565b6000600160029054906101000a900473ffffffffffffffffffffffffffffffffffffffff16905090565b816009600082815260200190815260200160002060020160009054906101000a900473ffffffffffffffffffffffffffffffffffffffff1673ffffffffffffffffffffffffffffffffffffffff163373ffffffffffffffffffffffffffffffffffffffff1614611854576040517f08c379a000000000000000000000000000000000000000000000000000000000815260040161184b9061325a565b60405180910390fd5b6000600960008581526020019081526020016000209050600115158160050160019054906101000a900460ff161515146118c3576040517f08c379a00000000000000000000000000000000000000000000000000000000081526004016118ba906131fa565b60405180910390fd5b60008311611906576040517f08c379a00000000000000000000000000000000000000000000000000000000081526004016118fd9061337a565b60405180910390fd5b8281600401819055508060020160009054906101000a900473ffffffffffffffffffffffffffffffffffffffff1673ffffffffffffffffffffffffffffffffffffffff168160010154857fb5ff818b1e47858abe4b8dbeee7509d67cc6b3e461dc17faf8340a2defdaa8d78460040154426040516119859291906133ec565b60405180910390a450505050565b61199b612469565b73ffffffffffffffffffffffffffffffffffffffff166119b9611785565b73ffffffffffffffffffffffffffffffffffffffff1614611a0f576040517f08c379a0000000000000000000000000000000000000000000000000000000008152600401611a06906132ba565b60405180910390fd5b60008111611a52576040517f08c379a0000000000000000000000000000000000000000000000000000000008152600401611a499061337a565b60405180910390fd5b8060088190555050565b60026000541415611aa2576040517f08c379a0000000000000000000000000000000000000000000000000000000008152600401611a999061335a565b60405180910390fd5b6002600081905550806009600082815260200190815260200160002060020160009054906101000a900473ffffffffffffffffffffffffffffffffffffffff1673ffffffffffffffffffffffffffffffffffffffff163373ffffffffffffffffffffffffffffffffffffffff1614611b4f576040517f08c379a0000000000000000000000000000000000000000000000000000000008152600401611b469061325a565b60405180910390fd5b6000600960008481526020019081526020016000209050600115158160050160019054906101000a900460ff16151514611bbe576040517f08c379a0000000000000000000000000000000000000000000000000000000008152600401611bb5906131fa565b60405180910390fd5b600760009054906101000a900473ffffffffffffffffffffffffffffffffffffffff1673ffffffffffffffffffffffffffffffffffffffff166323b872dd303384600101546040518463ffffffff1660e01b8152600401611c21939291906130b4565b600060405180830381600087803b158015611c3b57600080fd5b505af1158015611c4f573d6000803e3d6000fd5b5050505060008160050160016101000a81548160ff021916908315150217905550611c7a6004612453565b8060020160009054906101000a900473ffffffffffffffffffffffffffffffffffffffff1673ffffffffffffffffffffffffffffffffffffffff168160010154847f9cf3aa3c21065a435a0fd60111abd0ae5148ec0805525a8ade76e8c0632b89cd846004015442604051611cf09291906133ec565b60405180910390a45050600160008190555050565b60606000611d1360046123bc565b90506000808267ffffffffffffffff811115611d58577f4e487b7100000000000000000000000000000000000000000000000000000000600052604160045260246000fd5b604051908082528060200260200182016040528015611d9157816020015b611d7e6127a4565b815260200190600190039081611d765790505b5090506000600190505b611da560026123bc565b8111611f66576009600082815260200190815260200160002060050160019054906101000a900460ff16611f53576000600960008381526020019081526020016000209050806040518061010001604052908160008201548152602001600182015481526020016002820160009054906101000a900473ffffffffffffffffffffffffffffffffffffffff1673ffffffffffffffffffffffffffffffffffffffff1673ffffffffffffffffffffffffffffffffffffffff1681526020016003820160009054906101000a900473ffffffffffffffffffffffffffffffffffffffff1673ffffffffffffffffffffffffffffffffffffffff1673ffffffffffffffffffffffffffffffffffffffff168152602001600482015481526020016005820160009054906101000a900460ff161515151581526020016005820160019054906101000a900460ff16151515158152602001600682015481525050838580611f0d90613682565b965081518110611f46577f4e487b7100000000000000000000000000000000000000000000000000000000600052603260045260246000fd5b6020026020010181905250505b8080611f5e90613682565b915050611d9b565b5080935050505090565b611f78612469565b73ffffffffffffffffffffffffffffffffffffffff16611f96611785565b73ffffffffffffffffffffffffffffffffffffffff1614611fec576040517f08c379a0000000000000000000000000000000000000000000000000000000008152600401611fe3906132ba565b60405180910390fd5b600073ffffffffffffffffffffffffffffffffffffffff168173ffffffffffffffffffffffffffffffffffffffff16141561205c576040517f08c379a00000000000000000000000000000000000000000000000000000000081526004016120539061323a565b60405180910390fd5b61206581612471565b50565b60606000600760009054906101000a900473ffffffffffffffffffffffffffffffffffffffff1673ffffffffffffffffffffffffffffffffffffffff166370a08231336040518263ffffffff1660e01b81526004016120c79190613070565b60206040518083038186803b1580156120df57600080fd5b505afa1580156120f3573d6000803e3d6000fd5b505050506040513d601f19601f820116820180604052508101906121179190612b0c565b905060008167ffffffffffffffff81111561215b577f4e487b7100000000000000000000000000000000000000000000000000000000600052604160045260246000fd5b60405190808252806020026020018201604052801561219457816020015b612181612819565b8152602001906001900390816121795790505b50905060005b828110156123b3576000600760009054906101000a900473ffffffffffffffffffffffffffffffffffffffff1673ffffffffffffffffffffffffffffffffffffffff16632f745c5933846040518363ffffffff1660e01b81526004016122019291906130eb565b60206040518083038186803b15801561221957600080fd5b505afa15801561222d573d6000803e3d6000fd5b505050506040513d601f19601f820116820180604052508101906122519190612b0c565b90506000600760009054906101000a900473ffffffffffffffffffffffffffffffffffffffff1673ffffffffffffffffffffffffffffffffffffffff1663c87b56dd836040518263ffffffff1660e01b81526004016122b0919061339a565b60006040518083038186803b1580156122c857600080fd5b505afa1580156122dc573d6000803e3d6000fd5b505050506040513d6000823e3d601f19601f820116820180604052508101906123059190612aa2565b90506040518060600160405280838152602001600760009054906101000a900473ffffffffffffffffffffffffffffffffffffffff1673ffffffffffffffffffffffffffffffffffffffff16815260200182815250848481518110612393577f4e487b7100000000000000000000000000000000000000000000000000000000600052603260045260246000fd5b6020026020010181905250505080806123ab90613682565b91505061219a565b50809250505090565b600081600001549050919050565b61244d846323b872dd60e01b8585856040516024016123eb939291906130b4565b604051602081830303815290604052907bffffffffffffffffffffffffffffffffffffffffffffffffffffffff19166020820180517bffffffffffffffffffffffffffffffffffffffffffffffffffffffff8381831617835250505050612537565b50505050565b6001816000016000828254019250508190555050565b600033905090565b6000600160029054906101000a900473ffffffffffffffffffffffffffffffffffffffff16905081600160026101000a81548173ffffffffffffffffffffffffffffffffffffffff021916908373ffffffffffffffffffffffffffffffffffffffff1602179055508173ffffffffffffffffffffffffffffffffffffffff168173ffffffffffffffffffffffffffffffffffffffff167f8be0079c531659141344cd1fd0a4f28419497f9722a3daafe3b4186f6b6457e060405160405180910390a35050565b6000612599826040518060400160405280602081526020017f5361666545524332303a206c6f772d6c6576656c2063616c6c206661696c65648152508573ffffffffffffffffffffffffffffffffffffffff166125fe9092919063ffffffff16565b90506000815111156125f957808060200190518101906125b99190612a79565b6125f8576040517f08c379a00000000000000000000000000000000000000000000000000000000081526004016125ef9061333a565b60405180910390fd5b5b505050565b606061260d8484600085612616565b90509392505050565b60608247101561265b576040517f08c379a00000000000000000000000000000000000000000000000000000000081526004016126529061327a565b60405180910390fd5b6126648561272a565b6126a3576040517f08c379a000000000000000000000000000000000000000000000000000000000815260040161269a9061331a565b60405180910390fd5b6000808673ffffffffffffffffffffffffffffffffffffffff1685876040516126cc9190613059565b60006040518083038185875af1925050503d8060008114612709576040519150601f19603f3d011682016040523d82523d6000602084013e61270e565b606091505b509150915061271e82828661273d565b92505050949350505050565b600080823b905060008111915050919050565b6060831561274d5782905061279d565b6000835111156127605782518084602001fd5b816040517f08c379a000000000000000000000000000000000000000000000000000000000815260040161279491906131b8565b60405180910390fd5b9392505050565b6040518061010001604052806000815260200160008152602001600073ffffffffffffffffffffffffffffffffffffffff168152602001600073ffffffffffffffffffffffffffffffffffffffff16815260200160008152602001600015158152602001600015158152602001600081525090565b604051806060016040528060008152602001600073ffffffffffffffffffffffffffffffffffffffff168152602001606081525090565b600061286361285e8461343a565b613415565b90508281526020810184848401111561287b57600080fd5b61288684828561361e565b509392505050565b60008135905061289d81613a82565b92915050565b6000815190506128b281613a82565b92915050565b6000815190506128c781613a99565b92915050565b60008083601f8401126128df57600080fd5b8235905067ffffffffffffffff8111156128f857600080fd5b60208301915083600182028301111561291057600080fd5b9250929050565b600082601f83011261292857600080fd5b8151612938848260208601612850565b91505092915050565b60008135905061295081613ab0565b92915050565b60008151905061296581613ab0565b92915050565b60006020828403121561297d57600080fd5b600061298b8482850161288e565b91505092915050565b6000602082840312156129a657600080fd5b60006129b4848285016128a3565b91505092915050565b600080604083850312156129d057600080fd5b60006129de8582860161288e565b92505060206129ef8582860161288e565b9150509250929050565b600080600080600060808688031215612a1157600080fd5b6000612a1f8882890161288e565b9550506020612a308882890161288e565b9450506040612a4188828901612941565b935050606086013567ffffffffffffffff811115612a5e57600080fd5b612a6a888289016128cd565b92509250509295509295909350565b600060208284031215612a8b57600080fd5b6000612a99848285016128b8565b91505092915050565b600060208284031215612ab457600080fd5b600082015167ffffffffffffffff811115612ace57600080fd5b612ada84828501612917565b91505092915050565b600060208284031215612af557600080fd5b6000612b0384828501612941565b91505092915050565b600060208284031215612b1e57600080fd5b6000612b2c84828501612956565b91505092915050565b60008060408385031215612b4857600080fd5b6000612b5685828601612941565b9250506020612b6785828601612941565b9150509250929050565b6000612b7d8383612f49565b6101008301905092915050565b6000612b968383612feb565b905092915050565b612ba7816135aa565b82525050565b612bb6816135aa565b82525050565b6000612bc78261348b565b612bd181856134d1565b9350612bdc8361346b565b8060005b83811015612c0d578151612bf48882612b71565b9750612bff836134b7565b925050600181019050612be0565b5085935050505092915050565b6000612c2582613496565b612c2f81856134e2565b935083602082028501612c418561347b565b8060005b85811015612c7d5784840389528151612c5e8582612b8a565b9450612c69836134c4565b925060208a01995050600181019050612c45565b50829750879550505050505092915050565b612c98816135bc565b82525050565b612ca7816135bc565b82525050565b612cb6816135c8565b82525050565b6000612cc7826134a1565b612cd181856134f3565b9350612ce181856020860161361e565b80840191505092915050565b6000612cf8826134ac565b612d0281856134fe565b9350612d1281856020860161361e565b612d1b81613729565b840191505092915050565b6000612d31826134ac565b612d3b818561350f565b9350612d4b81856020860161361e565b612d5481613729565b840191505092915050565b6000612d6c60198361350f565b9150612d778261373a565b602082019050919050565b6000612d8f600f8361350f565b9150612d9a82613763565b602082019050919050565b6000612db260418361350f565b9150612dbd8261378c565b606082019050919050565b6000612dd560268361350f565b9150612de082613801565b604082019050919050565b6000612df860138361350f565b9150612e0382613850565b602082019050919050565b6000612e1b60268361350f565b9150612e2682613879565b604082019050919050565b6000612e3e602e8361350f565b9150612e49826138c8565b604082019050919050565b6000612e6160208361350f565b9150612e6c82613917565b602082019050919050565b6000612e8460148361350f565b9150612e8f82613940565b602082019050919050565b6000612ea760248361350f565b9150612eb282613969565b604082019050919050565b6000612eca601d8361350f565b9150612ed5826139b8565b602082019050919050565b6000612eed602a8361350f565b9150612ef8826139e1565b604082019050919050565b6000612f10601f8361350f565b9150612f1b82613a30565b602082019050919050565b6000612f33601c8361350f565b9150612f3e82613a59565b602082019050919050565b61010082016000820151612f60600085018261303b565b506020820151612f73602085018261303b565b506040820151612f866040850182612b9e565b506060820151612f996060850182612b9e565b506080820151612fac608085018261303b565b5060a0820151612fbf60a0850182612c8f565b5060c0820151612fd260c0850182612c8f565b5060e0820151612fe560e085018261303b565b50505050565b6000606083016000830151613003600086018261303b565b5060208301516130166020860182612b9e565b506040830151848203604086015261302e8282612ced565b9150508091505092915050565b61304481613614565b82525050565b61305381613614565b82525050565b60006130658284612cbc565b915081905092915050565b60006020820190506130856000830184612bad565b92915050565b60006040820190506130a06000830185612bad565b6130ad6020830184612bad565b9392505050565b60006060820190506130c96000830186612bad565b6130d66020830185612bad565b6130e3604083018461304a565b949350505050565b60006040820190506131006000830185612bad565b61310d602083018461304a565b9392505050565b60006080820190506131296000830187612bad565b613136602083018661304a565b6131436040830185612c9e565b613150606083018461304a565b95945050505050565b600060208201905081810360008301526131738184612bbc565b905092915050565b600060208201905081810360008301526131958184612c1a565b905092915050565b60006020820190506131b26000830184612cad565b92915050565b600060208201905081810360008301526131d28184612d26565b905092915050565b600060208201905081810360008301526131f381612d5f565b9050919050565b6000602082019050818103600083015261321381612d82565b9050919050565b6000602082019050818103600083015261323381612da5565b9050919050565b6000602082019050818103600083015261325381612dc8565b9050919050565b6000602082019050818103600083015261327381612deb565b9050919050565b6000602082019050818103600083015261329381612e0e565b9050919050565b600060208201905081810360008301526132b381612e31565b9050919050565b600060208201905081810360008301526132d381612e54565b9050919050565b600060208201905081810360008301526132f381612e77565b9050919050565b6000602082019050818103600083015261331381612e9a565b9050919050565b6000602082019050818103600083015261333381612ebd565b9050919050565b6000602082019050818103600083015261335381612ee0565b9050919050565b6000602082019050818103600083015261337381612f03565b9050919050565b6000602082019050818103600083015261339381612f26565b9050919050565b60006020820190506133af600083018461304a565b92915050565b60006060820190506133ca600083018661304a565b6133d76020830185612c9e565b6133e4604083018461304a565b949350505050565b6000604082019050613401600083018561304a565b61340e602083018461304a565b9392505050565b600061341f613430565b905061342b8282613651565b919050565b6000604051905090565b600067ffffffffffffffff821115613455576134546136fa565b5b61345e82613729565b9050602081019050919050565b6000819050602082019050919050565b6000819050602082019050919050565b600081519050919050565b600081519050919050565b600081519050919050565b600081519050919050565b6000602082019050919050565b6000602082019050919050565b600082825260208201905092915050565b600082825260208201905092915050565b600081905092915050565b600082825260208201905092915050565b600082825260208201905092915050565b600061352b82613614565b915061353683613614565b9250827fffffffffffffffffffffffffffffffffffffffffffffffffffffffffffffffff0382111561356b5761356a6136cb565b5b828201905092915050565b600061358182613614565b915061358c83613614565b92508282101561359f5761359e6136cb565b5b828203905092915050565b60006135b5826135f4565b9050919050565b60008115159050919050565b60007fffffffff0000000000000000000000000000000000000000000000000000000082169050919050565b600073ffffffffffffffffffffffffffffffffffffffff82169050919050565b6000819050919050565b60005b8381101561363c578082015181840152602081019050613621565b8381111561364b576000848401525b50505050565b61365a82613729565b810181811067ffffffffffffffff82111715613679576136786136fa565b5b80604052505050565b600061368d82613614565b91507fffffffffffffffffffffffffffffffffffffffffffffffffffffffffffffffff8214156136c0576136bf6136cb565b5b600182019050919050565b7f4e487b7100000000000000000000000000000000000000000000000000000000600052601160045260246000fd5b7f4e487b7100000000000000000000000000000000000000000000000000000000600052604160045260246000fd5b6000601f19601f8301169050919050565b7f596f7520646f206e6f74206f776e207468697320746f6b656e00000000000000600082015250565b7f53616c652077617320656e6465642e0000000000000000000000000000000000600082015250565b7f506c65617365207375626d6974207468652061736b696e67207072696365206960008201527f6e206f7264657220746f20636f6d706c6574652074686520707572636861736560208201527f2e00000000000000000000000000000000000000000000000000000000000000604082015250565b7f4f776e61626c653a206e6577206f776e657220697320746865207a65726f206160008201527f6464726573730000000000000000000000000000000000000000000000000000602082015250565b7f496e76616c69642073616c652073656c6c657200000000000000000000000000600082015250565b7f416464726573733a20696e73756666696369656e742062616c616e636520666f60008201527f722063616c6c0000000000000000000000000000000000000000000000000000602082015250565b7f496e697469616c697a61626c653a20636f6e747261637420697320616c72656160008201527f647920696e697469616c697a6564000000000000000000000000000000000000602082015250565b7f4f776e61626c653a2063616c6c6572206973206e6f7420746865206f776e6572600082015250565b7f4e6f7420656e6f75676820616c6c6f77616e6365000000000000000000000000600082015250565b7f5072696365206d75737420626520657175616c20746f206c697374696e67207060008201527f7269636500000000000000000000000000000000000000000000000000000000602082015250565b7f416464726573733a2063616c6c20746f206e6f6e2d636f6e7472616374000000600082015250565b7f5361666545524332303a204552433230206f7065726174696f6e20646964206e60008201527f6f74207375636365656400000000000000000000000000000000000000000000602082015250565b7f5265656e7472616e637947756172643a207265656e7472616e742063616c6c00600082015250565b7f5072696365206d757374206265206174206c6561737420312077656900000000600082015250565b613a8b816135aa565b8114613a9657600080fd5b50565b613aa2816135bc565b8114613aad57600080fd5b50565b613ab981613614565b8114613ac457600080fd5b5056fea2646970667358221220a02d6efccb8dcc1a395d4472508c71b543d2f68173cef1a4e73097009024810e64736f6c63430008020033",
  "linkReferences": {},
  "deployedLinkReferences": {}
}