{
  "_format": "hh-sol-artifact-1",
  "contractName": "Marketplace",
  "sourceName": "contracts/Marketplace.sol",
  "abi": [
    {
      "anonymous": false,
      "inputs": [
        {
          "indexed": false,
          "internalType": "address",
          "name": "previousAdmin",
          "type": "address"
        },
        {
          "indexed": false,
          "internalType": "address",
          "name": "newAdmin",
          "type": "address"
        }
      ],
      "name": "AdminChanged",
      "type": "event"
    },
    {
      "anonymous": false,
      "inputs": [
        {
          "indexed": true,
          "internalType": "address",
          "name": "beacon",
          "type": "address"
        }
      ],
      "name": "BeaconUpgraded",
      "type": "event"
    },
    {
      "anonymous": false,
      "inputs": [
        {
          "indexed": false,
          "internalType": "uint256",
          "name": "saleId",
          "type": "uint256"
        },
        {
          "indexed": false,
          "internalType": "uint256",
          "name": "tokenId",
          "type": "uint256"
        },
        {
          "indexed": false,
          "internalType": "address",
          "name": "seller",
          "type": "address"
        },
        {
          "indexed": false,
          "internalType": "address",
          "name": "buyer",
          "type": "address"
        },
        {
          "indexed": false,
          "internalType": "address",
          "name": "feeReceiver",
          "type": "address"
        },
        {
          "indexed": false,
          "internalType": "uint256",
          "name": "fee",
          "type": "uint256"
        },
        {
          "indexed": false,
          "internalType": "uint256",
          "name": "lastUpdated",
          "type": "uint256"
        }
      ],
      "name": "FeeTransfered",
      "type": "event"
    },
    {
      "anonymous": false,
      "inputs": [
        {
          "indexed": true,
          "internalType": "address",
          "name": "previousOwner",
          "type": "address"
        },
        {
          "indexed": true,
          "internalType": "address",
          "name": "newOwner",
          "type": "address"
        }
      ],
      "name": "OwnershipTransferred",
      "type": "event"
    },
    {
      "anonymous": false,
      "inputs": [
        {
          "indexed": false,
          "internalType": "uint256",
          "name": "itemId",
          "type": "uint256"
        },
        {
          "indexed": false,
          "internalType": "uint256",
          "name": "quantity",
          "type": "uint256"
        }
      ],
      "name": "QuantitySet",
      "type": "event"
    },
    {
      "anonymous": false,
      "inputs": [
        {
          "indexed": true,
          "internalType": "uint256",
          "name": "saleId",
          "type": "uint256"
        },
        {
          "indexed": true,
          "internalType": "uint256",
          "name": "tokenId",
          "type": "uint256"
        },
        {
          "indexed": true,
          "internalType": "address",
          "name": "seller",
          "type": "address"
        },
        {
          "indexed": false,
          "internalType": "uint256",
          "name": "price",
          "type": "uint256"
        },
        {
          "indexed": false,
          "internalType": "uint256",
          "name": "lastUpdated",
          "type": "uint256"
        }
      ],
      "name": "SaleCanceled",
      "type": "event"
    },
    {
      "anonymous": false,
      "inputs": [
        {
          "indexed": true,
          "internalType": "uint256",
          "name": "saleId",
          "type": "uint256"
        },
        {
          "indexed": true,
          "internalType": "uint256",
          "name": "tokenId",
          "type": "uint256"
        },
        {
          "indexed": true,
          "internalType": "address",
          "name": "seller",
          "type": "address"
        },
        {
          "indexed": false,
          "internalType": "uint256",
          "name": "price",
          "type": "uint256"
        },
        {
          "indexed": false,
          "internalType": "bool",
          "name": "isSold",
          "type": "bool"
        },
        {
          "indexed": false,
          "internalType": "uint256",
          "name": "lastUpdated",
          "type": "uint256"
        }
      ],
      "name": "SaleCreated",
      "type": "event"
    },
    {
      "anonymous": false,
      "inputs": [
        {
          "indexed": true,
          "internalType": "uint256",
          "name": "saleId",
          "type": "uint256"
        },
        {
          "indexed": true,
          "internalType": "uint256",
          "name": "tokenId",
          "type": "uint256"
        },
        {
          "indexed": false,
          "internalType": "address",
          "name": "seller",
          "type": "address"
        },
        {
          "indexed": false,
          "internalType": "uint256",
          "name": "price",
          "type": "uint256"
        },
        {
          "indexed": false,
          "internalType": "bool",
          "name": "isSold",
          "type": "bool"
        },
        {
          "indexed": false,
          "internalType": "uint256",
          "name": "lastUpdated",
          "type": "uint256"
        }
      ],
      "name": "SaleSold",
      "type": "event"
    },
    {
      "anonymous": false,
      "inputs": [
        {
          "indexed": true,
          "internalType": "uint256",
          "name": "saleId",
          "type": "uint256"
        },
        {
          "indexed": true,
          "internalType": "uint256",
          "name": "tokenId",
          "type": "uint256"
        },
        {
          "indexed": true,
          "internalType": "address",
          "name": "seller",
          "type": "address"
        },
        {
          "indexed": false,
          "internalType": "uint256",
          "name": "price",
          "type": "uint256"
        },
        {
          "indexed": false,
          "internalType": "uint256",
          "name": "lastUpdated",
          "type": "uint256"
        }
      ],
      "name": "SaleUpdated",
      "type": "event"
    },
    {
      "anonymous": false,
      "inputs": [
        {
          "indexed": true,
          "internalType": "address",
          "name": "implementation",
          "type": "address"
        }
      ],
      "name": "Upgraded",
      "type": "event"
    },
    {
      "inputs": [
        {
          "internalType": "uint256",
          "name": "",
          "type": "uint256"
        }
      ],
      "name": "availableQuantity",
      "outputs": [
        {
          "internalType": "uint256",
          "name": "",
          "type": "uint256"
        }
      ],
      "stateMutability": "view",
      "type": "function"
    },
    {
      "inputs": [
        {
          "internalType": "string",
          "name": "uri",
          "type": "string"
        },
        {
          "internalType": "uint256",
          "name": "itemId",
          "type": "uint256"
        }
      ],
      "name": "buyGameItem",
      "outputs": [],
      "stateMutability": "nonpayable",
      "type": "function"
    },
    {
      "inputs": [
        {
          "internalType": "uint256",
          "name": "saleId",
          "type": "uint256"
        }
      ],
      "name": "cancelSale",
      "outputs": [],
      "stateMutability": "nonpayable",
      "type": "function"
    },
    {
      "inputs": [
        {
          "internalType": "uint256",
          "name": "saleId",
          "type": "uint256"
        },
        {
          "internalType": "uint256",
          "name": "newPrice",
          "type": "uint256"
        }
      ],
      "name": "changeSalePrice",
      "outputs": [],
      "stateMutability": "nonpayable",
      "type": "function"
    },
    {
      "inputs": [
        {
          "internalType": "uint256",
          "name": "tokenId",
          "type": "uint256"
        },
        {
          "internalType": "uint256",
          "name": "price",
          "type": "uint256"
        }
      ],
      "name": "createSale",
      "outputs": [],
      "stateMutability": "nonpayable",
      "type": "function"
    },
    {
      "inputs": [],
      "name": "getActiveSales",
      "outputs": [
        {
          "components": [
            {
              "internalType": "uint256",
              "name": "saleId",
              "type": "uint256"
            },
            {
              "internalType": "uint256",
              "name": "tokenId",
              "type": "uint256"
            },
            {
              "internalType": "address",
              "name": "seller",
              "type": "address"
            },
            {
              "internalType": "address",
              "name": "buyer",
              "type": "address"
            },
            {
              "internalType": "uint256",
              "name": "price",
              "type": "uint256"
            },
            {
              "internalType": "bool",
              "name": "isSold",
              "type": "bool"
            },
            {
              "internalType": "bool",
              "name": "isActive",
              "type": "bool"
            },
            {
              "internalType": "uint256",
              "name": "lastUpdated",
              "type": "uint256"
            }
          ],
          "internalType": "struct Marketplace.Sale[]",
          "name": "",
          "type": "tuple[]"
        }
      ],
      "stateMutability": "view",
      "type": "function"
    },
    {
      "inputs": [
        {
          "internalType": "uint256",
          "name": "page",
          "type": "uint256"
        },
        {
          "internalType": "uint256",
          "name": "size",
          "type": "uint256"
        }
      ],
      "name": "getActiveSalesByPage",
      "outputs": [
        {
          "components": [
            {
              "internalType": "uint256",
              "name": "saleId",
              "type": "uint256"
            },
            {
              "internalType": "uint256",
              "name": "tokenId",
              "type": "uint256"
            },
            {
              "internalType": "address",
              "name": "seller",
              "type": "address"
            },
            {
              "internalType": "address",
              "name": "buyer",
              "type": "address"
            },
            {
              "internalType": "uint256",
              "name": "price",
              "type": "uint256"
            },
            {
              "internalType": "bool",
              "name": "isSold",
              "type": "bool"
            },
            {
              "internalType": "bool",
              "name": "isActive",
              "type": "bool"
            },
            {
              "internalType": "uint256",
              "name": "lastUpdated",
              "type": "uint256"
            }
          ],
          "internalType": "struct Marketplace.Sale[]",
          "name": "",
          "type": "tuple[]"
        }
      ],
      "stateMutability": "view",
      "type": "function"
    },
    {
      "inputs": [],
      "name": "getFee",
      "outputs": [
        {
          "internalType": "uint256",
          "name": "",
          "type": "uint256"
        }
      ],
      "stateMutability": "view",
      "type": "function"
    },
    {
      "inputs": [],
      "name": "getFeeReceiver",
      "outputs": [
        {
          "internalType": "address",
          "name": "",
          "type": "address"
        }
      ],
      "stateMutability": "view",
      "type": "function"
    },
    {
      "inputs": [
        {
          "internalType": "uint256[]",
          "name": "itemIds",
          "type": "uint256[]"
        }
      ],
      "name": "getItemQuantity",
      "outputs": [
        {
          "internalType": "uint256[]",
          "name": "",
          "type": "uint256[]"
        }
      ],
      "stateMutability": "view",
      "type": "function"
    },
    {
      "inputs": [],
      "name": "getUserCreatedSales",
      "outputs": [
        {
          "components": [
            {
              "internalType": "uint256",
              "name": "saleId",
              "type": "uint256"
            },
            {
              "internalType": "uint256",
              "name": "tokenId",
              "type": "uint256"
            },
            {
              "internalType": "address",
              "name": "seller",
              "type": "address"
            },
            {
              "internalType": "address",
              "name": "buyer",
              "type": "address"
            },
            {
              "internalType": "uint256",
              "name": "price",
              "type": "uint256"
            },
            {
              "internalType": "bool",
              "name": "isSold",
              "type": "bool"
            },
            {
              "internalType": "bool",
              "name": "isActive",
              "type": "bool"
            },
            {
              "internalType": "uint256",
              "name": "lastUpdated",
              "type": "uint256"
            }
          ],
          "internalType": "struct Marketplace.Sale[]",
          "name": "",
          "type": "tuple[]"
        }
      ],
      "stateMutability": "view",
      "type": "function"
    },
    {
      "inputs": [],
      "name": "getUserNFTs",
      "outputs": [
        {
          "components": [
            {
              "internalType": "uint256",
              "name": "tokenId",
              "type": "uint256"
            },
            {
              "internalType": "address",
              "name": "contractAddress",
              "type": "address"
            },
            {
              "internalType": "string",
              "name": "URI",
              "type": "string"
            }
          ],
          "internalType": "struct Marketplace.TokenInfo[]",
          "name": "",
          "type": "tuple[]"
        }
      ],
      "stateMutability": "view",
      "type": "function"
    },
    {
      "inputs": [],
      "name": "getUserPurchasedSales",
      "outputs": [
        {
          "components": [
            {
              "internalType": "uint256",
              "name": "saleId",
              "type": "uint256"
            },
            {
              "internalType": "uint256",
              "name": "tokenId",
              "type": "uint256"
            },
            {
              "internalType": "address",
              "name": "seller",
              "type": "address"
            },
            {
              "internalType": "address",
              "name": "buyer",
              "type": "address"
            },
            {
              "internalType": "uint256",
              "name": "price",
              "type": "uint256"
            },
            {
              "internalType": "bool",
              "name": "isSold",
              "type": "bool"
            },
            {
              "internalType": "bool",
              "name": "isActive",
              "type": "bool"
            },
            {
              "internalType": "uint256",
              "name": "lastUpdated",
              "type": "uint256"
            }
          ],
          "internalType": "struct Marketplace.Sale[]",
          "name": "",
          "type": "tuple[]"
        }
      ],
      "stateMutability": "view",
      "type": "function"
    },
    {
      "inputs": [],
      "name": "howl",
      "outputs": [
        {
          "internalType": "contract IERC20",
          "name": "",
          "type": "address"
        }
      ],
      "stateMutability": "view",
      "type": "function"
    },
    {
      "inputs": [
        {
          "internalType": "address",
          "name": "erc20",
          "type": "address"
        },
        {
          "internalType": "address",
          "name": "erc721",
          "type": "address"
        }
      ],
      "name": "initialize",
      "outputs": [],
      "stateMutability": "nonpayable",
      "type": "function"
    },
    {
      "inputs": [],
      "name": "nft",
      "outputs": [
        {
          "internalType": "contract IERC721",
          "name": "",
          "type": "address"
        }
      ],
      "stateMutability": "view",
      "type": "function"
    },
    {
      "inputs": [
        {
          "internalType": "address",
          "name": "operator",
          "type": "address"
        },
        {
          "internalType": "address",
          "name": "from",
          "type": "address"
        },
        {
          "internalType": "uint256",
          "name": "tokenId",
          "type": "uint256"
        },
        {
          "internalType": "bytes",
          "name": "data",
          "type": "bytes"
        }
      ],
      "name": "onERC721Received",
      "outputs": [
        {
          "internalType": "bytes4",
          "name": "",
          "type": "bytes4"
        }
      ],
      "stateMutability": "pure",
      "type": "function"
    },
    {
      "inputs": [],
      "name": "owner",
      "outputs": [
        {
          "internalType": "address",
          "name": "",
          "type": "address"
        }
      ],
      "stateMutability": "view",
      "type": "function"
    },
    {
      "inputs": [
        {
          "internalType": "uint256",
          "name": "saleId",
          "type": "uint256"
        }
      ],
      "name": "purchaseSale",
      "outputs": [],
      "stateMutability": "nonpayable",
      "type": "function"
    },
    {
      "inputs": [],
      "name": "renounceOwnership",
      "outputs": [],
      "stateMutability": "nonpayable",
      "type": "function"
    },
    {
      "inputs": [
        {
          "internalType": "uint256",
          "name": "newFee",
          "type": "uint256"
        }
      ],
      "name": "setFee",
      "outputs": [],
      "stateMutability": "nonpayable",
      "type": "function"
    },
    {
      "inputs": [
        {
          "internalType": "address",
          "name": "newFeeReceiver",
          "type": "address"
        }
      ],
      "name": "setFeeReceiver",
      "outputs": [],
      "stateMutability": "nonpayable",
      "type": "function"
    },
    {
      "inputs": [
        {
          "internalType": "uint256",
          "name": "itemId",
          "type": "uint256"
        },
        {
          "internalType": "uint256",
          "name": "quantity",
          "type": "uint256"
        }
      ],
      "name": "setItemQuantity",
      "outputs": [],
      "stateMutability": "nonpayable",
      "type": "function"
    },
    {
      "inputs": [
        {
          "internalType": "uint256",
          "name": "newStorePrice",
          "type": "uint256"
        }
      ],
      "name": "setStorePrice",
      "outputs": [],
      "stateMutability": "nonpayable",
      "type": "function"
    },
    {
      "inputs": [
        {
          "internalType": "address",
          "name": "newOwner",
          "type": "address"
        }
      ],
      "name": "transferOwnership",
      "outputs": [],
      "stateMutability": "nonpayable",
      "type": "function"
    },
    {
      "inputs": [
        {
          "internalType": "address",
          "name": "newImplementation",
          "type": "address"
        }
      ],
      "name": "upgradeTo",
      "outputs": [],
      "stateMutability": "nonpayable",
      "type": "function"
    },
    {
      "inputs": [
        {
          "internalType": "address",
          "name": "newImplementation",
          "type": "address"
        },
        {
          "internalType": "bytes",
          "name": "data",
          "type": "bytes"
        }
      ],
      "name": "upgradeToAndCall",
      "outputs": [],
      "stateMutability": "payable",
      "type": "function"
    }
  ],
  "bytecode": "0x60a06040523073ffffffffffffffffffffffffffffffffffffffff1660809073ffffffffffffffffffffffffffffffffffffffff1660601b81525034801561004657600080fd5b5060805160601c6158686200007b600039600081816110d80152818161116701528181611701015261179001526158686000f3fe60806040526004361061019c5760003560e01c806369fe0e2d116100ec578063c82e474b1161008a578063efdcd97411610064578063efdcd97414610591578063f2fde38b146105ba578063f47cf5da146105e3578063fdc5ab8e1461060c5761019c565b8063c82e474b14610512578063ced72f871461053b578063e8a35392146105665761019c565b80638eaa62e8116100c65780638eaa62e81461045a578063a399e20b14610483578063bb784776146104c0578063bd94b005146104e95761019c565b806369fe0e2d146103ef578063715018a6146104185780638da5cb5b1461042f5761019c565b806347ccca02116101595780636019061b116101335780636019061b1461033557806364a613d91461035e578063665275651461039b5780636803c78d146103c45761019c565b806347ccca02146102c5578063485cc955146102f05780634f1ef286146103195761019c565b80630974ed4b146101a1578063150b7a02146101cc57806321b7e7e114610209578063355ddccf146102345780633659cfe614610271578063436141d21461029a575b600080fd5b3480156101ad57600080fd5b506101b6610637565b6040516101c391906149e4565b60405180910390f35b3480156101d857600080fd5b506101f360048036038101906101ee9190614003565b61097d565b6040516102009190614a4a565b60405180910390f35b34801561021557600080fd5b5061021e610992565b60405161022b91906149e4565b60405180910390f35b34801561024057600080fd5b5061025b60048036038101906102569190614228565b610cd8565b60405161026891906149e4565b60405180910390f35b34801561027d57600080fd5b5061029860048036038101906102939190613f75565b6110d6565b005b3480156102a657600080fd5b506102af611285565b6040516102bc91906149e4565b60405180910390f35b3480156102d157600080fd5b506102da611518565b6040516102e79190614a80565b60405180910390f35b3480156102fc57600080fd5b5061031760048036038101906103129190613fc7565b61153f565b005b610333600480360381019061032e9190614083565b6116ff565b005b34801561034157600080fd5b5061035c60048036038101906103579190614228565b61183c565b005b34801561036a57600080fd5b50610385600480360381019061038091906141d6565b611c6c565b6040516103929190614d3d565b60405180910390f35b3480156103a757600080fd5b506103c260048036038101906103bd91906141d6565b611c85565b005b3480156103d057600080fd5b506103d9611c8f565b6040516103e69190614a65565b60405180910390f35b3480156103fb57600080fd5b50610416600480360381019061041191906141d6565b611cb6565b005b34801561042457600080fd5b5061042d611d80565b005b34801561043b57600080fd5b50610444611e08565b60405161045191906148d8565b60405180910390f35b34801561046657600080fd5b50610481600480360381019061047c9190614182565b611e32565b005b34801561048f57600080fd5b506104aa60048036038101906104a591906140d7565b612068565b6040516104b79190614a28565b60405180910390f35b3480156104cc57600080fd5b506104e760048036038101906104e29190614228565b6121a1565b005b3480156104f557600080fd5b50610510600480360381019061050b91906141d6565b612273565b005b34801561051e57600080fd5b5061053960048036038101906105349190614228565b612518565b005b34801561054757600080fd5b50610550612712565b60405161055d9190614d3d565b60405180910390f35b34801561057257600080fd5b5061057b61271c565b60405161058891906148d8565b60405180910390f35b34801561059d57600080fd5b506105b860048036038101906105b39190613f75565b612747565b005b3480156105c657600080fd5b506105e160048036038101906105dc9190613f75565b612878565b005b3480156105ef57600080fd5b5061060a600480360381019061060591906141d6565b612970565b005b34801561061857600080fd5b50610621613006565b60405161062e9190614a06565b60405180910390f35b6060600061064560fb61335e565b90506000806000600190505b8381116106e6573373ffffffffffffffffffffffffffffffffffffffff16610103600083815260200190815260200160002060030160009054906101000a900473ffffffffffffffffffffffffffffffffffffffff1673ffffffffffffffffffffffffffffffffffffffff1614156106d3576001836106d09190614fc8565b92505b80806106de90615255565b915050610651565b5060008267ffffffffffffffff811115610729577f4e487b7100000000000000000000000000000000000000000000000000000000600052604160045260246000fd5b60405190808252806020026020018201604052801561076257816020015b61074f613c48565b8152602001906001900390816107475790505b5090506000600190505b848111610972573373ffffffffffffffffffffffffffffffffffffffff16610103600083815260200190815260200160002060030160009054906101000a900473ffffffffffffffffffffffffffffffffffffffff1673ffffffffffffffffffffffffffffffffffffffff16141561095f57600061010360008381526020019081526020016000209050806040518061010001604052908160008201548152602001600182015481526020016002820160009054906101000a900473ffffffffffffffffffffffffffffffffffffffff1673ffffffffffffffffffffffffffffffffffffffff1673ffffffffffffffffffffffffffffffffffffffff1681526020016003820160009054906101000a900473ffffffffffffffffffffffffffffffffffffffff1673ffffffffffffffffffffffffffffffffffffffff1673ffffffffffffffffffffffffffffffffffffffff168152602001600482015481526020016005820160009054906101000a900460ff161515151581526020016005820160019054906101000a900460ff1615151515815260200160068201548152505083858061091990615255565b965081518110610952577f4e487b7100000000000000000000000000000000000000000000000000000000600052603260045260246000fd5b6020026020010181905250505b808061096a90615255565b91505061076c565b508094505050505090565b600063150b7a0260e01b905095945050505050565b606060006109a060fb61335e565b90506000806000600190505b838111610a41573373ffffffffffffffffffffffffffffffffffffffff16610103600083815260200190815260200160002060020160009054906101000a900473ffffffffffffffffffffffffffffffffffffffff1673ffffffffffffffffffffffffffffffffffffffff161415610a2e57600183610a2b9190614fc8565b92505b8080610a3990615255565b9150506109ac565b5060008267ffffffffffffffff811115610a84577f4e487b7100000000000000000000000000000000000000000000000000000000600052604160045260246000fd5b604051908082528060200260200182016040528015610abd57816020015b610aaa613c48565b815260200190600190039081610aa25790505b5090506000600190505b848111610ccd573373ffffffffffffffffffffffffffffffffffffffff16610103600083815260200190815260200160002060020160009054906101000a900473ffffffffffffffffffffffffffffffffffffffff1673ffffffffffffffffffffffffffffffffffffffff161415610cba57600061010360008381526020019081526020016000209050806040518061010001604052908160008201548152602001600182015481526020016002820160009054906101000a900473ffffffffffffffffffffffffffffffffffffffff1673ffffffffffffffffffffffffffffffffffffffff1673ffffffffffffffffffffffffffffffffffffffff1681526020016003820160009054906101000a900473ffffffffffffffffffffffffffffffffffffffff1673ffffffffffffffffffffffffffffffffffffffff1673ffffffffffffffffffffffffffffffffffffffff168152602001600482015481526020016005820160009054906101000a900460ff161515151581526020016005820160019054906101000a900460ff16151515158152602001600682015481525050838580610c7490615255565b965081518110610cad577f4e487b7100000000000000000000000000000000000000000000000000000000600052603260045260246000fd5b6020026020010181905250505b8080610cc590615255565b915050610ac7565b508094505050505090565b606060008310158015610ceb5750600082115b610d2a576040517f08c379a0000000000000000000000000000000000000000000000000000000008152600401610d2190614afd565b60405180910390fd5b6000610d3660fb61335e565b90506000610d4460fc61335e565b610d4e60fd61335e565b83610d5991906150a9565b610d6391906150a9565b90508385610d71919061504f565b811015610dfc57600067ffffffffffffffff811115610db9577f4e487b7100000000000000000000000000000000000000000000000000000000600052604160045260246000fd5b604051908082528060200260200182016040528015610df257816020015b610ddf613c48565b815260200190600190039081610dd75790505b50925050506110d0565b6000806000838760018a610e109190614fc8565b610e1a919061504f565b11610e255786610e3d565b8688610e31919061504f565b84610e3c91906150a9565b5b905060008167ffffffffffffffff811115610e81577f4e487b7100000000000000000000000000000000000000000000000000000000600052604160045260246000fd5b604051908082528060200260200182016040528015610eba57816020015b610ea7613c48565b815260200190600190039081610e9f5790505b5090506000600190505b8681116110c557610103600082815260200190815260200160002060050160019054906101000a900460ff16156110b2578380610f0090615255565b945050888a610f0f919061504f565b8411156110b157600061010360008381526020019081526020016000209050806040518061010001604052908160008201548152602001600182015481526020016002820160009054906101000a900473ffffffffffffffffffffffffffffffffffffffff1673ffffffffffffffffffffffffffffffffffffffff1673ffffffffffffffffffffffffffffffffffffffff1681526020016003820160009054906101000a900473ffffffffffffffffffffffffffffffffffffffff1673ffffffffffffffffffffffffffffffffffffffff1673ffffffffffffffffffffffffffffffffffffffff168152602001600482015481526020016005820160009054906101000a900460ff161515151581526020016005820160019054906101000a900460ff1615151515815260200160068201548152505083878151811061107e577f4e487b7100000000000000000000000000000000000000000000000000000000600052603260045260246000fd5b602002602001018190525060018a61109691906150a9565b86806110a190615255565b975014156110af57506110c5565b505b5b80806110bd90615255565b915050610ec4565b508096505050505050505b92915050565b7f000000000000000000000000000000000000000000000000000000000000000073ffffffffffffffffffffffffffffffffffffffff163073ffffffffffffffffffffffffffffffffffffffff161415611165576040517f08c379a000000000000000000000000000000000000000000000000000000000815260040161115c90614b7d565b60405180910390fd5b7f000000000000000000000000000000000000000000000000000000000000000073ffffffffffffffffffffffffffffffffffffffff166111a461336c565b73ffffffffffffffffffffffffffffffffffffffff16146111fa576040517f08c379a00000000000000000000000000000000000000000000000000000000081526004016111f190614bdd565b60405180910390fd5b611203816133c3565b61128281600067ffffffffffffffff811115611248577f4e487b7100000000000000000000000000000000000000000000000000000000600052604160045260246000fd5b6040519080825280601f01601f19166020018201604052801561127a5781602001600182028036833780820191505090505b506000613442565b50565b6060600061129360fb61335e565b905060006112a160fc61335e565b6112ab60fd61335e565b836112b691906150a9565b6112c091906150a9565b90506000808267ffffffffffffffff811115611305577f4e487b7100000000000000000000000000000000000000000000000000000000600052604160045260246000fd5b60405190808252806020026020018201604052801561133e57816020015b61132b613c48565b8152602001906001900390816113235790505b5090506000600190505b84811161150d57610103600082815260200190815260200160002060050160019054906101000a900460ff16156114fa57600061010360008381526020019081526020016000209050806040518061010001604052908160008201548152602001600182015481526020016002820160009054906101000a900473ffffffffffffffffffffffffffffffffffffffff1673ffffffffffffffffffffffffffffffffffffffff1673ffffffffffffffffffffffffffffffffffffffff1681526020016003820160009054906101000a900473ffffffffffffffffffffffffffffffffffffffff1673ffffffffffffffffffffffffffffffffffffffff1673ffffffffffffffffffffffffffffffffffffffff168152602001600482015481526020016005820160009054906101000a900460ff161515151581526020016005820160019054906101000a900460ff161515151581526020016006820154815250508385806114b490615255565b9650815181106114ed577f4e487b7100000000000000000000000000000000000000000000000000000000600052603260045260246000fd5b6020026020010181905250505b808061150590615255565b915050611348565b508094505050505090565b61010260009054906101000a900473ffffffffffffffffffffffffffffffffffffffff1681565b600060019054906101000a900460ff1680611565575060008054906101000a900460ff16155b6115a4576040517f08c379a000000000000000000000000000000000000000000000000000000000815260040161159b90614bfd565b60405180910390fd5b60008060019054906101000a900460ff1615905080156115f4576001600060016101000a81548160ff02191690831515021790555060016000806101000a81548160ff0219169083151502179055505b6115fc613613565b8261010160006101000a81548173ffffffffffffffffffffffffffffffffffffffff021916908373ffffffffffffffffffffffffffffffffffffffff1602179055508161010260006101000a81548173ffffffffffffffffffffffffffffffffffffffff021916908373ffffffffffffffffffffffffffffffffffffffff160217905550600a60ff819055503361010060006101000a81548173ffffffffffffffffffffffffffffffffffffffff021916908373ffffffffffffffffffffffffffffffffffffffff160217905550678ac7230489e8000060fe8190555080156116fa5760008060016101000a81548160ff0219169083151502179055505b505050565b7f000000000000000000000000000000000000000000000000000000000000000073ffffffffffffffffffffffffffffffffffffffff163073ffffffffffffffffffffffffffffffffffffffff16141561178e576040517f08c379a000000000000000000000000000000000000000000000000000000000815260040161178590614b7d565b60405180910390fd5b7f000000000000000000000000000000000000000000000000000000000000000073ffffffffffffffffffffffffffffffffffffffff166117cd61336c565b73ffffffffffffffffffffffffffffffffffffffff1614611823576040517f08c379a000000000000000000000000000000000000000000000000000000000815260040161181a90614bdd565b60405180910390fd5b61182c826133c3565b61183882826001613442565b5050565b60026065541415611882576040517f08c379a000000000000000000000000000000000000000000000000000000000815260040161187990614cfd565b60405180910390fd5b6002606581905550600081116118cd576040517f08c379a00000000000000000000000000000000000000000000000000000000081526004016118c490614d1d565b60405180910390fd5b3373ffffffffffffffffffffffffffffffffffffffff1661010260009054906101000a900473ffffffffffffffffffffffffffffffffffffffff1673ffffffffffffffffffffffffffffffffffffffff16636352211e846040518263ffffffff1660e01b81526004016119409190614d3d565b60206040518083038186803b15801561195857600080fd5b505afa15801561196c573d6000803e3d6000fd5b505050506040513d601f19601f820116820180604052508101906119909190613f9e565b73ffffffffffffffffffffffffffffffffffffffff16146119e6576040517f08c379a00000000000000000000000000000000000000000000000000000000081526004016119dd90614abd565b60405180910390fd5b6119f060fb6136fc565b60006119fc60fb61335e565b905061010260009054906101000a900473ffffffffffffffffffffffffffffffffffffffff1673ffffffffffffffffffffffffffffffffffffffff166342842e0e3330866040518463ffffffff1660e01b8152600401611a5e939291906148f3565b600060405180830381600087803b158015611a7857600080fd5b505af1158015611a8c573d6000803e3d6000fd5b505050506040518061010001604052808281526020018481526020013373ffffffffffffffffffffffffffffffffffffffff168152602001600073ffffffffffffffffffffffffffffffffffffffff168152602001838152602001600015158152602001600115158152602001428152506101036000838152602001908152602001600020600082015181600001556020820151816001015560408201518160020160006101000a81548173ffffffffffffffffffffffffffffffffffffffff021916908373ffffffffffffffffffffffffffffffffffffffff16021790555060608201518160030160006101000a81548173ffffffffffffffffffffffffffffffffffffffff021916908373ffffffffffffffffffffffffffffffffffffffff1602179055506080820151816004015560a08201518160050160006101000a81548160ff02191690831515021790555060c08201518160050160016101000a81548160ff02191690831515021790555060e082015181600601559050503373ffffffffffffffffffffffffffffffffffffffff1683827fd035e36eed79dc051f4a1821b06d9defcfe2a74be16adb4991291117112a50f085600042604051611c5793929190614d58565b60405180910390a45060016065819055505050565b6101046020528060005260406000206000915090505481565b8060fe8190555050565b61010160009054906101000a900473ffffffffffffffffffffffffffffffffffffffff1681565b611cbe613712565b73ffffffffffffffffffffffffffffffffffffffff16611cdc611e08565b73ffffffffffffffffffffffffffffffffffffffff1614611d32576040517f08c379a0000000000000000000000000000000000000000000000000000000008152600401611d2990614c5d565b60405180910390fd5b6064811115611d76576040517f08c379a0000000000000000000000000000000000000000000000000000000008152600401611d6d90614b5d565b60405180910390fd5b8060ff8190555050565b611d88613712565b73ffffffffffffffffffffffffffffffffffffffff16611da6611e08565b73ffffffffffffffffffffffffffffffffffffffff1614611dfc576040517f08c379a0000000000000000000000000000000000000000000000000000000008152600401611df390614c5d565b60405180910390fd5b611e06600061371a565b565b600060c960009054906101000a900473ffffffffffffffffffffffffffffffffffffffff16905090565b600061010460008381526020019081526020016000205411611e89576040517f08c379a0000000000000000000000000000000000000000000000000000000008152600401611e8090614c1d565b60405180910390fd5b600061010160009054906101000a900473ffffffffffffffffffffffffffffffffffffffff1673ffffffffffffffffffffffffffffffffffffffff166323b872dd3361010060009054906101000a900473ffffffffffffffffffffffffffffffffffffffff1660fe546040518463ffffffff1660e01b8152600401611f10939291906148f3565b602060405180830381600087803b158015611f2a57600080fd5b505af1158015611f3e573d6000803e3d6000fd5b505050506040513d601f19601f82011682018060405250810190611f629190614118565b905080611fa4576040517f08c379a0000000000000000000000000000000000000000000000000000000008152600401611f9b90614c7d565b60405180910390fd5b61010260009054906101000a900473ffffffffffffffffffffffffffffffffffffffff1673ffffffffffffffffffffffffffffffffffffffff1663e9acfeaf33858560036040518563ffffffff1660e01b8152600401612007949392919061492a565b600060405180830381600087803b15801561202157600080fd5b505af1158015612035573d6000803e3d6000fd5b505050506101046000838152602001908152602001600020600081548092919061205e906151fa565b9190505550505050565b60606000825167ffffffffffffffff8111156120ad577f4e487b7100000000000000000000000000000000000000000000000000000000600052604160045260246000fd5b6040519080825280602002602001820160405280156120db5781602001602082028036833780820191505090505b50905060005b8351811015612197576101046000858381518110612128577f4e487b7100000000000000000000000000000000000000000000000000000000600052603260045260246000fd5b6020026020010151815260200190815260200160002054828281518110612178577f4e487b7100000000000000000000000000000000000000000000000000000000600052603260045260246000fd5b602002602001018181525050808061218f90615255565b9150506120e1565b5080915050919050565b6121a9613712565b73ffffffffffffffffffffffffffffffffffffffff166121c7611e08565b73ffffffffffffffffffffffffffffffffffffffff161461221d576040517f08c379a000000000000000000000000000000000000000000000000000000000815260040161221490614c5d565b60405180910390fd5b806101046000848152602001908152602001600020819055507ff66209169e22f4f59dad29f7c4fb1aebcbc5e0081f9dad5775461c3cdcd030cc8282604051612267929190614d8f565b60405180910390a15050565b600260655414156122b9576040517f08c379a00000000000000000000000000000000000000000000000000000000081526004016122b090614cfd565b60405180910390fd5b600260658190555080610103600082815260200190815260200160002060020160009054906101000a900473ffffffffffffffffffffffffffffffffffffffff1673ffffffffffffffffffffffffffffffffffffffff163373ffffffffffffffffffffffffffffffffffffffff1614612367576040517f08c379a000000000000000000000000000000000000000000000000000000000815260040161235e90614b9d565b60405180910390fd5b6000610103600084815260200190815260200160002090508060050160019054906101000a900460ff166123d0576040517f08c379a00000000000000000000000000000000000000000000000000000000081526004016123c790614add565b60405180910390fd5b61010260009054906101000a900473ffffffffffffffffffffffffffffffffffffffff1673ffffffffffffffffffffffffffffffffffffffff166323b872dd303384600101546040518463ffffffff1660e01b8152600401612434939291906148f3565b600060405180830381600087803b15801561244e57600080fd5b505af1158015612462573d6000803e3d6000fd5b5050505060008160050160016101000a81548160ff02191690831515021790555061248d60fd6136fc565b8060020160009054906101000a900473ffffffffffffffffffffffffffffffffffffffff1673ffffffffffffffffffffffffffffffffffffffff168160010154847f9cf3aa3c21065a435a0fd60111abd0ae5148ec0805525a8ade76e8c0632b89cd846004015442604051612503929190614d8f565b60405180910390a45050600160658190555050565b81610103600082815260200190815260200160002060020160009054906101000a900473ffffffffffffffffffffffffffffffffffffffff1673ffffffffffffffffffffffffffffffffffffffff163373ffffffffffffffffffffffffffffffffffffffff16146125be576040517f08c379a00000000000000000000000000000000000000000000000000000000081526004016125b590614b9d565b60405180910390fd5b6000610103600085815260200190815260200160002090508060050160019054906101000a900460ff16801561260357508060050160009054906101000a900460ff16155b612642576040517f08c379a000000000000000000000000000000000000000000000000000000000815260040161263990614add565b60405180910390fd5b60008311612685576040517f08c379a000000000000000000000000000000000000000000000000000000000815260040161267c90614d1d565b60405180910390fd5b8281600401819055508060020160009054906101000a900473ffffffffffffffffffffffffffffffffffffffff1673ffffffffffffffffffffffffffffffffffffffff168160010154857fb5ff818b1e47858abe4b8dbeee7509d67cc6b3e461dc17faf8340a2defdaa8d7846004015442604051612704929190614d8f565b60405180910390a450505050565b600060ff54905090565b600061010060009054906101000a900473ffffffffffffffffffffffffffffffffffffffff16905090565b61274f613712565b73ffffffffffffffffffffffffffffffffffffffff1661276d611e08565b73ffffffffffffffffffffffffffffffffffffffff16146127c3576040517f08c379a00000000000000000000000000000000000000000000000000000000081526004016127ba90614c5d565b60405180910390fd5b600073ffffffffffffffffffffffffffffffffffffffff168173ffffffffffffffffffffffffffffffffffffffff161415612833576040517f08c379a000000000000000000000000000000000000000000000000000000000815260040161282a90614cdd565b60405180910390fd5b8061010060006101000a81548173ffffffffffffffffffffffffffffffffffffffff021916908373ffffffffffffffffffffffffffffffffffffffff16021790555050565b612880613712565b73ffffffffffffffffffffffffffffffffffffffff1661289e611e08565b73ffffffffffffffffffffffffffffffffffffffff16146128f4576040517f08c379a00000000000000000000000000000000000000000000000000000000081526004016128eb90614c5d565b60405180910390fd5b600073ffffffffffffffffffffffffffffffffffffffff168173ffffffffffffffffffffffffffffffffffffffff161415612964576040517f08c379a000000000000000000000000000000000000000000000000000000000815260040161295b90614b3d565b60405180910390fd5b61296d8161371a565b50565b600260655414156129b6576040517f08c379a00000000000000000000000000000000000000000000000000000000081526004016129ad90614cfd565b60405180910390fd5b6002606581905550600061010360008381526020019081526020016000209050600081600401549050600115158260050160019054906101000a900460ff161515148015612a195750600015158260050160009054906101000a900460ff161515145b612a58576040517f08c379a0000000000000000000000000000000000000000000000000000000008152600401612a4f90614add565b60405180910390fd5b8160020160009054906101000a900473ffffffffffffffffffffffffffffffffffffffff1673ffffffffffffffffffffffffffffffffffffffff163373ffffffffffffffffffffffffffffffffffffffff161415612aeb576040517f08c379a0000000000000000000000000000000000000000000000000000000008152600401612ae290614cbd565b60405180910390fd5b600061010160009054906101000a900473ffffffffffffffffffffffffffffffffffffffff1673ffffffffffffffffffffffffffffffffffffffff166323b872dd3361010060009054906101000a900473ffffffffffffffffffffffffffffffffffffffff16612b7a6103e8612b6c60ff54896137e090919063ffffffff16565b6137f690919063ffffffff16565b6040518463ffffffff1660e01b8152600401612b98939291906148f3565b602060405180830381600087803b158015612bb257600080fd5b505af1158015612bc6573d6000803e3d6000fd5b505050506040513d601f19601f82011682018060405250810190612bea9190614118565b905080612c2c576040517f08c379a0000000000000000000000000000000000000000000000000000000008152600401612c2390614c7d565b60405180910390fd5b600061010160009054906101000a900473ffffffffffffffffffffffffffffffffffffffff1673ffffffffffffffffffffffffffffffffffffffff166323b872dd338660020160009054906101000a900473ffffffffffffffffffffffffffffffffffffffff16612cc96103e8612cbb60ff546103e8612cac91906150a9565b8a6137e090919063ffffffff16565b6137f690919063ffffffff16565b6040518463ffffffff1660e01b8152600401612ce7939291906148f3565b602060405180830381600087803b158015612d0157600080fd5b505af1158015612d15573d6000803e3d6000fd5b505050506040513d601f19601f82011682018060405250810190612d399190614118565b905080612d7b576040517f08c379a0000000000000000000000000000000000000000000000000000000008152600401612d7290614bbd565b60405180910390fd5b60008460010154905061010260009054906101000a900473ffffffffffffffffffffffffffffffffffffffff1673ffffffffffffffffffffffffffffffffffffffff166323b872dd3033846040518463ffffffff1660e01b8152600401612de4939291906148f3565b600060405180830381600087803b158015612dfe57600080fd5b505af1158015612e12573d6000803e3d6000fd5b50505050600042905060018660050160006101000a81548160ff02191690831515021790555060008660050160016101000a81548160ff021916908315150217905550338660030160006101000a81548173ffffffffffffffffffffffffffffffffffffffff021916908373ffffffffffffffffffffffffffffffffffffffff160217905550808660060181905550612eab60fc6136fc565b81877fa1ffbf809f5113e0312f081bb16d51434d610320b7ea557250fdcbded2fbd4478860020160009054906101000a900473ffffffffffffffffffffffffffffffffffffffff16888a60050160009054906101000a900460ff1686604051612f17949392919061499f565b60405180910390a37f7c8ecd76e70d007ea55274b3222da38779706d055ca4fe9a1e61dfc2a7e0c1e387838860020160009054906101000a900473ffffffffffffffffffffffffffffffffffffffff168960030160009054906101000a900473ffffffffffffffffffffffffffffffffffffffff1661010060009054906101000a900473ffffffffffffffffffffffffffffffffffffffff16612fd96103e8612fcb60ff548e6137e090919063ffffffff16565b6137f690919063ffffffff16565b87604051612fed9796959493929190614db8565b60405180910390a1505050505050600160658190555050565b6060600061010260009054906101000a900473ffffffffffffffffffffffffffffffffffffffff1673ffffffffffffffffffffffffffffffffffffffff166370a08231336040518263ffffffff1660e01b815260040161306691906148d8565b60206040518083038186803b15801561307e57600080fd5b505afa158015613092573d6000803e3d6000fd5b505050506040513d601f19601f820116820180604052508101906130b691906141ff565b905060008167ffffffffffffffff8111156130fa577f4e487b7100000000000000000000000000000000000000000000000000000000600052604160045260246000fd5b60405190808252806020026020018201604052801561313357816020015b613120613cbd565b8152602001906001900390816131185790505b50905060005b8281101561335557600061010260009054906101000a900473ffffffffffffffffffffffffffffffffffffffff1673ffffffffffffffffffffffffffffffffffffffff16632f745c5933846040518363ffffffff1660e01b81526004016131a1929190614976565b60206040518083038186803b1580156131b957600080fd5b505afa1580156131cd573d6000803e3d6000fd5b505050506040513d601f19601f820116820180604052508101906131f191906141ff565b9050600061010260009054906101000a900473ffffffffffffffffffffffffffffffffffffffff1673ffffffffffffffffffffffffffffffffffffffff1663c87b56dd836040518263ffffffff1660e01b81526004016132519190614d3d565b60006040518083038186803b15801561326957600080fd5b505afa15801561327d573d6000803e3d6000fd5b505050506040513d6000823e3d601f19601f820116820180604052508101906132a69190614141565b9050604051806060016040528083815260200161010260009054906101000a900473ffffffffffffffffffffffffffffffffffffffff1673ffffffffffffffffffffffffffffffffffffffff16815260200182815250848481518110613335577f4e487b7100000000000000000000000000000000000000000000000000000000600052603260045260246000fd5b60200260200101819052505050808061334d90615255565b915050613139565b50809250505090565b600081600001549050919050565b600061339a7f360894a13ba1a3210667c828492db98dca3e2076cc3735a920a3ca505d382bbc60001b61380c565b60000160009054906101000a900473ffffffffffffffffffffffffffffffffffffffff16905090565b6133cb613712565b73ffffffffffffffffffffffffffffffffffffffff166133e9611e08565b73ffffffffffffffffffffffffffffffffffffffff161461343f576040517f08c379a000000000000000000000000000000000000000000000000000000000815260040161343690614c5d565b60405180910390fd5b50565b600061344c61336c565b905061345784613816565b6000835111806134645750815b156134755761347384846138cf565b505b60006134a37f4910fdfa16fed3260ed0e7147f7cc6da11a60208b5b9406d12a635614ffd914360001b6139b3565b90508060000160009054906101000a900460ff1661360c5760018160000160006101000a81548160ff02191690831515021790555061356f85836040516024016134ed91906148d8565b6040516020818303038152906040527f3659cfe6000000000000000000000000000000000000000000000000000000007bffffffffffffffffffffffffffffffffffffffffffffffffffffffff19166020820180517bffffffffffffffffffffffffffffffffffffffffffffffffffffffff83818316178352505050506138cf565b5060008160000160006101000a81548160ff02191690831515021790555061359561336c565b73ffffffffffffffffffffffffffffffffffffffff168273ffffffffffffffffffffffffffffffffffffffff1614613602576040517f08c379a00000000000000000000000000000000000000000000000000000000081526004016135f990614b1d565b60405180910390fd5b61360b856139bd565b5b5050505050565b600060019054906101000a900460ff1680613639575060008054906101000a900460ff16155b613678576040517f08c379a000000000000000000000000000000000000000000000000000000000815260040161366f90614bfd565b60405180910390fd5b60008060019054906101000a900460ff1615905080156136c8576001600060016101000a81548160ff02191690831515021790555060016000806101000a81548160ff0219169083151502179055505b6136d0613a0c565b6136d8613ae5565b80156136f95760008060016101000a81548160ff0219169083151502179055505b50565b6001816000016000828254019250508190555050565b600033905090565b600060c960009054906101000a900473ffffffffffffffffffffffffffffffffffffffff1690508160c960006101000a81548173ffffffffffffffffffffffffffffffffffffffff021916908373ffffffffffffffffffffffffffffffffffffffff1602179055508173ffffffffffffffffffffffffffffffffffffffff168173ffffffffffffffffffffffffffffffffffffffff167f8be0079c531659141344cd1fd0a4f28419497f9722a3daafe3b4186f6b6457e060405160405180910390a35050565b600081836137ee919061504f565b905092915050565b60008183613804919061501e565b905092915050565b6000819050919050565b61381f81613bce565b61385e576040517f08c379a000000000000000000000000000000000000000000000000000000000815260040161385590614c3d565b60405180910390fd5b8061388b7f360894a13ba1a3210667c828492db98dca3e2076cc3735a920a3ca505d382bbc60001b61380c565b60000160006101000a81548173ffffffffffffffffffffffffffffffffffffffff021916908373ffffffffffffffffffffffffffffffffffffffff16021790555050565b60606138da83613bce565b613919576040517f08c379a000000000000000000000000000000000000000000000000000000000815260040161391090614c9d565b60405180910390fd5b6000808473ffffffffffffffffffffffffffffffffffffffff168460405161394191906148c1565b600060405180830381855af49150503d806000811461397c576040519150601f19603f3d011682016040523d82523d6000602084013e613981565b606091505b50915091506139a9828260405180606001604052806027815260200161580c60279139613be1565b9250505092915050565b6000819050919050565b6139c681613816565b8073ffffffffffffffffffffffffffffffffffffffff167fbc7cd75a20ee27fd9adebab32041f755214dbc6bffa90cc0225b39da2e5c2d3b60405160405180910390a250565b600060019054906101000a900460ff1680613a32575060008054906101000a900460ff16155b613a71576040517f08c379a0000000000000000000000000000000000000000000000000000000008152600401613a6890614bfd565b60405180910390fd5b60008060019054906101000a900460ff161590508015613ac1576001600060016101000a81548160ff02191690831515021790555060016000806101000a81548160ff0219169083151502179055505b8015613ae25760008060016101000a81548160ff0219169083151502179055505b50565b600060019054906101000a900460ff1680613b0b575060008054906101000a900460ff16155b613b4a576040517f08c379a0000000000000000000000000000000000000000000000000000000008152600401613b4190614bfd565b60405180910390fd5b60008060019054906101000a900460ff161590508015613b9a576001600060016101000a81548160ff02191690831515021790555060016000806101000a81548160ff0219169083151502179055505b613baa613ba5613712565b61371a565b8015613bcb5760008060016101000a81548160ff0219169083151502179055505b50565b600080823b905060008111915050919050565b60608315613bf157829050613c41565b600083511115613c045782518084602001fd5b816040517f08c379a0000000000000000000000000000000000000000000000000000000008152600401613c389190614a9b565b60405180910390fd5b9392505050565b6040518061010001604052806000815260200160008152602001600073ffffffffffffffffffffffffffffffffffffffff168152602001600073ffffffffffffffffffffffffffffffffffffffff16815260200160008152602001600015158152602001600015158152602001600081525090565b604051806060016040528060008152602001600073ffffffffffffffffffffffffffffffffffffffff168152602001606081525090565b6000613d07613d0284614e4c565b614e27565b90508083825260208201905082856020860282011115613d2657600080fd5b60005b85811015613d565781613d3c8882613f4b565b845260208401935060208301925050600181019050613d29565b5050509392505050565b6000613d73613d6e84614e78565b614e27565b905082815260208101848484011115613d8b57600080fd5b613d968482856151b8565b509392505050565b6000613db1613dac84614ea9565b614e27565b905082815260208101848484011115613dc957600080fd5b613dd48482856151b8565b509392505050565b6000613def613dea84614ea9565b614e27565b905082815260208101848484011115613e0757600080fd5b613e128482856151c7565b509392505050565b600081359050613e29816157c6565b92915050565b600081519050613e3e816157c6565b92915050565b600082601f830112613e5557600080fd5b8135613e65848260208601613cf4565b91505092915050565b600081519050613e7d816157dd565b92915050565b60008083601f840112613e9557600080fd5b8235905067ffffffffffffffff811115613eae57600080fd5b602083019150836001820283011115613ec657600080fd5b9250929050565b600082601f830112613ede57600080fd5b8135613eee848260208601613d60565b91505092915050565b600082601f830112613f0857600080fd5b8135613f18848260208601613d9e565b91505092915050565b600082601f830112613f3257600080fd5b8151613f42848260208601613ddc565b91505092915050565b600081359050613f5a816157f4565b92915050565b600081519050613f6f816157f4565b92915050565b600060208284031215613f8757600080fd5b6000613f9584828501613e1a565b91505092915050565b600060208284031215613fb057600080fd5b6000613fbe84828501613e2f565b91505092915050565b60008060408385031215613fda57600080fd5b6000613fe885828601613e1a565b9250506020613ff985828601613e1a565b9150509250929050565b60008060008060006080868803121561401b57600080fd5b600061402988828901613e1a565b955050602061403a88828901613e1a565b945050604061404b88828901613f4b565b935050606086013567ffffffffffffffff81111561406857600080fd5b61407488828901613e83565b92509250509295509295909350565b6000806040838503121561409657600080fd5b60006140a485828601613e1a565b925050602083013567ffffffffffffffff8111156140c157600080fd5b6140cd85828601613ecd565b9150509250929050565b6000602082840312156140e957600080fd5b600082013567ffffffffffffffff81111561410357600080fd5b61410f84828501613e44565b91505092915050565b60006020828403121561412a57600080fd5b600061413884828501613e6e565b91505092915050565b60006020828403121561415357600080fd5b600082015167ffffffffffffffff81111561416d57600080fd5b61417984828501613f21565b91505092915050565b6000806040838503121561419557600080fd5b600083013567ffffffffffffffff8111156141af57600080fd5b6141bb85828601613ef7565b92505060206141cc85828601613f4b565b9150509250929050565b6000602082840312156141e857600080fd5b60006141f684828501613f4b565b91505092915050565b60006020828403121561421157600080fd5b600061421f84828501613f60565b91505092915050565b6000806040838503121561423b57600080fd5b600061424985828601613f4b565b925050602061425a85828601613f4b565b9150509250929050565b600061427083836147b1565b6101008301905092915050565b60006142898383614853565b905092915050565b600061429d83836148a3565b60208301905092915050565b6142b2816150dd565b82525050565b6142c1816150dd565b82525050565b60006142d282614f0a565b6142dc8185614f68565b93506142e783614eda565b8060005b838110156143185781516142ff8882614264565b975061430a83614f41565b9250506001810190506142eb565b5085935050505092915050565b600061433082614f15565b61433a8185614f79565b93508360208202850161434c85614eea565b8060005b858110156143885784840389528151614369858261427d565b945061437483614f4e565b925060208a01995050600181019050614350565b50829750879550505050505092915050565b60006143a582614f20565b6143af8185614f8a565b93506143ba83614efa565b8060005b838110156143eb5781516143d28882614291565b97506143dd83614f5b565b9250506001810190506143be565b5085935050505092915050565b614401816150ef565b82525050565b614410816150ef565b82525050565b61441f816150fb565b82525050565b600061443082614f2b565b61443a8185614f9b565b935061444a8185602086016151c7565b80840191505092915050565b61445f8161515e565b82525050565b61446e81615182565b82525050565b61447d816151a6565b82525050565b600061448e82614f36565b6144988185614fa6565b93506144a88185602086016151c7565b6144b18161532b565b840191505092915050565b60006144c782614f36565b6144d18185614fb7565b93506144e18185602086016151c7565b6144ea8161532b565b840191505092915050565b6000614502601983614fb7565b915061450d8261533c565b602082019050919050565b6000614525600f83614fb7565b915061453082615365565b602082019050919050565b6000614548602483614fb7565b91506145538261538e565b604082019050919050565b600061456b602f83614fb7565b9150614576826153dd565b604082019050919050565b600061458e602683614fb7565b91506145998261542c565b604082019050919050565b60006145b1602483614fb7565b91506145bc8261547b565b604082019050919050565b60006145d4602c83614fb7565b91506145df826154ca565b604082019050919050565b60006145f7601383614fb7565b915061460282615519565b602082019050919050565b600061461a601883614fb7565b915061462582615542565b602082019050919050565b600061463d602c83614fb7565b91506146488261556b565b604082019050919050565b6000614660602e83614fb7565b915061466b826155ba565b604082019050919050565b6000614683601a83614fb7565b915061468e82615609565b602082019050919050565b60006146a6602d83614fb7565b91506146b182615632565b604082019050919050565b60006146c9602083614fb7565b91506146d482615681565b602082019050919050565b60006146ec601683614fb7565b91506146f7826156aa565b602082019050919050565b600061470f602683614fb7565b915061471a826156d3565b604082019050919050565b6000614732601d83614fb7565b915061473d82615722565b602082019050919050565b6000614755601c83614fb7565b91506147608261574b565b602082019050919050565b6000614778601f83614fb7565b915061478382615774565b602082019050919050565b600061479b601c83614fb7565b91506147a68261579d565b602082019050919050565b610100820160008201516147c860008501826148a3565b5060208201516147db60208501826148a3565b5060408201516147ee60408501826142a9565b50606082015161480160608501826142a9565b50608082015161481460808501826148a3565b5060a082015161482760a08501826143f8565b5060c082015161483a60c08501826143f8565b5060e082015161484d60e08501826148a3565b50505050565b600060608301600083015161486b60008601826148a3565b50602083015161487e60208601826142a9565b50604083015184820360408601526148968282614483565b9150508091505092915050565b6148ac81615147565b82525050565b6148bb81615147565b82525050565b60006148cd8284614425565b915081905092915050565b60006020820190506148ed60008301846142b8565b92915050565b600060608201905061490860008301866142b8565b61491560208301856142b8565b61492260408301846148b2565b949350505050565b600060808201905061493f60008301876142b8565b818103602083015261495181866144bc565b905061496060408301856148b2565b61496d6060830184614474565b95945050505050565b600060408201905061498b60008301856142b8565b61499860208301846148b2565b9392505050565b60006080820190506149b460008301876142b8565b6149c160208301866148b2565b6149ce6040830185614407565b6149db60608301846148b2565b95945050505050565b600060208201905081810360008301526149fe81846142c7565b905092915050565b60006020820190508181036000830152614a208184614325565b905092915050565b60006020820190508181036000830152614a42818461439a565b905092915050565b6000602082019050614a5f6000830184614416565b92915050565b6000602082019050614a7a6000830184614456565b92915050565b6000602082019050614a956000830184614465565b92915050565b60006020820190508181036000830152614ab581846144bc565b905092915050565b60006020820190508181036000830152614ad6816144f5565b9050919050565b60006020820190508181036000830152614af681614518565b9050919050565b60006020820190508181036000830152614b168161453b565b9050919050565b60006020820190508181036000830152614b368161455e565b9050919050565b60006020820190508181036000830152614b5681614581565b9050919050565b60006020820190508181036000830152614b76816145a4565b9050919050565b60006020820190508181036000830152614b96816145c7565b9050919050565b60006020820190508181036000830152614bb6816145ea565b9050919050565b60006020820190508181036000830152614bd68161460d565b9050919050565b60006020820190508181036000830152614bf681614630565b9050919050565b60006020820190508181036000830152614c1681614653565b9050919050565b60006020820190508181036000830152614c3681614676565b9050919050565b60006020820190508181036000830152614c5681614699565b9050919050565b60006020820190508181036000830152614c76816146bc565b9050919050565b60006020820190508181036000830152614c96816146df565b9050919050565b60006020820190508181036000830152614cb681614702565b9050919050565b60006020820190508181036000830152614cd681614725565b9050919050565b60006020820190508181036000830152614cf681614748565b9050919050565b60006020820190508181036000830152614d168161476b565b9050919050565b60006020820190508181036000830152614d368161478e565b9050919050565b6000602082019050614d5260008301846148b2565b92915050565b6000606082019050614d6d60008301866148b2565b614d7a6020830185614407565b614d8760408301846148b2565b949350505050565b6000604082019050614da460008301856148b2565b614db160208301846148b2565b9392505050565b600060e082019050614dcd600083018a6148b2565b614dda60208301896148b2565b614de760408301886142b8565b614df460608301876142b8565b614e0160808301866142b8565b614e0e60a08301856148b2565b614e1b60c08301846148b2565b98975050505050505050565b6000614e31614e42565b9050614e3d8282615224565b919050565b6000604051905090565b600067ffffffffffffffff821115614e6757614e666152fc565b5b602082029050602081019050919050565b600067ffffffffffffffff821115614e9357614e926152fc565b5b614e9c8261532b565b9050602081019050919050565b600067ffffffffffffffff821115614ec457614ec36152fc565b5b614ecd8261532b565b9050602081019050919050565b6000819050602082019050919050565b6000819050602082019050919050565b6000819050602082019050919050565b600081519050919050565b600081519050919050565b600081519050919050565b600081519050919050565b600081519050919050565b6000602082019050919050565b6000602082019050919050565b6000602082019050919050565b600082825260208201905092915050565b600082825260208201905092915050565b600082825260208201905092915050565b600081905092915050565b600082825260208201905092915050565b600082825260208201905092915050565b6000614fd382615147565b9150614fde83615147565b9250827fffffffffffffffffffffffffffffffffffffffffffffffffffffffffffffffff038211156150135761501261529e565b5b828201905092915050565b600061502982615147565b915061503483615147565b925082615044576150436152cd565b5b828204905092915050565b600061505a82615147565b915061506583615147565b9250817fffffffffffffffffffffffffffffffffffffffffffffffffffffffffffffffff048311821515161561509e5761509d61529e565b5b828202905092915050565b60006150b482615147565b91506150bf83615147565b9250828210156150d2576150d161529e565b5b828203905092915050565b60006150e882615127565b9050919050565b60008115159050919050565b60007fffffffff0000000000000000000000000000000000000000000000000000000082169050919050565b600073ffffffffffffffffffffffffffffffffffffffff82169050919050565b6000819050919050565b600060ff82169050919050565b600061516982615170565b9050919050565b600061517b82615127565b9050919050565b600061518d82615194565b9050919050565b600061519f82615127565b9050919050565b60006151b182615151565b9050919050565b82818337600083830152505050565b60005b838110156151e55780820151818401526020810190506151ca565b838111156151f4576000848401525b50505050565b600061520582615147565b915060008214156152195761521861529e565b5b600182039050919050565b61522d8261532b565b810181811067ffffffffffffffff8211171561524c5761524b6152fc565b5b80604052505050565b600061526082615147565b91507fffffffffffffffffffffffffffffffffffffffffffffffffffffffffffffffff8214156152935761529261529e565b5b600182019050919050565b7f4e487b7100000000000000000000000000000000000000000000000000000000600052601160045260246000fd5b7f4e487b7100000000000000000000000000000000000000000000000000000000600052601260045260246000fd5b7f4e487b7100000000000000000000000000000000000000000000000000000000600052604160045260246000fd5b6000601f19601f8301169050919050565b7f596f7520646f206e6f74206f776e207468697320746f6b656e00000000000000600082015250565b7f53616c652077617320656e6465642e0000000000000000000000000000000000600082015250565b7f5061676520616e642073697a65206d757374206265206772656174657220746860008201527f616e203000000000000000000000000000000000000000000000000000000000602082015250565b7f45524331393637557067726164653a207570677261646520627265616b73206660008201527f7572746865722075706772616465730000000000000000000000000000000000602082015250565b7f4f776e61626c653a206e6577206f776e657220697320746865207a65726f206160008201527f6464726573730000000000000000000000000000000000000000000000000000602082015250565b7f4665652070657263656e74206d75737420626520736d616c6c6572207468616e60008201527f2031302500000000000000000000000000000000000000000000000000000000602082015250565b7f46756e6374696f6e206d7573742062652063616c6c6564207468726f7567682060008201527f64656c656761746563616c6c0000000000000000000000000000000000000000602082015250565b7f496e76616c69642073616c652073656c6c657200000000000000000000000000600082015250565b7f4661696c656420746f207472616e7366657220746f6b656e0000000000000000600082015250565b7f46756e6374696f6e206d7573742062652063616c6c6564207468726f7567682060008201527f6163746976652070726f78790000000000000000000000000000000000000000602082015250565b7f496e697469616c697a61626c653a20636f6e747261637420697320616c72656160008201527f647920696e697469616c697a6564000000000000000000000000000000000000602082015250565b7f74686973206974656d206973206e6f7420617661696c61626c65000000000000600082015250565b7f455243313936373a206e657720696d706c656d656e746174696f6e206973206e60008201527f6f74206120636f6e747261637400000000000000000000000000000000000000602082015250565b7f4f776e61626c653a2063616c6c6572206973206e6f7420746865206f776e6572600082015250565b7f4661696c656420746f207472616e736665722066656500000000000000000000600082015250565b7f416464726573733a2064656c65676174652063616c6c20746f206e6f6e2d636f60008201527f6e74726163740000000000000000000000000000000000000000000000000000602082015250565b7f42757965722069732073656c6c6572206f662074686973206974656d2e000000600082015250565b7f73657446656552656365697665723a206e756c6c206164647265737300000000600082015250565b7f5265656e7472616e637947756172643a207265656e7472616e742063616c6c00600082015250565b7f5072696365206d757374206265206174206c6561737420312077656900000000600082015250565b6157cf816150dd565b81146157da57600080fd5b50565b6157e6816150ef565b81146157f157600080fd5b50565b6157fd81615147565b811461580857600080fd5b5056fe416464726573733a206c6f772d6c6576656c2064656c65676174652063616c6c206661696c6564a2646970667358221220820e14accf4b3816ec4c7f389afc8e018c8a0ffe44b59efbd3607b35b500f54064736f6c63430008020033",
  "linkReferences": {},
  "deployedLinkReferences": {}
}